{
	"data": {
		"bytecode": {
			"linkReferences": {},
			"object": "608060405262010011805460ff60e01b1916600160e71b17905534801561002557600080fd5b50614313806100356000396000f3fe6080604052600436106100555760003560e01c80632370632b1461005a57806324af4153146100a857806364b762fa146100d85780637b370fc2146101175780637c6dfe3d146101a0578063a2e0d4c9146101b3575b600080fd5b61006d610068366004613bc0565b6101c6565b60408051600f95860b81529390940b60208401526001600160801b039182169383019390935290911660608201526080015b60405180910390f35b3480156100b457600080fd5b506100c86100c3366004613c9c565b6102b4565b604051901515815260200161009f565b6100eb6100e6366004613cc6565b6102c3565b60408051600f94850b81529290930b60208301526001600160801b03169181019190915260600161009f565b61012a610125366004613ec7565b610336565b604080518751600f90810b82526020808a015190910b90820152878201516001600160801b0390811692820192909252606097880151821697810197909752948516608087015292841660a0860152921660c08401526001600160401b0391821660e0840152166101008201526101200161009f565b61006d6101ae366004613bc0565b610395565b6100eb6101c1366004613cc6565b61045b565b6000806000806101d4613b52565b8e81600001906001600160801b031690816001600160801b0316815250508c81602001906001600160801b031690816001600160801b0316815250508b81604001906001600160801b031690816001600160801b0316815250508a81606001906001600160401b031690816001600160401b0316815250508981608001906001600160401b031690816001600160401b03168152505061028c818f8b8b8b8b60008054906101000a90046001600160a01b03166104b6565b80955081965050508060400151915080602001519250509a509a509a509a9650505050505050565b61ffff81166005145b92915050565b60008060006102d0613b52565b6001600160801b03808c1682528a81166020830152891660408201526001600160401b0380891660608301528716608082015260005461031e908290889088906001600160a01b031661052c565b602090920151909c919b509950975050505050505050565b6040805160808101825260008082526020820181905291810182905260608101829052908080808061036b868b8b8b8b61057e565b50508751602089015160408a015160608b01516080909b0151969b929a9199509750955092505050565b6000806000806103a3613b52565b8e81600001906001600160801b031690816001600160801b0316815250508c81602001906001600160801b031690816001600160801b0316815250508b81604001906001600160801b031690816001600160801b0316815250508a81606001906001600160401b031690816001600160401b0316815250508981608001906001600160401b031690816001600160401b03168152505061028c818f8b8b8b8b60008054906101000a90046001600160a01b03166106bc565b6000806000610468613b52565b6001600160801b03808c1682528a81166020830152891660408201526001600160401b0380891660608301528716608082015260005461031e908290889088906001600160a01b0316610738565b60008060006104de858a8a8a6104d48b6001600160801b031661078b565b8f6080015161081e565b90506104ee84868a8a8a86610866565b6104fc85898989858961088a565b60008061050b8c898c8c610953565b915091506105198282610987565b909d909c509a5050505050505050505050565b60008060006105418486888a606001516109ba565b90506105538582896060015187610a3f565b6000806105608984610a50565b9150915061056e8282610987565b909a909950975050505050505050565b81516105a75781608001516001600160801b031684600001516001600160801b031610156105c6565b81608001516001600160801b031684600001516001600160801b031611155b6105fc5760405162461bcd60e51b815260206004820152600260248201526114d160f21b60448201526064015b60405180910390fd5b60015b80156106b45760008061061b8460200151866000015188610a87565b855191935091506106329088908a90889086610acd565b61063c8786610b64565b925082156106ad57801561069357600061065f8560200151848860000151610bd4565b92839150600282810b91900b1480610690578551610683908a908c908a9088610acd565b61068d8988610b64565b94505b50505b82156106ad576106aa888389888860200151610c8b565b95505b50506105ff565b505050505050565b60008060006106e4858a8a8a6106da8b6001600160801b031661078b565b8f60800151610d1f565b905060006106f685878b8b8b87610d79565b9050610706868a8a8a868a610dbb565b6000806107168d8a858e8e610e0d565b915091506107248282610e3c565b955095505050505097509795505050505050565b600080600061074d8486888a60600151610e75565b905061075f8582896060015187610f19565b60008061076c8984610f2e565b9150915061077a8282610e3c565b945094505050505b94509492505050565b6000600a82901c6e3fffffffffffffffffffffffffffff8116906ffffffffffffffffffffffffffffffc00841690600116158080156107d25750846001600160801b031682145b80156107e457506001600160601b0383105b6108155760405162461bcd60e51b8152602060048201526002602482015261119160f21b60448201526064016105f3565b50909392505050565b600061082c87878785610f64565b61083887878685610f64565b610843878685610fdc565b61084e878585611025565b61085b8787878786611084565b979650505050505050565b6000610874878787876110b2565b9050610881818484611112565b50505050505050565b6000546001600160a01b038281169116146106b4576000805460405163046282db60e41b81526001600160a01b03848116926346282db0926108dc92909116908b908b908b908b908b90600401613fe3565b6020604051808303816000875af11580156108fb573d6000803e3d6000fd5b505050506040513d601f19601f8201168201806040525081019061091f919061402c565b9050806108815760405162461bcd60e51b815260206004820152600260248201526104c560f41b60448201526064016105f3565b600080600080600061096b89600001518989896111d3565b92509250925061097c89898361128f565b61077a8383836112b0565b60008061099c846001600160801b0316611316565b6109ae846001600160801b0316611316565b915091505b9250929050565b6000806109c78686611335565b90506109dc6001600160801b0385168461135d565b81549092506109f4906001600160801b03168361139b565b81546001600160801b0319166001600160801b0391909116178155610a176113b7565b815463ffffffff91909116600160801b0263ffffffff60801b19909116179055949350505050565b6000806106b486838388888861088a565b600080600080610a6086866113d6565b91509150610a6e868661142f565b610a7a828260016112b0565b9350935050509250929050565b6000806000610a968685611449565b90506000610aa8600286900b8761146f565b9050600285900b60081d610abe878383866114ab565b90999098509650505050505050565b6000610ae282856080015186600001516114fa565b90506000806000610afe898860600151888a6020015188611563565b60208a01519295509093509150610b199089908585856115af565b610b3289886020015189600001518a6060015188611608565b6001600160801b031660608a015260208901519194509250610b59908990858560006115af565b505050505050505050565b6000808260000151610b925782608001516001600160801b031684600001516001600160801b031611610bb0565b82608001516001600160801b031684600001516001600160801b0316105b9050808015610bcc5750600083606001516001600160801b0316115b949350505050565b6000818015610be95750600283900b627fffff145b15610bf85750627fffff610c84565b81158015610c0d5750600283900b627fffff19145b15610c1d5750627fffff19610c84565b600080610c2a8585611681565b91509150600080610c3d888585896116b9565b9150915080610c5157509250610c84915050565b610c5d88858589611725565b909250905080610c7257509250610c84915050565b610c7d8885886117a2565b9450505050505b9392505050565b6000610c96856117c2565b610ca1575083610d16565b610cb184868560000151856117e5565b6000806000610cd98660200151876000015188606001518a61186d909392919063ffffffff16565b91945092509050610ceb898484611901565b6060860180518290036001600160801b031690528551610d0e5760018803610d10565b875b93505050505b95945050505050565b600080610d2d888786611938565b90506000610d3c8987876119c1565b9050610d4b8989898988611084565b92508115610d5d57610d5d8988611a3f565b8015610d6d57610d6d8987611a3f565b50509695505050505050565b600080610d88888888886110b2565b8054909150610da490600160c01b900463ffffffff1688611a90565b610daf818585611b19565b98975050505050505050565b6000546001600160a01b038281169116146106b457600080546040516378f4de3160e11b81526001600160a01b038481169263f1e9bc62926108dc92909116908b908b908b908b908b90600401613fe3565b600080610e1c87878686611bd9565b9092509050610e2e8282898989611c1e565b909890975095505050505050565b600080610e51846001600160801b0316611316565b610e5a9061405f565b610e6c846001600160801b0316611316565b6109ae9061405f565b600080610e828686611335565b9050610e976001600160801b0385168461135d565b81549092506001600160801b0390811690831610610ece5780546001600160a01b0319811682556001600160801b03169150610f10565b805482908290600090610eeb9084906001600160801b0316614085565b92506101000a8154816001600160801b0302191690836001600160801b031602179055505b50949350505050565b610f2884600080868686610dbb565b50505050565b600080610f3b84846113d6565b90925090506109b384610f566001600160801b038616611316565b610f5f9061405f565b611ca6565b6000610f708584611cd3565b80549091506001600160601b0316158015610f9a57508054600160601b90046001600160601b0316155b15610fd5578360020b8360020b12610fcb5780546001600160c01b0316600160c01b6001600160401b038416021781555b610fd58584611d26565b5050505050565b6000610fe88484611cd3565b80549091506001600160601b031660006110028285611dae565b83546001600160601b0319166001600160601b0391909116179092555050505050565b60006110318484611cd3565b8054909150600160601b90046001600160601b031660006110528285611dae565b83546001600160601b03909116600160601b026bffffffffffffffffffffffff60601b19909116179092555050505050565b60008061109387868886611dca565b905060006110a388868987611dca565b91909103979650505050505050565b6040805160609590951b6001600160601b031916602080870191909152603486019490945260e892831b6054860152911b60578401528051603a818503018152605a909301815282519282019290922060009081526201000d9091522090565b82546001600160801b03166000811561113d57508354600160801b90046001600160401b0316611141565b5060005b60006111566001600160801b0384168661139b565b9050600061116f6001600160401b038616878587611e25565b9050600061117b6113b7565b885463ffffffff909116600160c01b0263ffffffff60c01b196001600160401b03909416600160801b026001600160c01b03199092166001600160801b03909516949094171791909116919091179095555050505050565b60008060008060006111e58787611ec2565b91509150816001600160801b0316896001600160801b0316101561121e576112176001600160801b0389168383611f1d565b9350611283565b806001600160801b0316896001600160801b0316106112525761124b6001600160801b0389168383611f56565b9450611283565b6112666001600160801b0389168a83611f1d565b935061127c6001600160801b038916838b611f56565b9450600192505b50509450945094915050565b6112ab836112a5846001600160801b0316611316565b83611f8c565b505050565b6000806000856001600160801b031611806112c85750825b6112d35760006112de565b6112de6004866140a5565b6000856001600160801b031611806112f35750835b6112fe576000611309565b6113096004866140a5565b915091505b935093915050565b60006001607f1b826001600160801b03161061133157600080fd5b5090565b60006201000e60006113478585611fbd565b8152602001908152602001600020905092915050565b6000600160301b600160301b600160b01b03603085901b16826001600160401b03851683018281611390576113906140c5565b049695505050505050565b8082016001600160801b0380841690821610156102bd57600080fd5b60004263ffffffff8111156113d15763ffffffff91505090565b919050565b60008060006113e9848660600151612000565b8551909150611412906001600160801b0380841691160260401c5b6001600160c01b031661203f565b925061142561140482876000015161205e565b9150509250929050565b61144582610f5f836001600160801b0316611316565b5050565b600080611456848461209e565b6000908152620100076020526040902054949350505050565b60008061147b846120e9565b905060008361148b57600061148e565b60015b60ff1690508061149e83866120f7565b60ff160195945050505050565b60008080806114bb85888a61210e565b915091506114ca88828761214c565b9250826114e357600886901b60020b60ff8316016114ed565b6114ed888761217f565b9350505094509492505050565b6000806115088585856121e6565b9050620100026001600160801b038216101561152a5762010002915050610c84565b6f0ffff5433e2b3d8211706e6102aa94726001600160801b03821610610bcc57506f0ffff5433e2b3d8211706e6102aa94719050610c84565b60008060008060006115818a8a8a602001518b604001518b8b612289565b90925090506115918a83896122c7565b61159c828289612330565b9450945094505050955095509592505050565b6115ba858484611901565b83156115e35780856060018181516115d291906140a5565b6001600160801b0316905250610fd5565b80856040018181516115f591906140a5565b6001600160801b03169052505050505050565b600080808061161989878a88612376565b90506001600160801b038087169082161080156116545761163d8a878b8b8b6123af565b9196509450925061164f8a84886123fd565b611674565b6116618a838b8b8b61244e565b919650945092506116748a848a89612488565b5050955095509592505050565b60008060008361169b576116966001866140db565b61169d565b845b90506116ab8160020b6124fd565b92506114258160020b612514565b60008060006201000760006116cf898989612530565b815260208101919091526040016000908120549150806116f083828861210e565b91509150801561170a576000600194509450505050610782565b61171588888461258e565b9960009950975050505050505050565b600080600062010006600061173a89896125b7565b8152602001908152602001600020549050600061175786866120f7565b905060008061176a8460ff85168961210e565b91509150801561178557600060019550955050505050610782565b6117918a8a848a6116b9565b955095505050505094509492505050565b6000816117b8576117b384846125cb565b610bcc565b610bcc848461261b565b6000627fffff19600283900b1380156102bd575050627fffff60029190910b1290565b6000806117f88386868960800151612665565b60408801519193509150611815906001600160801b03168361273a565b6001600160801b0316604087015280156106b457600061183b8487878a6080015161278c565b6040880151909150611856906001600160801b03168261273a565b6001600160801b0316604088015250505050505050565b60008060008061188761187f89612881565b8951896128a6565b9050806001600160801b0316856001600160801b0316116118cf5760405162461bcd60e51b8152602060048201526002602482015261109160f21b60448201526064016105f3565b85156118ec576118e0888883612908565b935093509350506118f7565b6118e0888883612980565b9450945094915050565b81836000018181516119139190614100565b600f0b90525060208301805182919061192d908390614100565b600f0b905250505050565b6000806119458585611cd3565b80549091506001600160601b0316600061195f82866129e8565b83546001600160601b0319166001600160601b038216908117855590915015801561199957508254600160601b90046001600160601b0316155b156119b4576119a887876129f4565b60019350505050610c84565b5060009695505050505050565b6000806119ce8585611cd3565b8054909150600160601b90046001600160601b031660006119ef82866129e8565b83546bffffffffffffffffffffffff60601b1916600160601b6001600160601b038316908102919091178555909150158015611999575082546001600160601b03166119b4576119a887876129f4565b6201000260008383604051602001611a6492919091825260e81b602082015260230190565b60408051601f198184030181529181528151602092830120835290820192909252016000908120555050565b600a600083611a9d6113b7565b611aa79190614136565b90506000611ab58383614153565b905060ff63ffffffff821611610fd5576000848152620100096020526040902054600160301b900460ff1663ffffffff82161015610fd55760405162461bcd60e51b81526020600482015260016024820152602560f91b60448201526064016105f3565b82546000906001600160801b031681611b328286612a7d565b8654909150611b54906001600160401b0386811691600160801b900416612a89565b92506001600160801b03811615611bc1578554600160e01b900460ff1615611ba35760405162461bcd60e51b815260206004820152600260248201526127a960f11b60448201526064016105f3565b85546001600160801b0319166001600160801b038216178655611bd0565b85546001600160e81b03191686555b50509392505050565b6000806000611bee87600001518787876111d3565b91945092509050611c1487611c0b6001600160801b038916611316565b6112a59061405f565b5094509492505050565b6000806001600160401b03831615611c9b576000611c5b6001600160801b0386166001600160401b0386160260301c6001600160901b0316612afa565b90506001600160801b03811615611c9957600080611c798884610f2e565b9092509050611c88828b6140a5565b9950611c94818a6140a5565b985050505b505b509495939450505050565b6020820151611cbe906001600160801b03168261273a565b6001600160801b031660209092019190915250565b60006201000260008484604051602001611cfa92919091825260e81b602082015260230190565b604051602081830303815290604052805190602001208152602001908152602001600020905092915050565b6000611d348260020b612514565b60ff166001901b90506000611d4b8360020b6120e9565b60ff166001901b905081620100066000611d658787612b19565b81526020019081526020016000206000828254179250508190555080620100076000611d91878761209e565b815260208101919091526040016000208054909117905550505050565b8082016001600160601b0380841690821610156102bd57600080fd5b600080611dd78686611cd3565b90508360020b8560020b1315611e08578054611e0390600160c01b90046001600160401b031684614176565b611e1b565b8054600160c01b90046001600160401b03165b9695505050505050565b6000816001600160801b0316600003611e3f575083610bcc565b836001600160801b0316600003611e57575081610bcc565b826001600160401b0316856001600160401b031603611e77575083610bcc565b6000611e8d8686611e8886826140a5565b612b45565b90506000611ea08585611e88818a6140a5565b9050611ead816001614196565b611eb8836001614196565b61085b9190614196565b6000808360020b8360020b13611ed757600080fd5b620a276d19600285900b1215611eec57600080fd5b620cb14a600284900b1315611f0057600080fd5b611f0984612b7c565b9150611f1483612b7c565b90509250929050565b6000826001600160801b0316826001600160801b03161115611f4b57611f44848385612ea2565b9050610c84565b611f44848484612ea2565b600080826001600160801b0316846001600160801b031611611f7a57838303611f7e565b8284035b9050610d1685826001612efe565b80156112ab576040830151611faa906001600160801b03168361273a565b6001600160801b03166040840152505050565b6040516001600160601b0319606084901b166020820152603481018290526000906054015b60405160208183030381529060405280519060200120905092915050565b6000600160301b6001600160801b038085166001600160401b03851683010290603082901c90811115610d16576001600160801b0393505050506102bd565b806001600160801b0381166001600160c01b038216146113d157600080fd5b60006001600160801b03821677ffffffffffffffffffffffffffffffff0000000000000000604085901b1681612096576120966140c5565b049392505050565b600080600283900b60081d905083816040516020016120ca92919091825260f01b602082015260220190565b6040516020818303038152906040528051906020012091505092915050565b60006102bd610100836141b6565b600081612107578260ff03610c84565b5090919050565b60008061211c858585612f37565b94505083158061130e57826121395761213485612f5b565b612142565b61214285612ff6565b9150935093915050565b6000831561215b575081610c84565b600061216783826130df565b9050806121745783610d16565b506000949350505050565b600082156121d95761219083613112565b60010b8260010b146121c9576121c46121aa8360016141d8565b6121b4851561312b565b60ff1660089190911b60020b0190565b6121d2565b6121d283613141565b90506102bd565b600882901b60020b6121d2565b6000620a276d19600285900b1315806122065750620cb14a600285900b12155b15612212575081610c84565b811561225357600160008161222687612b7c565b039050846001600160801b0316816001600160801b031610612248578461224a565b805b92505050610c84565b600061225e85612b7c565b9050836001600160801b0316816001600160801b03161161227f5783612281565b805b915050610c84565b600080806122998989878761315c565b9050610100620f42406001600160801b03831661ffff8a16020460ff8816810291909104908190039061056e565b60006122d284612881565b9050806001600160801b03166000036122eb5750505050565b83518215906000906123009084908785613195565b9050600061231484886000015184866131d3565b90506001600160401b03811615610881576108818782856131ed565b6000808085850184156123565761234f816001600160801b0316611316565b925061236b565b612368816001600160801b0316611316565b93505b509195909450915050565b6000806123848685856132b1565b9050846001600160801b0316816001600160801b0316116123a55780611e1b565b5092949350505050565b60008060008060006123c28a8a8a6132e7565b915091506000806123d584848c8c613355565b915091506123e88c8b8b8b8f878761338c565b96509650965050505050955095509592505050565b82516001600160801b0390811681831614908316151581801561241d5750805b610fd55760405162461bcd60e51b8152602060048201526002602482015261052560f41b60448201526064016105f3565b60008060008060006124628a8a8a8a613409565b915091506000806124758b858c8c613471565b915091506123e88c8b8b8b87878761338c565b6000826124a45784516001600160801b038084169116116124b5565b84516001600160801b038084169116105b90506001600160801b038416158180156124cc5750805b6106b45760405162461bcd60e51b8152602060048201526002602482015261292360f11b60448201526064016105f3565b60006102bd61250f8360020b60101d90565b613490565b60006101006125268360020b60081d90565b6102bd91906141fb565b60008061254d61253f856134b0565b60081b60010b60ff85160190565b9050848160405160200161256e92919091825260f01b602082015260220190565b604051602081830303815290604052805190602001209150509392505050565b6000610bcc61259c856134b0565b60101b60020b61ff00600886901b1660030b0160ff84160190565b6000610c84836125c6846134b0565b6134d1565b600060ff60001983015b60ff8160ff161015612610576000806125f18784866000611725565b9150915080612605575092506102bd915050565b5050600019016125d5565b50610bcc6000613141565b600080600183015b60ff81161561265a5760008061263c8784866001611725565b9150915080612650575092506102bd915050565b5050600101612623565b50610bcc6001613141565b60008060006126748787611cd3565b8054909150600090612699906001600160601b0380821691600160601b9004166134f2565b9050856126ae576126a98161405f565b6126b0565b805b82549094506001600160401b03868116600160c01b909204161461270d5781546126ea90600160c01b90046001600160401b031686614176565b82546001600160401b0391909116600160c01b026001600160c01b039091161782555b8561271e578154600116151561272d565b8154600160601b900460011615155b9250505094509492505050565b60008082600f0b121561276857508082016001600160801b038084169082161061276357600080fd5b6102bd565b826001600160801b03168284019150816001600160801b031610156102bd57600080fd5b610dad546000906001600160a01b03166127a557600080fd5b6000806001610dac015460405160248101899052600288900b604482015286151560648201526001600160401b03861660848201526001600160a01b039091169060a40160408051601f198184030181529181526020820180516001600160e01b0316633c05c62160e01b1790525161281e919061421d565b600060405180830381855af49150503d8060008114612859576040519150601f19603f3d011682016040523d82523d6000602084013e61285e565b606091505b50915091508161286d57600080fd5b8080602001905181019061085b919061424c565b60008061289683602001518460600151612000565b9050610c8481846040015161139b565b600081156128c5575060016001600160401b03604085901c1601610c84565b60006128d4856001860361205e565b905060006128e2868661205e565b905080820360016001600160c01b038216016128fd8161350e565b945050505050610c84565b600080600060016f0ffff5433e2b3d8211706e6102aa9472036001600160801b031686600001516001600160801b0316101561294f5785516001016001600160801b031686525b60009150612965846001600160801b0316611316565b925084612973576000612975565b835b905093509350939050565b6000806000620100026001600160801b031686600001516001600160801b031611156129b8578551600019016001600160801b031686525b600092506129ce846001600160801b0316611316565b9150846129db5783612975565b6000905093509350939050565b6000610c84828461426f565b6000612a028260020b612514565b60ff166001901b1990506000612a1a8360020b6120e9565b60ff166001901b1990506000612a30858561209e565b6000818152620100076020526040812080548516908190559192508190036106b4576000612a5e8787612b19565b6000908152620100066020526040902080548616905550505050505050565b6000610c848284614085565b60006002612a978184614196565b6001600160401b0316846001600160401b03161115612acd5780612abb8486614176565b612ac59190614176565b9150506102bd565b60009150506102bd565b5092915050565b6001600160401b03166001600160801b03919091160260301c90565b806001600160801b0381166001600160901b038216146113d157600080fd5b600080600283900b60101d905083816040516020016120ca92919091825260f81b602082015260210190565b6000816001600160801b0316836001600160801b0316856001600160401b03160281612b7357612b736140c5565b04949350505050565b6000620a276d19600283900b12801590612b9d5750620cb14a600283900b13155b612ba657600080fd5b6000808360020b12612bbb578260020b612bc3565b8260020b6000035b9050600081600116600003612bdc57600160801b612bee565b6ffffcb933bd6fad37aa2d162d1a5940015b70ffffffffffffffffffffffffffffffffff1690506002821615612c22576ffff97272373d413259a46990580e213a0260801c5b6004821615612c41576ffff2e50f5f656932ef12357cf3c7fdcc0260801c5b6008821615612c60576fffe5caca7e10e4e61c3624eaa0941cd00260801c5b6010821615612c7f576fffcb9843d60f6159c9db58835c9266440260801c5b6020821615612c9e576fff973b41fa98c081472e6896dfb254c00260801c5b6040821615612cbd576fff2ea16466c96a3843ec78b326b528610260801c5b6080821615612cdc576ffe5dee046a99a2a811c461f1969c30530260801c5b610100821615612cfc576ffcbe86c7900a88aedcffc83b479aa3a40260801c5b610200821615612d1c576ff987a7253ac413176f2b074cf7815e540260801c5b610400821615612d3c576ff3392b0822b70005940c7a398e4b70f30260801c5b610800821615612d5c576fe7159475a2c29b7443b29c7fa6e889d90260801c5b611000821615612d7c576fd097f3bdfd2022b8845ad8f792aa58250260801c5b612000821615612d9c576fa9f746462d870fdf8a65dc1f90e061e50260801c5b614000821615612dbc576f70d869a156d2a1b890bb3df62baf32f70260801c5b618000821615612ddc576f31be135f97d08fd981231505542fcfa60260801c5b62010000821615612dfd576f09aa508b5b7a84e1c677de54f3e99bc90260801c5b62020000821615612e1d576e5d6af8dedb81196699c329225ee6040260801c5b62040000821615612e3c576d2216e584f5fa1ea926041bedfe980260801c5b62080000821615612e59576b048a170391f7dc42444e8fa20260801c5b60008460020b1315612e7a578060001981612e7657612e766140c5565b0490505b600160401b810615612e8d576001612e90565b60005b60ff16604082901c0192505050919050565b600080612eaf8385614085565b90506000612ebd868561205e565b6001600160c01b031690506000856001600160801b0316836001600160801b031683612ee9919061428f565b612ef391906142a6565b905061085b8161350e565b6000610bcc82612f2057612f12858561205e565b6001600160c01b031661350e565b6001600160801b038086169085160260401c612f12565b600081612f4d5761ffff831684811b901c610bcc565b505061ffff1690811c901b90565b6000808211612f6957600080fd5b600160801b8210612f7c57608091821c91015b600160401b8210612f8f57604091821c91015b6401000000008210612fa357602091821c91015b620100008210612fb557601091821c91015b6101008210612fc657600891821c91015b60108210612fd657600491821c91015b60048210612fe657600291821c91015b600282106113d157600101919050565b600080821161300457600080fd5b5060ff6001600160801b0382161561301f57607f1901613027565b608082901c91505b6001600160401b0382161561303f57603f1901613047565b604082901c91505b63ffffffff82161561305c57601f1901613064565b602082901c91505b61ffff82161561307757600f190161307f565b601082901c91505b60ff8216156130915760071901613099565b600882901c91505b600f8216156130ab57600319016130b3565b600482901c91505b60038216156130c557600119016130cd565b600282901c91505b60018216156113d15760001901919050565b60008060006130f3858560ff16600161210e565b915060ff16915080158015610d1657508360ff16821495945050505050565b60008161312257617fff196102bd565b617fff92915050565b6000816131395760006102bd565b60ff92915050565b60008161315257627fffff196102bd565b627fffff92915050565b83516000906001600160801b03908116908316118161317d87878787612376565b905061085b61318b88612881565b8851838589613524565b60006002816131a58787866128a6565b6131af90836142ba565b9050806001600160801b0316856001600160801b031611156119b45780850361085b565b6000806131e1868685612efe565b9050611e1b81856135fe565b82516131fa9083836136b6565b6001600160801b03168352606083015161321d906001600160401b031683613717565b6001600160401b039081166060850181905260009161323f919085169061375c565b905060006132746132668387604001516001600160801b0316612ade90919063ffffffff16565b6001600160901b031661350e565b905061328082826137a0565b856080018181516132919190614196565b6001600160401b03169052506020850180518291906115f59083906140a5565b6000806132bd85612881565b9050836132d8576132d381866000015185611f1d565b610d16565b610d1681866000015185611f56565b60008060006132f586612881565b8651909150600090613312906001600160801b0384169088611f56565b875190915060009061332f906001600160801b0385169089611f1d565b90508515613343579093509150828261334a565b9350915081835b505050935093915050565b600080613364868686866137f7565b9092509050613374600483614100565b9150613381600482614100565b905094509492505050565b60008060008061339d868b8b613876565b9050876001600160801b0316816001600160801b0316106133c157600091506133ce565b6133cb8189614085565b91505b896133d957846133db565b855b9350896133e857856133ea565b845b6001600160801b03909716909a52919994985090965092945050505050565b600080600061341787612881565b905061342a8760000151828888886138ac565b9150841561344e578651613449906001600160801b0383169084611f1d565b613465565b8651613465906001600160801b0383169084611f56565b92505094509492505050565b600080613480868686866137f7565b9092509050613381600482614100565b6000808260000b12156134a9578160000b6080016102bd565b5060800190565b600060808260ff16106134c657608082036102bd565b5060ff16607f190190565b60008282604051602001611fe292919091825260f81b602082015260210190565b60006134fd82613936565b61350684613936565b039392505050565b806001600160801b03811681146113d157600080fd5b6000856001600160801b031660000361353f57506000610d16565b600061354d87878515612efe565b6001600160801b031690506000613565888886612efe565b6001600160801b0316905060008415158615151461358e57866001600160801b0316820361359b565b866001600160801b031682015b9050806000036135b7576001600160801b039350505050610d16565b6000816001600160801b038b168002816135d3576135d36140c5565b0490506135f08482116135e85781850361350e565b84820361350e565b9a9950505050505050505050565b60006001600160801b03831615806136275750826001600160801b0316826001600160801b0316115b15613634575060006102bd565b600061364083856140a5565b905060006136576001600160801b03831686613952565b905061366b816001600160401b03166139d5565b9250600160301b836001600160401b0316106136ae5760405162461bcd60e51b815260206004820152600260248201526124a360f11b60448201526064016105f3565b505092915050565b6000600160301b6001600160401b038416810183156136ec576001600160801b0386168102603081901c6128fd6001820161350e565b600160301b600160b01b03603087901b1681818161370c5761370c6140c5565b049350505050610c84565b6000600160301b6001600160401b03848116820181851683010290603082901c9065ffffffffffff198201908110611e1b576001600160401b039450505050506102bd565b6000600160301b6001600160401b03831681016dffffffffffffffff000000000000603086901b1683828281613794576137946140c5565b04979650505050505050565b6000816001600160801b03166000036137bb575060006102bd565b6137c68260016140a5565b6001600160801b0316826001600160801b0316846001600160401b03166137ed919061428f565b610c8491906142a6565b6000808215158415150361383c57613817866001600160801b0316611316565b613829866001600160801b0316611316565b6138329061405f565b9092509050610782565b61384e866001600160801b0316611316565b6138579061405f565b613869866001600160801b0316611316565b9097909650945050505050565b600080821515841515146138925761388d8561405f565b613894565b845b9050600081600f0b1215610bcc576000915050610c84565b600080836138c5576138c087878786613a14565b6138d1565b6138d187878786613a72565b90506f0ffff5433e2b3d8211706e6102aa94726001600160801b038216106139165761390e60016f0ffff5433e2b3d8211706e6102aa9472614085565b915050610d16565b620100026001600160801b0382161015611e1b5762010002915050610d16565b6000600a82901b6d03fffffffffffffffffffffff800166102bd565b60006001600160d01b036001600160801b0384161080156139855750816001600160801b0316836001600160801b031610155b61398e57600080fd5b600160301b600160301b600160b01b03603085901b166000826001600160801b03861683816139bf576139bf6140c5565b04039050828110610d16578293505050506102bd565b6000600160301b826001600160401b0316106139f057600080fd5b506001600160401b038116800260331c60019190911c677fffffffffffffff160390565b600080613a2086613b1c565b90506000613a318287878715613a72565b9050806001600160801b0316600003613a5e576f0ffff5433e2b3d8211706e6102aa947292505050610bcc565b613a6781613b1c565b61085b9060016140a5565b6000836001600160801b0316600003613a9357506001600160801b03610bcc565b6000613a9f848661205e565b90506001600160801b036001600160c01b0382161115613ac9576001600160801b03915050610bcc565b808315613ae357613ada81886140a5565b92505050610bcc565b866001600160801b0316816001600160801b031610613b0757600092505050610bcc565b613b128160016140a5565b613ada9088614085565b600080826001600160801b0316600160801b81613b3b57613b3b6140c5565b0490506001600160801b038111156102bd57600080fd5b6040805160a08101825260008082526020820181905291810182905260608101829052608081019190915290565b80356001600160801b03811681146113d157600080fd5b8035600281900b81146113d157600080fd5b80356001600160401b03811681146113d157600080fd5b6000806000806000806000806000806101408b8d031215613be057600080fd5b613be98b613b80565b9950613bf760208c01613b97565b9850613c0560408c01613b80565b9750613c1360608c01613b80565b9650613c2160808c01613ba9565b9550613c2f60a08c01613ba9565b9450613c3d60c08c01613b97565b9350613c4b60e08c01613b97565b9250613c5a6101008c01613b80565b91506101208b013590509295989b9194979a5092959850565b80356001600160a01b03811681146113d157600080fd5b803561ffff811681146113d157600080fd5b60008060408385031215613caf57600080fd5b613cb883613c73565b9150611f1460208401613c8a565b600080600080600080600060e0888a031215613ce157600080fd5b613cea88613b80565b9650613cf860208901613b80565b9550613d0660408901613b80565b9450613d1460608901613ba9565b9350613d2260808901613ba9565b9250613d3060a08901613b80565b915060c0880135905092959891949750929550565b604051606081016001600160401b0381118282101715613d7557634e487b7160e01b600052604160045260246000fd5b60405290565b60405160e081016001600160401b0381118282101715613d7557634e487b7160e01b600052604160045260246000fd5b60405160a081016001600160401b0381118282101715613d7557634e487b7160e01b600052604160045260246000fd5b8015158114613de957600080fd5b50565b803560ff811681146113d157600080fd5b6000818303610120811215613e1157600080fd5b613e19613d45565b915060e0811215613e2957600080fd5b50613e32613d7b565b613e3b83613dec565b8152613e4960208401613c8a565b6020820152613e5a60408401613dec565b6040820152613e6b60608401613c8a565b6060820152613e7c60808401613dec565b6080820152613e8d60a08401613dec565b60a0820152613e9e60c08401613dec565b60c0820152815260e08201356020820152613ebc6101008301613c73565b604082015292915050565b600080600080848603610280811215613edf57600080fd5b60a0811215613eed57600080fd5b613ef5613dab565b613efe87613b80565b8152613f0c60208801613b80565b6020820152613f1d60408801613b80565b6040820152613f2e60608801613ba9565b6060820152613f3f60808801613ba9565b60808201529450613f5260a08701613b97565b935060a060bf1982011215613f6657600080fd5b50613f6f613dab565b60c0860135613f7d81613ddb565b815260e0860135613f8d81613ddb565b6020820152613f9f6101008701613dec565b6040820152613fb16101208701613b80565b6060820152613fc36101408701613b80565b60808201529150613fd8866101608701613dfd565b905092959194509250565b6001600160a01b039690961686526020860194909452600292830b6040860152910b60608401526001600160801b031660808301526001600160401b031660a082015260c00190565b60006020828403121561403e57600080fd5b8151610c8481613ddb565b634e487b7160e01b600052601160045260246000fd5b600081600f0b60016001607f1b0319810361407c5761407c614049565b60000392915050565b6001600160801b03828116828216039080821115612ad757612ad7614049565b6001600160801b03818116838216019080821115612ad757612ad7614049565b634e487b7160e01b600052601260045260246000fd5b600282810b9082900b03627fffff198112627fffff821317156102bd576102bd614049565b600f81810b9083900b0160016001607f1b0381136f7fffffffffffffffffffffffffffffff19821217156102bd576102bd614049565b63ffffffff828116828216039080821115612ad757612ad7614049565b600063ffffffff8084168061416a5761416a6140c5565b92169190910492915050565b6001600160401b03828116828216039080821115612ad757612ad7614049565b6001600160401b03818116838216019080821115612ad757612ad7614049565b60008260020b806141c9576141c96140c5565b808360020b0791505092915050565b600181810b9083900b01617fff8113617fff19821217156102bd576102bd614049565b60008260010b8061420e5761420e6140c5565b808360010b0791505092915050565b6000825160005b8181101561423e5760208186018101518583015201614224565b506000920191825250919050565b60006020828403121561425e57600080fd5b815180600f0b8114610c8457600080fd5b6001600160601b03828116828216039080821115612ad757612ad7614049565b80820281158282048414176102bd576102bd614049565b6000826142b5576142b56140c5565b500490565b6001600160801b038181168382160280821691908281146136ae576136ae61404956fea2646970667358221220c2bbad2c931ae9d9041aaffdd5a008650cc4aea180d41cd7eb71571151127b2664736f6c63430008130033",
			"opcodes": "PUSH1 0x80 PUSH1 0x40 MSTORE PUSH3 0x10011 DUP1 SLOAD PUSH1 0xFF PUSH1 0xE0 SHL NOT AND PUSH1 0x1 PUSH1 0xE7 SHL OR SWAP1 SSTORE CALLVALUE DUP1 ISZERO PUSH2 0x25 JUMPI PUSH1 0x0 DUP1 REVERT JUMPDEST POP PUSH2 0x4313 DUP1 PUSH2 0x35 PUSH1 0x0 CODECOPY PUSH1 0x0 RETURN INVALID PUSH1 0x80 PUSH1 0x40 MSTORE PUSH1 0x4 CALLDATASIZE LT PUSH2 0x55 JUMPI PUSH1 0x0 CALLDATALOAD PUSH1 0xE0 SHR DUP1 PUSH4 0x2370632B EQ PUSH2 0x5A JUMPI DUP1 PUSH4 0x24AF4153 EQ PUSH2 0xA8 JUMPI DUP1 PUSH4 0x64B762FA EQ PUSH2 0xD8 JUMPI DUP1 PUSH4 0x7B370FC2 EQ PUSH2 0x117 JUMPI DUP1 PUSH4 0x7C6DFE3D EQ PUSH2 0x1A0 JUMPI DUP1 PUSH4 0xA2E0D4C9 EQ PUSH2 0x1B3 JUMPI JUMPDEST PUSH1 0x0 DUP1 REVERT JUMPDEST PUSH2 0x6D PUSH2 0x68 CALLDATASIZE PUSH1 0x4 PUSH2 0x3BC0 JUMP JUMPDEST PUSH2 0x1C6 JUMP JUMPDEST PUSH1 0x40 DUP1 MLOAD PUSH1 0xF SWAP6 DUP7 SIGNEXTEND DUP2 MSTORE SWAP4 SWAP1 SWAP5 SIGNEXTEND PUSH1 0x20 DUP5 ADD MSTORE PUSH1 0x1 PUSH1 0x1 PUSH1 0x80 SHL SUB SWAP2 DUP3 AND SWAP4 DUP4 ADD SWAP4 SWAP1 SWAP4 MSTORE SWAP1 SWAP2 AND PUSH1 0x60 DUP3 ADD MSTORE PUSH1 0x80 ADD JUMPDEST PUSH1 0x40 MLOAD DUP1 SWAP2 SUB SWAP1 RETURN JUMPDEST CALLVALUE DUP1 ISZERO PUSH2 0xB4 JUMPI PUSH1 0x0 DUP1 REVERT JUMPDEST POP PUSH2 0xC8 PUSH2 0xC3 CALLDATASIZE PUSH1 0x4 PUSH2 0x3C9C JUMP JUMPDEST PUSH2 0x2B4 JUMP JUMPDEST PUSH1 0x40 MLOAD SWAP1 ISZERO ISZERO DUP2 MSTORE PUSH1 0x20 ADD PUSH2 0x9F JUMP JUMPDEST PUSH2 0xEB PUSH2 0xE6 CALLDATASIZE PUSH1 0x4 PUSH2 0x3CC6 JUMP JUMPDEST PUSH2 0x2C3 JUMP JUMPDEST PUSH1 0x40 DUP1 MLOAD PUSH1 0xF SWAP5 DUP6 SIGNEXTEND DUP2 MSTORE SWAP3 SWAP1 SWAP4 SIGNEXTEND PUSH1 0x20 DUP4 ADD MSTORE PUSH1 0x1 PUSH1 0x1 PUSH1 0x80 SHL SUB AND SWAP2 DUP2 ADD SWAP2 SWAP1 SWAP2 MSTORE PUSH1 0x60 ADD PUSH2 0x9F JUMP JUMPDEST PUSH2 0x12A PUSH2 0x125 CALLDATASIZE PUSH1 0x4 PUSH2 0x3EC7 JUMP JUMPDEST PUSH2 0x336 JUMP JUMPDEST PUSH1 0x40 DUP1 MLOAD DUP8 MLOAD PUSH1 0xF SWAP1 DUP2 SIGNEXTEND DUP3 MSTORE PUSH1 0x20 DUP1 DUP11 ADD MLOAD SWAP1 SWAP2 SIGNEXTEND SWAP1 DUP3 ADD MSTORE DUP8 DUP3 ADD MLOAD PUSH1 0x1 PUSH1 0x1 PUSH1 0x80 SHL SUB SWAP1 DUP2 AND SWAP3 DUP3 ADD SWAP3 SWAP1 SWAP3 MSTORE PUSH1 0x60 SWAP8 DUP9 ADD MLOAD DUP3 AND SWAP8 DUP2 ADD SWAP8 SWAP1 SWAP8 MSTORE SWAP5 DUP6 AND PUSH1 0x80 DUP8 ADD MSTORE SWAP3 DUP5 AND PUSH1 0xA0 DUP7 ADD MSTORE SWAP3 AND PUSH1 0xC0 DUP5 ADD MSTORE PUSH1 0x1 PUSH1 0x1 PUSH1 0x40 SHL SUB SWAP2 DUP3 AND PUSH1 0xE0 DUP5 ADD MSTORE AND PUSH2 0x100 DUP3 ADD MSTORE PUSH2 0x120 ADD PUSH2 0x9F JUMP JUMPDEST PUSH2 0x6D PUSH2 0x1AE CALLDATASIZE PUSH1 0x4 PUSH2 0x3BC0 JUMP JUMPDEST PUSH2 0x395 JUMP JUMPDEST PUSH2 0xEB PUSH2 0x1C1 CALLDATASIZE PUSH1 0x4 PUSH2 0x3CC6 JUMP JUMPDEST PUSH2 0x45B JUMP JUMPDEST PUSH1 0x0 DUP1 PUSH1 0x0 DUP1 PUSH2 0x1D4 PUSH2 0x3B52 JUMP JUMPDEST DUP15 DUP2 PUSH1 0x0 ADD SWAP1 PUSH1 0x1 PUSH1 0x1 PUSH1 0x80 SHL SUB AND SWAP1 DUP2 PUSH1 0x1 PUSH1 0x1 PUSH1 0x80 SHL SUB AND DUP2 MSTORE POP POP DUP13 DUP2 PUSH1 0x20 ADD SWAP1 PUSH1 0x1 PUSH1 0x1 PUSH1 0x80 SHL SUB AND SWAP1 DUP2 PUSH1 0x1 PUSH1 0x1 PUSH1 0x80 SHL SUB AND DUP2 MSTORE POP POP DUP12 DUP2 PUSH1 0x40 ADD SWAP1 PUSH1 0x1 PUSH1 0x1 PUSH1 0x80 SHL SUB AND SWAP1 DUP2 PUSH1 0x1 PUSH1 0x1 PUSH1 0x80 SHL SUB AND DUP2 MSTORE POP POP DUP11 DUP2 PUSH1 0x60 ADD SWAP1 PUSH1 0x1 PUSH1 0x1 PUSH1 0x40 SHL SUB AND SWAP1 DUP2 PUSH1 0x1 PUSH1 0x1 PUSH1 0x40 SHL SUB AND DUP2 MSTORE POP POP DUP10 DUP2 PUSH1 0x80 ADD SWAP1 PUSH1 0x1 PUSH1 0x1 PUSH1 0x40 SHL SUB AND SWAP1 DUP2 PUSH1 0x1 PUSH1 0x1 PUSH1 0x40 SHL SUB AND DUP2 MSTORE POP POP PUSH2 0x28C DUP2 DUP16 DUP12 DUP12 DUP12 DUP12 PUSH1 0x0 DUP1 SLOAD SWAP1 PUSH2 0x100 EXP SWAP1 DIV PUSH1 0x1 PUSH1 0x1 PUSH1 0xA0 SHL SUB AND PUSH2 0x4B6 JUMP JUMPDEST DUP1 SWAP6 POP DUP2 SWAP7 POP POP POP DUP1 PUSH1 0x40 ADD MLOAD SWAP2 POP DUP1 PUSH1 0x20 ADD MLOAD SWAP3 POP POP SWAP11 POP SWAP11 POP SWAP11 POP SWAP11 SWAP7 POP POP POP POP POP POP POP JUMP JUMPDEST PUSH2 0xFFFF DUP2 AND PUSH1 0x5 EQ JUMPDEST SWAP3 SWAP2 POP POP JUMP JUMPDEST PUSH1 0x0 DUP1 PUSH1 0x0 PUSH2 0x2D0 PUSH2 0x3B52 JUMP JUMPDEST PUSH1 0x1 PUSH1 0x1 PUSH1 0x80 SHL SUB DUP1 DUP13 AND DUP3 MSTORE DUP11 DUP2 AND PUSH1 0x20 DUP4 ADD MSTORE DUP10 AND PUSH1 0x40 DUP3 ADD MSTORE PUSH1 0x1 PUSH1 0x1 PUSH1 0x40 SHL SUB DUP1 DUP10 AND PUSH1 0x60 DUP4 ADD MSTORE DUP8 AND PUSH1 0x80 DUP3 ADD MSTORE PUSH1 0x0 SLOAD PUSH2 0x31E SWAP1 DUP3 SWAP1 DUP9 SWAP1 DUP9 SWAP1 PUSH1 0x1 PUSH1 0x1 PUSH1 0xA0 SHL SUB AND PUSH2 0x52C JUMP JUMPDEST PUSH1 0x20 SWAP1 SWAP3 ADD MLOAD SWAP1 SWAP13 SWAP2 SWAP12 POP SWAP10 POP SWAP8 POP POP POP POP POP POP POP POP JUMP JUMPDEST PUSH1 0x40 DUP1 MLOAD PUSH1 0x80 DUP2 ADD DUP3 MSTORE PUSH1 0x0 DUP1 DUP3 MSTORE PUSH1 0x20 DUP3 ADD DUP2 SWAP1 MSTORE SWAP2 DUP2 ADD DUP3 SWAP1 MSTORE PUSH1 0x60 DUP2 ADD DUP3 SWAP1 MSTORE SWAP1 DUP1 DUP1 DUP1 DUP1 PUSH2 0x36B DUP7 DUP12 DUP12 DUP12 DUP12 PUSH2 0x57E JUMP JUMPDEST POP POP DUP8 MLOAD PUSH1 0x20 DUP10 ADD MLOAD PUSH1 0x40 DUP11 ADD MLOAD PUSH1 0x60 DUP12 ADD MLOAD PUSH1 0x80 SWAP1 SWAP12 ADD MLOAD SWAP7 SWAP12 SWAP3 SWAP11 SWAP2 SWAP10 POP SWAP8 POP SWAP6 POP SWAP3 POP POP POP JUMP JUMPDEST PUSH1 0x0 DUP1 PUSH1 0x0 DUP1 PUSH2 0x3A3 PUSH2 0x3B52 JUMP JUMPDEST DUP15 DUP2 PUSH1 0x0 ADD SWAP1 PUSH1 0x1 PUSH1 0x1 PUSH1 0x80 SHL SUB AND SWAP1 DUP2 PUSH1 0x1 PUSH1 0x1 PUSH1 0x80 SHL SUB AND DUP2 MSTORE POP POP DUP13 DUP2 PUSH1 0x20 ADD SWAP1 PUSH1 0x1 PUSH1 0x1 PUSH1 0x80 SHL SUB AND SWAP1 DUP2 PUSH1 0x1 PUSH1 0x1 PUSH1 0x80 SHL SUB AND DUP2 MSTORE POP POP DUP12 DUP2 PUSH1 0x40 ADD SWAP1 PUSH1 0x1 PUSH1 0x1 PUSH1 0x80 SHL SUB AND SWAP1 DUP2 PUSH1 0x1 PUSH1 0x1 PUSH1 0x80 SHL SUB AND DUP2 MSTORE POP POP DUP11 DUP2 PUSH1 0x60 ADD SWAP1 PUSH1 0x1 PUSH1 0x1 PUSH1 0x40 SHL SUB AND SWAP1 DUP2 PUSH1 0x1 PUSH1 0x1 PUSH1 0x40 SHL SUB AND DUP2 MSTORE POP POP DUP10 DUP2 PUSH1 0x80 ADD SWAP1 PUSH1 0x1 PUSH1 0x1 PUSH1 0x40 SHL SUB AND SWAP1 DUP2 PUSH1 0x1 PUSH1 0x1 PUSH1 0x40 SHL SUB AND DUP2 MSTORE POP POP PUSH2 0x28C DUP2 DUP16 DUP12 DUP12 DUP12 DUP12 PUSH1 0x0 DUP1 SLOAD SWAP1 PUSH2 0x100 EXP SWAP1 DIV PUSH1 0x1 PUSH1 0x1 PUSH1 0xA0 SHL SUB AND PUSH2 0x6BC JUMP JUMPDEST PUSH1 0x0 DUP1 PUSH1 0x0 PUSH2 0x468 PUSH2 0x3B52 JUMP JUMPDEST PUSH1 0x1 PUSH1 0x1 PUSH1 0x80 SHL SUB DUP1 DUP13 AND DUP3 MSTORE DUP11 DUP2 AND PUSH1 0x20 DUP4 ADD MSTORE DUP10 AND PUSH1 0x40 DUP3 ADD MSTORE PUSH1 0x1 PUSH1 0x1 PUSH1 0x40 SHL SUB DUP1 DUP10 AND PUSH1 0x60 DUP4 ADD MSTORE DUP8 AND PUSH1 0x80 DUP3 ADD MSTORE PUSH1 0x0 SLOAD PUSH2 0x31E SWAP1 DUP3 SWAP1 DUP9 SWAP1 DUP9 SWAP1 PUSH1 0x1 PUSH1 0x1 PUSH1 0xA0 SHL SUB AND PUSH2 0x738 JUMP JUMPDEST PUSH1 0x0 DUP1 PUSH1 0x0 PUSH2 0x4DE DUP6 DUP11 DUP11 DUP11 PUSH2 0x4D4 DUP12 PUSH1 0x1 PUSH1 0x1 PUSH1 0x80 SHL SUB AND PUSH2 0x78B JUMP JUMPDEST DUP16 PUSH1 0x80 ADD MLOAD PUSH2 0x81E JUMP JUMPDEST SWAP1 POP PUSH2 0x4EE DUP5 DUP7 DUP11 DUP11 DUP11 DUP7 PUSH2 0x866 JUMP JUMPDEST PUSH2 0x4FC DUP6 DUP10 DUP10 DUP10 DUP6 DUP10 PUSH2 0x88A JUMP JUMPDEST PUSH1 0x0 DUP1 PUSH2 0x50B DUP13 DUP10 DUP13 DUP13 PUSH2 0x953 JUMP JUMPDEST SWAP2 POP SWAP2 POP PUSH2 0x519 DUP3 DUP3 PUSH2 0x987 JUMP JUMPDEST SWAP1 SWAP14 SWAP1 SWAP13 POP SWAP11 POP POP POP POP POP POP POP POP POP POP POP JUMP JUMPDEST PUSH1 0x0 DUP1 PUSH1 0x0 PUSH2 0x541 DUP5 DUP7 DUP9 DUP11 PUSH1 0x60 ADD MLOAD PUSH2 0x9BA JUMP JUMPDEST SWAP1 POP PUSH2 0x553 DUP6 DUP3 DUP10 PUSH1 0x60 ADD MLOAD DUP8 PUSH2 0xA3F JUMP JUMPDEST PUSH1 0x0 DUP1 PUSH2 0x560 DUP10 DUP5 PUSH2 0xA50 JUMP JUMPDEST SWAP2 POP SWAP2 POP PUSH2 0x56E DUP3 DUP3 PUSH2 0x987 JUMP JUMPDEST SWAP1 SWAP11 SWAP1 SWAP10 POP SWAP8 POP POP POP POP POP POP POP POP JUMP JUMPDEST DUP2 MLOAD PUSH2 0x5A7 JUMPI DUP2 PUSH1 0x80 ADD MLOAD PUSH1 0x1 PUSH1 0x1 PUSH1 0x80 SHL SUB AND DUP5 PUSH1 0x0 ADD MLOAD PUSH1 0x1 PUSH1 0x1 PUSH1 0x80 SHL SUB AND LT ISZERO PUSH2 0x5C6 JUMP JUMPDEST DUP2 PUSH1 0x80 ADD MLOAD PUSH1 0x1 PUSH1 0x1 PUSH1 0x80 SHL SUB AND DUP5 PUSH1 0x0 ADD MLOAD PUSH1 0x1 PUSH1 0x1 PUSH1 0x80 SHL SUB AND GT ISZERO JUMPDEST PUSH2 0x5FC JUMPI PUSH1 0x40 MLOAD PUSH3 0x461BCD PUSH1 0xE5 SHL DUP2 MSTORE PUSH1 0x20 PUSH1 0x4 DUP3 ADD MSTORE PUSH1 0x2 PUSH1 0x24 DUP3 ADD MSTORE PUSH2 0x14D1 PUSH1 0xF2 SHL PUSH1 0x44 DUP3 ADD MSTORE PUSH1 0x64 ADD JUMPDEST PUSH1 0x40 MLOAD DUP1 SWAP2 SUB SWAP1 REVERT JUMPDEST PUSH1 0x1 JUMPDEST DUP1 ISZERO PUSH2 0x6B4 JUMPI PUSH1 0x0 DUP1 PUSH2 0x61B DUP5 PUSH1 0x20 ADD MLOAD DUP7 PUSH1 0x0 ADD MLOAD DUP9 PUSH2 0xA87 JUMP JUMPDEST DUP6 MLOAD SWAP2 SWAP4 POP SWAP2 POP PUSH2 0x632 SWAP1 DUP9 SWAP1 DUP11 SWAP1 DUP9 SWAP1 DUP7 PUSH2 0xACD JUMP JUMPDEST PUSH2 0x63C DUP8 DUP7 PUSH2 0xB64 JUMP JUMPDEST SWAP3 POP DUP3 ISZERO PUSH2 0x6AD JUMPI DUP1 ISZERO PUSH2 0x693 JUMPI PUSH1 0x0 PUSH2 0x65F DUP6 PUSH1 0x20 ADD MLOAD DUP5 DUP9 PUSH1 0x0 ADD MLOAD PUSH2 0xBD4 JUMP JUMPDEST SWAP3 DUP4 SWAP2 POP PUSH1 0x2 DUP3 DUP2 SIGNEXTEND SWAP2 SWAP1 SIGNEXTEND EQ DUP1 PUSH2 0x690 JUMPI DUP6 MLOAD PUSH2 0x683 SWAP1 DUP11 SWAP1 DUP13 SWAP1 DUP11 SWAP1 DUP9 PUSH2 0xACD JUMP JUMPDEST PUSH2 0x68D DUP10 DUP9 PUSH2 0xB64 JUMP JUMPDEST SWAP5 POP JUMPDEST POP POP JUMPDEST DUP3 ISZERO PUSH2 0x6AD JUMPI PUSH2 0x6AA DUP9 DUP4 DUP10 DUP9 DUP9 PUSH1 0x20 ADD MLOAD PUSH2 0xC8B JUMP JUMPDEST SWAP6 POP JUMPDEST POP POP PUSH2 0x5FF JUMP JUMPDEST POP POP POP POP POP POP JUMP JUMPDEST PUSH1 0x0 DUP1 PUSH1 0x0 PUSH2 0x6E4 DUP6 DUP11 DUP11 DUP11 PUSH2 0x6DA DUP12 PUSH1 0x1 PUSH1 0x1 PUSH1 0x80 SHL SUB AND PUSH2 0x78B JUMP JUMPDEST DUP16 PUSH1 0x80 ADD MLOAD PUSH2 0xD1F JUMP JUMPDEST SWAP1 POP PUSH1 0x0 PUSH2 0x6F6 DUP6 DUP8 DUP12 DUP12 DUP12 DUP8 PUSH2 0xD79 JUMP JUMPDEST SWAP1 POP PUSH2 0x706 DUP7 DUP11 DUP11 DUP11 DUP7 DUP11 PUSH2 0xDBB JUMP JUMPDEST PUSH1 0x0 DUP1 PUSH2 0x716 DUP14 DUP11 DUP6 DUP15 DUP15 PUSH2 0xE0D JUMP JUMPDEST SWAP2 POP SWAP2 POP PUSH2 0x724 DUP3 DUP3 PUSH2 0xE3C JUMP JUMPDEST SWAP6 POP SWAP6 POP POP POP POP POP SWAP8 POP SWAP8 SWAP6 POP POP POP POP POP POP JUMP JUMPDEST PUSH1 0x0 DUP1 PUSH1 0x0 PUSH2 0x74D DUP5 DUP7 DUP9 DUP11 PUSH1 0x60 ADD MLOAD PUSH2 0xE75 JUMP JUMPDEST SWAP1 POP PUSH2 0x75F DUP6 DUP3 DUP10 PUSH1 0x60 ADD MLOAD DUP8 PUSH2 0xF19 JUMP JUMPDEST PUSH1 0x0 DUP1 PUSH2 0x76C DUP10 DUP5 PUSH2 0xF2E JUMP JUMPDEST SWAP2 POP SWAP2 POP PUSH2 0x77A DUP3 DUP3 PUSH2 0xE3C JUMP JUMPDEST SWAP5 POP SWAP5 POP POP POP POP JUMPDEST SWAP5 POP SWAP5 SWAP3 POP POP POP JUMP JUMPDEST PUSH1 0x0 PUSH1 0xA DUP3 SWAP1 SHR PUSH15 0x3FFFFFFFFFFFFFFFFFFFFFFFFFFFFF DUP2 AND SWAP1 PUSH16 0xFFFFFFFFFFFFFFFFFFFFFFFFFFFFFC00 DUP5 AND SWAP1 PUSH1 0x1 AND ISZERO DUP1 DUP1 ISZERO PUSH2 0x7D2 JUMPI POP DUP5 PUSH1 0x1 PUSH1 0x1 PUSH1 0x80 SHL SUB AND DUP3 EQ JUMPDEST DUP1 ISZERO PUSH2 0x7E4 JUMPI POP PUSH1 0x1 PUSH1 0x1 PUSH1 0x60 SHL SUB DUP4 LT JUMPDEST PUSH2 0x815 JUMPI PUSH1 0x40 MLOAD PUSH3 0x461BCD PUSH1 0xE5 SHL DUP2 MSTORE PUSH1 0x20 PUSH1 0x4 DUP3 ADD MSTORE PUSH1 0x2 PUSH1 0x24 DUP3 ADD MSTORE PUSH2 0x1191 PUSH1 0xF2 SHL PUSH1 0x44 DUP3 ADD MSTORE PUSH1 0x64 ADD PUSH2 0x5F3 JUMP JUMPDEST POP SWAP1 SWAP4 SWAP3 POP POP POP JUMP JUMPDEST PUSH1 0x0 PUSH2 0x82C DUP8 DUP8 DUP8 DUP6 PUSH2 0xF64 JUMP JUMPDEST PUSH2 0x838 DUP8 DUP8 DUP7 DUP6 PUSH2 0xF64 JUMP JUMPDEST PUSH2 0x843 DUP8 DUP7 DUP6 PUSH2 0xFDC JUMP JUMPDEST PUSH2 0x84E DUP8 DUP6 DUP6 PUSH2 0x1025 JUMP JUMPDEST PUSH2 0x85B DUP8 DUP8 DUP8 DUP8 DUP7 PUSH2 0x1084 JUMP JUMPDEST SWAP8 SWAP7 POP POP POP POP POP POP POP JUMP JUMPDEST PUSH1 0x0 PUSH2 0x874 DUP8 DUP8 DUP8 DUP8 PUSH2 0x10B2 JUMP JUMPDEST SWAP1 POP PUSH2 0x881 DUP2 DUP5 DUP5 PUSH2 0x1112 JUMP JUMPDEST POP POP POP POP POP POP POP JUMP JUMPDEST PUSH1 0x0 SLOAD PUSH1 0x1 PUSH1 0x1 PUSH1 0xA0 SHL SUB DUP3 DUP2 AND SWAP2 AND EQ PUSH2 0x6B4 JUMPI PUSH1 0x0 DUP1 SLOAD PUSH1 0x40 MLOAD PUSH4 0x46282DB PUSH1 0xE4 SHL DUP2 MSTORE PUSH1 0x1 PUSH1 0x1 PUSH1 0xA0 SHL SUB DUP5 DUP2 AND SWAP3 PUSH4 0x46282DB0 SWAP3 PUSH2 0x8DC SWAP3 SWAP1 SWAP2 AND SWAP1 DUP12 SWAP1 DUP12 SWAP1 DUP12 SWAP1 DUP12 SWAP1 DUP12 SWAP1 PUSH1 0x4 ADD PUSH2 0x3FE3 JUMP JUMPDEST PUSH1 0x20 PUSH1 0x40 MLOAD DUP1 DUP4 SUB DUP2 PUSH1 0x0 DUP8 GAS CALL ISZERO DUP1 ISZERO PUSH2 0x8FB JUMPI RETURNDATASIZE PUSH1 0x0 DUP1 RETURNDATACOPY RETURNDATASIZE PUSH1 0x0 REVERT JUMPDEST POP POP POP POP PUSH1 0x40 MLOAD RETURNDATASIZE PUSH1 0x1F NOT PUSH1 0x1F DUP3 ADD AND DUP3 ADD DUP1 PUSH1 0x40 MSTORE POP DUP2 ADD SWAP1 PUSH2 0x91F SWAP2 SWAP1 PUSH2 0x402C JUMP JUMPDEST SWAP1 POP DUP1 PUSH2 0x881 JUMPI PUSH1 0x40 MLOAD PUSH3 0x461BCD PUSH1 0xE5 SHL DUP2 MSTORE PUSH1 0x20 PUSH1 0x4 DUP3 ADD MSTORE PUSH1 0x2 PUSH1 0x24 DUP3 ADD MSTORE PUSH2 0x4C5 PUSH1 0xF4 SHL PUSH1 0x44 DUP3 ADD MSTORE PUSH1 0x64 ADD PUSH2 0x5F3 JUMP JUMPDEST PUSH1 0x0 DUP1 PUSH1 0x0 DUP1 PUSH1 0x0 PUSH2 0x96B DUP10 PUSH1 0x0 ADD MLOAD DUP10 DUP10 DUP10 PUSH2 0x11D3 JUMP JUMPDEST SWAP3 POP SWAP3 POP SWAP3 POP PUSH2 0x97C DUP10 DUP10 DUP4 PUSH2 0x128F JUMP JUMPDEST PUSH2 0x77A DUP4 DUP4 DUP4 PUSH2 0x12B0 JUMP JUMPDEST PUSH1 0x0 DUP1 PUSH2 0x99C DUP5 PUSH1 0x1 PUSH1 0x1 PUSH1 0x80 SHL SUB AND PUSH2 0x1316 JUMP JUMPDEST PUSH2 0x9AE DUP5 PUSH1 0x1 PUSH1 0x1 PUSH1 0x80 SHL SUB AND PUSH2 0x1316 JUMP JUMPDEST SWAP2 POP SWAP2 POP JUMPDEST SWAP3 POP SWAP3 SWAP1 POP JUMP JUMPDEST PUSH1 0x0 DUP1 PUSH2 0x9C7 DUP7 DUP7 PUSH2 0x1335 JUMP JUMPDEST SWAP1 POP PUSH2 0x9DC PUSH1 0x1 PUSH1 0x1 PUSH1 0x80 SHL SUB DUP6 AND DUP5 PUSH2 0x135D JUMP JUMPDEST DUP2 SLOAD SWAP1 SWAP3 POP PUSH2 0x9F4 SWAP1 PUSH1 0x1 PUSH1 0x1 PUSH1 0x80 SHL SUB AND DUP4 PUSH2 0x139B JUMP JUMPDEST DUP2 SLOAD PUSH1 0x1 PUSH1 0x1 PUSH1 0x80 SHL SUB NOT AND PUSH1 0x1 PUSH1 0x1 PUSH1 0x80 SHL SUB SWAP2 SWAP1 SWAP2 AND OR DUP2 SSTORE PUSH2 0xA17 PUSH2 0x13B7 JUMP JUMPDEST DUP2 SLOAD PUSH4 0xFFFFFFFF SWAP2 SWAP1 SWAP2 AND PUSH1 0x1 PUSH1 0x80 SHL MUL PUSH4 0xFFFFFFFF PUSH1 0x80 SHL NOT SWAP1 SWAP2 AND OR SWAP1 SSTORE SWAP5 SWAP4 POP POP POP POP JUMP JUMPDEST PUSH1 0x0 DUP1 PUSH2 0x6B4 DUP7 DUP4 DUP4 DUP9 DUP9 DUP9 PUSH2 0x88A JUMP JUMPDEST PUSH1 0x0 DUP1 PUSH1 0x0 DUP1 PUSH2 0xA60 DUP7 DUP7 PUSH2 0x13D6 JUMP JUMPDEST SWAP2 POP SWAP2 POP PUSH2 0xA6E DUP7 DUP7 PUSH2 0x142F JUMP JUMPDEST PUSH2 0xA7A DUP3 DUP3 PUSH1 0x1 PUSH2 0x12B0 JUMP JUMPDEST SWAP4 POP SWAP4 POP POP POP SWAP3 POP SWAP3 SWAP1 POP JUMP JUMPDEST PUSH1 0x0 DUP1 PUSH1 0x0 PUSH2 0xA96 DUP7 DUP6 PUSH2 0x1449 JUMP JUMPDEST SWAP1 POP PUSH1 0x0 PUSH2 0xAA8 PUSH1 0x2 DUP7 SWAP1 SIGNEXTEND DUP8 PUSH2 0x146F JUMP JUMPDEST SWAP1 POP PUSH1 0x2 DUP6 SWAP1 SIGNEXTEND PUSH1 0x8 SAR PUSH2 0xABE DUP8 DUP4 DUP4 DUP7 PUSH2 0x14AB JUMP JUMPDEST SWAP1 SWAP10 SWAP1 SWAP9 POP SWAP7 POP POP POP POP POP POP POP JUMP JUMPDEST PUSH1 0x0 PUSH2 0xAE2 DUP3 DUP6 PUSH1 0x80 ADD MLOAD DUP7 PUSH1 0x0 ADD MLOAD PUSH2 0x14FA JUMP JUMPDEST SWAP1 POP PUSH1 0x0 DUP1 PUSH1 0x0 PUSH2 0xAFE DUP10 DUP9 PUSH1 0x60 ADD MLOAD DUP9 DUP11 PUSH1 0x20 ADD MLOAD DUP9 PUSH2 0x1563 JUMP JUMPDEST PUSH1 0x20 DUP11 ADD MLOAD SWAP3 SWAP6 POP SWAP1 SWAP4 POP SWAP2 POP PUSH2 0xB19 SWAP1 DUP10 SWAP1 DUP6 DUP6 DUP6 PUSH2 0x15AF JUMP JUMPDEST PUSH2 0xB32 DUP10 DUP9 PUSH1 0x20 ADD MLOAD DUP10 PUSH1 0x0 ADD MLOAD DUP11 PUSH1 0x60 ADD MLOAD DUP9 PUSH2 0x1608 JUMP JUMPDEST PUSH1 0x1 PUSH1 0x1 PUSH1 0x80 SHL SUB AND PUSH1 0x60 DUP11 ADD MSTORE PUSH1 0x20 DUP10 ADD MLOAD SWAP2 SWAP5 POP SWAP3 POP PUSH2 0xB59 SWAP1 DUP10 SWAP1 DUP6 DUP6 PUSH1 0x0 PUSH2 0x15AF JUMP JUMPDEST POP POP POP POP POP POP POP POP POP JUMP JUMPDEST PUSH1 0x0 DUP1 DUP3 PUSH1 0x0 ADD MLOAD PUSH2 0xB92 JUMPI DUP3 PUSH1 0x80 ADD MLOAD PUSH1 0x1 PUSH1 0x1 PUSH1 0x80 SHL SUB AND DUP5 PUSH1 0x0 ADD MLOAD PUSH1 0x1 PUSH1 0x1 PUSH1 0x80 SHL SUB AND GT PUSH2 0xBB0 JUMP JUMPDEST DUP3 PUSH1 0x80 ADD MLOAD PUSH1 0x1 PUSH1 0x1 PUSH1 0x80 SHL SUB AND DUP5 PUSH1 0x0 ADD MLOAD PUSH1 0x1 PUSH1 0x1 PUSH1 0x80 SHL SUB AND LT JUMPDEST SWAP1 POP DUP1 DUP1 ISZERO PUSH2 0xBCC JUMPI POP PUSH1 0x0 DUP4 PUSH1 0x60 ADD MLOAD PUSH1 0x1 PUSH1 0x1 PUSH1 0x80 SHL SUB AND GT JUMPDEST SWAP5 SWAP4 POP POP POP POP JUMP JUMPDEST PUSH1 0x0 DUP2 DUP1 ISZERO PUSH2 0xBE9 JUMPI POP PUSH1 0x2 DUP4 SWAP1 SIGNEXTEND PUSH3 0x7FFFFF EQ JUMPDEST ISZERO PUSH2 0xBF8 JUMPI POP PUSH3 0x7FFFFF PUSH2 0xC84 JUMP JUMPDEST DUP2 ISZERO DUP1 ISZERO PUSH2 0xC0D JUMPI POP PUSH1 0x2 DUP4 SWAP1 SIGNEXTEND PUSH3 0x7FFFFF NOT EQ JUMPDEST ISZERO PUSH2 0xC1D JUMPI POP PUSH3 0x7FFFFF NOT PUSH2 0xC84 JUMP JUMPDEST PUSH1 0x0 DUP1 PUSH2 0xC2A DUP6 DUP6 PUSH2 0x1681 JUMP JUMPDEST SWAP2 POP SWAP2 POP PUSH1 0x0 DUP1 PUSH2 0xC3D DUP9 DUP6 DUP6 DUP10 PUSH2 0x16B9 JUMP JUMPDEST SWAP2 POP SWAP2 POP DUP1 PUSH2 0xC51 JUMPI POP SWAP3 POP PUSH2 0xC84 SWAP2 POP POP JUMP JUMPDEST PUSH2 0xC5D DUP9 DUP6 DUP6 DUP10 PUSH2 0x1725 JUMP JUMPDEST SWAP1 SWAP3 POP SWAP1 POP DUP1 PUSH2 0xC72 JUMPI POP SWAP3 POP PUSH2 0xC84 SWAP2 POP POP JUMP JUMPDEST PUSH2 0xC7D DUP9 DUP6 DUP9 PUSH2 0x17A2 JUMP JUMPDEST SWAP5 POP POP POP POP POP JUMPDEST SWAP4 SWAP3 POP POP POP JUMP JUMPDEST PUSH1 0x0 PUSH2 0xC96 DUP6 PUSH2 0x17C2 JUMP JUMPDEST PUSH2 0xCA1 JUMPI POP DUP4 PUSH2 0xD16 JUMP JUMPDEST PUSH2 0xCB1 DUP5 DUP7 DUP6 PUSH1 0x0 ADD MLOAD DUP6 PUSH2 0x17E5 JUMP JUMPDEST PUSH1 0x0 DUP1 PUSH1 0x0 PUSH2 0xCD9 DUP7 PUSH1 0x20 ADD MLOAD DUP8 PUSH1 0x0 ADD MLOAD DUP9 PUSH1 0x60 ADD MLOAD DUP11 PUSH2 0x186D SWAP1 SWAP4 SWAP3 SWAP2 SWAP1 PUSH4 0xFFFFFFFF AND JUMP JUMPDEST SWAP2 SWAP5 POP SWAP3 POP SWAP1 POP PUSH2 0xCEB DUP10 DUP5 DUP5 PUSH2 0x1901 JUMP JUMPDEST PUSH1 0x60 DUP7 ADD DUP1 MLOAD DUP3 SWAP1 SUB PUSH1 0x1 PUSH1 0x1 PUSH1 0x80 SHL SUB AND SWAP1 MSTORE DUP6 MLOAD PUSH2 0xD0E JUMPI PUSH1 0x1 DUP9 SUB PUSH2 0xD10 JUMP JUMPDEST DUP8 JUMPDEST SWAP4 POP POP POP POP JUMPDEST SWAP6 SWAP5 POP POP POP POP POP JUMP JUMPDEST PUSH1 0x0 DUP1 PUSH2 0xD2D DUP9 DUP8 DUP7 PUSH2 0x1938 JUMP JUMPDEST SWAP1 POP PUSH1 0x0 PUSH2 0xD3C DUP10 DUP8 DUP8 PUSH2 0x19C1 JUMP JUMPDEST SWAP1 POP PUSH2 0xD4B DUP10 DUP10 DUP10 DUP10 DUP9 PUSH2 0x1084 JUMP JUMPDEST SWAP3 POP DUP2 ISZERO PUSH2 0xD5D JUMPI PUSH2 0xD5D DUP10 DUP9 PUSH2 0x1A3F JUMP JUMPDEST DUP1 ISZERO PUSH2 0xD6D JUMPI PUSH2 0xD6D DUP10 DUP8 PUSH2 0x1A3F JUMP JUMPDEST POP POP SWAP7 SWAP6 POP POP POP POP POP POP JUMP JUMPDEST PUSH1 0x0 DUP1 PUSH2 0xD88 DUP9 DUP9 DUP9 DUP9 PUSH2 0x10B2 JUMP JUMPDEST DUP1 SLOAD SWAP1 SWAP2 POP PUSH2 0xDA4 SWAP1 PUSH1 0x1 PUSH1 0xC0 SHL SWAP1 DIV PUSH4 0xFFFFFFFF AND DUP9 PUSH2 0x1A90 JUMP JUMPDEST PUSH2 0xDAF DUP2 DUP6 DUP6 PUSH2 0x1B19 JUMP JUMPDEST SWAP9 SWAP8 POP POP POP POP POP POP POP POP JUMP JUMPDEST PUSH1 0x0 SLOAD PUSH1 0x1 PUSH1 0x1 PUSH1 0xA0 SHL SUB DUP3 DUP2 AND SWAP2 AND EQ PUSH2 0x6B4 JUMPI PUSH1 0x0 DUP1 SLOAD PUSH1 0x40 MLOAD PUSH4 0x78F4DE31 PUSH1 0xE1 SHL DUP2 MSTORE PUSH1 0x1 PUSH1 0x1 PUSH1 0xA0 SHL SUB DUP5 DUP2 AND SWAP3 PUSH4 0xF1E9BC62 SWAP3 PUSH2 0x8DC SWAP3 SWAP1 SWAP2 AND SWAP1 DUP12 SWAP1 DUP12 SWAP1 DUP12 SWAP1 DUP12 SWAP1 DUP12 SWAP1 PUSH1 0x4 ADD PUSH2 0x3FE3 JUMP JUMPDEST PUSH1 0x0 DUP1 PUSH2 0xE1C DUP8 DUP8 DUP7 DUP7 PUSH2 0x1BD9 JUMP JUMPDEST SWAP1 SWAP3 POP SWAP1 POP PUSH2 0xE2E DUP3 DUP3 DUP10 DUP10 DUP10 PUSH2 0x1C1E JUMP JUMPDEST SWAP1 SWAP9 SWAP1 SWAP8 POP SWAP6 POP POP POP POP POP POP JUMP JUMPDEST PUSH1 0x0 DUP1 PUSH2 0xE51 DUP5 PUSH1 0x1 PUSH1 0x1 PUSH1 0x80 SHL SUB AND PUSH2 0x1316 JUMP JUMPDEST PUSH2 0xE5A SWAP1 PUSH2 0x405F JUMP JUMPDEST PUSH2 0xE6C DUP5 PUSH1 0x1 PUSH1 0x1 PUSH1 0x80 SHL SUB AND PUSH2 0x1316 JUMP JUMPDEST PUSH2 0x9AE SWAP1 PUSH2 0x405F JUMP JUMPDEST PUSH1 0x0 DUP1 PUSH2 0xE82 DUP7 DUP7 PUSH2 0x1335 JUMP JUMPDEST SWAP1 POP PUSH2 0xE97 PUSH1 0x1 PUSH1 0x1 PUSH1 0x80 SHL SUB DUP6 AND DUP5 PUSH2 0x135D JUMP JUMPDEST DUP2 SLOAD SWAP1 SWAP3 POP PUSH1 0x1 PUSH1 0x1 PUSH1 0x80 SHL SUB SWAP1 DUP2 AND SWAP1 DUP4 AND LT PUSH2 0xECE JUMPI DUP1 SLOAD PUSH1 0x1 PUSH1 0x1 PUSH1 0xA0 SHL SUB NOT DUP2 AND DUP3 SSTORE PUSH1 0x1 PUSH1 0x1 PUSH1 0x80 SHL SUB AND SWAP2 POP PUSH2 0xF10 JUMP JUMPDEST DUP1 SLOAD DUP3 SWAP1 DUP3 SWAP1 PUSH1 0x0 SWAP1 PUSH2 0xEEB SWAP1 DUP5 SWAP1 PUSH1 0x1 PUSH1 0x1 PUSH1 0x80 SHL SUB AND PUSH2 0x4085 JUMP JUMPDEST SWAP3 POP PUSH2 0x100 EXP DUP2 SLOAD DUP2 PUSH1 0x1 PUSH1 0x1 PUSH1 0x80 SHL SUB MUL NOT AND SWAP1 DUP4 PUSH1 0x1 PUSH1 0x1 PUSH1 0x80 SHL SUB AND MUL OR SWAP1 SSTORE POP JUMPDEST POP SWAP5 SWAP4 POP POP POP POP JUMP JUMPDEST PUSH2 0xF28 DUP5 PUSH1 0x0 DUP1 DUP7 DUP7 DUP7 PUSH2 0xDBB JUMP JUMPDEST POP POP POP POP JUMP JUMPDEST PUSH1 0x0 DUP1 PUSH2 0xF3B DUP5 DUP5 PUSH2 0x13D6 JUMP JUMPDEST SWAP1 SWAP3 POP SWAP1 POP PUSH2 0x9B3 DUP5 PUSH2 0xF56 PUSH1 0x1 PUSH1 0x1 PUSH1 0x80 SHL SUB DUP7 AND PUSH2 0x1316 JUMP JUMPDEST PUSH2 0xF5F SWAP1 PUSH2 0x405F JUMP JUMPDEST PUSH2 0x1CA6 JUMP JUMPDEST PUSH1 0x0 PUSH2 0xF70 DUP6 DUP5 PUSH2 0x1CD3 JUMP JUMPDEST DUP1 SLOAD SWAP1 SWAP2 POP PUSH1 0x1 PUSH1 0x1 PUSH1 0x60 SHL SUB AND ISZERO DUP1 ISZERO PUSH2 0xF9A JUMPI POP DUP1 SLOAD PUSH1 0x1 PUSH1 0x60 SHL SWAP1 DIV PUSH1 0x1 PUSH1 0x1 PUSH1 0x60 SHL SUB AND ISZERO JUMPDEST ISZERO PUSH2 0xFD5 JUMPI DUP4 PUSH1 0x2 SIGNEXTEND DUP4 PUSH1 0x2 SIGNEXTEND SLT PUSH2 0xFCB JUMPI DUP1 SLOAD PUSH1 0x1 PUSH1 0x1 PUSH1 0xC0 SHL SUB AND PUSH1 0x1 PUSH1 0xC0 SHL PUSH1 0x1 PUSH1 0x1 PUSH1 0x40 SHL SUB DUP5 AND MUL OR DUP2 SSTORE JUMPDEST PUSH2 0xFD5 DUP6 DUP5 PUSH2 0x1D26 JUMP JUMPDEST POP POP POP POP POP JUMP JUMPDEST PUSH1 0x0 PUSH2 0xFE8 DUP5 DUP5 PUSH2 0x1CD3 JUMP JUMPDEST DUP1 SLOAD SWAP1 SWAP2 POP PUSH1 0x1 PUSH1 0x1 PUSH1 0x60 SHL SUB AND PUSH1 0x0 PUSH2 0x1002 DUP3 DUP6 PUSH2 0x1DAE JUMP JUMPDEST DUP4 SLOAD PUSH1 0x1 PUSH1 0x1 PUSH1 0x60 SHL SUB NOT AND PUSH1 0x1 PUSH1 0x1 PUSH1 0x60 SHL SUB SWAP2 SWAP1 SWAP2 AND OR SWAP1 SWAP3 SSTORE POP POP POP POP POP JUMP JUMPDEST PUSH1 0x0 PUSH2 0x1031 DUP5 DUP5 PUSH2 0x1CD3 JUMP JUMPDEST DUP1 SLOAD SWAP1 SWAP2 POP PUSH1 0x1 PUSH1 0x60 SHL SWAP1 DIV PUSH1 0x1 PUSH1 0x1 PUSH1 0x60 SHL SUB AND PUSH1 0x0 PUSH2 0x1052 DUP3 DUP6 PUSH2 0x1DAE JUMP JUMPDEST DUP4 SLOAD PUSH1 0x1 PUSH1 0x1 PUSH1 0x60 SHL SUB SWAP1 SWAP2 AND PUSH1 0x1 PUSH1 0x60 SHL MUL PUSH12 0xFFFFFFFFFFFFFFFFFFFFFFFF PUSH1 0x60 SHL NOT SWAP1 SWAP2 AND OR SWAP1 SWAP3 SSTORE POP POP POP POP POP JUMP JUMPDEST PUSH1 0x0 DUP1 PUSH2 0x1093 DUP8 DUP7 DUP9 DUP7 PUSH2 0x1DCA JUMP JUMPDEST SWAP1 POP PUSH1 0x0 PUSH2 0x10A3 DUP9 DUP7 DUP10 DUP8 PUSH2 0x1DCA JUMP JUMPDEST SWAP2 SWAP1 SWAP2 SUB SWAP8 SWAP7 POP POP POP POP POP POP POP JUMP JUMPDEST PUSH1 0x40 DUP1 MLOAD PUSH1 0x60 SWAP6 SWAP1 SWAP6 SHL PUSH1 0x1 PUSH1 0x1 PUSH1 0x60 SHL SUB NOT AND PUSH1 0x20 DUP1 DUP8 ADD SWAP2 SWAP1 SWAP2 MSTORE PUSH1 0x34 DUP7 ADD SWAP5 SWAP1 SWAP5 MSTORE PUSH1 0xE8 SWAP3 DUP4 SHL PUSH1 0x54 DUP7 ADD MSTORE SWAP2 SHL PUSH1 0x57 DUP5 ADD MSTORE DUP1 MLOAD PUSH1 0x3A DUP2 DUP6 SUB ADD DUP2 MSTORE PUSH1 0x5A SWAP1 SWAP4 ADD DUP2 MSTORE DUP3 MLOAD SWAP3 DUP3 ADD SWAP3 SWAP1 SWAP3 KECCAK256 PUSH1 0x0 SWAP1 DUP2 MSTORE PUSH3 0x1000D SWAP1 SWAP2 MSTORE KECCAK256 SWAP1 JUMP JUMPDEST DUP3 SLOAD PUSH1 0x1 PUSH1 0x1 PUSH1 0x80 SHL SUB AND PUSH1 0x0 DUP2 ISZERO PUSH2 0x113D JUMPI POP DUP4 SLOAD PUSH1 0x1 PUSH1 0x80 SHL SWAP1 DIV PUSH1 0x1 PUSH1 0x1 PUSH1 0x40 SHL SUB AND PUSH2 0x1141 JUMP JUMPDEST POP PUSH1 0x0 JUMPDEST PUSH1 0x0 PUSH2 0x1156 PUSH1 0x1 PUSH1 0x1 PUSH1 0x80 SHL SUB DUP5 AND DUP7 PUSH2 0x139B JUMP JUMPDEST SWAP1 POP PUSH1 0x0 PUSH2 0x116F PUSH1 0x1 PUSH1 0x1 PUSH1 0x40 SHL SUB DUP7 AND DUP8 DUP6 DUP8 PUSH2 0x1E25 JUMP JUMPDEST SWAP1 POP PUSH1 0x0 PUSH2 0x117B PUSH2 0x13B7 JUMP JUMPDEST DUP9 SLOAD PUSH4 0xFFFFFFFF SWAP1 SWAP2 AND PUSH1 0x1 PUSH1 0xC0 SHL MUL PUSH4 0xFFFFFFFF PUSH1 0xC0 SHL NOT PUSH1 0x1 PUSH1 0x1 PUSH1 0x40 SHL SUB SWAP1 SWAP5 AND PUSH1 0x1 PUSH1 0x80 SHL MUL PUSH1 0x1 PUSH1 0x1 PUSH1 0xC0 SHL SUB NOT SWAP1 SWAP3 AND PUSH1 0x1 PUSH1 0x1 PUSH1 0x80 SHL SUB SWAP1 SWAP6 AND SWAP5 SWAP1 SWAP5 OR OR SWAP2 SWAP1 SWAP2 AND SWAP2 SWAP1 SWAP2 OR SWAP1 SWAP6 SSTORE POP POP POP POP POP JUMP JUMPDEST PUSH1 0x0 DUP1 PUSH1 0x0 DUP1 PUSH1 0x0 PUSH2 0x11E5 DUP8 DUP8 PUSH2 0x1EC2 JUMP JUMPDEST SWAP2 POP SWAP2 POP DUP2 PUSH1 0x1 PUSH1 0x1 PUSH1 0x80 SHL SUB AND DUP10 PUSH1 0x1 PUSH1 0x1 PUSH1 0x80 SHL SUB AND LT ISZERO PUSH2 0x121E JUMPI PUSH2 0x1217 PUSH1 0x1 PUSH1 0x1 PUSH1 0x80 SHL SUB DUP10 AND DUP4 DUP4 PUSH2 0x1F1D JUMP JUMPDEST SWAP4 POP PUSH2 0x1283 JUMP JUMPDEST DUP1 PUSH1 0x1 PUSH1 0x1 PUSH1 0x80 SHL SUB AND DUP10 PUSH1 0x1 PUSH1 0x1 PUSH1 0x80 SHL SUB AND LT PUSH2 0x1252 JUMPI PUSH2 0x124B PUSH1 0x1 PUSH1 0x1 PUSH1 0x80 SHL SUB DUP10 AND DUP4 DUP4 PUSH2 0x1F56 JUMP JUMPDEST SWAP5 POP PUSH2 0x1283 JUMP JUMPDEST PUSH2 0x1266 PUSH1 0x1 PUSH1 0x1 PUSH1 0x80 SHL SUB DUP10 AND DUP11 DUP4 PUSH2 0x1F1D JUMP JUMPDEST SWAP4 POP PUSH2 0x127C PUSH1 0x1 PUSH1 0x1 PUSH1 0x80 SHL SUB DUP10 AND DUP4 DUP12 PUSH2 0x1F56 JUMP JUMPDEST SWAP5 POP PUSH1 0x1 SWAP3 POP JUMPDEST POP POP SWAP5 POP SWAP5 POP SWAP5 SWAP2 POP POP JUMP JUMPDEST PUSH2 0x12AB DUP4 PUSH2 0x12A5 DUP5 PUSH1 0x1 PUSH1 0x1 PUSH1 0x80 SHL SUB AND PUSH2 0x1316 JUMP JUMPDEST DUP4 PUSH2 0x1F8C JUMP JUMPDEST POP POP POP JUMP JUMPDEST PUSH1 0x0 DUP1 PUSH1 0x0 DUP6 PUSH1 0x1 PUSH1 0x1 PUSH1 0x80 SHL SUB AND GT DUP1 PUSH2 0x12C8 JUMPI POP DUP3 JUMPDEST PUSH2 0x12D3 JUMPI PUSH1 0x0 PUSH2 0x12DE JUMP JUMPDEST PUSH2 0x12DE PUSH1 0x4 DUP7 PUSH2 0x40A5 JUMP JUMPDEST PUSH1 0x0 DUP6 PUSH1 0x1 PUSH1 0x1 PUSH1 0x80 SHL SUB AND GT DUP1 PUSH2 0x12F3 JUMPI POP DUP4 JUMPDEST PUSH2 0x12FE JUMPI PUSH1 0x0 PUSH2 0x1309 JUMP JUMPDEST PUSH2 0x1309 PUSH1 0x4 DUP7 PUSH2 0x40A5 JUMP JUMPDEST SWAP2 POP SWAP2 POP JUMPDEST SWAP4 POP SWAP4 SWAP2 POP POP JUMP JUMPDEST PUSH1 0x0 PUSH1 0x1 PUSH1 0x7F SHL DUP3 PUSH1 0x1 PUSH1 0x1 PUSH1 0x80 SHL SUB AND LT PUSH2 0x1331 JUMPI PUSH1 0x0 DUP1 REVERT JUMPDEST POP SWAP1 JUMP JUMPDEST PUSH1 0x0 PUSH3 0x1000E PUSH1 0x0 PUSH2 0x1347 DUP6 DUP6 PUSH2 0x1FBD JUMP JUMPDEST DUP2 MSTORE PUSH1 0x20 ADD SWAP1 DUP2 MSTORE PUSH1 0x20 ADD PUSH1 0x0 KECCAK256 SWAP1 POP SWAP3 SWAP2 POP POP JUMP JUMPDEST PUSH1 0x0 PUSH1 0x1 PUSH1 0x30 SHL PUSH1 0x1 PUSH1 0x30 SHL PUSH1 0x1 PUSH1 0xB0 SHL SUB PUSH1 0x30 DUP6 SWAP1 SHL AND DUP3 PUSH1 0x1 PUSH1 0x1 PUSH1 0x40 SHL SUB DUP6 AND DUP4 ADD DUP3 DUP2 PUSH2 0x1390 JUMPI PUSH2 0x1390 PUSH2 0x40C5 JUMP JUMPDEST DIV SWAP7 SWAP6 POP POP POP POP POP POP JUMP JUMPDEST DUP1 DUP3 ADD PUSH1 0x1 PUSH1 0x1 PUSH1 0x80 SHL SUB DUP1 DUP5 AND SWAP1 DUP3 AND LT ISZERO PUSH2 0x2BD JUMPI PUSH1 0x0 DUP1 REVERT JUMPDEST PUSH1 0x0 TIMESTAMP PUSH4 0xFFFFFFFF DUP2 GT ISZERO PUSH2 0x13D1 JUMPI PUSH4 0xFFFFFFFF SWAP2 POP POP SWAP1 JUMP JUMPDEST SWAP2 SWAP1 POP JUMP JUMPDEST PUSH1 0x0 DUP1 PUSH1 0x0 PUSH2 0x13E9 DUP5 DUP7 PUSH1 0x60 ADD MLOAD PUSH2 0x2000 JUMP JUMPDEST DUP6 MLOAD SWAP1 SWAP2 POP PUSH2 0x1412 SWAP1 PUSH1 0x1 PUSH1 0x1 PUSH1 0x80 SHL SUB DUP1 DUP5 AND SWAP2 AND MUL PUSH1 0x40 SHR JUMPDEST PUSH1 0x1 PUSH1 0x1 PUSH1 0xC0 SHL SUB AND PUSH2 0x203F JUMP JUMPDEST SWAP3 POP PUSH2 0x1425 PUSH2 0x1404 DUP3 DUP8 PUSH1 0x0 ADD MLOAD PUSH2 0x205E JUMP JUMPDEST SWAP2 POP POP SWAP3 POP SWAP3 SWAP1 POP JUMP JUMPDEST PUSH2 0x1445 DUP3 PUSH2 0xF5F DUP4 PUSH1 0x1 PUSH1 0x1 PUSH1 0x80 SHL SUB AND PUSH2 0x1316 JUMP JUMPDEST POP POP JUMP JUMPDEST PUSH1 0x0 DUP1 PUSH2 0x1456 DUP5 DUP5 PUSH2 0x209E JUMP JUMPDEST PUSH1 0x0 SWAP1 DUP2 MSTORE PUSH3 0x10007 PUSH1 0x20 MSTORE PUSH1 0x40 SWAP1 KECCAK256 SLOAD SWAP5 SWAP4 POP POP POP POP JUMP JUMPDEST PUSH1 0x0 DUP1 PUSH2 0x147B DUP5 PUSH2 0x20E9 JUMP JUMPDEST SWAP1 POP PUSH1 0x0 DUP4 PUSH2 0x148B JUMPI PUSH1 0x0 PUSH2 0x148E JUMP JUMPDEST PUSH1 0x1 JUMPDEST PUSH1 0xFF AND SWAP1 POP DUP1 PUSH2 0x149E DUP4 DUP7 PUSH2 0x20F7 JUMP JUMPDEST PUSH1 0xFF AND ADD SWAP6 SWAP5 POP POP POP POP POP JUMP JUMPDEST PUSH1 0x0 DUP1 DUP1 DUP1 PUSH2 0x14BB DUP6 DUP9 DUP11 PUSH2 0x210E JUMP JUMPDEST SWAP2 POP SWAP2 POP PUSH2 0x14CA DUP9 DUP3 DUP8 PUSH2 0x214C JUMP JUMPDEST SWAP3 POP DUP3 PUSH2 0x14E3 JUMPI PUSH1 0x8 DUP7 SWAP1 SHL PUSH1 0x2 SIGNEXTEND PUSH1 0xFF DUP4 AND ADD PUSH2 0x14ED JUMP JUMPDEST PUSH2 0x14ED DUP9 DUP8 PUSH2 0x217F JUMP JUMPDEST SWAP4 POP POP POP SWAP5 POP SWAP5 SWAP3 POP POP POP JUMP JUMPDEST PUSH1 0x0 DUP1 PUSH2 0x1508 DUP6 DUP6 DUP6 PUSH2 0x21E6 JUMP JUMPDEST SWAP1 POP PUSH3 0x10002 PUSH1 0x1 PUSH1 0x1 PUSH1 0x80 SHL SUB DUP3 AND LT ISZERO PUSH2 0x152A JUMPI PUSH3 0x10002 SWAP2 POP POP PUSH2 0xC84 JUMP JUMPDEST PUSH16 0xFFFF5433E2B3D8211706E6102AA9472 PUSH1 0x1 PUSH1 0x1 PUSH1 0x80 SHL SUB DUP3 AND LT PUSH2 0xBCC JUMPI POP PUSH16 0xFFFF5433E2B3D8211706E6102AA9471 SWAP1 POP PUSH2 0xC84 JUMP JUMPDEST PUSH1 0x0 DUP1 PUSH1 0x0 DUP1 PUSH1 0x0 PUSH2 0x1581 DUP11 DUP11 DUP11 PUSH1 0x20 ADD MLOAD DUP12 PUSH1 0x40 ADD MLOAD DUP12 DUP12 PUSH2 0x2289 JUMP JUMPDEST SWAP1 SWAP3 POP SWAP1 POP PUSH2 0x1591 DUP11 DUP4 DUP10 PUSH2 0x22C7 JUMP JUMPDEST PUSH2 0x159C DUP3 DUP3 DUP10 PUSH2 0x2330 JUMP JUMPDEST SWAP5 POP SWAP5 POP SWAP5 POP POP POP SWAP6 POP SWAP6 POP SWAP6 SWAP3 POP POP POP JUMP JUMPDEST PUSH2 0x15BA DUP6 DUP5 DUP5 PUSH2 0x1901 JUMP JUMPDEST DUP4 ISZERO PUSH2 0x15E3 JUMPI DUP1 DUP6 PUSH1 0x60 ADD DUP2 DUP2 MLOAD PUSH2 0x15D2 SWAP2 SWAP1 PUSH2 0x40A5 JUMP JUMPDEST PUSH1 0x1 PUSH1 0x1 PUSH1 0x80 SHL SUB AND SWAP1 MSTORE POP PUSH2 0xFD5 JUMP JUMPDEST DUP1 DUP6 PUSH1 0x40 ADD DUP2 DUP2 MLOAD PUSH2 0x15F5 SWAP2 SWAP1 PUSH2 0x40A5 JUMP JUMPDEST PUSH1 0x1 PUSH1 0x1 PUSH1 0x80 SHL SUB AND SWAP1 MSTORE POP POP POP POP POP POP JUMP JUMPDEST PUSH1 0x0 DUP1 DUP1 DUP1 PUSH2 0x1619 DUP10 DUP8 DUP11 DUP9 PUSH2 0x2376 JUMP JUMPDEST SWAP1 POP PUSH1 0x1 PUSH1 0x1 PUSH1 0x80 SHL SUB DUP1 DUP8 AND SWAP1 DUP3 AND LT DUP1 ISZERO PUSH2 0x1654 JUMPI PUSH2 0x163D DUP11 DUP8 DUP12 DUP12 DUP12 PUSH2 0x23AF JUMP JUMPDEST SWAP2 SWAP7 POP SWAP5 POP SWAP3 POP PUSH2 0x164F DUP11 DUP5 DUP9 PUSH2 0x23FD JUMP JUMPDEST PUSH2 0x1674 JUMP JUMPDEST PUSH2 0x1661 DUP11 DUP4 DUP12 DUP12 DUP12 PUSH2 0x244E JUMP JUMPDEST SWAP2 SWAP7 POP SWAP5 POP SWAP3 POP PUSH2 0x1674 DUP11 DUP5 DUP11 DUP10 PUSH2 0x2488 JUMP JUMPDEST POP POP SWAP6 POP SWAP6 POP SWAP6 SWAP3 POP POP POP JUMP JUMPDEST PUSH1 0x0 DUP1 PUSH1 0x0 DUP4 PUSH2 0x169B JUMPI PUSH2 0x1696 PUSH1 0x1 DUP7 PUSH2 0x40DB JUMP JUMPDEST PUSH2 0x169D JUMP JUMPDEST DUP5 JUMPDEST SWAP1 POP PUSH2 0x16AB DUP2 PUSH1 0x2 SIGNEXTEND PUSH2 0x24FD JUMP JUMPDEST SWAP3 POP PUSH2 0x1425 DUP2 PUSH1 0x2 SIGNEXTEND PUSH2 0x2514 JUMP JUMPDEST PUSH1 0x0 DUP1 PUSH1 0x0 PUSH3 0x10007 PUSH1 0x0 PUSH2 0x16CF DUP10 DUP10 DUP10 PUSH2 0x2530 JUMP JUMPDEST DUP2 MSTORE PUSH1 0x20 DUP2 ADD SWAP2 SWAP1 SWAP2 MSTORE PUSH1 0x40 ADD PUSH1 0x0 SWAP1 DUP2 KECCAK256 SLOAD SWAP2 POP DUP1 PUSH2 0x16F0 DUP4 DUP3 DUP9 PUSH2 0x210E JUMP JUMPDEST SWAP2 POP SWAP2 POP DUP1 ISZERO PUSH2 0x170A JUMPI PUSH1 0x0 PUSH1 0x1 SWAP5 POP SWAP5 POP POP POP POP PUSH2 0x782 JUMP JUMPDEST PUSH2 0x1715 DUP9 DUP9 DUP5 PUSH2 0x258E JUMP JUMPDEST SWAP10 PUSH1 0x0 SWAP10 POP SWAP8 POP POP POP POP POP POP POP POP JUMP JUMPDEST PUSH1 0x0 DUP1 PUSH1 0x0 PUSH3 0x10006 PUSH1 0x0 PUSH2 0x173A DUP10 DUP10 PUSH2 0x25B7 JUMP JUMPDEST DUP2 MSTORE PUSH1 0x20 ADD SWAP1 DUP2 MSTORE PUSH1 0x20 ADD PUSH1 0x0 KECCAK256 SLOAD SWAP1 POP PUSH1 0x0 PUSH2 0x1757 DUP7 DUP7 PUSH2 0x20F7 JUMP JUMPDEST SWAP1 POP PUSH1 0x0 DUP1 PUSH2 0x176A DUP5 PUSH1 0xFF DUP6 AND DUP10 PUSH2 0x210E JUMP JUMPDEST SWAP2 POP SWAP2 POP DUP1 ISZERO PUSH2 0x1785 JUMPI PUSH1 0x0 PUSH1 0x1 SWAP6 POP SWAP6 POP POP POP POP POP PUSH2 0x782 JUMP JUMPDEST PUSH2 0x1791 DUP11 DUP11 DUP5 DUP11 PUSH2 0x16B9 JUMP JUMPDEST SWAP6 POP SWAP6 POP POP POP POP POP SWAP5 POP SWAP5 SWAP3 POP POP POP JUMP JUMPDEST PUSH1 0x0 DUP2 PUSH2 0x17B8 JUMPI PUSH2 0x17B3 DUP5 DUP5 PUSH2 0x25CB JUMP JUMPDEST PUSH2 0xBCC JUMP JUMPDEST PUSH2 0xBCC DUP5 DUP5 PUSH2 0x261B JUMP JUMPDEST PUSH1 0x0 PUSH3 0x7FFFFF NOT PUSH1 0x2 DUP4 SWAP1 SIGNEXTEND SGT DUP1 ISZERO PUSH2 0x2BD JUMPI POP POP PUSH3 0x7FFFFF PUSH1 0x2 SWAP2 SWAP1 SWAP2 SIGNEXTEND SLT SWAP1 JUMP JUMPDEST PUSH1 0x0 DUP1 PUSH2 0x17F8 DUP4 DUP7 DUP7 DUP10 PUSH1 0x80 ADD MLOAD PUSH2 0x2665 JUMP JUMPDEST PUSH1 0x40 DUP9 ADD MLOAD SWAP2 SWAP4 POP SWAP2 POP PUSH2 0x1815 SWAP1 PUSH1 0x1 PUSH1 0x1 PUSH1 0x80 SHL SUB AND DUP4 PUSH2 0x273A JUMP JUMPDEST PUSH1 0x1 PUSH1 0x1 PUSH1 0x80 SHL SUB AND PUSH1 0x40 DUP8 ADD MSTORE DUP1 ISZERO PUSH2 0x6B4 JUMPI PUSH1 0x0 PUSH2 0x183B DUP5 DUP8 DUP8 DUP11 PUSH1 0x80 ADD MLOAD PUSH2 0x278C JUMP JUMPDEST PUSH1 0x40 DUP9 ADD MLOAD SWAP1 SWAP2 POP PUSH2 0x1856 SWAP1 PUSH1 0x1 PUSH1 0x1 PUSH1 0x80 SHL SUB AND DUP3 PUSH2 0x273A JUMP JUMPDEST PUSH1 0x1 PUSH1 0x1 PUSH1 0x80 SHL SUB AND PUSH1 0x40 DUP9 ADD MSTORE POP POP POP POP POP POP POP JUMP JUMPDEST PUSH1 0x0 DUP1 PUSH1 0x0 DUP1 PUSH2 0x1887 PUSH2 0x187F DUP10 PUSH2 0x2881 JUMP JUMPDEST DUP10 MLOAD DUP10 PUSH2 0x28A6 JUMP JUMPDEST SWAP1 POP DUP1 PUSH1 0x1 PUSH1 0x1 PUSH1 0x80 SHL SUB AND DUP6 PUSH1 0x1 PUSH1 0x1 PUSH1 0x80 SHL SUB AND GT PUSH2 0x18CF JUMPI PUSH1 0x40 MLOAD PUSH3 0x461BCD PUSH1 0xE5 SHL DUP2 MSTORE PUSH1 0x20 PUSH1 0x4 DUP3 ADD MSTORE PUSH1 0x2 PUSH1 0x24 DUP3 ADD MSTORE PUSH2 0x1091 PUSH1 0xF2 SHL PUSH1 0x44 DUP3 ADD MSTORE PUSH1 0x64 ADD PUSH2 0x5F3 JUMP JUMPDEST DUP6 ISZERO PUSH2 0x18EC JUMPI PUSH2 0x18E0 DUP9 DUP9 DUP4 PUSH2 0x2908 JUMP JUMPDEST SWAP4 POP SWAP4 POP SWAP4 POP POP PUSH2 0x18F7 JUMP JUMPDEST PUSH2 0x18E0 DUP9 DUP9 DUP4 PUSH2 0x2980 JUMP JUMPDEST SWAP5 POP SWAP5 POP SWAP5 SWAP2 POP POP JUMP JUMPDEST DUP2 DUP4 PUSH1 0x0 ADD DUP2 DUP2 MLOAD PUSH2 0x1913 SWAP2 SWAP1 PUSH2 0x4100 JUMP JUMPDEST PUSH1 0xF SIGNEXTEND SWAP1 MSTORE POP PUSH1 0x20 DUP4 ADD DUP1 MLOAD DUP3 SWAP2 SWAP1 PUSH2 0x192D SWAP1 DUP4 SWAP1 PUSH2 0x4100 JUMP JUMPDEST PUSH1 0xF SIGNEXTEND SWAP1 MSTORE POP POP POP POP JUMP JUMPDEST PUSH1 0x0 DUP1 PUSH2 0x1945 DUP6 DUP6 PUSH2 0x1CD3 JUMP JUMPDEST DUP1 SLOAD SWAP1 SWAP2 POP PUSH1 0x1 PUSH1 0x1 PUSH1 0x60 SHL SUB AND PUSH1 0x0 PUSH2 0x195F DUP3 DUP7 PUSH2 0x29E8 JUMP JUMPDEST DUP4 SLOAD PUSH1 0x1 PUSH1 0x1 PUSH1 0x60 SHL SUB NOT AND PUSH1 0x1 PUSH1 0x1 PUSH1 0x60 SHL SUB DUP3 AND SWAP1 DUP2 OR DUP6 SSTORE SWAP1 SWAP2 POP ISZERO DUP1 ISZERO PUSH2 0x1999 JUMPI POP DUP3 SLOAD PUSH1 0x1 PUSH1 0x60 SHL SWAP1 DIV PUSH1 0x1 PUSH1 0x1 PUSH1 0x60 SHL SUB AND ISZERO JUMPDEST ISZERO PUSH2 0x19B4 JUMPI PUSH2 0x19A8 DUP8 DUP8 PUSH2 0x29F4 JUMP JUMPDEST PUSH1 0x1 SWAP4 POP POP POP POP PUSH2 0xC84 JUMP JUMPDEST POP PUSH1 0x0 SWAP7 SWAP6 POP POP POP POP POP POP JUMP JUMPDEST PUSH1 0x0 DUP1 PUSH2 0x19CE DUP6 DUP6 PUSH2 0x1CD3 JUMP JUMPDEST DUP1 SLOAD SWAP1 SWAP2 POP PUSH1 0x1 PUSH1 0x60 SHL SWAP1 DIV PUSH1 0x1 PUSH1 0x1 PUSH1 0x60 SHL SUB AND PUSH1 0x0 PUSH2 0x19EF DUP3 DUP7 PUSH2 0x29E8 JUMP JUMPDEST DUP4 SLOAD PUSH12 0xFFFFFFFFFFFFFFFFFFFFFFFF PUSH1 0x60 SHL NOT AND PUSH1 0x1 PUSH1 0x60 SHL PUSH1 0x1 PUSH1 0x1 PUSH1 0x60 SHL SUB DUP4 AND SWAP1 DUP2 MUL SWAP2 SWAP1 SWAP2 OR DUP6 SSTORE SWAP1 SWAP2 POP ISZERO DUP1 ISZERO PUSH2 0x1999 JUMPI POP DUP3 SLOAD PUSH1 0x1 PUSH1 0x1 PUSH1 0x60 SHL SUB AND PUSH2 0x19B4 JUMPI PUSH2 0x19A8 DUP8 DUP8 PUSH2 0x29F4 JUMP JUMPDEST PUSH3 0x10002 PUSH1 0x0 DUP4 DUP4 PUSH1 0x40 MLOAD PUSH1 0x20 ADD PUSH2 0x1A64 SWAP3 SWAP2 SWAP1 SWAP2 DUP3 MSTORE PUSH1 0xE8 SHL PUSH1 0x20 DUP3 ADD MSTORE PUSH1 0x23 ADD SWAP1 JUMP JUMPDEST PUSH1 0x40 DUP1 MLOAD PUSH1 0x1F NOT DUP2 DUP5 SUB ADD DUP2 MSTORE SWAP2 DUP2 MSTORE DUP2 MLOAD PUSH1 0x20 SWAP3 DUP4 ADD KECCAK256 DUP4 MSTORE SWAP1 DUP3 ADD SWAP3 SWAP1 SWAP3 MSTORE ADD PUSH1 0x0 SWAP1 DUP2 KECCAK256 SSTORE POP POP JUMP JUMPDEST PUSH1 0xA PUSH1 0x0 DUP4 PUSH2 0x1A9D PUSH2 0x13B7 JUMP JUMPDEST PUSH2 0x1AA7 SWAP2 SWAP1 PUSH2 0x4136 JUMP JUMPDEST SWAP1 POP PUSH1 0x0 PUSH2 0x1AB5 DUP4 DUP4 PUSH2 0x4153 JUMP JUMPDEST SWAP1 POP PUSH1 0xFF PUSH4 0xFFFFFFFF DUP3 AND GT PUSH2 0xFD5 JUMPI PUSH1 0x0 DUP5 DUP2 MSTORE PUSH3 0x10009 PUSH1 0x20 MSTORE PUSH1 0x40 SWAP1 KECCAK256 SLOAD PUSH1 0x1 PUSH1 0x30 SHL SWAP1 DIV PUSH1 0xFF AND PUSH4 0xFFFFFFFF DUP3 AND LT ISZERO PUSH2 0xFD5 JUMPI PUSH1 0x40 MLOAD PUSH3 0x461BCD PUSH1 0xE5 SHL DUP2 MSTORE PUSH1 0x20 PUSH1 0x4 DUP3 ADD MSTORE PUSH1 0x1 PUSH1 0x24 DUP3 ADD MSTORE PUSH1 0x25 PUSH1 0xF9 SHL PUSH1 0x44 DUP3 ADD MSTORE PUSH1 0x64 ADD PUSH2 0x5F3 JUMP JUMPDEST DUP3 SLOAD PUSH1 0x0 SWAP1 PUSH1 0x1 PUSH1 0x1 PUSH1 0x80 SHL SUB AND DUP2 PUSH2 0x1B32 DUP3 DUP7 PUSH2 0x2A7D JUMP JUMPDEST DUP7 SLOAD SWAP1 SWAP2 POP PUSH2 0x1B54 SWAP1 PUSH1 0x1 PUSH1 0x1 PUSH1 0x40 SHL SUB DUP7 DUP2 AND SWAP2 PUSH1 0x1 PUSH1 0x80 SHL SWAP1 DIV AND PUSH2 0x2A89 JUMP JUMPDEST SWAP3 POP PUSH1 0x1 PUSH1 0x1 PUSH1 0x80 SHL SUB DUP2 AND ISZERO PUSH2 0x1BC1 JUMPI DUP6 SLOAD PUSH1 0x1 PUSH1 0xE0 SHL SWAP1 DIV PUSH1 0xFF AND ISZERO PUSH2 0x1BA3 JUMPI PUSH1 0x40 MLOAD PUSH3 0x461BCD PUSH1 0xE5 SHL DUP2 MSTORE PUSH1 0x20 PUSH1 0x4 DUP3 ADD MSTORE PUSH1 0x2 PUSH1 0x24 DUP3 ADD MSTORE PUSH2 0x27A9 PUSH1 0xF1 SHL PUSH1 0x44 DUP3 ADD MSTORE PUSH1 0x64 ADD PUSH2 0x5F3 JUMP JUMPDEST DUP6 SLOAD PUSH1 0x1 PUSH1 0x1 PUSH1 0x80 SHL SUB NOT AND PUSH1 0x1 PUSH1 0x1 PUSH1 0x80 SHL SUB DUP3 AND OR DUP7 SSTORE PUSH2 0x1BD0 JUMP JUMPDEST DUP6 SLOAD PUSH1 0x1 PUSH1 0x1 PUSH1 0xE8 SHL SUB NOT AND DUP7 SSTORE JUMPDEST POP POP SWAP4 SWAP3 POP POP POP JUMP JUMPDEST PUSH1 0x0 DUP1 PUSH1 0x0 PUSH2 0x1BEE DUP8 PUSH1 0x0 ADD MLOAD DUP8 DUP8 DUP8 PUSH2 0x11D3 JUMP JUMPDEST SWAP2 SWAP5 POP SWAP3 POP SWAP1 POP PUSH2 0x1C14 DUP8 PUSH2 0x1C0B PUSH1 0x1 PUSH1 0x1 PUSH1 0x80 SHL SUB DUP10 AND PUSH2 0x1316 JUMP JUMPDEST PUSH2 0x12A5 SWAP1 PUSH2 0x405F JUMP JUMPDEST POP SWAP5 POP SWAP5 SWAP3 POP POP POP JUMP JUMPDEST PUSH1 0x0 DUP1 PUSH1 0x1 PUSH1 0x1 PUSH1 0x40 SHL SUB DUP4 AND ISZERO PUSH2 0x1C9B JUMPI PUSH1 0x0 PUSH2 0x1C5B PUSH1 0x1 PUSH1 0x1 PUSH1 0x80 SHL SUB DUP7 AND PUSH1 0x1 PUSH1 0x1 PUSH1 0x40 SHL SUB DUP7 AND MUL PUSH1 0x30 SHR PUSH1 0x1 PUSH1 0x1 PUSH1 0x90 SHL SUB AND PUSH2 0x2AFA JUMP JUMPDEST SWAP1 POP PUSH1 0x1 PUSH1 0x1 PUSH1 0x80 SHL SUB DUP2 AND ISZERO PUSH2 0x1C99 JUMPI PUSH1 0x0 DUP1 PUSH2 0x1C79 DUP9 DUP5 PUSH2 0xF2E JUMP JUMPDEST SWAP1 SWAP3 POP SWAP1 POP PUSH2 0x1C88 DUP3 DUP12 PUSH2 0x40A5 JUMP JUMPDEST SWAP10 POP PUSH2 0x1C94 DUP2 DUP11 PUSH2 0x40A5 JUMP JUMPDEST SWAP9 POP POP POP JUMPDEST POP JUMPDEST POP SWAP5 SWAP6 SWAP4 SWAP5 POP POP POP POP JUMP JUMPDEST PUSH1 0x20 DUP3 ADD MLOAD PUSH2 0x1CBE SWAP1 PUSH1 0x1 PUSH1 0x1 PUSH1 0x80 SHL SUB AND DUP3 PUSH2 0x273A JUMP JUMPDEST PUSH1 0x1 PUSH1 0x1 PUSH1 0x80 SHL SUB AND PUSH1 0x20 SWAP1 SWAP3 ADD SWAP2 SWAP1 SWAP2 MSTORE POP JUMP JUMPDEST PUSH1 0x0 PUSH3 0x10002 PUSH1 0x0 DUP5 DUP5 PUSH1 0x40 MLOAD PUSH1 0x20 ADD PUSH2 0x1CFA SWAP3 SWAP2 SWAP1 SWAP2 DUP3 MSTORE PUSH1 0xE8 SHL PUSH1 0x20 DUP3 ADD MSTORE PUSH1 0x23 ADD SWAP1 JUMP JUMPDEST PUSH1 0x40 MLOAD PUSH1 0x20 DUP2 DUP4 SUB SUB DUP2 MSTORE SWAP1 PUSH1 0x40 MSTORE DUP1 MLOAD SWAP1 PUSH1 0x20 ADD KECCAK256 DUP2 MSTORE PUSH1 0x20 ADD SWAP1 DUP2 MSTORE PUSH1 0x20 ADD PUSH1 0x0 KECCAK256 SWAP1 POP SWAP3 SWAP2 POP POP JUMP JUMPDEST PUSH1 0x0 PUSH2 0x1D34 DUP3 PUSH1 0x2 SIGNEXTEND PUSH2 0x2514 JUMP JUMPDEST PUSH1 0xFF AND PUSH1 0x1 SWAP1 SHL SWAP1 POP PUSH1 0x0 PUSH2 0x1D4B DUP4 PUSH1 0x2 SIGNEXTEND PUSH2 0x20E9 JUMP JUMPDEST PUSH1 0xFF AND PUSH1 0x1 SWAP1 SHL SWAP1 POP DUP2 PUSH3 0x10006 PUSH1 0x0 PUSH2 0x1D65 DUP8 DUP8 PUSH2 0x2B19 JUMP JUMPDEST DUP2 MSTORE PUSH1 0x20 ADD SWAP1 DUP2 MSTORE PUSH1 0x20 ADD PUSH1 0x0 KECCAK256 PUSH1 0x0 DUP3 DUP3 SLOAD OR SWAP3 POP POP DUP2 SWAP1 SSTORE POP DUP1 PUSH3 0x10007 PUSH1 0x0 PUSH2 0x1D91 DUP8 DUP8 PUSH2 0x209E JUMP JUMPDEST DUP2 MSTORE PUSH1 0x20 DUP2 ADD SWAP2 SWAP1 SWAP2 MSTORE PUSH1 0x40 ADD PUSH1 0x0 KECCAK256 DUP1 SLOAD SWAP1 SWAP2 OR SWAP1 SSTORE POP POP POP POP JUMP JUMPDEST DUP1 DUP3 ADD PUSH1 0x1 PUSH1 0x1 PUSH1 0x60 SHL SUB DUP1 DUP5 AND SWAP1 DUP3 AND LT ISZERO PUSH2 0x2BD JUMPI PUSH1 0x0 DUP1 REVERT JUMPDEST PUSH1 0x0 DUP1 PUSH2 0x1DD7 DUP7 DUP7 PUSH2 0x1CD3 JUMP JUMPDEST SWAP1 POP DUP4 PUSH1 0x2 SIGNEXTEND DUP6 PUSH1 0x2 SIGNEXTEND SGT ISZERO PUSH2 0x1E08 JUMPI DUP1 SLOAD PUSH2 0x1E03 SWAP1 PUSH1 0x1 PUSH1 0xC0 SHL SWAP1 DIV PUSH1 0x1 PUSH1 0x1 PUSH1 0x40 SHL SUB AND DUP5 PUSH2 0x4176 JUMP JUMPDEST PUSH2 0x1E1B JUMP JUMPDEST DUP1 SLOAD PUSH1 0x1 PUSH1 0xC0 SHL SWAP1 DIV PUSH1 0x1 PUSH1 0x1 PUSH1 0x40 SHL SUB AND JUMPDEST SWAP7 SWAP6 POP POP POP POP POP POP JUMP JUMPDEST PUSH1 0x0 DUP2 PUSH1 0x1 PUSH1 0x1 PUSH1 0x80 SHL SUB AND PUSH1 0x0 SUB PUSH2 0x1E3F JUMPI POP DUP4 PUSH2 0xBCC JUMP JUMPDEST DUP4 PUSH1 0x1 PUSH1 0x1 PUSH1 0x80 SHL SUB AND PUSH1 0x0 SUB PUSH2 0x1E57 JUMPI POP DUP2 PUSH2 0xBCC JUMP JUMPDEST DUP3 PUSH1 0x1 PUSH1 0x1 PUSH1 0x40 SHL SUB AND DUP6 PUSH1 0x1 PUSH1 0x1 PUSH1 0x40 SHL SUB AND SUB PUSH2 0x1E77 JUMPI POP DUP4 PUSH2 0xBCC JUMP JUMPDEST PUSH1 0x0 PUSH2 0x1E8D DUP7 DUP7 PUSH2 0x1E88 DUP7 DUP3 PUSH2 0x40A5 JUMP JUMPDEST PUSH2 0x2B45 JUMP JUMPDEST SWAP1 POP PUSH1 0x0 PUSH2 0x1EA0 DUP6 DUP6 PUSH2 0x1E88 DUP2 DUP11 PUSH2 0x40A5 JUMP JUMPDEST SWAP1 POP PUSH2 0x1EAD DUP2 PUSH1 0x1 PUSH2 0x4196 JUMP JUMPDEST PUSH2 0x1EB8 DUP4 PUSH1 0x1 PUSH2 0x4196 JUMP JUMPDEST PUSH2 0x85B SWAP2 SWAP1 PUSH2 0x4196 JUMP JUMPDEST PUSH1 0x0 DUP1 DUP4 PUSH1 0x2 SIGNEXTEND DUP4 PUSH1 0x2 SIGNEXTEND SGT PUSH2 0x1ED7 JUMPI PUSH1 0x0 DUP1 REVERT JUMPDEST PUSH3 0xA276D NOT PUSH1 0x2 DUP6 SWAP1 SIGNEXTEND SLT ISZERO PUSH2 0x1EEC JUMPI PUSH1 0x0 DUP1 REVERT JUMPDEST PUSH3 0xCB14A PUSH1 0x2 DUP5 SWAP1 SIGNEXTEND SGT ISZERO PUSH2 0x1F00 JUMPI PUSH1 0x0 DUP1 REVERT JUMPDEST PUSH2 0x1F09 DUP5 PUSH2 0x2B7C JUMP JUMPDEST SWAP2 POP PUSH2 0x1F14 DUP4 PUSH2 0x2B7C JUMP JUMPDEST SWAP1 POP SWAP3 POP SWAP3 SWAP1 POP JUMP JUMPDEST PUSH1 0x0 DUP3 PUSH1 0x1 PUSH1 0x1 PUSH1 0x80 SHL SUB AND DUP3 PUSH1 0x1 PUSH1 0x1 PUSH1 0x80 SHL SUB AND GT ISZERO PUSH2 0x1F4B JUMPI PUSH2 0x1F44 DUP5 DUP4 DUP6 PUSH2 0x2EA2 JUMP JUMPDEST SWAP1 POP PUSH2 0xC84 JUMP JUMPDEST PUSH2 0x1F44 DUP5 DUP5 DUP5 PUSH2 0x2EA2 JUMP JUMPDEST PUSH1 0x0 DUP1 DUP3 PUSH1 0x1 PUSH1 0x1 PUSH1 0x80 SHL SUB AND DUP5 PUSH1 0x1 PUSH1 0x1 PUSH1 0x80 SHL SUB AND GT PUSH2 0x1F7A JUMPI DUP4 DUP4 SUB PUSH2 0x1F7E JUMP JUMPDEST DUP3 DUP5 SUB JUMPDEST SWAP1 POP PUSH2 0xD16 DUP6 DUP3 PUSH1 0x1 PUSH2 0x2EFE JUMP JUMPDEST DUP1 ISZERO PUSH2 0x12AB JUMPI PUSH1 0x40 DUP4 ADD MLOAD PUSH2 0x1FAA SWAP1 PUSH1 0x1 PUSH1 0x1 PUSH1 0x80 SHL SUB AND DUP4 PUSH2 0x273A JUMP JUMPDEST PUSH1 0x1 PUSH1 0x1 PUSH1 0x80 SHL SUB AND PUSH1 0x40 DUP5 ADD MSTORE POP POP POP JUMP JUMPDEST PUSH1 0x40 MLOAD PUSH1 0x1 PUSH1 0x1 PUSH1 0x60 SHL SUB NOT PUSH1 0x60 DUP5 SWAP1 SHL AND PUSH1 0x20 DUP3 ADD MSTORE PUSH1 0x34 DUP2 ADD DUP3 SWAP1 MSTORE PUSH1 0x0 SWAP1 PUSH1 0x54 ADD JUMPDEST PUSH1 0x40 MLOAD PUSH1 0x20 DUP2 DUP4 SUB SUB DUP2 MSTORE SWAP1 PUSH1 0x40 MSTORE DUP1 MLOAD SWAP1 PUSH1 0x20 ADD KECCAK256 SWAP1 POP SWAP3 SWAP2 POP POP JUMP JUMPDEST PUSH1 0x0 PUSH1 0x1 PUSH1 0x30 SHL PUSH1 0x1 PUSH1 0x1 PUSH1 0x80 SHL SUB DUP1 DUP6 AND PUSH1 0x1 PUSH1 0x1 PUSH1 0x40 SHL SUB DUP6 AND DUP4 ADD MUL SWAP1 PUSH1 0x30 DUP3 SWAP1 SHR SWAP1 DUP2 GT ISZERO PUSH2 0xD16 JUMPI PUSH1 0x1 PUSH1 0x1 PUSH1 0x80 SHL SUB SWAP4 POP POP POP POP PUSH2 0x2BD JUMP JUMPDEST DUP1 PUSH1 0x1 PUSH1 0x1 PUSH1 0x80 SHL SUB DUP2 AND PUSH1 0x1 PUSH1 0x1 PUSH1 0xC0 SHL SUB DUP3 AND EQ PUSH2 0x13D1 JUMPI PUSH1 0x0 DUP1 REVERT JUMPDEST PUSH1 0x0 PUSH1 0x1 PUSH1 0x1 PUSH1 0x80 SHL SUB DUP3 AND PUSH24 0xFFFFFFFFFFFFFFFFFFFFFFFFFFFFFFFF0000000000000000 PUSH1 0x40 DUP6 SWAP1 SHL AND DUP2 PUSH2 0x2096 JUMPI PUSH2 0x2096 PUSH2 0x40C5 JUMP JUMPDEST DIV SWAP4 SWAP3 POP POP POP JUMP JUMPDEST PUSH1 0x0 DUP1 PUSH1 0x2 DUP4 SWAP1 SIGNEXTEND PUSH1 0x8 SAR SWAP1 POP DUP4 DUP2 PUSH1 0x40 MLOAD PUSH1 0x20 ADD PUSH2 0x20CA SWAP3 SWAP2 SWAP1 SWAP2 DUP3 MSTORE PUSH1 0xF0 SHL PUSH1 0x20 DUP3 ADD MSTORE PUSH1 0x22 ADD SWAP1 JUMP JUMPDEST PUSH1 0x40 MLOAD PUSH1 0x20 DUP2 DUP4 SUB SUB DUP2 MSTORE SWAP1 PUSH1 0x40 MSTORE DUP1 MLOAD SWAP1 PUSH1 0x20 ADD KECCAK256 SWAP2 POP POP SWAP3 SWAP2 POP POP JUMP JUMPDEST PUSH1 0x0 PUSH2 0x2BD PUSH2 0x100 DUP4 PUSH2 0x41B6 JUMP JUMPDEST PUSH1 0x0 DUP2 PUSH2 0x2107 JUMPI DUP3 PUSH1 0xFF SUB PUSH2 0xC84 JUMP JUMPDEST POP SWAP1 SWAP2 SWAP1 POP JUMP JUMPDEST PUSH1 0x0 DUP1 PUSH2 0x211C DUP6 DUP6 DUP6 PUSH2 0x2F37 JUMP JUMPDEST SWAP5 POP POP DUP4 ISZERO DUP1 PUSH2 0x130E JUMPI DUP3 PUSH2 0x2139 JUMPI PUSH2 0x2134 DUP6 PUSH2 0x2F5B JUMP JUMPDEST PUSH2 0x2142 JUMP JUMPDEST PUSH2 0x2142 DUP6 PUSH2 0x2FF6 JUMP JUMPDEST SWAP2 POP SWAP4 POP SWAP4 SWAP2 POP POP JUMP JUMPDEST PUSH1 0x0 DUP4 ISZERO PUSH2 0x215B JUMPI POP DUP2 PUSH2 0xC84 JUMP JUMPDEST PUSH1 0x0 PUSH2 0x2167 DUP4 DUP3 PUSH2 0x30DF JUMP JUMPDEST SWAP1 POP DUP1 PUSH2 0x2174 JUMPI DUP4 PUSH2 0xD16 JUMP JUMPDEST POP PUSH1 0x0 SWAP5 SWAP4 POP POP POP POP JUMP JUMPDEST PUSH1 0x0 DUP3 ISZERO PUSH2 0x21D9 JUMPI PUSH2 0x2190 DUP4 PUSH2 0x3112 JUMP JUMPDEST PUSH1 0x1 SIGNEXTEND DUP3 PUSH1 0x1 SIGNEXTEND EQ PUSH2 0x21C9 JUMPI PUSH2 0x21C4 PUSH2 0x21AA DUP4 PUSH1 0x1 PUSH2 0x41D8 JUMP JUMPDEST PUSH2 0x21B4 DUP6 ISZERO PUSH2 0x312B JUMP JUMPDEST PUSH1 0xFF AND PUSH1 0x8 SWAP2 SWAP1 SWAP2 SHL PUSH1 0x2 SIGNEXTEND ADD SWAP1 JUMP JUMPDEST PUSH2 0x21D2 JUMP JUMPDEST PUSH2 0x21D2 DUP4 PUSH2 0x3141 JUMP JUMPDEST SWAP1 POP PUSH2 0x2BD JUMP JUMPDEST PUSH1 0x8 DUP3 SWAP1 SHL PUSH1 0x2 SIGNEXTEND PUSH2 0x21D2 JUMP JUMPDEST PUSH1 0x0 PUSH3 0xA276D NOT PUSH1 0x2 DUP6 SWAP1 SIGNEXTEND SGT ISZERO DUP1 PUSH2 0x2206 JUMPI POP PUSH3 0xCB14A PUSH1 0x2 DUP6 SWAP1 SIGNEXTEND SLT ISZERO JUMPDEST ISZERO PUSH2 0x2212 JUMPI POP DUP2 PUSH2 0xC84 JUMP JUMPDEST DUP2 ISZERO PUSH2 0x2253 JUMPI PUSH1 0x1 PUSH1 0x0 DUP2 PUSH2 0x2226 DUP8 PUSH2 0x2B7C JUMP JUMPDEST SUB SWAP1 POP DUP5 PUSH1 0x1 PUSH1 0x1 PUSH1 0x80 SHL SUB AND DUP2 PUSH1 0x1 PUSH1 0x1 PUSH1 0x80 SHL SUB AND LT PUSH2 0x2248 JUMPI DUP5 PUSH2 0x224A JUMP JUMPDEST DUP1 JUMPDEST SWAP3 POP POP POP PUSH2 0xC84 JUMP JUMPDEST PUSH1 0x0 PUSH2 0x225E DUP6 PUSH2 0x2B7C JUMP JUMPDEST SWAP1 POP DUP4 PUSH1 0x1 PUSH1 0x1 PUSH1 0x80 SHL SUB AND DUP2 PUSH1 0x1 PUSH1 0x1 PUSH1 0x80 SHL SUB AND GT PUSH2 0x227F JUMPI DUP4 PUSH2 0x2281 JUMP JUMPDEST DUP1 JUMPDEST SWAP2 POP POP PUSH2 0xC84 JUMP JUMPDEST PUSH1 0x0 DUP1 DUP1 PUSH2 0x2299 DUP10 DUP10 DUP8 DUP8 PUSH2 0x315C JUMP JUMPDEST SWAP1 POP PUSH2 0x100 PUSH3 0xF4240 PUSH1 0x1 PUSH1 0x1 PUSH1 0x80 SHL SUB DUP4 AND PUSH2 0xFFFF DUP11 AND MUL DIV PUSH1 0xFF DUP9 AND DUP2 MUL SWAP2 SWAP1 SWAP2 DIV SWAP1 DUP2 SWAP1 SUB SWAP1 PUSH2 0x56E JUMP JUMPDEST PUSH1 0x0 PUSH2 0x22D2 DUP5 PUSH2 0x2881 JUMP JUMPDEST SWAP1 POP DUP1 PUSH1 0x1 PUSH1 0x1 PUSH1 0x80 SHL SUB AND PUSH1 0x0 SUB PUSH2 0x22EB JUMPI POP POP POP POP JUMP JUMPDEST DUP4 MLOAD DUP3 ISZERO SWAP1 PUSH1 0x0 SWAP1 PUSH2 0x2300 SWAP1 DUP5 SWAP1 DUP8 DUP6 PUSH2 0x3195 JUMP JUMPDEST SWAP1 POP PUSH1 0x0 PUSH2 0x2314 DUP5 DUP9 PUSH1 0x0 ADD MLOAD DUP5 DUP7 PUSH2 0x31D3 JUMP JUMPDEST SWAP1 POP PUSH1 0x1 PUSH1 0x1 PUSH1 0x40 SHL SUB DUP2 AND ISZERO PUSH2 0x881 JUMPI PUSH2 0x881 DUP8 DUP3 DUP6 PUSH2 0x31ED JUMP JUMPDEST PUSH1 0x0 DUP1 DUP1 DUP6 DUP6 ADD DUP5 ISZERO PUSH2 0x2356 JUMPI PUSH2 0x234F DUP2 PUSH1 0x1 PUSH1 0x1 PUSH1 0x80 SHL SUB AND PUSH2 0x1316 JUMP JUMPDEST SWAP3 POP PUSH2 0x236B JUMP JUMPDEST PUSH2 0x2368 DUP2 PUSH1 0x1 PUSH1 0x1 PUSH1 0x80 SHL SUB AND PUSH2 0x1316 JUMP JUMPDEST SWAP4 POP JUMPDEST POP SWAP2 SWAP6 SWAP1 SWAP5 POP SWAP2 POP POP JUMP JUMPDEST PUSH1 0x0 DUP1 PUSH2 0x2384 DUP7 DUP6 DUP6 PUSH2 0x32B1 JUMP JUMPDEST SWAP1 POP DUP5 PUSH1 0x1 PUSH1 0x1 PUSH1 0x80 SHL SUB AND DUP2 PUSH1 0x1 PUSH1 0x1 PUSH1 0x80 SHL SUB AND GT PUSH2 0x23A5 JUMPI DUP1 PUSH2 0x1E1B JUMP JUMPDEST POP SWAP3 SWAP5 SWAP4 POP POP POP POP JUMP JUMPDEST PUSH1 0x0 DUP1 PUSH1 0x0 DUP1 PUSH1 0x0 PUSH2 0x23C2 DUP11 DUP11 DUP11 PUSH2 0x32E7 JUMP JUMPDEST SWAP2 POP SWAP2 POP PUSH1 0x0 DUP1 PUSH2 0x23D5 DUP5 DUP5 DUP13 DUP13 PUSH2 0x3355 JUMP JUMPDEST SWAP2 POP SWAP2 POP PUSH2 0x23E8 DUP13 DUP12 DUP12 DUP12 DUP16 DUP8 DUP8 PUSH2 0x338C JUMP JUMPDEST SWAP7 POP SWAP7 POP SWAP7 POP POP POP POP POP SWAP6 POP SWAP6 POP SWAP6 SWAP3 POP POP POP JUMP JUMPDEST DUP3 MLOAD PUSH1 0x1 PUSH1 0x1 PUSH1 0x80 SHL SUB SWAP1 DUP2 AND DUP2 DUP4 AND EQ SWAP1 DUP4 AND ISZERO ISZERO DUP2 DUP1 ISZERO PUSH2 0x241D JUMPI POP DUP1 JUMPDEST PUSH2 0xFD5 JUMPI PUSH1 0x40 MLOAD PUSH3 0x461BCD PUSH1 0xE5 SHL DUP2 MSTORE PUSH1 0x20 PUSH1 0x4 DUP3 ADD MSTORE PUSH1 0x2 PUSH1 0x24 DUP3 ADD MSTORE PUSH2 0x525 PUSH1 0xF4 SHL PUSH1 0x44 DUP3 ADD MSTORE PUSH1 0x64 ADD PUSH2 0x5F3 JUMP JUMPDEST PUSH1 0x0 DUP1 PUSH1 0x0 DUP1 PUSH1 0x0 PUSH2 0x2462 DUP11 DUP11 DUP11 DUP11 PUSH2 0x3409 JUMP JUMPDEST SWAP2 POP SWAP2 POP PUSH1 0x0 DUP1 PUSH2 0x2475 DUP12 DUP6 DUP13 DUP13 PUSH2 0x3471 JUMP JUMPDEST SWAP2 POP SWAP2 POP PUSH2 0x23E8 DUP13 DUP12 DUP12 DUP12 DUP8 DUP8 DUP8 PUSH2 0x338C JUMP JUMPDEST PUSH1 0x0 DUP3 PUSH2 0x24A4 JUMPI DUP5 MLOAD PUSH1 0x1 PUSH1 0x1 PUSH1 0x80 SHL SUB DUP1 DUP5 AND SWAP2 AND GT PUSH2 0x24B5 JUMP JUMPDEST DUP5 MLOAD PUSH1 0x1 PUSH1 0x1 PUSH1 0x80 SHL SUB DUP1 DUP5 AND SWAP2 AND LT JUMPDEST SWAP1 POP PUSH1 0x1 PUSH1 0x1 PUSH1 0x80 SHL SUB DUP5 AND ISZERO DUP2 DUP1 ISZERO PUSH2 0x24CC JUMPI POP DUP1 JUMPDEST PUSH2 0x6B4 JUMPI PUSH1 0x40 MLOAD PUSH3 0x461BCD PUSH1 0xE5 SHL DUP2 MSTORE PUSH1 0x20 PUSH1 0x4 DUP3 ADD MSTORE PUSH1 0x2 PUSH1 0x24 DUP3 ADD MSTORE PUSH2 0x2923 PUSH1 0xF1 SHL PUSH1 0x44 DUP3 ADD MSTORE PUSH1 0x64 ADD PUSH2 0x5F3 JUMP JUMPDEST PUSH1 0x0 PUSH2 0x2BD PUSH2 0x250F DUP4 PUSH1 0x2 SIGNEXTEND PUSH1 0x10 SAR SWAP1 JUMP JUMPDEST PUSH2 0x3490 JUMP JUMPDEST PUSH1 0x0 PUSH2 0x100 PUSH2 0x2526 DUP4 PUSH1 0x2 SIGNEXTEND PUSH1 0x8 SAR SWAP1 JUMP JUMPDEST PUSH2 0x2BD SWAP2 SWAP1 PUSH2 0x41FB JUMP JUMPDEST PUSH1 0x0 DUP1 PUSH2 0x254D PUSH2 0x253F DUP6 PUSH2 0x34B0 JUMP JUMPDEST PUSH1 0x8 SHL PUSH1 0x1 SIGNEXTEND PUSH1 0xFF DUP6 AND ADD SWAP1 JUMP JUMPDEST SWAP1 POP DUP5 DUP2 PUSH1 0x40 MLOAD PUSH1 0x20 ADD PUSH2 0x256E SWAP3 SWAP2 SWAP1 SWAP2 DUP3 MSTORE PUSH1 0xF0 SHL PUSH1 0x20 DUP3 ADD MSTORE PUSH1 0x22 ADD SWAP1 JUMP JUMPDEST PUSH1 0x40 MLOAD PUSH1 0x20 DUP2 DUP4 SUB SUB DUP2 MSTORE SWAP1 PUSH1 0x40 MSTORE DUP1 MLOAD SWAP1 PUSH1 0x20 ADD KECCAK256 SWAP2 POP POP SWAP4 SWAP3 POP POP POP JUMP JUMPDEST PUSH1 0x0 PUSH2 0xBCC PUSH2 0x259C DUP6 PUSH2 0x34B0 JUMP JUMPDEST PUSH1 0x10 SHL PUSH1 0x2 SIGNEXTEND PUSH2 0xFF00 PUSH1 0x8 DUP7 SWAP1 SHL AND PUSH1 0x3 SIGNEXTEND ADD PUSH1 0xFF DUP5 AND ADD SWAP1 JUMP JUMPDEST PUSH1 0x0 PUSH2 0xC84 DUP4 PUSH2 0x25C6 DUP5 PUSH2 0x34B0 JUMP JUMPDEST PUSH2 0x34D1 JUMP JUMPDEST PUSH1 0x0 PUSH1 0xFF PUSH1 0x0 NOT DUP4 ADD JUMPDEST PUSH1 0xFF DUP2 PUSH1 0xFF AND LT ISZERO PUSH2 0x2610 JUMPI PUSH1 0x0 DUP1 PUSH2 0x25F1 DUP8 DUP5 DUP7 PUSH1 0x0 PUSH2 0x1725 JUMP JUMPDEST SWAP2 POP SWAP2 POP DUP1 PUSH2 0x2605 JUMPI POP SWAP3 POP PUSH2 0x2BD SWAP2 POP POP JUMP JUMPDEST POP POP PUSH1 0x0 NOT ADD PUSH2 0x25D5 JUMP JUMPDEST POP PUSH2 0xBCC PUSH1 0x0 PUSH2 0x3141 JUMP JUMPDEST PUSH1 0x0 DUP1 PUSH1 0x1 DUP4 ADD JUMPDEST PUSH1 0xFF DUP2 AND ISZERO PUSH2 0x265A JUMPI PUSH1 0x0 DUP1 PUSH2 0x263C DUP8 DUP5 DUP7 PUSH1 0x1 PUSH2 0x1725 JUMP JUMPDEST SWAP2 POP SWAP2 POP DUP1 PUSH2 0x2650 JUMPI POP SWAP3 POP PUSH2 0x2BD SWAP2 POP POP JUMP JUMPDEST POP POP PUSH1 0x1 ADD PUSH2 0x2623 JUMP JUMPDEST POP PUSH2 0xBCC PUSH1 0x1 PUSH2 0x3141 JUMP JUMPDEST PUSH1 0x0 DUP1 PUSH1 0x0 PUSH2 0x2674 DUP8 DUP8 PUSH2 0x1CD3 JUMP JUMPDEST DUP1 SLOAD SWAP1 SWAP2 POP PUSH1 0x0 SWAP1 PUSH2 0x2699 SWAP1 PUSH1 0x1 PUSH1 0x1 PUSH1 0x60 SHL SUB DUP1 DUP3 AND SWAP2 PUSH1 0x1 PUSH1 0x60 SHL SWAP1 DIV AND PUSH2 0x34F2 JUMP JUMPDEST SWAP1 POP DUP6 PUSH2 0x26AE JUMPI PUSH2 0x26A9 DUP2 PUSH2 0x405F JUMP JUMPDEST PUSH2 0x26B0 JUMP JUMPDEST DUP1 JUMPDEST DUP3 SLOAD SWAP1 SWAP5 POP PUSH1 0x1 PUSH1 0x1 PUSH1 0x40 SHL SUB DUP7 DUP2 AND PUSH1 0x1 PUSH1 0xC0 SHL SWAP1 SWAP3 DIV AND EQ PUSH2 0x270D JUMPI DUP2 SLOAD PUSH2 0x26EA SWAP1 PUSH1 0x1 PUSH1 0xC0 SHL SWAP1 DIV PUSH1 0x1 PUSH1 0x1 PUSH1 0x40 SHL SUB AND DUP7 PUSH2 0x4176 JUMP JUMPDEST DUP3 SLOAD PUSH1 0x1 PUSH1 0x1 PUSH1 0x40 SHL SUB SWAP2 SWAP1 SWAP2 AND PUSH1 0x1 PUSH1 0xC0 SHL MUL PUSH1 0x1 PUSH1 0x1 PUSH1 0xC0 SHL SUB SWAP1 SWAP2 AND OR DUP3 SSTORE JUMPDEST DUP6 PUSH2 0x271E JUMPI DUP2 SLOAD PUSH1 0x1 AND ISZERO ISZERO PUSH2 0x272D JUMP JUMPDEST DUP2 SLOAD PUSH1 0x1 PUSH1 0x60 SHL SWAP1 DIV PUSH1 0x1 AND ISZERO ISZERO JUMPDEST SWAP3 POP POP POP SWAP5 POP SWAP5 SWAP3 POP POP POP JUMP JUMPDEST PUSH1 0x0 DUP1 DUP3 PUSH1 0xF SIGNEXTEND SLT ISZERO PUSH2 0x2768 JUMPI POP DUP1 DUP3 ADD PUSH1 0x1 PUSH1 0x1 PUSH1 0x80 SHL SUB DUP1 DUP5 AND SWAP1 DUP3 AND LT PUSH2 0x2763 JUMPI PUSH1 0x0 DUP1 REVERT JUMPDEST PUSH2 0x2BD JUMP JUMPDEST DUP3 PUSH1 0x1 PUSH1 0x1 PUSH1 0x80 SHL SUB AND DUP3 DUP5 ADD SWAP2 POP DUP2 PUSH1 0x1 PUSH1 0x1 PUSH1 0x80 SHL SUB AND LT ISZERO PUSH2 0x2BD JUMPI PUSH1 0x0 DUP1 REVERT JUMPDEST PUSH2 0xDAD SLOAD PUSH1 0x0 SWAP1 PUSH1 0x1 PUSH1 0x1 PUSH1 0xA0 SHL SUB AND PUSH2 0x27A5 JUMPI PUSH1 0x0 DUP1 REVERT JUMPDEST PUSH1 0x0 DUP1 PUSH1 0x1 PUSH2 0xDAC ADD SLOAD PUSH1 0x40 MLOAD PUSH1 0x24 DUP2 ADD DUP10 SWAP1 MSTORE PUSH1 0x2 DUP9 SWAP1 SIGNEXTEND PUSH1 0x44 DUP3 ADD MSTORE DUP7 ISZERO ISZERO PUSH1 0x64 DUP3 ADD MSTORE PUSH1 0x1 PUSH1 0x1 PUSH1 0x40 SHL SUB DUP7 AND PUSH1 0x84 DUP3 ADD MSTORE PUSH1 0x1 PUSH1 0x1 PUSH1 0xA0 SHL SUB SWAP1 SWAP2 AND SWAP1 PUSH1 0xA4 ADD PUSH1 0x40 DUP1 MLOAD PUSH1 0x1F NOT DUP2 DUP5 SUB ADD DUP2 MSTORE SWAP2 DUP2 MSTORE PUSH1 0x20 DUP3 ADD DUP1 MLOAD PUSH1 0x1 PUSH1 0x1 PUSH1 0xE0 SHL SUB AND PUSH4 0x3C05C621 PUSH1 0xE0 SHL OR SWAP1 MSTORE MLOAD PUSH2 0x281E SWAP2 SWAP1 PUSH2 0x421D JUMP JUMPDEST PUSH1 0x0 PUSH1 0x40 MLOAD DUP1 DUP4 SUB DUP2 DUP6 GAS DELEGATECALL SWAP2 POP POP RETURNDATASIZE DUP1 PUSH1 0x0 DUP2 EQ PUSH2 0x2859 JUMPI PUSH1 0x40 MLOAD SWAP2 POP PUSH1 0x1F NOT PUSH1 0x3F RETURNDATASIZE ADD AND DUP3 ADD PUSH1 0x40 MSTORE RETURNDATASIZE DUP3 MSTORE RETURNDATASIZE PUSH1 0x0 PUSH1 0x20 DUP5 ADD RETURNDATACOPY PUSH2 0x285E JUMP JUMPDEST PUSH1 0x60 SWAP2 POP JUMPDEST POP SWAP2 POP SWAP2 POP DUP2 PUSH2 0x286D JUMPI PUSH1 0x0 DUP1 REVERT JUMPDEST DUP1 DUP1 PUSH1 0x20 ADD SWAP1 MLOAD DUP2 ADD SWAP1 PUSH2 0x85B SWAP2 SWAP1 PUSH2 0x424C JUMP JUMPDEST PUSH1 0x0 DUP1 PUSH2 0x2896 DUP4 PUSH1 0x20 ADD MLOAD DUP5 PUSH1 0x60 ADD MLOAD PUSH2 0x2000 JUMP JUMPDEST SWAP1 POP PUSH2 0xC84 DUP2 DUP5 PUSH1 0x40 ADD MLOAD PUSH2 0x139B JUMP JUMPDEST PUSH1 0x0 DUP2 ISZERO PUSH2 0x28C5 JUMPI POP PUSH1 0x1 PUSH1 0x1 PUSH1 0x1 PUSH1 0x40 SHL SUB PUSH1 0x40 DUP6 SWAP1 SHR AND ADD PUSH2 0xC84 JUMP JUMPDEST PUSH1 0x0 PUSH2 0x28D4 DUP6 PUSH1 0x1 DUP7 SUB PUSH2 0x205E JUMP JUMPDEST SWAP1 POP PUSH1 0x0 PUSH2 0x28E2 DUP7 DUP7 PUSH2 0x205E JUMP JUMPDEST SWAP1 POP DUP1 DUP3 SUB PUSH1 0x1 PUSH1 0x1 PUSH1 0x1 PUSH1 0xC0 SHL SUB DUP3 AND ADD PUSH2 0x28FD DUP2 PUSH2 0x350E JUMP JUMPDEST SWAP5 POP POP POP POP POP PUSH2 0xC84 JUMP JUMPDEST PUSH1 0x0 DUP1 PUSH1 0x0 PUSH1 0x1 PUSH16 0xFFFF5433E2B3D8211706E6102AA9472 SUB PUSH1 0x1 PUSH1 0x1 PUSH1 0x80 SHL SUB AND DUP7 PUSH1 0x0 ADD MLOAD PUSH1 0x1 PUSH1 0x1 PUSH1 0x80 SHL SUB AND LT ISZERO PUSH2 0x294F JUMPI DUP6 MLOAD PUSH1 0x1 ADD PUSH1 0x1 PUSH1 0x1 PUSH1 0x80 SHL SUB AND DUP7 MSTORE JUMPDEST PUSH1 0x0 SWAP2 POP PUSH2 0x2965 DUP5 PUSH1 0x1 PUSH1 0x1 PUSH1 0x80 SHL SUB AND PUSH2 0x1316 JUMP JUMPDEST SWAP3 POP DUP5 PUSH2 0x2973 JUMPI PUSH1 0x0 PUSH2 0x2975 JUMP JUMPDEST DUP4 JUMPDEST SWAP1 POP SWAP4 POP SWAP4 POP SWAP4 SWAP1 POP JUMP JUMPDEST PUSH1 0x0 DUP1 PUSH1 0x0 PUSH3 0x10002 PUSH1 0x1 PUSH1 0x1 PUSH1 0x80 SHL SUB AND DUP7 PUSH1 0x0 ADD MLOAD PUSH1 0x1 PUSH1 0x1 PUSH1 0x80 SHL SUB AND GT ISZERO PUSH2 0x29B8 JUMPI DUP6 MLOAD PUSH1 0x0 NOT ADD PUSH1 0x1 PUSH1 0x1 PUSH1 0x80 SHL SUB AND DUP7 MSTORE JUMPDEST PUSH1 0x0 SWAP3 POP PUSH2 0x29CE DUP5 PUSH1 0x1 PUSH1 0x1 PUSH1 0x80 SHL SUB AND PUSH2 0x1316 JUMP JUMPDEST SWAP2 POP DUP5 PUSH2 0x29DB JUMPI DUP4 PUSH2 0x2975 JUMP JUMPDEST PUSH1 0x0 SWAP1 POP SWAP4 POP SWAP4 POP SWAP4 SWAP1 POP JUMP JUMPDEST PUSH1 0x0 PUSH2 0xC84 DUP3 DUP5 PUSH2 0x426F JUMP JUMPDEST PUSH1 0x0 PUSH2 0x2A02 DUP3 PUSH1 0x2 SIGNEXTEND PUSH2 0x2514 JUMP JUMPDEST PUSH1 0xFF AND PUSH1 0x1 SWAP1 SHL NOT SWAP1 POP PUSH1 0x0 PUSH2 0x2A1A DUP4 PUSH1 0x2 SIGNEXTEND PUSH2 0x20E9 JUMP JUMPDEST PUSH1 0xFF AND PUSH1 0x1 SWAP1 SHL NOT SWAP1 POP PUSH1 0x0 PUSH2 0x2A30 DUP6 DUP6 PUSH2 0x209E JUMP JUMPDEST PUSH1 0x0 DUP2 DUP2 MSTORE PUSH3 0x10007 PUSH1 0x20 MSTORE PUSH1 0x40 DUP2 KECCAK256 DUP1 SLOAD DUP6 AND SWAP1 DUP2 SWAP1 SSTORE SWAP2 SWAP3 POP DUP2 SWAP1 SUB PUSH2 0x6B4 JUMPI PUSH1 0x0 PUSH2 0x2A5E DUP8 DUP8 PUSH2 0x2B19 JUMP JUMPDEST PUSH1 0x0 SWAP1 DUP2 MSTORE PUSH3 0x10006 PUSH1 0x20 MSTORE PUSH1 0x40 SWAP1 KECCAK256 DUP1 SLOAD DUP7 AND SWAP1 SSTORE POP POP POP POP POP POP POP JUMP JUMPDEST PUSH1 0x0 PUSH2 0xC84 DUP3 DUP5 PUSH2 0x4085 JUMP JUMPDEST PUSH1 0x0 PUSH1 0x2 PUSH2 0x2A97 DUP2 DUP5 PUSH2 0x4196 JUMP JUMPDEST PUSH1 0x1 PUSH1 0x1 PUSH1 0x40 SHL SUB AND DUP5 PUSH1 0x1 PUSH1 0x1 PUSH1 0x40 SHL SUB AND GT ISZERO PUSH2 0x2ACD JUMPI DUP1 PUSH2 0x2ABB DUP5 DUP7 PUSH2 0x4176 JUMP JUMPDEST PUSH2 0x2AC5 SWAP2 SWAP1 PUSH2 0x4176 JUMP JUMPDEST SWAP2 POP POP PUSH2 0x2BD JUMP JUMPDEST PUSH1 0x0 SWAP2 POP POP PUSH2 0x2BD JUMP JUMPDEST POP SWAP3 SWAP2 POP POP JUMP JUMPDEST PUSH1 0x1 PUSH1 0x1 PUSH1 0x40 SHL SUB AND PUSH1 0x1 PUSH1 0x1 PUSH1 0x80 SHL SUB SWAP2 SWAP1 SWAP2 AND MUL PUSH1 0x30 SHR SWAP1 JUMP JUMPDEST DUP1 PUSH1 0x1 PUSH1 0x1 PUSH1 0x80 SHL SUB DUP2 AND PUSH1 0x1 PUSH1 0x1 PUSH1 0x90 SHL SUB DUP3 AND EQ PUSH2 0x13D1 JUMPI PUSH1 0x0 DUP1 REVERT JUMPDEST PUSH1 0x0 DUP1 PUSH1 0x2 DUP4 SWAP1 SIGNEXTEND PUSH1 0x10 SAR SWAP1 POP DUP4 DUP2 PUSH1 0x40 MLOAD PUSH1 0x20 ADD PUSH2 0x20CA SWAP3 SWAP2 SWAP1 SWAP2 DUP3 MSTORE PUSH1 0xF8 SHL PUSH1 0x20 DUP3 ADD MSTORE PUSH1 0x21 ADD SWAP1 JUMP JUMPDEST PUSH1 0x0 DUP2 PUSH1 0x1 PUSH1 0x1 PUSH1 0x80 SHL SUB AND DUP4 PUSH1 0x1 PUSH1 0x1 PUSH1 0x80 SHL SUB AND DUP6 PUSH1 0x1 PUSH1 0x1 PUSH1 0x40 SHL SUB AND MUL DUP2 PUSH2 0x2B73 JUMPI PUSH2 0x2B73 PUSH2 0x40C5 JUMP JUMPDEST DIV SWAP5 SWAP4 POP POP POP POP JUMP JUMPDEST PUSH1 0x0 PUSH3 0xA276D NOT PUSH1 0x2 DUP4 SWAP1 SIGNEXTEND SLT DUP1 ISZERO SWAP1 PUSH2 0x2B9D JUMPI POP PUSH3 0xCB14A PUSH1 0x2 DUP4 SWAP1 SIGNEXTEND SGT ISZERO JUMPDEST PUSH2 0x2BA6 JUMPI PUSH1 0x0 DUP1 REVERT JUMPDEST PUSH1 0x0 DUP1 DUP4 PUSH1 0x2 SIGNEXTEND SLT PUSH2 0x2BBB JUMPI DUP3 PUSH1 0x2 SIGNEXTEND PUSH2 0x2BC3 JUMP JUMPDEST DUP3 PUSH1 0x2 SIGNEXTEND PUSH1 0x0 SUB JUMPDEST SWAP1 POP PUSH1 0x0 DUP2 PUSH1 0x1 AND PUSH1 0x0 SUB PUSH2 0x2BDC JUMPI PUSH1 0x1 PUSH1 0x80 SHL PUSH2 0x2BEE JUMP JUMPDEST PUSH16 0xFFFCB933BD6FAD37AA2D162D1A594001 JUMPDEST PUSH17 0xFFFFFFFFFFFFFFFFFFFFFFFFFFFFFFFFFF AND SWAP1 POP PUSH1 0x2 DUP3 AND ISZERO PUSH2 0x2C22 JUMPI PUSH16 0xFFF97272373D413259A46990580E213A MUL PUSH1 0x80 SHR JUMPDEST PUSH1 0x4 DUP3 AND ISZERO PUSH2 0x2C41 JUMPI PUSH16 0xFFF2E50F5F656932EF12357CF3C7FDCC MUL PUSH1 0x80 SHR JUMPDEST PUSH1 0x8 DUP3 AND ISZERO PUSH2 0x2C60 JUMPI PUSH16 0xFFE5CACA7E10E4E61C3624EAA0941CD0 MUL PUSH1 0x80 SHR JUMPDEST PUSH1 0x10 DUP3 AND ISZERO PUSH2 0x2C7F JUMPI PUSH16 0xFFCB9843D60F6159C9DB58835C926644 MUL PUSH1 0x80 SHR JUMPDEST PUSH1 0x20 DUP3 AND ISZERO PUSH2 0x2C9E JUMPI PUSH16 0xFF973B41FA98C081472E6896DFB254C0 MUL PUSH1 0x80 SHR JUMPDEST PUSH1 0x40 DUP3 AND ISZERO PUSH2 0x2CBD JUMPI PUSH16 0xFF2EA16466C96A3843EC78B326B52861 MUL PUSH1 0x80 SHR JUMPDEST PUSH1 0x80 DUP3 AND ISZERO PUSH2 0x2CDC JUMPI PUSH16 0xFE5DEE046A99A2A811C461F1969C3053 MUL PUSH1 0x80 SHR JUMPDEST PUSH2 0x100 DUP3 AND ISZERO PUSH2 0x2CFC JUMPI PUSH16 0xFCBE86C7900A88AEDCFFC83B479AA3A4 MUL PUSH1 0x80 SHR JUMPDEST PUSH2 0x200 DUP3 AND ISZERO PUSH2 0x2D1C JUMPI PUSH16 0xF987A7253AC413176F2B074CF7815E54 MUL PUSH1 0x80 SHR JUMPDEST PUSH2 0x400 DUP3 AND ISZERO PUSH2 0x2D3C JUMPI PUSH16 0xF3392B0822B70005940C7A398E4B70F3 MUL PUSH1 0x80 SHR JUMPDEST PUSH2 0x800 DUP3 AND ISZERO PUSH2 0x2D5C JUMPI PUSH16 0xE7159475A2C29B7443B29C7FA6E889D9 MUL PUSH1 0x80 SHR JUMPDEST PUSH2 0x1000 DUP3 AND ISZERO PUSH2 0x2D7C JUMPI PUSH16 0xD097F3BDFD2022B8845AD8F792AA5825 MUL PUSH1 0x80 SHR JUMPDEST PUSH2 0x2000 DUP3 AND ISZERO PUSH2 0x2D9C JUMPI PUSH16 0xA9F746462D870FDF8A65DC1F90E061E5 MUL PUSH1 0x80 SHR JUMPDEST PUSH2 0x4000 DUP3 AND ISZERO PUSH2 0x2DBC JUMPI PUSH16 0x70D869A156D2A1B890BB3DF62BAF32F7 MUL PUSH1 0x80 SHR JUMPDEST PUSH2 0x8000 DUP3 AND ISZERO PUSH2 0x2DDC JUMPI PUSH16 0x31BE135F97D08FD981231505542FCFA6 MUL PUSH1 0x80 SHR JUMPDEST PUSH3 0x10000 DUP3 AND ISZERO PUSH2 0x2DFD JUMPI PUSH16 0x9AA508B5B7A84E1C677DE54F3E99BC9 MUL PUSH1 0x80 SHR JUMPDEST PUSH3 0x20000 DUP3 AND ISZERO PUSH2 0x2E1D JUMPI PUSH15 0x5D6AF8DEDB81196699C329225EE604 MUL PUSH1 0x80 SHR JUMPDEST PUSH3 0x40000 DUP3 AND ISZERO PUSH2 0x2E3C JUMPI PUSH14 0x2216E584F5FA1EA926041BEDFE98 MUL PUSH1 0x80 SHR JUMPDEST PUSH3 0x80000 DUP3 AND ISZERO PUSH2 0x2E59 JUMPI PUSH12 0x48A170391F7DC42444E8FA2 MUL PUSH1 0x80 SHR JUMPDEST PUSH1 0x0 DUP5 PUSH1 0x2 SIGNEXTEND SGT ISZERO PUSH2 0x2E7A JUMPI DUP1 PUSH1 0x0 NOT DUP2 PUSH2 0x2E76 JUMPI PUSH2 0x2E76 PUSH2 0x40C5 JUMP JUMPDEST DIV SWAP1 POP JUMPDEST PUSH1 0x1 PUSH1 0x40 SHL DUP2 MOD ISZERO PUSH2 0x2E8D JUMPI PUSH1 0x1 PUSH2 0x2E90 JUMP JUMPDEST PUSH1 0x0 JUMPDEST PUSH1 0xFF AND PUSH1 0x40 DUP3 SWAP1 SHR ADD SWAP3 POP POP POP SWAP2 SWAP1 POP JUMP JUMPDEST PUSH1 0x0 DUP1 PUSH2 0x2EAF DUP4 DUP6 PUSH2 0x4085 JUMP JUMPDEST SWAP1 POP PUSH1 0x0 PUSH2 0x2EBD DUP7 DUP6 PUSH2 0x205E JUMP JUMPDEST PUSH1 0x1 PUSH1 0x1 PUSH1 0xC0 SHL SUB AND SWAP1 POP PUSH1 0x0 DUP6 PUSH1 0x1 PUSH1 0x1 PUSH1 0x80 SHL SUB AND DUP4 PUSH1 0x1 PUSH1 0x1 PUSH1 0x80 SHL SUB AND DUP4 PUSH2 0x2EE9 SWAP2 SWAP1 PUSH2 0x428F JUMP JUMPDEST PUSH2 0x2EF3 SWAP2 SWAP1 PUSH2 0x42A6 JUMP JUMPDEST SWAP1 POP PUSH2 0x85B DUP2 PUSH2 0x350E JUMP JUMPDEST PUSH1 0x0 PUSH2 0xBCC DUP3 PUSH2 0x2F20 JUMPI PUSH2 0x2F12 DUP6 DUP6 PUSH2 0x205E JUMP JUMPDEST PUSH1 0x1 PUSH1 0x1 PUSH1 0xC0 SHL SUB AND PUSH2 0x350E JUMP JUMPDEST PUSH1 0x1 PUSH1 0x1 PUSH1 0x80 SHL SUB DUP1 DUP7 AND SWAP1 DUP6 AND MUL PUSH1 0x40 SHR PUSH2 0x2F12 JUMP JUMPDEST PUSH1 0x0 DUP2 PUSH2 0x2F4D JUMPI PUSH2 0xFFFF DUP4 AND DUP5 DUP2 SHL SWAP1 SHR PUSH2 0xBCC JUMP JUMPDEST POP POP PUSH2 0xFFFF AND SWAP1 DUP2 SHR SWAP1 SHL SWAP1 JUMP JUMPDEST PUSH1 0x0 DUP1 DUP3 GT PUSH2 0x2F69 JUMPI PUSH1 0x0 DUP1 REVERT JUMPDEST PUSH1 0x1 PUSH1 0x80 SHL DUP3 LT PUSH2 0x2F7C JUMPI PUSH1 0x80 SWAP2 DUP3 SHR SWAP2 ADD JUMPDEST PUSH1 0x1 PUSH1 0x40 SHL DUP3 LT PUSH2 0x2F8F JUMPI PUSH1 0x40 SWAP2 DUP3 SHR SWAP2 ADD JUMPDEST PUSH5 0x100000000 DUP3 LT PUSH2 0x2FA3 JUMPI PUSH1 0x20 SWAP2 DUP3 SHR SWAP2 ADD JUMPDEST PUSH3 0x10000 DUP3 LT PUSH2 0x2FB5 JUMPI PUSH1 0x10 SWAP2 DUP3 SHR SWAP2 ADD JUMPDEST PUSH2 0x100 DUP3 LT PUSH2 0x2FC6 JUMPI PUSH1 0x8 SWAP2 DUP3 SHR SWAP2 ADD JUMPDEST PUSH1 0x10 DUP3 LT PUSH2 0x2FD6 JUMPI PUSH1 0x4 SWAP2 DUP3 SHR SWAP2 ADD JUMPDEST PUSH1 0x4 DUP3 LT PUSH2 0x2FE6 JUMPI PUSH1 0x2 SWAP2 DUP3 SHR SWAP2 ADD JUMPDEST PUSH1 0x2 DUP3 LT PUSH2 0x13D1 JUMPI PUSH1 0x1 ADD SWAP2 SWAP1 POP JUMP JUMPDEST PUSH1 0x0 DUP1 DUP3 GT PUSH2 0x3004 JUMPI PUSH1 0x0 DUP1 REVERT JUMPDEST POP PUSH1 0xFF PUSH1 0x1 PUSH1 0x1 PUSH1 0x80 SHL SUB DUP3 AND ISZERO PUSH2 0x301F JUMPI PUSH1 0x7F NOT ADD PUSH2 0x3027 JUMP JUMPDEST PUSH1 0x80 DUP3 SWAP1 SHR SWAP2 POP JUMPDEST PUSH1 0x1 PUSH1 0x1 PUSH1 0x40 SHL SUB DUP3 AND ISZERO PUSH2 0x303F JUMPI PUSH1 0x3F NOT ADD PUSH2 0x3047 JUMP JUMPDEST PUSH1 0x40 DUP3 SWAP1 SHR SWAP2 POP JUMPDEST PUSH4 0xFFFFFFFF DUP3 AND ISZERO PUSH2 0x305C JUMPI PUSH1 0x1F NOT ADD PUSH2 0x3064 JUMP JUMPDEST PUSH1 0x20 DUP3 SWAP1 SHR SWAP2 POP JUMPDEST PUSH2 0xFFFF DUP3 AND ISZERO PUSH2 0x3077 JUMPI PUSH1 0xF NOT ADD PUSH2 0x307F JUMP JUMPDEST PUSH1 0x10 DUP3 SWAP1 SHR SWAP2 POP JUMPDEST PUSH1 0xFF DUP3 AND ISZERO PUSH2 0x3091 JUMPI PUSH1 0x7 NOT ADD PUSH2 0x3099 JUMP JUMPDEST PUSH1 0x8 DUP3 SWAP1 SHR SWAP2 POP JUMPDEST PUSH1 0xF DUP3 AND ISZERO PUSH2 0x30AB JUMPI PUSH1 0x3 NOT ADD PUSH2 0x30B3 JUMP JUMPDEST PUSH1 0x4 DUP3 SWAP1 SHR SWAP2 POP JUMPDEST PUSH1 0x3 DUP3 AND ISZERO PUSH2 0x30C5 JUMPI PUSH1 0x1 NOT ADD PUSH2 0x30CD JUMP JUMPDEST PUSH1 0x2 DUP3 SWAP1 SHR SWAP2 POP JUMPDEST PUSH1 0x1 DUP3 AND ISZERO PUSH2 0x13D1 JUMPI PUSH1 0x0 NOT ADD SWAP2 SWAP1 POP JUMP JUMPDEST PUSH1 0x0 DUP1 PUSH1 0x0 PUSH2 0x30F3 DUP6 DUP6 PUSH1 0xFF AND PUSH1 0x1 PUSH2 0x210E JUMP JUMPDEST SWAP2 POP PUSH1 0xFF AND SWAP2 POP DUP1 ISZERO DUP1 ISZERO PUSH2 0xD16 JUMPI POP DUP4 PUSH1 0xFF AND DUP3 EQ SWAP6 SWAP5 POP POP POP POP POP JUMP JUMPDEST PUSH1 0x0 DUP2 PUSH2 0x3122 JUMPI PUSH2 0x7FFF NOT PUSH2 0x2BD JUMP JUMPDEST PUSH2 0x7FFF SWAP3 SWAP2 POP POP JUMP JUMPDEST PUSH1 0x0 DUP2 PUSH2 0x3139 JUMPI PUSH1 0x0 PUSH2 0x2BD JUMP JUMPDEST PUSH1 0xFF SWAP3 SWAP2 POP POP JUMP JUMPDEST PUSH1 0x0 DUP2 PUSH2 0x3152 JUMPI PUSH3 0x7FFFFF NOT PUSH2 0x2BD JUMP JUMPDEST PUSH3 0x7FFFFF SWAP3 SWAP2 POP POP JUMP JUMPDEST DUP4 MLOAD PUSH1 0x0 SWAP1 PUSH1 0x1 PUSH1 0x1 PUSH1 0x80 SHL SUB SWAP1 DUP2 AND SWAP1 DUP4 AND GT DUP2 PUSH2 0x317D DUP8 DUP8 DUP8 DUP8 PUSH2 0x2376 JUMP JUMPDEST SWAP1 POP PUSH2 0x85B PUSH2 0x318B DUP9 PUSH2 0x2881 JUMP JUMPDEST DUP9 MLOAD DUP4 DUP6 DUP10 PUSH2 0x3524 JUMP JUMPDEST PUSH1 0x0 PUSH1 0x2 DUP2 PUSH2 0x31A5 DUP8 DUP8 DUP7 PUSH2 0x28A6 JUMP JUMPDEST PUSH2 0x31AF SWAP1 DUP4 PUSH2 0x42BA JUMP JUMPDEST SWAP1 POP DUP1 PUSH1 0x1 PUSH1 0x1 PUSH1 0x80 SHL SUB AND DUP6 PUSH1 0x1 PUSH1 0x1 PUSH1 0x80 SHL SUB AND GT ISZERO PUSH2 0x19B4 JUMPI DUP1 DUP6 SUB PUSH2 0x85B JUMP JUMPDEST PUSH1 0x0 DUP1 PUSH2 0x31E1 DUP7 DUP7 DUP6 PUSH2 0x2EFE JUMP JUMPDEST SWAP1 POP PUSH2 0x1E1B DUP2 DUP6 PUSH2 0x35FE JUMP JUMPDEST DUP3 MLOAD PUSH2 0x31FA SWAP1 DUP4 DUP4 PUSH2 0x36B6 JUMP JUMPDEST PUSH1 0x1 PUSH1 0x1 PUSH1 0x80 SHL SUB AND DUP4 MSTORE PUSH1 0x60 DUP4 ADD MLOAD PUSH2 0x321D SWAP1 PUSH1 0x1 PUSH1 0x1 PUSH1 0x40 SHL SUB AND DUP4 PUSH2 0x3717 JUMP JUMPDEST PUSH1 0x1 PUSH1 0x1 PUSH1 0x40 SHL SUB SWAP1 DUP2 AND PUSH1 0x60 DUP6 ADD DUP2 SWAP1 MSTORE PUSH1 0x0 SWAP2 PUSH2 0x323F SWAP2 SWAP1 DUP6 AND SWAP1 PUSH2 0x375C JUMP JUMPDEST SWAP1 POP PUSH1 0x0 PUSH2 0x3274 PUSH2 0x3266 DUP4 DUP8 PUSH1 0x40 ADD MLOAD PUSH1 0x1 PUSH1 0x1 PUSH1 0x80 SHL SUB AND PUSH2 0x2ADE SWAP1 SWAP2 SWAP1 PUSH4 0xFFFFFFFF AND JUMP JUMPDEST PUSH1 0x1 PUSH1 0x1 PUSH1 0x90 SHL SUB AND PUSH2 0x350E JUMP JUMPDEST SWAP1 POP PUSH2 0x3280 DUP3 DUP3 PUSH2 0x37A0 JUMP JUMPDEST DUP6 PUSH1 0x80 ADD DUP2 DUP2 MLOAD PUSH2 0x3291 SWAP2 SWAP1 PUSH2 0x4196 JUMP JUMPDEST PUSH1 0x1 PUSH1 0x1 PUSH1 0x40 SHL SUB AND SWAP1 MSTORE POP PUSH1 0x20 DUP6 ADD DUP1 MLOAD DUP3 SWAP2 SWAP1 PUSH2 0x15F5 SWAP1 DUP4 SWAP1 PUSH2 0x40A5 JUMP JUMPDEST PUSH1 0x0 DUP1 PUSH2 0x32BD DUP6 PUSH2 0x2881 JUMP JUMPDEST SWAP1 POP DUP4 PUSH2 0x32D8 JUMPI PUSH2 0x32D3 DUP2 DUP7 PUSH1 0x0 ADD MLOAD DUP6 PUSH2 0x1F1D JUMP JUMPDEST PUSH2 0xD16 JUMP JUMPDEST PUSH2 0xD16 DUP2 DUP7 PUSH1 0x0 ADD MLOAD DUP6 PUSH2 0x1F56 JUMP JUMPDEST PUSH1 0x0 DUP1 PUSH1 0x0 PUSH2 0x32F5 DUP7 PUSH2 0x2881 JUMP JUMPDEST DUP7 MLOAD SWAP1 SWAP2 POP PUSH1 0x0 SWAP1 PUSH2 0x3312 SWAP1 PUSH1 0x1 PUSH1 0x1 PUSH1 0x80 SHL SUB DUP5 AND SWAP1 DUP9 PUSH2 0x1F56 JUMP JUMPDEST DUP8 MLOAD SWAP1 SWAP2 POP PUSH1 0x0 SWAP1 PUSH2 0x332F SWAP1 PUSH1 0x1 PUSH1 0x1 PUSH1 0x80 SHL SUB DUP6 AND SWAP1 DUP10 PUSH2 0x1F1D JUMP JUMPDEST SWAP1 POP DUP6 ISZERO PUSH2 0x3343 JUMPI SWAP1 SWAP4 POP SWAP2 POP DUP3 DUP3 PUSH2 0x334A JUMP JUMPDEST SWAP4 POP SWAP2 POP DUP2 DUP4 JUMPDEST POP POP POP SWAP4 POP SWAP4 SWAP2 POP POP JUMP JUMPDEST PUSH1 0x0 DUP1 PUSH2 0x3364 DUP7 DUP7 DUP7 DUP7 PUSH2 0x37F7 JUMP JUMPDEST SWAP1 SWAP3 POP SWAP1 POP PUSH2 0x3374 PUSH1 0x4 DUP4 PUSH2 0x4100 JUMP JUMPDEST SWAP2 POP PUSH2 0x3381 PUSH1 0x4 DUP3 PUSH2 0x4100 JUMP JUMPDEST SWAP1 POP SWAP5 POP SWAP5 SWAP3 POP POP POP JUMP JUMPDEST PUSH1 0x0 DUP1 PUSH1 0x0 DUP1 PUSH2 0x339D DUP7 DUP12 DUP12 PUSH2 0x3876 JUMP JUMPDEST SWAP1 POP DUP8 PUSH1 0x1 PUSH1 0x1 PUSH1 0x80 SHL SUB AND DUP2 PUSH1 0x1 PUSH1 0x1 PUSH1 0x80 SHL SUB AND LT PUSH2 0x33C1 JUMPI PUSH1 0x0 SWAP2 POP PUSH2 0x33CE JUMP JUMPDEST PUSH2 0x33CB DUP2 DUP10 PUSH2 0x4085 JUMP JUMPDEST SWAP2 POP JUMPDEST DUP10 PUSH2 0x33D9 JUMPI DUP5 PUSH2 0x33DB JUMP JUMPDEST DUP6 JUMPDEST SWAP4 POP DUP10 PUSH2 0x33E8 JUMPI DUP6 PUSH2 0x33EA JUMP JUMPDEST DUP5 JUMPDEST PUSH1 0x1 PUSH1 0x1 PUSH1 0x80 SHL SUB SWAP1 SWAP8 AND SWAP1 SWAP11 MSTORE SWAP2 SWAP10 SWAP5 SWAP9 POP SWAP1 SWAP7 POP SWAP3 SWAP5 POP POP POP POP POP JUMP JUMPDEST PUSH1 0x0 DUP1 PUSH1 0x0 PUSH2 0x3417 DUP8 PUSH2 0x2881 JUMP JUMPDEST SWAP1 POP PUSH2 0x342A DUP8 PUSH1 0x0 ADD MLOAD DUP3 DUP9 DUP9 DUP9 PUSH2 0x38AC JUMP JUMPDEST SWAP2 POP DUP5 ISZERO PUSH2 0x344E JUMPI DUP7 MLOAD PUSH2 0x3449 SWAP1 PUSH1 0x1 PUSH1 0x1 PUSH1 0x80 SHL SUB DUP4 AND SWAP1 DUP5 PUSH2 0x1F1D JUMP JUMPDEST PUSH2 0x3465 JUMP JUMPDEST DUP7 MLOAD PUSH2 0x3465 SWAP1 PUSH1 0x1 PUSH1 0x1 PUSH1 0x80 SHL SUB DUP4 AND SWAP1 DUP5 PUSH2 0x1F56 JUMP JUMPDEST SWAP3 POP POP SWAP5 POP SWAP5 SWAP3 POP POP POP JUMP JUMPDEST PUSH1 0x0 DUP1 PUSH2 0x3480 DUP7 DUP7 DUP7 DUP7 PUSH2 0x37F7 JUMP JUMPDEST SWAP1 SWAP3 POP SWAP1 POP PUSH2 0x3381 PUSH1 0x4 DUP3 PUSH2 0x4100 JUMP JUMPDEST PUSH1 0x0 DUP1 DUP3 PUSH1 0x0 SIGNEXTEND SLT ISZERO PUSH2 0x34A9 JUMPI DUP2 PUSH1 0x0 SIGNEXTEND PUSH1 0x80 ADD PUSH2 0x2BD JUMP JUMPDEST POP PUSH1 0x80 ADD SWAP1 JUMP JUMPDEST PUSH1 0x0 PUSH1 0x80 DUP3 PUSH1 0xFF AND LT PUSH2 0x34C6 JUMPI PUSH1 0x80 DUP3 SUB PUSH2 0x2BD JUMP JUMPDEST POP PUSH1 0xFF AND PUSH1 0x7F NOT ADD SWAP1 JUMP JUMPDEST PUSH1 0x0 DUP3 DUP3 PUSH1 0x40 MLOAD PUSH1 0x20 ADD PUSH2 0x1FE2 SWAP3 SWAP2 SWAP1 SWAP2 DUP3 MSTORE PUSH1 0xF8 SHL PUSH1 0x20 DUP3 ADD MSTORE PUSH1 0x21 ADD SWAP1 JUMP JUMPDEST PUSH1 0x0 PUSH2 0x34FD DUP3 PUSH2 0x3936 JUMP JUMPDEST PUSH2 0x3506 DUP5 PUSH2 0x3936 JUMP JUMPDEST SUB SWAP4 SWAP3 POP POP POP JUMP JUMPDEST DUP1 PUSH1 0x1 PUSH1 0x1 PUSH1 0x80 SHL SUB DUP2 AND DUP2 EQ PUSH2 0x13D1 JUMPI PUSH1 0x0 DUP1 REVERT JUMPDEST PUSH1 0x0 DUP6 PUSH1 0x1 PUSH1 0x1 PUSH1 0x80 SHL SUB AND PUSH1 0x0 SUB PUSH2 0x353F JUMPI POP PUSH1 0x0 PUSH2 0xD16 JUMP JUMPDEST PUSH1 0x0 PUSH2 0x354D DUP8 DUP8 DUP6 ISZERO PUSH2 0x2EFE JUMP JUMPDEST PUSH1 0x1 PUSH1 0x1 PUSH1 0x80 SHL SUB AND SWAP1 POP PUSH1 0x0 PUSH2 0x3565 DUP9 DUP9 DUP7 PUSH2 0x2EFE JUMP JUMPDEST PUSH1 0x1 PUSH1 0x1 PUSH1 0x80 SHL SUB AND SWAP1 POP PUSH1 0x0 DUP5 ISZERO ISZERO DUP7 ISZERO ISZERO EQ PUSH2 0x358E JUMPI DUP7 PUSH1 0x1 PUSH1 0x1 PUSH1 0x80 SHL SUB AND DUP3 SUB PUSH2 0x359B JUMP JUMPDEST DUP7 PUSH1 0x1 PUSH1 0x1 PUSH1 0x80 SHL SUB AND DUP3 ADD JUMPDEST SWAP1 POP DUP1 PUSH1 0x0 SUB PUSH2 0x35B7 JUMPI PUSH1 0x1 PUSH1 0x1 PUSH1 0x80 SHL SUB SWAP4 POP POP POP POP PUSH2 0xD16 JUMP JUMPDEST PUSH1 0x0 DUP2 PUSH1 0x1 PUSH1 0x1 PUSH1 0x80 SHL SUB DUP12 AND DUP1 MUL DUP2 PUSH2 0x35D3 JUMPI PUSH2 0x35D3 PUSH2 0x40C5 JUMP JUMPDEST DIV SWAP1 POP PUSH2 0x35F0 DUP5 DUP3 GT PUSH2 0x35E8 JUMPI DUP2 DUP6 SUB PUSH2 0x350E JUMP JUMPDEST DUP5 DUP3 SUB PUSH2 0x350E JUMP JUMPDEST SWAP11 SWAP10 POP POP POP POP POP POP POP POP POP POP JUMP JUMPDEST PUSH1 0x0 PUSH1 0x1 PUSH1 0x1 PUSH1 0x80 SHL SUB DUP4 AND ISZERO DUP1 PUSH2 0x3627 JUMPI POP DUP3 PUSH1 0x1 PUSH1 0x1 PUSH1 0x80 SHL SUB AND DUP3 PUSH1 0x1 PUSH1 0x1 PUSH1 0x80 SHL SUB AND GT JUMPDEST ISZERO PUSH2 0x3634 JUMPI POP PUSH1 0x0 PUSH2 0x2BD JUMP JUMPDEST PUSH1 0x0 PUSH2 0x3640 DUP4 DUP6 PUSH2 0x40A5 JUMP JUMPDEST SWAP1 POP PUSH1 0x0 PUSH2 0x3657 PUSH1 0x1 PUSH1 0x1 PUSH1 0x80 SHL SUB DUP4 AND DUP7 PUSH2 0x3952 JUMP JUMPDEST SWAP1 POP PUSH2 0x366B DUP2 PUSH1 0x1 PUSH1 0x1 PUSH1 0x40 SHL SUB AND PUSH2 0x39D5 JUMP JUMPDEST SWAP3 POP PUSH1 0x1 PUSH1 0x30 SHL DUP4 PUSH1 0x1 PUSH1 0x1 PUSH1 0x40 SHL SUB AND LT PUSH2 0x36AE JUMPI PUSH1 0x40 MLOAD PUSH3 0x461BCD PUSH1 0xE5 SHL DUP2 MSTORE PUSH1 0x20 PUSH1 0x4 DUP3 ADD MSTORE PUSH1 0x2 PUSH1 0x24 DUP3 ADD MSTORE PUSH2 0x24A3 PUSH1 0xF1 SHL PUSH1 0x44 DUP3 ADD MSTORE PUSH1 0x64 ADD PUSH2 0x5F3 JUMP JUMPDEST POP POP SWAP3 SWAP2 POP POP JUMP JUMPDEST PUSH1 0x0 PUSH1 0x1 PUSH1 0x30 SHL PUSH1 0x1 PUSH1 0x1 PUSH1 0x40 SHL SUB DUP5 AND DUP2 ADD DUP4 ISZERO PUSH2 0x36EC JUMPI PUSH1 0x1 PUSH1 0x1 PUSH1 0x80 SHL SUB DUP7 AND DUP2 MUL PUSH1 0x30 DUP2 SWAP1 SHR PUSH2 0x28FD PUSH1 0x1 DUP3 ADD PUSH2 0x350E JUMP JUMPDEST PUSH1 0x1 PUSH1 0x30 SHL PUSH1 0x1 PUSH1 0xB0 SHL SUB PUSH1 0x30 DUP8 SWAP1 SHL AND DUP2 DUP2 DUP2 PUSH2 0x370C JUMPI PUSH2 0x370C PUSH2 0x40C5 JUMP JUMPDEST DIV SWAP4 POP POP POP POP PUSH2 0xC84 JUMP JUMPDEST PUSH1 0x0 PUSH1 0x1 PUSH1 0x30 SHL PUSH1 0x1 PUSH1 0x1 PUSH1 0x40 SHL SUB DUP5 DUP2 AND DUP3 ADD DUP2 DUP6 AND DUP4 ADD MUL SWAP1 PUSH1 0x30 DUP3 SWAP1 SHR SWAP1 PUSH6 0xFFFFFFFFFFFF NOT DUP3 ADD SWAP1 DUP2 LT PUSH2 0x1E1B JUMPI PUSH1 0x1 PUSH1 0x1 PUSH1 0x40 SHL SUB SWAP5 POP POP POP POP POP PUSH2 0x2BD JUMP JUMPDEST PUSH1 0x0 PUSH1 0x1 PUSH1 0x30 SHL PUSH1 0x1 PUSH1 0x1 PUSH1 0x40 SHL SUB DUP4 AND DUP2 ADD PUSH14 0xFFFFFFFFFFFFFFFF000000000000 PUSH1 0x30 DUP7 SWAP1 SHL AND DUP4 DUP3 DUP3 DUP2 PUSH2 0x3794 JUMPI PUSH2 0x3794 PUSH2 0x40C5 JUMP JUMPDEST DIV SWAP8 SWAP7 POP POP POP POP POP POP POP JUMP JUMPDEST PUSH1 0x0 DUP2 PUSH1 0x1 PUSH1 0x1 PUSH1 0x80 SHL SUB AND PUSH1 0x0 SUB PUSH2 0x37BB JUMPI POP PUSH1 0x0 PUSH2 0x2BD JUMP JUMPDEST PUSH2 0x37C6 DUP3 PUSH1 0x1 PUSH2 0x40A5 JUMP JUMPDEST PUSH1 0x1 PUSH1 0x1 PUSH1 0x80 SHL SUB AND DUP3 PUSH1 0x1 PUSH1 0x1 PUSH1 0x80 SHL SUB AND DUP5 PUSH1 0x1 PUSH1 0x1 PUSH1 0x40 SHL SUB AND PUSH2 0x37ED SWAP2 SWAP1 PUSH2 0x428F JUMP JUMPDEST PUSH2 0xC84 SWAP2 SWAP1 PUSH2 0x42A6 JUMP JUMPDEST PUSH1 0x0 DUP1 DUP3 ISZERO ISZERO DUP5 ISZERO ISZERO SUB PUSH2 0x383C JUMPI PUSH2 0x3817 DUP7 PUSH1 0x1 PUSH1 0x1 PUSH1 0x80 SHL SUB AND PUSH2 0x1316 JUMP JUMPDEST PUSH2 0x3829 DUP7 PUSH1 0x1 PUSH1 0x1 PUSH1 0x80 SHL SUB AND PUSH2 0x1316 JUMP JUMPDEST PUSH2 0x3832 SWAP1 PUSH2 0x405F JUMP JUMPDEST SWAP1 SWAP3 POP SWAP1 POP PUSH2 0x782 JUMP JUMPDEST PUSH2 0x384E DUP7 PUSH1 0x1 PUSH1 0x1 PUSH1 0x80 SHL SUB AND PUSH2 0x1316 JUMP JUMPDEST PUSH2 0x3857 SWAP1 PUSH2 0x405F JUMP JUMPDEST PUSH2 0x3869 DUP7 PUSH1 0x1 PUSH1 0x1 PUSH1 0x80 SHL SUB AND PUSH2 0x1316 JUMP JUMPDEST SWAP1 SWAP8 SWAP1 SWAP7 POP SWAP5 POP POP POP POP POP JUMP JUMPDEST PUSH1 0x0 DUP1 DUP3 ISZERO ISZERO DUP5 ISZERO ISZERO EQ PUSH2 0x3892 JUMPI PUSH2 0x388D DUP6 PUSH2 0x405F JUMP JUMPDEST PUSH2 0x3894 JUMP JUMPDEST DUP5 JUMPDEST SWAP1 POP PUSH1 0x0 DUP2 PUSH1 0xF SIGNEXTEND SLT ISZERO PUSH2 0xBCC JUMPI PUSH1 0x0 SWAP2 POP POP PUSH2 0xC84 JUMP JUMPDEST PUSH1 0x0 DUP1 DUP4 PUSH2 0x38C5 JUMPI PUSH2 0x38C0 DUP8 DUP8 DUP8 DUP7 PUSH2 0x3A14 JUMP JUMPDEST PUSH2 0x38D1 JUMP JUMPDEST PUSH2 0x38D1 DUP8 DUP8 DUP8 DUP7 PUSH2 0x3A72 JUMP JUMPDEST SWAP1 POP PUSH16 0xFFFF5433E2B3D8211706E6102AA9472 PUSH1 0x1 PUSH1 0x1 PUSH1 0x80 SHL SUB DUP3 AND LT PUSH2 0x3916 JUMPI PUSH2 0x390E PUSH1 0x1 PUSH16 0xFFFF5433E2B3D8211706E6102AA9472 PUSH2 0x4085 JUMP JUMPDEST SWAP2 POP POP PUSH2 0xD16 JUMP JUMPDEST PUSH3 0x10002 PUSH1 0x1 PUSH1 0x1 PUSH1 0x80 SHL SUB DUP3 AND LT ISZERO PUSH2 0x1E1B JUMPI PUSH3 0x10002 SWAP2 POP POP PUSH2 0xD16 JUMP JUMPDEST PUSH1 0x0 PUSH1 0xA DUP3 SWAP1 SHL PUSH14 0x3FFFFFFFFFFFFFFFFFFFFFFF800 AND PUSH2 0x2BD JUMP JUMPDEST PUSH1 0x0 PUSH1 0x1 PUSH1 0x1 PUSH1 0xD0 SHL SUB PUSH1 0x1 PUSH1 0x1 PUSH1 0x80 SHL SUB DUP5 AND LT DUP1 ISZERO PUSH2 0x3985 JUMPI POP DUP2 PUSH1 0x1 PUSH1 0x1 PUSH1 0x80 SHL SUB AND DUP4 PUSH1 0x1 PUSH1 0x1 PUSH1 0x80 SHL SUB AND LT ISZERO JUMPDEST PUSH2 0x398E JUMPI PUSH1 0x0 DUP1 REVERT JUMPDEST PUSH1 0x1 PUSH1 0x30 SHL PUSH1 0x1 PUSH1 0x30 SHL PUSH1 0x1 PUSH1 0xB0 SHL SUB PUSH1 0x30 DUP6 SWAP1 SHL AND PUSH1 0x0 DUP3 PUSH1 0x1 PUSH1 0x1 PUSH1 0x80 SHL SUB DUP7 AND DUP4 DUP2 PUSH2 0x39BF JUMPI PUSH2 0x39BF PUSH2 0x40C5 JUMP JUMPDEST DIV SUB SWAP1 POP DUP3 DUP2 LT PUSH2 0xD16 JUMPI DUP3 SWAP4 POP POP POP POP PUSH2 0x2BD JUMP JUMPDEST PUSH1 0x0 PUSH1 0x1 PUSH1 0x30 SHL DUP3 PUSH1 0x1 PUSH1 0x1 PUSH1 0x40 SHL SUB AND LT PUSH2 0x39F0 JUMPI PUSH1 0x0 DUP1 REVERT JUMPDEST POP PUSH1 0x1 PUSH1 0x1 PUSH1 0x40 SHL SUB DUP2 AND DUP1 MUL PUSH1 0x33 SHR PUSH1 0x1 SWAP2 SWAP1 SWAP2 SHR PUSH8 0x7FFFFFFFFFFFFFFF AND SUB SWAP1 JUMP JUMPDEST PUSH1 0x0 DUP1 PUSH2 0x3A20 DUP7 PUSH2 0x3B1C JUMP JUMPDEST SWAP1 POP PUSH1 0x0 PUSH2 0x3A31 DUP3 DUP8 DUP8 DUP8 ISZERO PUSH2 0x3A72 JUMP JUMPDEST SWAP1 POP DUP1 PUSH1 0x1 PUSH1 0x1 PUSH1 0x80 SHL SUB AND PUSH1 0x0 SUB PUSH2 0x3A5E JUMPI PUSH16 0xFFFF5433E2B3D8211706E6102AA9472 SWAP3 POP POP POP PUSH2 0xBCC JUMP JUMPDEST PUSH2 0x3A67 DUP2 PUSH2 0x3B1C JUMP JUMPDEST PUSH2 0x85B SWAP1 PUSH1 0x1 PUSH2 0x40A5 JUMP JUMPDEST PUSH1 0x0 DUP4 PUSH1 0x1 PUSH1 0x1 PUSH1 0x80 SHL SUB AND PUSH1 0x0 SUB PUSH2 0x3A93 JUMPI POP PUSH1 0x1 PUSH1 0x1 PUSH1 0x80 SHL SUB PUSH2 0xBCC JUMP JUMPDEST PUSH1 0x0 PUSH2 0x3A9F DUP5 DUP7 PUSH2 0x205E JUMP JUMPDEST SWAP1 POP PUSH1 0x1 PUSH1 0x1 PUSH1 0x80 SHL SUB PUSH1 0x1 PUSH1 0x1 PUSH1 0xC0 SHL SUB DUP3 AND GT ISZERO PUSH2 0x3AC9 JUMPI PUSH1 0x1 PUSH1 0x1 PUSH1 0x80 SHL SUB SWAP2 POP POP PUSH2 0xBCC JUMP JUMPDEST DUP1 DUP4 ISZERO PUSH2 0x3AE3 JUMPI PUSH2 0x3ADA DUP2 DUP9 PUSH2 0x40A5 JUMP JUMPDEST SWAP3 POP POP POP PUSH2 0xBCC JUMP JUMPDEST DUP7 PUSH1 0x1 PUSH1 0x1 PUSH1 0x80 SHL SUB AND DUP2 PUSH1 0x1 PUSH1 0x1 PUSH1 0x80 SHL SUB AND LT PUSH2 0x3B07 JUMPI PUSH1 0x0 SWAP3 POP POP POP PUSH2 0xBCC JUMP JUMPDEST PUSH2 0x3B12 DUP2 PUSH1 0x1 PUSH2 0x40A5 JUMP JUMPDEST PUSH2 0x3ADA SWAP1 DUP9 PUSH2 0x4085 JUMP JUMPDEST PUSH1 0x0 DUP1 DUP3 PUSH1 0x1 PUSH1 0x1 PUSH1 0x80 SHL SUB AND PUSH1 0x1 PUSH1 0x80 SHL DUP2 PUSH2 0x3B3B JUMPI PUSH2 0x3B3B PUSH2 0x40C5 JUMP JUMPDEST DIV SWAP1 POP PUSH1 0x1 PUSH1 0x1 PUSH1 0x80 SHL SUB DUP2 GT ISZERO PUSH2 0x2BD JUMPI PUSH1 0x0 DUP1 REVERT JUMPDEST PUSH1 0x40 DUP1 MLOAD PUSH1 0xA0 DUP2 ADD DUP3 MSTORE PUSH1 0x0 DUP1 DUP3 MSTORE PUSH1 0x20 DUP3 ADD DUP2 SWAP1 MSTORE SWAP2 DUP2 ADD DUP3 SWAP1 MSTORE PUSH1 0x60 DUP2 ADD DUP3 SWAP1 MSTORE PUSH1 0x80 DUP2 ADD SWAP2 SWAP1 SWAP2 MSTORE SWAP1 JUMP JUMPDEST DUP1 CALLDATALOAD PUSH1 0x1 PUSH1 0x1 PUSH1 0x80 SHL SUB DUP2 AND DUP2 EQ PUSH2 0x13D1 JUMPI PUSH1 0x0 DUP1 REVERT JUMPDEST DUP1 CALLDATALOAD PUSH1 0x2 DUP2 SWAP1 SIGNEXTEND DUP2 EQ PUSH2 0x13D1 JUMPI PUSH1 0x0 DUP1 REVERT JUMPDEST DUP1 CALLDATALOAD PUSH1 0x1 PUSH1 0x1 PUSH1 0x40 SHL SUB DUP2 AND DUP2 EQ PUSH2 0x13D1 JUMPI PUSH1 0x0 DUP1 REVERT JUMPDEST PUSH1 0x0 DUP1 PUSH1 0x0 DUP1 PUSH1 0x0 DUP1 PUSH1 0x0 DUP1 PUSH1 0x0 DUP1 PUSH2 0x140 DUP12 DUP14 SUB SLT ISZERO PUSH2 0x3BE0 JUMPI PUSH1 0x0 DUP1 REVERT JUMPDEST PUSH2 0x3BE9 DUP12 PUSH2 0x3B80 JUMP JUMPDEST SWAP10 POP PUSH2 0x3BF7 PUSH1 0x20 DUP13 ADD PUSH2 0x3B97 JUMP JUMPDEST SWAP9 POP PUSH2 0x3C05 PUSH1 0x40 DUP13 ADD PUSH2 0x3B80 JUMP JUMPDEST SWAP8 POP PUSH2 0x3C13 PUSH1 0x60 DUP13 ADD PUSH2 0x3B80 JUMP JUMPDEST SWAP7 POP PUSH2 0x3C21 PUSH1 0x80 DUP13 ADD PUSH2 0x3BA9 JUMP JUMPDEST SWAP6 POP PUSH2 0x3C2F PUSH1 0xA0 DUP13 ADD PUSH2 0x3BA9 JUMP JUMPDEST SWAP5 POP PUSH2 0x3C3D PUSH1 0xC0 DUP13 ADD PUSH2 0x3B97 JUMP JUMPDEST SWAP4 POP PUSH2 0x3C4B PUSH1 0xE0 DUP13 ADD PUSH2 0x3B97 JUMP JUMPDEST SWAP3 POP PUSH2 0x3C5A PUSH2 0x100 DUP13 ADD PUSH2 0x3B80 JUMP JUMPDEST SWAP2 POP PUSH2 0x120 DUP12 ADD CALLDATALOAD SWAP1 POP SWAP3 SWAP6 SWAP9 SWAP12 SWAP2 SWAP5 SWAP8 SWAP11 POP SWAP3 SWAP6 SWAP9 POP JUMP JUMPDEST DUP1 CALLDATALOAD PUSH1 0x1 PUSH1 0x1 PUSH1 0xA0 SHL SUB DUP2 AND DUP2 EQ PUSH2 0x13D1 JUMPI PUSH1 0x0 DUP1 REVERT JUMPDEST DUP1 CALLDATALOAD PUSH2 0xFFFF DUP2 AND DUP2 EQ PUSH2 0x13D1 JUMPI PUSH1 0x0 DUP1 REVERT JUMPDEST PUSH1 0x0 DUP1 PUSH1 0x40 DUP4 DUP6 SUB SLT ISZERO PUSH2 0x3CAF JUMPI PUSH1 0x0 DUP1 REVERT JUMPDEST PUSH2 0x3CB8 DUP4 PUSH2 0x3C73 JUMP JUMPDEST SWAP2 POP PUSH2 0x1F14 PUSH1 0x20 DUP5 ADD PUSH2 0x3C8A JUMP JUMPDEST PUSH1 0x0 DUP1 PUSH1 0x0 DUP1 PUSH1 0x0 DUP1 PUSH1 0x0 PUSH1 0xE0 DUP9 DUP11 SUB SLT ISZERO PUSH2 0x3CE1 JUMPI PUSH1 0x0 DUP1 REVERT JUMPDEST PUSH2 0x3CEA DUP9 PUSH2 0x3B80 JUMP JUMPDEST SWAP7 POP PUSH2 0x3CF8 PUSH1 0x20 DUP10 ADD PUSH2 0x3B80 JUMP JUMPDEST SWAP6 POP PUSH2 0x3D06 PUSH1 0x40 DUP10 ADD PUSH2 0x3B80 JUMP JUMPDEST SWAP5 POP PUSH2 0x3D14 PUSH1 0x60 DUP10 ADD PUSH2 0x3BA9 JUMP JUMPDEST SWAP4 POP PUSH2 0x3D22 PUSH1 0x80 DUP10 ADD PUSH2 0x3BA9 JUMP JUMPDEST SWAP3 POP PUSH2 0x3D30 PUSH1 0xA0 DUP10 ADD PUSH2 0x3B80 JUMP JUMPDEST SWAP2 POP PUSH1 0xC0 DUP9 ADD CALLDATALOAD SWAP1 POP SWAP3 SWAP6 SWAP9 SWAP2 SWAP5 SWAP8 POP SWAP3 SWAP6 POP JUMP JUMPDEST PUSH1 0x40 MLOAD PUSH1 0x60 DUP2 ADD PUSH1 0x1 PUSH1 0x1 PUSH1 0x40 SHL SUB DUP2 GT DUP3 DUP3 LT OR ISZERO PUSH2 0x3D75 JUMPI PUSH4 0x4E487B71 PUSH1 0xE0 SHL PUSH1 0x0 MSTORE PUSH1 0x41 PUSH1 0x4 MSTORE PUSH1 0x24 PUSH1 0x0 REVERT JUMPDEST PUSH1 0x40 MSTORE SWAP1 JUMP JUMPDEST PUSH1 0x40 MLOAD PUSH1 0xE0 DUP2 ADD PUSH1 0x1 PUSH1 0x1 PUSH1 0x40 SHL SUB DUP2 GT DUP3 DUP3 LT OR ISZERO PUSH2 0x3D75 JUMPI PUSH4 0x4E487B71 PUSH1 0xE0 SHL PUSH1 0x0 MSTORE PUSH1 0x41 PUSH1 0x4 MSTORE PUSH1 0x24 PUSH1 0x0 REVERT JUMPDEST PUSH1 0x40 MLOAD PUSH1 0xA0 DUP2 ADD PUSH1 0x1 PUSH1 0x1 PUSH1 0x40 SHL SUB DUP2 GT DUP3 DUP3 LT OR ISZERO PUSH2 0x3D75 JUMPI PUSH4 0x4E487B71 PUSH1 0xE0 SHL PUSH1 0x0 MSTORE PUSH1 0x41 PUSH1 0x4 MSTORE PUSH1 0x24 PUSH1 0x0 REVERT JUMPDEST DUP1 ISZERO ISZERO DUP2 EQ PUSH2 0x3DE9 JUMPI PUSH1 0x0 DUP1 REVERT JUMPDEST POP JUMP JUMPDEST DUP1 CALLDATALOAD PUSH1 0xFF DUP2 AND DUP2 EQ PUSH2 0x13D1 JUMPI PUSH1 0x0 DUP1 REVERT JUMPDEST PUSH1 0x0 DUP2 DUP4 SUB PUSH2 0x120 DUP2 SLT ISZERO PUSH2 0x3E11 JUMPI PUSH1 0x0 DUP1 REVERT JUMPDEST PUSH2 0x3E19 PUSH2 0x3D45 JUMP JUMPDEST SWAP2 POP PUSH1 0xE0 DUP2 SLT ISZERO PUSH2 0x3E29 JUMPI PUSH1 0x0 DUP1 REVERT JUMPDEST POP PUSH2 0x3E32 PUSH2 0x3D7B JUMP JUMPDEST PUSH2 0x3E3B DUP4 PUSH2 0x3DEC JUMP JUMPDEST DUP2 MSTORE PUSH2 0x3E49 PUSH1 0x20 DUP5 ADD PUSH2 0x3C8A JUMP JUMPDEST PUSH1 0x20 DUP3 ADD MSTORE PUSH2 0x3E5A PUSH1 0x40 DUP5 ADD PUSH2 0x3DEC JUMP JUMPDEST PUSH1 0x40 DUP3 ADD MSTORE PUSH2 0x3E6B PUSH1 0x60 DUP5 ADD PUSH2 0x3C8A JUMP JUMPDEST PUSH1 0x60 DUP3 ADD MSTORE PUSH2 0x3E7C PUSH1 0x80 DUP5 ADD PUSH2 0x3DEC JUMP JUMPDEST PUSH1 0x80 DUP3 ADD MSTORE PUSH2 0x3E8D PUSH1 0xA0 DUP5 ADD PUSH2 0x3DEC JUMP JUMPDEST PUSH1 0xA0 DUP3 ADD MSTORE PUSH2 0x3E9E PUSH1 0xC0 DUP5 ADD PUSH2 0x3DEC JUMP JUMPDEST PUSH1 0xC0 DUP3 ADD MSTORE DUP2 MSTORE PUSH1 0xE0 DUP3 ADD CALLDATALOAD PUSH1 0x20 DUP3 ADD MSTORE PUSH2 0x3EBC PUSH2 0x100 DUP4 ADD PUSH2 0x3C73 JUMP JUMPDEST PUSH1 0x40 DUP3 ADD MSTORE SWAP3 SWAP2 POP POP JUMP JUMPDEST PUSH1 0x0 DUP1 PUSH1 0x0 DUP1 DUP5 DUP7 SUB PUSH2 0x280 DUP2 SLT ISZERO PUSH2 0x3EDF JUMPI PUSH1 0x0 DUP1 REVERT JUMPDEST PUSH1 0xA0 DUP2 SLT ISZERO PUSH2 0x3EED JUMPI PUSH1 0x0 DUP1 REVERT JUMPDEST PUSH2 0x3EF5 PUSH2 0x3DAB JUMP JUMPDEST PUSH2 0x3EFE DUP8 PUSH2 0x3B80 JUMP JUMPDEST DUP2 MSTORE PUSH2 0x3F0C PUSH1 0x20 DUP9 ADD PUSH2 0x3B80 JUMP JUMPDEST PUSH1 0x20 DUP3 ADD MSTORE PUSH2 0x3F1D PUSH1 0x40 DUP9 ADD PUSH2 0x3B80 JUMP JUMPDEST PUSH1 0x40 DUP3 ADD MSTORE PUSH2 0x3F2E PUSH1 0x60 DUP9 ADD PUSH2 0x3BA9 JUMP JUMPDEST PUSH1 0x60 DUP3 ADD MSTORE PUSH2 0x3F3F PUSH1 0x80 DUP9 ADD PUSH2 0x3BA9 JUMP JUMPDEST PUSH1 0x80 DUP3 ADD MSTORE SWAP5 POP PUSH2 0x3F52 PUSH1 0xA0 DUP8 ADD PUSH2 0x3B97 JUMP JUMPDEST SWAP4 POP PUSH1 0xA0 PUSH1 0xBF NOT DUP3 ADD SLT ISZERO PUSH2 0x3F66 JUMPI PUSH1 0x0 DUP1 REVERT JUMPDEST POP PUSH2 0x3F6F PUSH2 0x3DAB JUMP JUMPDEST PUSH1 0xC0 DUP7 ADD CALLDATALOAD PUSH2 0x3F7D DUP2 PUSH2 0x3DDB JUMP JUMPDEST DUP2 MSTORE PUSH1 0xE0 DUP7 ADD CALLDATALOAD PUSH2 0x3F8D DUP2 PUSH2 0x3DDB JUMP JUMPDEST PUSH1 0x20 DUP3 ADD MSTORE PUSH2 0x3F9F PUSH2 0x100 DUP8 ADD PUSH2 0x3DEC JUMP JUMPDEST PUSH1 0x40 DUP3 ADD MSTORE PUSH2 0x3FB1 PUSH2 0x120 DUP8 ADD PUSH2 0x3B80 JUMP JUMPDEST PUSH1 0x60 DUP3 ADD MSTORE PUSH2 0x3FC3 PUSH2 0x140 DUP8 ADD PUSH2 0x3B80 JUMP JUMPDEST PUSH1 0x80 DUP3 ADD MSTORE SWAP2 POP PUSH2 0x3FD8 DUP7 PUSH2 0x160 DUP8 ADD PUSH2 0x3DFD JUMP JUMPDEST SWAP1 POP SWAP3 SWAP6 SWAP2 SWAP5 POP SWAP3 POP JUMP JUMPDEST PUSH1 0x1 PUSH1 0x1 PUSH1 0xA0 SHL SUB SWAP7 SWAP1 SWAP7 AND DUP7 MSTORE PUSH1 0x20 DUP7 ADD SWAP5 SWAP1 SWAP5 MSTORE PUSH1 0x2 SWAP3 DUP4 SIGNEXTEND PUSH1 0x40 DUP7 ADD MSTORE SWAP2 SIGNEXTEND PUSH1 0x60 DUP5 ADD MSTORE PUSH1 0x1 PUSH1 0x1 PUSH1 0x80 SHL SUB AND PUSH1 0x80 DUP4 ADD MSTORE PUSH1 0x1 PUSH1 0x1 PUSH1 0x40 SHL SUB AND PUSH1 0xA0 DUP3 ADD MSTORE PUSH1 0xC0 ADD SWAP1 JUMP JUMPDEST PUSH1 0x0 PUSH1 0x20 DUP3 DUP5 SUB SLT ISZERO PUSH2 0x403E JUMPI PUSH1 0x0 DUP1 REVERT JUMPDEST DUP2 MLOAD PUSH2 0xC84 DUP2 PUSH2 0x3DDB JUMP JUMPDEST PUSH4 0x4E487B71 PUSH1 0xE0 SHL PUSH1 0x0 MSTORE PUSH1 0x11 PUSH1 0x4 MSTORE PUSH1 0x24 PUSH1 0x0 REVERT JUMPDEST PUSH1 0x0 DUP2 PUSH1 0xF SIGNEXTEND PUSH1 0x1 PUSH1 0x1 PUSH1 0x7F SHL SUB NOT DUP2 SUB PUSH2 0x407C JUMPI PUSH2 0x407C PUSH2 0x4049 JUMP JUMPDEST PUSH1 0x0 SUB SWAP3 SWAP2 POP POP JUMP JUMPDEST PUSH1 0x1 PUSH1 0x1 PUSH1 0x80 SHL SUB DUP3 DUP2 AND DUP3 DUP3 AND SUB SWAP1 DUP1 DUP3 GT ISZERO PUSH2 0x2AD7 JUMPI PUSH2 0x2AD7 PUSH2 0x4049 JUMP JUMPDEST PUSH1 0x1 PUSH1 0x1 PUSH1 0x80 SHL SUB DUP2 DUP2 AND DUP4 DUP3 AND ADD SWAP1 DUP1 DUP3 GT ISZERO PUSH2 0x2AD7 JUMPI PUSH2 0x2AD7 PUSH2 0x4049 JUMP JUMPDEST PUSH4 0x4E487B71 PUSH1 0xE0 SHL PUSH1 0x0 MSTORE PUSH1 0x12 PUSH1 0x4 MSTORE PUSH1 0x24 PUSH1 0x0 REVERT JUMPDEST PUSH1 0x2 DUP3 DUP2 SIGNEXTEND SWAP1 DUP3 SWAP1 SIGNEXTEND SUB PUSH3 0x7FFFFF NOT DUP2 SLT PUSH3 0x7FFFFF DUP3 SGT OR ISZERO PUSH2 0x2BD JUMPI PUSH2 0x2BD PUSH2 0x4049 JUMP JUMPDEST PUSH1 0xF DUP2 DUP2 SIGNEXTEND SWAP1 DUP4 SWAP1 SIGNEXTEND ADD PUSH1 0x1 PUSH1 0x1 PUSH1 0x7F SHL SUB DUP2 SGT PUSH16 0x7FFFFFFFFFFFFFFFFFFFFFFFFFFFFFFF NOT DUP3 SLT OR ISZERO PUSH2 0x2BD JUMPI PUSH2 0x2BD PUSH2 0x4049 JUMP JUMPDEST PUSH4 0xFFFFFFFF DUP3 DUP2 AND DUP3 DUP3 AND SUB SWAP1 DUP1 DUP3 GT ISZERO PUSH2 0x2AD7 JUMPI PUSH2 0x2AD7 PUSH2 0x4049 JUMP JUMPDEST PUSH1 0x0 PUSH4 0xFFFFFFFF DUP1 DUP5 AND DUP1 PUSH2 0x416A JUMPI PUSH2 0x416A PUSH2 0x40C5 JUMP JUMPDEST SWAP3 AND SWAP2 SWAP1 SWAP2 DIV SWAP3 SWAP2 POP POP JUMP JUMPDEST PUSH1 0x1 PUSH1 0x1 PUSH1 0x40 SHL SUB DUP3 DUP2 AND DUP3 DUP3 AND SUB SWAP1 DUP1 DUP3 GT ISZERO PUSH2 0x2AD7 JUMPI PUSH2 0x2AD7 PUSH2 0x4049 JUMP JUMPDEST PUSH1 0x1 PUSH1 0x1 PUSH1 0x40 SHL SUB DUP2 DUP2 AND DUP4 DUP3 AND ADD SWAP1 DUP1 DUP3 GT ISZERO PUSH2 0x2AD7 JUMPI PUSH2 0x2AD7 PUSH2 0x4049 JUMP JUMPDEST PUSH1 0x0 DUP3 PUSH1 0x2 SIGNEXTEND DUP1 PUSH2 0x41C9 JUMPI PUSH2 0x41C9 PUSH2 0x40C5 JUMP JUMPDEST DUP1 DUP4 PUSH1 0x2 SIGNEXTEND SMOD SWAP2 POP POP SWAP3 SWAP2 POP POP JUMP JUMPDEST PUSH1 0x1 DUP2 DUP2 SIGNEXTEND SWAP1 DUP4 SWAP1 SIGNEXTEND ADD PUSH2 0x7FFF DUP2 SGT PUSH2 0x7FFF NOT DUP3 SLT OR ISZERO PUSH2 0x2BD JUMPI PUSH2 0x2BD PUSH2 0x4049 JUMP JUMPDEST PUSH1 0x0 DUP3 PUSH1 0x1 SIGNEXTEND DUP1 PUSH2 0x420E JUMPI PUSH2 0x420E PUSH2 0x40C5 JUMP JUMPDEST DUP1 DUP4 PUSH1 0x1 SIGNEXTEND SMOD SWAP2 POP POP SWAP3 SWAP2 POP POP JUMP JUMPDEST PUSH1 0x0 DUP3 MLOAD PUSH1 0x0 JUMPDEST DUP2 DUP2 LT ISZERO PUSH2 0x423E JUMPI PUSH1 0x20 DUP2 DUP7 ADD DUP2 ADD MLOAD DUP6 DUP4 ADD MSTORE ADD PUSH2 0x4224 JUMP JUMPDEST POP PUSH1 0x0 SWAP3 ADD SWAP2 DUP3 MSTORE POP SWAP2 SWAP1 POP JUMP JUMPDEST PUSH1 0x0 PUSH1 0x20 DUP3 DUP5 SUB SLT ISZERO PUSH2 0x425E JUMPI PUSH1 0x0 DUP1 REVERT JUMPDEST DUP2 MLOAD DUP1 PUSH1 0xF SIGNEXTEND DUP2 EQ PUSH2 0xC84 JUMPI PUSH1 0x0 DUP1 REVERT JUMPDEST PUSH1 0x1 PUSH1 0x1 PUSH1 0x60 SHL SUB DUP3 DUP2 AND DUP3 DUP3 AND SUB SWAP1 DUP1 DUP3 GT ISZERO PUSH2 0x2AD7 JUMPI PUSH2 0x2AD7 PUSH2 0x4049 JUMP JUMPDEST DUP1 DUP3 MUL DUP2 ISZERO DUP3 DUP3 DIV DUP5 EQ OR PUSH2 0x2BD JUMPI PUSH2 0x2BD PUSH2 0x4049 JUMP JUMPDEST PUSH1 0x0 DUP3 PUSH2 0x42B5 JUMPI PUSH2 0x42B5 PUSH2 0x40C5 JUMP JUMPDEST POP DIV SWAP1 JUMP JUMPDEST PUSH1 0x1 PUSH1 0x1 PUSH1 0x80 SHL SUB DUP2 DUP2 AND DUP4 DUP3 AND MUL DUP1 DUP3 AND SWAP2 SWAP1 DUP3 DUP2 EQ PUSH2 0x36AE JUMPI PUSH2 0x36AE PUSH2 0x4049 JUMP INVALID LOG2 PUSH5 0x6970667358 0x22 SLT KECCAK256 0xC2 0xBB 0xAD 0x2C SWAP4 BYTE 0xE9 0xD9 DIV BYTE 0xAF REVERT 0xD5 LOG0 ADDMOD PUSH6 0xCC4AEA180D4 SHR 0xD7 0xEB PUSH18 0x571151127B2664736F6C6343000813003300 "
		},
		"gasEstimates": {
			"creation": {
				"codeDepositCost": "3434200",
				"executionCost": "28072",
				"totalCost": "3462272"
			},
			"external": {
				"acceptHaqqProxyRole(address,uint16)": "infinite",
				"burnHaqqX(uint128,uint128,uint128,uint64,uint64,uint128,bytes32)": "infinite",
				"burnRange(uint128,int24,uint128,uint128,uint64,uint64,int24,int24,uint128,bytes32)": "infinite",
				"mintHaqqX(uint128,uint128,uint128,uint64,uint64,uint128,bytes32)": "infinite",
				"mintRange(uint128,int24,uint128,uint128,uint64,uint64,int24,int24,uint128,bytes32)": "infinite",
				"sweepSwap((uint128,uint128,uint128,uint64,uint64),int24,(bool,bool,uint8,uint128,uint128),((uint8,uint16,uint8,uint16,uint8,uint8,uint8),bytes32,address))": "infinite"
			}
		},
		"methodIdentifiers": {
			"acceptHaqqProxyRole(address,uint16)": "24af4153",
			"burnHaqqX(uint128,uint128,uint128,uint64,uint64,uint128,bytes32)": "a2e0d4c9",
			"burnRange(uint128,int24,uint128,uint128,uint64,uint64,int24,int24,uint128,bytes32)": "7c6dfe3d",
			"mintHaqqX(uint128,uint128,uint128,uint64,uint64,uint128,bytes32)": "64b762fa",
			"mintRange(uint128,int24,uint128,uint128,uint64,uint64,int24,int24,uint128,bytes32)": "2370632b",
			"sweepSwap((uint128,uint128,uint128,uint64,uint64),int24,(bool,bool,uint8,uint128,uint128),((uint8,uint16,uint8,uint16,uint8,uint8,uint8),bytes32,address))": "7b370fc2"
		}
	},
	"abi": [
		{
			"anonymous": false,
			"inputs": [
				{
					"indexed": true,
					"internalType": "bytes32",
					"name": "pool",
					"type": "bytes32"
				},
				{
					"indexed": true,
					"internalType": "int24",
					"name": "tick",
					"type": "int24"
				},
				{
					"indexed": false,
					"internalType": "bool",
					"name": "isBid",
					"type": "bool"
				},
				{
					"indexed": false,
					"internalType": "uint32",
					"name": "pivotTime",
					"type": "uint32"
				},
				{
					"indexed": false,
					"internalType": "uint64",
					"name": "feeMileage",
					"type": "uint64"
				},
				{
					"indexed": false,
					"internalType": "uint160",
					"name": "commitEntropy",
					"type": "uint160"
				}
			],
			"name": "HaqqKnockoutCross",
			"type": "event"
		},
		{
			"inputs": [
				{
					"internalType": "address",
					"name": "",
					"type": "address"
				},
				{
					"internalType": "uint16",
					"name": "slot",
					"type": "uint16"
				}
			],
			"name": "acceptHaqqProxyRole",
			"outputs": [
				{
					"internalType": "bool",
					"name": "",
					"type": "bool"
				}
			],
			"stateMutability": "pure",
			"type": "function"
		},
		{
			"inputs": [
				{
					"internalType": "uint128",
					"name": "price",
					"type": "uint128"
				},
				{
					"internalType": "uint128",
					"name": "seed",
					"type": "uint128"
				},
				{
					"internalType": "uint128",
					"name": "conc",
					"type": "uint128"
				},
				{
					"internalType": "uint64",
					"name": "seedGrowth",
					"type": "uint64"
				},
				{
					"internalType": "uint64",
					"name": "concGrowth",
					"type": "uint64"
				},
				{
					"internalType": "uint128",
					"name": "liq",
					"type": "uint128"
				},
				{
					"internalType": "bytes32",
					"name": "poolHash",
					"type": "bytes32"
				}
			],
			"name": "burnHaqqX",
			"outputs": [
				{
					"internalType": "int128",
					"name": "baseFlow",
					"type": "int128"
				},
				{
					"internalType": "int128",
					"name": "quoteFlow",
					"type": "int128"
				},
				{
					"internalType": "uint128",
					"name": "seedOut",
					"type": "uint128"
				}
			],
			"stateMutability": "payable",
			"type": "function"
		},
		{
			"inputs": [
				{
					"internalType": "uint128",
					"name": "price",
					"type": "uint128"
				},
				{
					"internalType": "int24",
					"name": "priceTick",
					"type": "int24"
				},
				{
					"internalType": "uint128",
					"name": "seed",
					"type": "uint128"
				},
				{
					"internalType": "uint128",
					"name": "conc",
					"type": "uint128"
				},
				{
					"internalType": "uint64",
					"name": "seedGrowth",
					"type": "uint64"
				},
				{
					"internalType": "uint64",
					"name": "concGrowth",
					"type": "uint64"
				},
				{
					"internalType": "int24",
					"name": "lowTick",
					"type": "int24"
				},
				{
					"internalType": "int24",
					"name": "highTick",
					"type": "int24"
				},
				{
					"internalType": "uint128",
					"name": "liq",
					"type": "uint128"
				},
				{
					"internalType": "bytes32",
					"name": "poolHash",
					"type": "bytes32"
				}
			],
			"name": "burnRange",
			"outputs": [
				{
					"internalType": "int128",
					"name": "baseFlow",
					"type": "int128"
				},
				{
					"internalType": "int128",
					"name": "quoteFlow",
					"type": "int128"
				},
				{
					"internalType": "uint128",
					"name": "seedOut",
					"type": "uint128"
				},
				{
					"internalType": "uint128",
					"name": "concOut",
					"type": "uint128"
				}
			],
			"stateMutability": "payable",
			"type": "function"
		},
		{
			"inputs": [
				{
					"internalType": "uint128",
					"name": "price",
					"type": "uint128"
				},
				{
					"internalType": "uint128",
					"name": "seed",
					"type": "uint128"
				},
				{
					"internalType": "uint128",
					"name": "conc",
					"type": "uint128"
				},
				{
					"internalType": "uint64",
					"name": "seedGrowth",
					"type": "uint64"
				},
				{
					"internalType": "uint64",
					"name": "concGrowth",
					"type": "uint64"
				},
				{
					"internalType": "uint128",
					"name": "liq",
					"type": "uint128"
				},
				{
					"internalType": "bytes32",
					"name": "poolHash",
					"type": "bytes32"
				}
			],
			"name": "mintHaqqX",
			"outputs": [
				{
					"internalType": "int128",
					"name": "baseFlow",
					"type": "int128"
				},
				{
					"internalType": "int128",
					"name": "quoteFlow",
					"type": "int128"
				},
				{
					"internalType": "uint128",
					"name": "seedOut",
					"type": "uint128"
				}
			],
			"stateMutability": "payable",
			"type": "function"
		},
		{
			"inputs": [
				{
					"internalType": "uint128",
					"name": "price",
					"type": "uint128"
				},
				{
					"internalType": "int24",
					"name": "priceTick",
					"type": "int24"
				},
				{
					"internalType": "uint128",
					"name": "seed",
					"type": "uint128"
				},
				{
					"internalType": "uint128",
					"name": "conc",
					"type": "uint128"
				},
				{
					"internalType": "uint64",
					"name": "seedGrowth",
					"type": "uint64"
				},
				{
					"internalType": "uint64",
					"name": "concGrowth",
					"type": "uint64"
				},
				{
					"internalType": "int24",
					"name": "lowTick",
					"type": "int24"
				},
				{
					"internalType": "int24",
					"name": "highTick",
					"type": "int24"
				},
				{
					"internalType": "uint128",
					"name": "liq",
					"type": "uint128"
				},
				{
					"internalType": "bytes32",
					"name": "poolHash",
					"type": "bytes32"
				}
			],
			"name": "mintRange",
			"outputs": [
				{
					"internalType": "int128",
					"name": "baseFlow",
					"type": "int128"
				},
				{
					"internalType": "int128",
					"name": "quoteFlow",
					"type": "int128"
				},
				{
					"internalType": "uint128",
					"name": "seedOut",
					"type": "uint128"
				},
				{
					"internalType": "uint128",
					"name": "concOut",
					"type": "uint128"
				}
			],
			"stateMutability": "payable",
			"type": "function"
		},
		{
			"inputs": [
				{
					"components": [
						{
							"internalType": "uint128",
							"name": "priceRoot_",
							"type": "uint128"
						},
						{
							"internalType": "uint128",
							"name": "haqqxSeeds_",
							"type": "uint128"
						},
						{
							"internalType": "uint128",
							"name": "concLiq_",
							"type": "uint128"
						},
						{
							"internalType": "uint64",
							"name": "seedDeflator_",
							"type": "uint64"
						},
						{
							"internalType": "uint64",
							"name": "concGrowth_",
							"type": "uint64"
						}
					],
					"internalType": "struct CurveMath.CurveState",
					"name": "curve",
					"type": "tuple"
				},
				{
					"internalType": "int24",
					"name": "midTick",
					"type": "int24"
				},
				{
					"components": [
						{
							"internalType": "bool",
							"name": "isBuy_",
							"type": "bool"
						},
						{
							"internalType": "bool",
							"name": "inBaseQty_",
							"type": "bool"
						},
						{
							"internalType": "uint8",
							"name": "rollType_",
							"type": "uint8"
						},
						{
							"internalType": "uint128",
							"name": "qty_",
							"type": "uint128"
						},
						{
							"internalType": "uint128",
							"name": "limitPrice_",
							"type": "uint128"
						}
					],
					"internalType": "struct Directives.SwapDirective",
					"name": "swap",
					"type": "tuple"
				},
				{
					"components": [
						{
							"components": [
								{
									"internalType": "uint8",
									"name": "schema_",
									"type": "uint8"
								},
								{
									"internalType": "uint16",
									"name": "feeRate_",
									"type": "uint16"
								},
								{
									"internalType": "uint8",
									"name": "protocolTake_",
									"type": "uint8"
								},
								{
									"internalType": "uint16",
									"name": "tickSize_",
									"type": "uint16"
								},
								{
									"internalType": "uint8",
									"name": "jitThresh_",
									"type": "uint8"
								},
								{
									"internalType": "uint8",
									"name": "knockoutBits_",
									"type": "uint8"
								},
								{
									"internalType": "uint8",
									"name": "oracleFlags_",
									"type": "uint8"
								}
							],
							"internalType": "struct PoolSpecs.Pool",
							"name": "head_",
							"type": "tuple"
						},
						{
							"internalType": "bytes32",
							"name": "hash_",
							"type": "bytes32"
						},
						{
							"internalType": "address",
							"name": "oracle_",
							"type": "address"
						}
					],
					"internalType": "struct PoolSpecs.PoolCursor",
					"name": "pool",
					"type": "tuple"
				}
			],
			"name": "sweepSwap",
			"outputs": [
				{
					"components": [
						{
							"internalType": "int128",
							"name": "baseFlow_",
							"type": "int128"
						},
						{
							"internalType": "int128",
							"name": "quoteFlow_",
							"type": "int128"
						},
						{
							"internalType": "uint128",
							"name": "baseProto_",
							"type": "uint128"
						},
						{
							"internalType": "uint128",
							"name": "quoteProto_",
							"type": "uint128"
						}
					],
					"internalType": "struct Chaining.PairFlow",
					"name": "accum",
					"type": "tuple"
				},
				{
					"internalType": "uint128",
					"name": "priceOut",
					"type": "uint128"
				},
				{
					"internalType": "uint128",
					"name": "seedOut",
					"type": "uint128"
				},
				{
					"internalType": "uint128",
					"name": "concOut",
					"type": "uint128"
				},
				{
					"internalType": "uint64",
					"name": "haqqxOut",
					"type": "uint64"
				},
				{
					"internalType": "uint64",
					"name": "concGrowthOut",
					"type": "uint64"
				}
			],
			"stateMutability": "payable",
			"type": "function"
		}
	]
}