{
	"data": {
		"bytecode": {
			"linkReferences": {},
			"object": "608060405262010011805460ff60e01b1916600160e71b17905534801561002557600080fd5b5061389e806100356000396000f3fe6080604052600436106100295760003560e01c806324af41531461002e578063f96dc78814610063575b600080fd5b34801561003a57600080fd5b5061004e610049366004613402565b610090565b60405190151581526020015b60405180910390f35b610076610071366004613442565b61009f565b60408051600f93840b81529190920b60208201520161005a565b61ffff81166002145b92915050565b60008060008060008060008060008060008060008e8e8101906100c291906134ed565b9a509a509a509a509a509a509a509a509a509a509a5060006001600160a01b0316816001600160a01b03160361010057506000546001600160a01b03165b6101128b8b8b8b8b8b8b8b8b8a610136565b909d509b506101248a8a8f8f8661030c565b50505050505050505050509250929050565b60008060001960ff8d160161015f576101568b8b8b8b8b8b898c8c610331565b915091506102fd565b600a1960ff8d160161017e576101568b8b8b8b8b60018c8a8d8d610373565b600b1960ff8d160161019d576101568b8b8b8b8b60008c8a8d8d610373565b60011960ff8d16016101ba576101568b8b8b8b8b8b898c8c6103c3565b60141960ff8d16016101d9576101568b8b8b8b8b60018c8a8d8d6103f2565b60151960ff8d16016101f8576101568b8b8b8b8b60008c8a8d8d6103f2565b60021960ff8d1601610213576101568b8b8b89878a8a610439565b601e1960ff8d1601610230576101568b8b8b60018a888b8b610478565b601f1960ff8d160161024d576101568b8b8b60008a888b8b610478565b60031960ff8d1601610268576101568b8b8b89878a8a6104e4565b60281960ff8d1601610285576101568b8b8b60018a888b8b610512565b60291960ff8d16016102a2576101568b8b8b60008a888b8b610512565b60041960ff8d16016102be576101568b8b8b8b8b888b8b610569565b60405162461bcd60e51b815260206004820152600f60248201526e125b9d985b1a590818dbdb5b585b99608a1b60448201526064015b60405180910390fd5b9a509a98505050505050505050565b6000546001600160a01b031680610328818089888a89896105aa565b50505050505050565b60008060006103418c8c8c6105f2565b9050610351818d8d8c8c8c61064c565b6103608989898489898c610723565b9250925050995099975050505050505050565b60008060006103878d8d8d8a8e8e8e610794565b905060008061039d8f8f8f8f8f888e8e8e610331565b915091506103ad82828b8d6107d2565b945094505050509a509a98505050505050505050565b60008060006103d38c8c8c6105f2565b90506103e3818d8d8c8c8c610837565b6103608989898489898c610890565b60008060006104028d8d8d6108e2565b9050600061040f82610948565b9050600061042689600084600001518f8f8f6109f1565b90506103ad8f8f8f8f8f868e8e8e6103c3565b60008060006104498a8a8a6105f2565b905061045a818b8b6000808c61064c565b610467878287878a610a5e565b925092505097509795505050505050565b60008060006104888b8b8b6108e2565b9050600061049582610948565b905060006104aa89600184600001518d610aa3565b90506000806104be8f8f8f868e8e8e610439565b915091506104ce82828d8f6107d2565b9650965050505050509850989650505050505050565b60008060006104f48a8a8a6105f2565b9050610505818b8b6000808c610837565b610467878287878a610aea565b60008060006105228b8b8b6108e2565b9050600061052f82610948565b9050600061054489600084600001518d610aa3565b90506105558d8d8d848c8c8c6104e4565b945094505050509850989650505050505050565b60008060006105798b8b8b6105f2565b905061058a818c8c8b8b6000610837565b61059888888388888b610b10565b92509250509850989650505050505050565b6001600160a01b0385166105ce576105c9878786600185161515610b6d565b6105e0565b6105e087878688600186161515610ba9565b61032887878486600286161515610ba9565b6105fa613397565b61060962010009858585610bcc565b905061061481610c9c565b6106455760405162461bcd60e51b8152602060048201526002602482015261504960f01b60448201526064016102f4565b9392505050565b60408601516001600160a01b03161561071b57604080870151600080549251631ba1b5d360e01b815290926001600160a01b0392831692631ba1b5d3926106a5929091169033908b908b908b908b908b906004016135ba565b6020604051808303816000875af11580156106c4573d6000803e3d6000fd5b505050506040513d601f19601f820116820180604052508101906106e89190613608565b9050806103285760405162461bcd60e51b81526020600482015260016024820152602d60f91b60448201526064016102f4565b505050505050565b600080600061073787602001518787610ce9565b90506107618161075383600001516001600160801b0316610d83565b8c8c8c8c602001518a611069565b8851606001519194509250610779908b908b906110df565b61078787602001518261111f565b5097509795505050505050565b6000806107a28989896108e2565b905060006107af82610948565b90506107c487600183600001518989896109f1565b9a9950505050505050505050565b60008060006107e9856001600160801b03166111a9565b90508380156107fd575086600f0b81600f0b135b1561080a57809650610826565b8315801561081d575085600f0b81600f0b135b15610826578095505b868692509250505b94509492505050565b60408601516001600160a01b03161561071b5760408087015160008054925163753b742360e01b815290926001600160a01b039283169263753b7423926106a5929091169033908b908b908b908b908b906004016135ba565b60008060006108a487602001518787610ce9565b90506108ce816108c083600001516001600160801b0316610d83565b8c8c8c8c602001518a6111c8565b60208901519194509250610787908261111f565b6000826001600160a01b0316846001600160a01b03161061090257600080fd5b604080516001600160a01b038087166020830152851691810191909152606081018390526080016040516020818303038152906040528051906020012090509392505050565b6040805160a0810182526000808252602082018190529181018290526060810182905260808101919091525060008181526201000f6020908152604091829020825160a08101845281546001600160801b03808216808452600160801b92839004821695840195909552600190930154928316948201949094529281046001600160401b039081166060850152600160c01b9091041660808301526109ec57600080fd5b919050565b6000806000610a0287878787611244565b915091506000610a29858484610a188e8e6112c5565b6001600160801b031692919061134d565b905088610a4757610a42816001600160801b03166113b5565b6107c4565b610800600160801b03169998505050505050505050565b6000806000610a7287602001518787610ce9565b9050610a84818989602001518761142f565b60208901519194509250610a98908261111f565b509550959350505050565b600080610ac58385610ab589896112c5565b6001600160801b03169190611481565b905084610adc57610ad7816001613640565b610ade565b805b9150505b949350505050565b6000806000610afe87602001518787610ce9565b9050610a8481898960200151876114be565b6000806000610b2487602001518787610ce9565b9050610b4d81610b4083600001516001600160801b0316610d83565b8b8b8b6020015189611510565b60208901519194509250610b61908261111f565b50965096945050505050565b6000610b77611576565b905082600f0b600014610b9857610b93858585600085876115d7565b610ba2565b610ba28482611618565b5050505050565b6001600160a01b038216610bbc57600080fd5b600061071b8686868685876115d7565b610bd4613397565b6000610be18585856108e2565b600081815260208881526040808320815160e081018352905460ff808216835261ffff61010083048116958401959095526301000000820481169383019390935264010000000081049093166060820152600160301b830482166080820152600160381b8304821660a0820152600160401b9092041660c0820181905292935091610c6d90869061163e565b6040805160608101825293845260208401949094526001600160a01b0316928201929092529695505050505050565b805151600090600160ff9091161115610cdd5760405162461bcd60e51b815260206004820152600360248201526249505360e81b60448201526064016102f4565b50515160ff1660011490565b6040805160a081018252600080825260208201819052918101829052606081018290526080810191909152610d1d84610948565b9050826001600160801b031681600001516001600160801b031610158015610d52575080516001600160801b03808416911611155b6106455760405162461bcd60e51b8152602060048201526002602482015261524360f01b60448201526064016102f4565b6000620100026001600160801b03831610801590610db957506f0ffff5433e2b3d8211706e6102aa94726001600160801b038316105b610dc257600080fd5b600160401b600160c01b03604083901b166001600160801b03811160071b81811c6001600160401b03811160061b90811c63ffffffff811160051b90811c61ffff811160041b90811c60ff8111600390811b91821c600f811160021b90811c918211600190811b92831c97908811961790941790921717909117171760808110610e5457607f810383901c9150610e5e565b80607f0383901b91505b908002607f81811c60ff83811c9190911c800280831c81831c1c800280841c81841c1c800280851c81851c1c800280861c81861c1c800280871c81871c1c800280881c81881c1c800280891c81891c1c8002808a1c818a1c1c8002808b1c818b1c1c8002808c1c818c1c1c8002808d1c818d1c1c8002808e1c9c81901c9c909c1c80029c8d901c9e9d607f198f0160401b60c09190911c678000000000000000161760c19b909b1c674000000000000000169a909a1760c29990991c672000000000000000169890981760c39790971c671000000000000000169690961760c49590951c670800000000000000169490941760c59390931c670400000000000000169290921760c69190911c670200000000000000161760c79190911c600160381b161760c89190911c6680000000000000161760c99190911c6640000000000000161760ca9190911c6620000000000000161760cb9190911c6610000000000000161760cc9190911c6608000000000000161760cd9190911c66040000000000001617693627a301d71055774c8581026f028f6481ab7f045a5af012a19d003aa9198101608090811d906fdb2df09e81959a81455e260799a0632f8301901d600281810b9083900b1461105a57886001600160801b031661103f82611662565b6001600160801b03161115611054578161105c565b8061105c565b815b9998505050505050505050565b6000806000611091858a8a8a6110878b6001600160801b0316611988565b8f60800151611a1b565b90506110a184868a8a8a86611a63565b6110af858989898589611a7e565b6000806110be8c898c8c611b47565b915091506110cc8282611b7b565b909d909c509a5050505050505050505050565b6110ea838383611bae565b61111a5760405162461bcd60e51b81526020600482015260016024820152601160fa1b60448201526064016102f4565b505050565b60009182526201000f60209081526040928390208251918301516001600160801b03908116600160801b908102938216939093178255938301516001909101805460608501516080909501516001600160401b03908116600160c01b026001600160c01b03919096169094026001600160c01b031990911692909516919091179390931716179055565b60006001607f1b826001600160801b0316106111c457600080fd5b5090565b60008060006111f0858a8a8a6111e68b6001600160801b0316611988565b8f60800151611be1565b9050600061120285878b8b8b87611c3b565b9050611212868a8a8a868a611c7d565b6000806112228d8a858e8e611ccf565b915091506112308282611cfe565b955095505050505097509795505050505050565b6000806112538560020b611662565b91506112618460020b611662565b9050816001600160801b0316866001600160801b03161161128c57821561128757600080fd5b61082e565b806001600160801b0316866001600160801b0316106112af578261128757600080fd5b82156112bc57508461082e565b94959350505050565b60006004821561130257806001600160801b0316846001600160801b0316106112f7576112f28185613660565b6112fa565b60005b915050610099565b61131460046001600160801b03613660565b6001600160801b0316846001600160801b031611611336576112f28185613640565b6001600160801b03915050610099565b5092915050565b6000836113785761137185600161136386611d37565b61136c86611d37565b61134d565b9050610ae2565b6000826001600160801b0316846001600160801b03161161139b5783830361139f565b8284035b90506113ad86600183611481565b915050610ae2565b6000610800600160801b0380831690036113fc5760405162461bcd60e51b81526020600482015260086024820152676f766572666c6f7760c01b60448201526064016102f4565b50600b90811c6e1fffffffffffffffffffffffffffff16600101901b7107fffffffffffffffffffffffffffffff8001690565b60008060006114448486888a60600151611d6d565b90506114568582896060015187611df2565b6000806114638984611e03565b915091506114718282611b7b565b909a909950975050505050505050565b6000826114b1576114ac6001600160801b038086169084160260401c5b6001600160c01b0316611e3a565b610ae2565b610ae261149e8584611e59565b60008060006114d38486888a60600151611e8b565b90506114e58582896060015187611f2f565b6000806114f28984611f44565b915091506115008282611cfe565b9450945050505094509492505050565b6000806000611526858989898d60800151611f7a565b9050600061153785878a8a86611fa8565b90506115488689896000868a611c7d565b6000806115558c84611f44565b915091506115638282611cfe565b9550955050505050965096945050505050565b60008054600160a81b900460ff16156115b65760405162461bcd60e51b8152602060048201526002602482015261445360f01b60448201526064016102f4565b6115bf3461204e565b6000805460ff60a81b1916600160a81b179055919050565b6000600f85900b13156115f6576115f18685858585612064565b61071b565b6000600f85900b121561071b5761071b8561161086613680565b858585612097565b6001600160801b0381161561163a5761163a82826001600160801b03166120bf565b5050565b60006001828116811480611653576000611659565b606085901c5b95945050505050565b6000620a276d19600283900b128015906116835750620cb14a600283900b13155b61168c57600080fd5b6000808360020b126116a1578260020b6116a9565b8260020b6000035b90506000816001166000036116c257600160801b6116d4565b6ffffcb933bd6fad37aa2d162d1a5940015b70ffffffffffffffffffffffffffffffffff1690506002821615611708576ffff97272373d413259a46990580e213a0260801c5b6004821615611727576ffff2e50f5f656932ef12357cf3c7fdcc0260801c5b6008821615611746576fffe5caca7e10e4e61c3624eaa0941cd00260801c5b6010821615611765576fffcb9843d60f6159c9db58835c9266440260801c5b6020821615611784576fff973b41fa98c081472e6896dfb254c00260801c5b60408216156117a3576fff2ea16466c96a3843ec78b326b528610260801c5b60808216156117c2576ffe5dee046a99a2a811c461f1969c30530260801c5b6101008216156117e2576ffcbe86c7900a88aedcffc83b479aa3a40260801c5b610200821615611802576ff987a7253ac413176f2b074cf7815e540260801c5b610400821615611822576ff3392b0822b70005940c7a398e4b70f30260801c5b610800821615611842576fe7159475a2c29b7443b29c7fa6e889d90260801c5b611000821615611862576fd097f3bdfd2022b8845ad8f792aa58250260801c5b612000821615611882576fa9f746462d870fdf8a65dc1f90e061e50260801c5b6140008216156118a2576f70d869a156d2a1b890bb3df62baf32f70260801c5b6180008216156118c2576f31be135f97d08fd981231505542fcfa60260801c5b620100008216156118e3576f09aa508b5b7a84e1c677de54f3e99bc90260801c5b62020000821615611903576e5d6af8dedb81196699c329225ee6040260801c5b62040000821615611922576d2216e584f5fa1ea926041bedfe980260801c5b6208000082161561193f576b048a170391f7dc42444e8fa20260801c5b60008460020b131561196057806000198161195c5761195c6136af565b0490505b600160401b810615611973576001611976565b60005b60ff16604082901c0192505050919050565b6000600a82901c6e3fffffffffffffffffffffffffffff8116906ffffffffffffffffffffffffffffffc00841690600116158080156119cf5750846001600160801b031682145b80156119e157506001600160601b0383105b611a125760405162461bcd60e51b8152602060048201526002602482015261119160f21b60448201526064016102f4565b50909392505050565b6000611a2987878785612132565b611a3587878685612132565b611a408786856121a3565b611a4b8785856121ec565b611a588787878786611f7a565b979650505050505050565b6000611a718787878761224b565b90506103288184846122ab565b6000546001600160a01b0382811691161461071b576000805460405163046282db60e41b81526001600160a01b03848116926346282db092611ad092909116908b908b908b908b908b906004016136c5565b6020604051808303816000875af1158015611aef573d6000803e3d6000fd5b505050506040513d601f19601f82011682018060405250810190611b139190613608565b9050806103285760405162461bcd60e51b815260206004820152600260248201526104c560f41b60448201526064016102f4565b6000806000806000611b5f896000015189898961236c565b925092509250611b70898983612428565b611500838383612444565b600080611b90846001600160801b03166111a9565b611ba2846001600160801b03166111a9565b915091505b9250929050565b600061ffff8216611bbf818661370e565b60020b1580156116595750611bd4818561370e565b60020b1595945050505050565b600080611bef8887866124a9565b90506000611bfe898787612532565b9050611c0d8989898988611f7a565b92508115611c1f57611c1f89886125b0565b8015611c2f57611c2f89876125b0565b50509695505050505050565b600080611c4a8888888861224b565b8054909150611c6690600160c01b900463ffffffff1688612601565b611c7181858561268a565b98975050505050505050565b6000546001600160a01b0382811691161461071b57600080546040516378f4de3160e11b81526001600160a01b038481169263f1e9bc6292611ad092909116908b908b908b908b908b906004016136c5565b600080611cde8787868661274a565b9092509050611cf0828289898961278f565b909890975095505050505050565b600080611d13846001600160801b03166111a9565b611d1c90613680565b611d2e846001600160801b03166111a9565b611ba290613680565b600080826001600160801b0316600160801b81611d5657611d566136af565b0490506001600160801b0381111561009957600080fd5b600080611d7a868661280e565b9050611d8f6001600160801b03851684612836565b8154909250611da7906001600160801b031683612880565b81546001600160801b0319166001600160801b0391909116178155611dca61289c565b815463ffffffff91909116600160801b0263ffffffff60801b19909116179055949350505050565b60008061071b868383888888611a7e565b600080600080611e1386866128b6565b91509150611e218686612905565b611e2d82826001612444565b9350935050509250929050565b806001600160801b0381166001600160c01b038216146109ec57600080fd5b60006001600160801b038216600160401b600160c01b03604085901b1681611e8357611e836136af565b049392505050565b600080611e98868661280e565b9050611ead6001600160801b03851684612836565b81549092506001600160801b0390811690831610611ee45780546001600160a01b0319811682556001600160801b03169150611f26565b805482908290600090611f019084906001600160801b0316613660565b92506101000a8154816001600160801b0302191690836001600160801b031602179055505b50949350505050565b611f3e84600080868686611c7d565b50505050565b600080611f5184846128b6565b9092509050611ba784611f6c6001600160801b0386166111a9565b611f7590613680565b61291b565b600080611f8987868886612948565b90506000611f9988868987612948565b91909103979650505050505050565b600080611fb78787878761224b565b80549091506001600160401b03600160801b9091048116908416811015612043576000611fed6001600160401b0386168361299b565b835490915061201c906001600160801b03166001600160401b0383160260301c5b6001600160901b03166129d7565b835467ffffffffffffffff60801b1916600160801b6001600160401b038816021784559350505b505095945050505050565b806001600160801b03811681146109ec57600080fd5b801561208b5760006120778686866129f6565b905061208586828686612a99565b50610ba2565b610ba285858585612ad1565b80156120b3576120a8858585612af5565b610b93858484612b59565b610ba285858585612b71565b6000826001600160a01b03168260405160006040518083038185875af1925050503d806000811461210c576040519150601f19603f3d011682016040523d82523d6000602084013e612111565b606091505b505090508061111a5760405162461bcd60e51b81526004016102f490613730565b600061213e8584612b9e565b80549091506001600160601b031615801561216857508054600160601b90046001600160601b0316155b15610ba2578360020b8360020b126121995780546001600160c01b0316600160c01b6001600160401b038416021781555b610ba28584612bf1565b60006121af8484612b9e565b80549091506001600160601b031660006121c98285612c79565b83546001600160601b0319166001600160601b0391909116179092555050505050565b60006121f88484612b9e565b8054909150600160601b90046001600160601b031660006122198285612c79565b83546001600160601b03909116600160601b026bffffffffffffffffffffffff60601b19909116179092555050505050565b6040805160609590951b6001600160601b031916602080870191909152603486019490945260e892831b6054860152911b60578401528051603a818503018152605a909301815282519282019290922060009081526201000d9091522090565b82546001600160801b0316600081156122d657508354600160801b90046001600160401b03166122da565b5060005b60006122ef6001600160801b03841686612880565b905060006123086001600160401b038616878587612c95565b9050600061231461289c565b885463ffffffff909116600160c01b0263ffffffff60c01b196001600160401b03909416600160801b026001600160c01b03199092166001600160801b03909516949094171791909116919091179095555050505050565b600080600080600061237e8787612d32565b91509150816001600160801b0316896001600160801b031610156123b7576123b06001600160801b0389168383612d8d565b935061241c565b806001600160801b0316896001600160801b0316106123eb576123e46001600160801b0389168383612dc6565b945061241c565b6123ff6001600160801b0389168a83612d8d565b93506124156001600160801b038916838b612dc6565b9450600192505b50509450945094915050565b61111a8361243e846001600160801b03166111a9565b83612dfc565b6000806000856001600160801b0316118061245c5750825b612467576000612472565b612472600486613640565b6000856001600160801b031611806124875750835b61249257600061249d565b61249d600486613640565b91509150935093915050565b6000806124b68585612b9e565b80549091506001600160601b031660006124d08286612e2d565b83546001600160601b0319166001600160601b038216908117855590915015801561250a57508254600160601b90046001600160601b0316155b15612525576125198787612e39565b60019350505050610645565b5060009695505050505050565b60008061253f8585612b9e565b8054909150600160601b90046001600160601b031660006125608286612e2d565b83546bffffffffffffffffffffffff60601b1916600160601b6001600160601b03831690810291909117855590915015801561250a575082546001600160601b0316612525576125198787612e39565b62010002600083836040516020016125d592919091825260e81b602082015260230190565b60408051601f198184030181529181528151602092830120835290820192909252016000908120555050565b600a60008361260e61289c565b612618919061374c565b905060006126268383613769565b905060ff63ffffffff821611610ba2576000848152620100096020526040902054600160301b900460ff1663ffffffff82161015610ba25760405162461bcd60e51b81526020600482015260016024820152602560f91b60448201526064016102f4565b82546000906001600160801b0316816126a38286612ec2565b86549091506126c5906001600160401b0386811691600160801b90041661299b565b92506001600160801b03811615612732578554600160e01b900460ff16156127145760405162461bcd60e51b815260206004820152600260248201526127a960f11b60448201526064016102f4565b85546001600160801b0319166001600160801b038216178655612741565b85546001600160e81b03191686555b50509392505050565b600080600061275f876000015187878761236c565b919450925090506127858761277c6001600160801b0389166111a9565b61243e90613680565b5094509492505050565b6000806001600160401b038316156128035760006127c36001600160801b0386166001600160401b0386160260301c61200e565b90506001600160801b03811615612801576000806127e18884611f44565b90925090506127f0828b613640565b99506127fc818a613640565b985050505b505b509495939450505050565b60006201000e60006128208585612ece565b8152602001908152602001600020905092915050565b6000600160301b75ffffffffffffffffffffffffffffffff000000000000603085901b16826001600160401b03851683018281612875576128756136af565b049695505050505050565b8082016001600160801b03808416908216101561009957600080fd5b60004263ffffffff8111156109ec5763ffffffff91505090565b60008060006128c9848660600151612f11565b85519091506128e8906001600160801b0380841691160260401c61149e565b92506128fb61149e828760000151611e59565b9150509250929050565b61163a82611f75836001600160801b03166111a9565b6020820151612933906001600160801b031682612f50565b6001600160801b031660209092019190915250565b6000806129558686612b9e565b90508360020b8560020b1315612981578054610ad790600160c01b90046001600160401b03168461378c565b54600160c01b90046001600160401b031695945050505050565b600060026129a981846137ac565b6001600160401b0316846001600160401b031611156112f757806129cd848661378c565b6112fa919061378c565b806001600160801b0381166001600160901b038216146109ec57600080fd5b600080612a038584612fa2565b600081815262010010602052604090208054919250906001600160801b03908116908616811115612a7457815486908390600090612a4b9084906001600160801b0316613660565b92506101000a8154816001600160801b0302191690836001600160801b03160217905550612a8f565b81546001600160801b0319168255612a8c8187613660565b93505b5050509392505050565b6001600160801b03831615612ab957612ab484848484612ad1565b611f3e565b6001600160a01b038216611f3e57611f3e8482611618565b6001600160a01b038216612aea57612ab4848483612fca565b611f3e848484613029565b6000612b018483612fa2565b6000818152620100106020526040812080549293508592909190612b2f9084906001600160801b0316613640565b92506101000a8154816001600160801b0302191690836001600160801b0316021790555050505050565b6001600160a01b03821661111a5761111a8382611618565b6001600160a01b038216612b8a57612ab484848361303e565b611f3e8285856001600160801b031661305a565b60006201000260008484604051602001612bc592919091825260e81b602082015260230190565b604051602081830303815290604052805190602001208152602001908152602001600020905092915050565b6000612bff8260020b61313e565b60ff166001901b90506000612c168360020b61315a565b60ff166001901b905081620100066000612c308787613168565b81526020019081526020016000206000828254179250508190555080620100076000612c5c87876131b3565b815260208101919091526040016000208054909117905550505050565b8082016001600160601b03808416908216101561009957600080fd5b6000816001600160801b0316600003612caf575083610ae2565b836001600160801b0316600003612cc7575081610ae2565b826001600160401b0316856001600160401b031603612ce7575083610ae2565b6000612cfd8686612cf88682613640565b6131df565b90506000612d108585612cf8818a613640565b9050612d1d8160016137ac565b612d288360016137ac565b611a5891906137ac565b6000808360020b8360020b13612d4757600080fd5b620a276d19600285900b1215612d5c57600080fd5b620cb14a600284900b1315612d7057600080fd5b612d7984611662565b9150612d8483611662565b90509250929050565b6000826001600160801b0316826001600160801b03161115612dbb57612db4848385613216565b9050610645565b612db4848484613216565b600080826001600160801b0316846001600160801b031611612dea57838303612dee565b8284035b905061165985826001613272565b801561111a576040830151612e1a906001600160801b031683612f50565b6001600160801b03166040840152505050565b600061064582846137cc565b6000612e478260020b61313e565b60ff166001901b1990506000612e5f8360020b61315a565b60ff166001901b1990506000612e7585856131b3565b60008181526201000760205260408120805485169081905591925081900361071b576000612ea38787613168565b6000908152620100066020526040902080548616905550505050505050565b60006106458284613660565b6040516001600160601b0319606084901b166020820152603481018290526000906054015b60405160208183030381529060405280519060200120905092915050565b6000600160301b6001600160801b038085166001600160401b03851683010290603082901c90811115611659576001600160801b039350505050610099565b60008082600f0b1215612f7e57508082016001600160801b0380841690821610612f7957600080fd5b610099565b826001600160801b03168284019150816001600160801b0316101561009957600080fd5b604080516001600160a01b038085166020830152831691810191909152600090606001612ef3565b816001600160801b0316816001600160801b031610156130115760405162461bcd60e51b8152602060048201526002602482015261454360f01b60448201526064016102f4565b600061301d8383613660565b9050611f3e8482611618565b61111a818430856001600160801b03166132ab565b61111a8361304c8385613640565b6001600160801b03166120bf565b604080516001600160a01b038481166024830152604480830185905283518084039091018152606490920183526020820180516001600160e01b031663a9059cbb60e01b17905291516000928392908716916130b691906137ec565b6000604051808303816000865af19150503d80600081146130f3576040519150601f19603f3d011682016040523d82523d6000602084013e6130f8565b606091505b50915091508180156131225750805115806131225750808060200190518101906131229190613608565b610ba25760405162461bcd60e51b81526004016102f490613730565b60006101006131508360020b60081d90565b610099919061381b565b60006100996101008361370e565b600080600283900b60101d9050838160405160200161319492919091825260f81b602082015260210190565b6040516020818303038152906040528051906020012091505092915050565b600080600283900b60081d9050838160405160200161319492919091825260f01b602082015260220190565b6000816001600160801b0316836001600160801b0316856001600160401b0316028161320d5761320d6136af565b04949350505050565b6000806132238385613660565b905060006132318685611e59565b6001600160c01b031690506000856001600160801b0316836001600160801b03168361325d919061383d565b6132679190613854565b9050612a8c8161204e565b6000610ae282613294576132868585611e59565b6001600160c01b031661204e565b6001600160801b038086169085160260401c613286565b604080516001600160a01b0385811660248301528481166044830152606480830185905283518084039091018152608490920183526020820180516001600160e01b03166323b872dd60e01b179052915160009283929088169161330f91906137ec565b6000604051808303816000865af19150503d806000811461334c576040519150601f19603f3d011682016040523d82523d6000602084013e613351565b606091505b509150915081801561337b57508051158061337b57508080602001905181019061337b9190613608565b61071b5760405162461bcd60e51b81526004016102f490613730565b60408051610140810182526000606082018181526080830182905260a0830182905260c0830182905260e08301829052610100830182905261012083018290528252602082018190529181019190915290565b6001600160a01b03811681146133ff57600080fd5b50565b6000806040838503121561341557600080fd5b8235613420816133ea565b9150602083013561ffff8116811461343757600080fd5b809150509250929050565b6000806020838503121561345557600080fd5b82356001600160401b038082111561346c57600080fd5b818501915085601f83011261348057600080fd5b81358181111561348f57600080fd5b8660208285010111156134a157600080fd5b60209290920196919550909350505050565b803560ff811681146109ec57600080fd5b8035600281900b81146109ec57600080fd5b80356001600160801b03811681146109ec57600080fd5b60008060008060008060008060008060006101608c8e03121561350f57600080fd5b6135188c6134b3565b9a5060208c0135613528816133ea565b995060408c0135613538816133ea565b985060608c0135975061354d60808d016134c4565b965061355b60a08d016134c4565b955061356960c08d016134d6565b945061357760e08d016134d6565b93506135866101008d016134d6565b92506135956101208d016134b3565b91506101408c01356135a6816133ea565b809150509295989b509295989b9093969950565b6001600160a01b03978816815295871660208701529386166040860152919094166060840152600293840b608084015290920b60a08201526001600160801b0390911660c082015260e00190565b60006020828403121561361a57600080fd5b8151801515811461064557600080fd5b634e487b7160e01b600052601160045260246000fd5b6001600160801b038181168382160190808211156113465761134661362a565b6001600160801b038281168282160390808211156113465761134661362a565b600081600f0b6f7fffffffffffffffffffffffffffffff1981036136a6576136a661362a565b60000392915050565b634e487b7160e01b600052601260045260246000fd5b6001600160a01b039690961686526020860194909452600292830b6040860152910b60608401526001600160801b031660808301526001600160401b031660a082015260c00190565b60008260020b80613721576137216136af565b808360020b0791505092915050565b6020808252600290820152612a2360f11b604082015260600190565b63ffffffff8281168282160390808211156113465761134661362a565b600063ffffffff80841680613780576137806136af565b92169190910492915050565b6001600160401b038281168282160390808211156113465761134661362a565b6001600160401b038181168382160190808211156113465761134661362a565b6001600160601b038281168282160390808211156113465761134661362a565b6000825160005b8181101561380d57602081860181015185830152016137f3565b506000920191825250919050565b60008260010b8061382e5761382e6136af565b808360010b0791505092915050565b80820281158282048414176100995761009961362a565b600082613863576138636136af565b50049056fea2646970667358221220d367fe53e5972c273dad841f46d43ad454b7897ffb5efc8394c1ddf7d088515664736f6c63430008130033",
			"opcodes": "PUSH1 0x80 PUSH1 0x40 MSTORE PUSH3 0x10011 DUP1 SLOAD PUSH1 0xFF PUSH1 0xE0 SHL NOT AND PUSH1 0x1 PUSH1 0xE7 SHL OR SWAP1 SSTORE CALLVALUE DUP1 ISZERO PUSH2 0x25 JUMPI PUSH1 0x0 DUP1 REVERT JUMPDEST POP PUSH2 0x389E DUP1 PUSH2 0x35 PUSH1 0x0 CODECOPY PUSH1 0x0 RETURN INVALID PUSH1 0x80 PUSH1 0x40 MSTORE PUSH1 0x4 CALLDATASIZE LT PUSH2 0x29 JUMPI PUSH1 0x0 CALLDATALOAD PUSH1 0xE0 SHR DUP1 PUSH4 0x24AF4153 EQ PUSH2 0x2E JUMPI DUP1 PUSH4 0xF96DC788 EQ PUSH2 0x63 JUMPI JUMPDEST PUSH1 0x0 DUP1 REVERT JUMPDEST CALLVALUE DUP1 ISZERO PUSH2 0x3A JUMPI PUSH1 0x0 DUP1 REVERT JUMPDEST POP PUSH2 0x4E PUSH2 0x49 CALLDATASIZE PUSH1 0x4 PUSH2 0x3402 JUMP JUMPDEST PUSH2 0x90 JUMP JUMPDEST PUSH1 0x40 MLOAD SWAP1 ISZERO ISZERO DUP2 MSTORE PUSH1 0x20 ADD JUMPDEST PUSH1 0x40 MLOAD DUP1 SWAP2 SUB SWAP1 RETURN JUMPDEST PUSH2 0x76 PUSH2 0x71 CALLDATASIZE PUSH1 0x4 PUSH2 0x3442 JUMP JUMPDEST PUSH2 0x9F JUMP JUMPDEST PUSH1 0x40 DUP1 MLOAD PUSH1 0xF SWAP4 DUP5 SIGNEXTEND DUP2 MSTORE SWAP2 SWAP1 SWAP3 SIGNEXTEND PUSH1 0x20 DUP3 ADD MSTORE ADD PUSH2 0x5A JUMP JUMPDEST PUSH2 0xFFFF DUP2 AND PUSH1 0x2 EQ JUMPDEST SWAP3 SWAP2 POP POP JUMP JUMPDEST PUSH1 0x0 DUP1 PUSH1 0x0 DUP1 PUSH1 0x0 DUP1 PUSH1 0x0 DUP1 PUSH1 0x0 DUP1 PUSH1 0x0 DUP1 PUSH1 0x0 DUP15 DUP15 DUP2 ADD SWAP1 PUSH2 0xC2 SWAP2 SWAP1 PUSH2 0x34ED JUMP JUMPDEST SWAP11 POP SWAP11 POP SWAP11 POP SWAP11 POP SWAP11 POP SWAP11 POP SWAP11 POP SWAP11 POP SWAP11 POP SWAP11 POP SWAP11 POP PUSH1 0x0 PUSH1 0x1 PUSH1 0x1 PUSH1 0xA0 SHL SUB AND DUP2 PUSH1 0x1 PUSH1 0x1 PUSH1 0xA0 SHL SUB AND SUB PUSH2 0x100 JUMPI POP PUSH1 0x0 SLOAD PUSH1 0x1 PUSH1 0x1 PUSH1 0xA0 SHL SUB AND JUMPDEST PUSH2 0x112 DUP12 DUP12 DUP12 DUP12 DUP12 DUP12 DUP12 DUP12 DUP12 DUP11 PUSH2 0x136 JUMP JUMPDEST SWAP1 SWAP14 POP SWAP12 POP PUSH2 0x124 DUP11 DUP11 DUP16 DUP16 DUP7 PUSH2 0x30C JUMP JUMPDEST POP POP POP POP POP POP POP POP POP POP POP SWAP3 POP SWAP3 SWAP1 POP JUMP JUMPDEST PUSH1 0x0 DUP1 PUSH1 0x0 NOT PUSH1 0xFF DUP14 AND ADD PUSH2 0x15F JUMPI PUSH2 0x156 DUP12 DUP12 DUP12 DUP12 DUP12 DUP12 DUP10 DUP13 DUP13 PUSH2 0x331 JUMP JUMPDEST SWAP2 POP SWAP2 POP PUSH2 0x2FD JUMP JUMPDEST PUSH1 0xA NOT PUSH1 0xFF DUP14 AND ADD PUSH2 0x17E JUMPI PUSH2 0x156 DUP12 DUP12 DUP12 DUP12 DUP12 PUSH1 0x1 DUP13 DUP11 DUP14 DUP14 PUSH2 0x373 JUMP JUMPDEST PUSH1 0xB NOT PUSH1 0xFF DUP14 AND ADD PUSH2 0x19D JUMPI PUSH2 0x156 DUP12 DUP12 DUP12 DUP12 DUP12 PUSH1 0x0 DUP13 DUP11 DUP14 DUP14 PUSH2 0x373 JUMP JUMPDEST PUSH1 0x1 NOT PUSH1 0xFF DUP14 AND ADD PUSH2 0x1BA JUMPI PUSH2 0x156 DUP12 DUP12 DUP12 DUP12 DUP12 DUP12 DUP10 DUP13 DUP13 PUSH2 0x3C3 JUMP JUMPDEST PUSH1 0x14 NOT PUSH1 0xFF DUP14 AND ADD PUSH2 0x1D9 JUMPI PUSH2 0x156 DUP12 DUP12 DUP12 DUP12 DUP12 PUSH1 0x1 DUP13 DUP11 DUP14 DUP14 PUSH2 0x3F2 JUMP JUMPDEST PUSH1 0x15 NOT PUSH1 0xFF DUP14 AND ADD PUSH2 0x1F8 JUMPI PUSH2 0x156 DUP12 DUP12 DUP12 DUP12 DUP12 PUSH1 0x0 DUP13 DUP11 DUP14 DUP14 PUSH2 0x3F2 JUMP JUMPDEST PUSH1 0x2 NOT PUSH1 0xFF DUP14 AND ADD PUSH2 0x213 JUMPI PUSH2 0x156 DUP12 DUP12 DUP12 DUP10 DUP8 DUP11 DUP11 PUSH2 0x439 JUMP JUMPDEST PUSH1 0x1E NOT PUSH1 0xFF DUP14 AND ADD PUSH2 0x230 JUMPI PUSH2 0x156 DUP12 DUP12 DUP12 PUSH1 0x1 DUP11 DUP9 DUP12 DUP12 PUSH2 0x478 JUMP JUMPDEST PUSH1 0x1F NOT PUSH1 0xFF DUP14 AND ADD PUSH2 0x24D JUMPI PUSH2 0x156 DUP12 DUP12 DUP12 PUSH1 0x0 DUP11 DUP9 DUP12 DUP12 PUSH2 0x478 JUMP JUMPDEST PUSH1 0x3 NOT PUSH1 0xFF DUP14 AND ADD PUSH2 0x268 JUMPI PUSH2 0x156 DUP12 DUP12 DUP12 DUP10 DUP8 DUP11 DUP11 PUSH2 0x4E4 JUMP JUMPDEST PUSH1 0x28 NOT PUSH1 0xFF DUP14 AND ADD PUSH2 0x285 JUMPI PUSH2 0x156 DUP12 DUP12 DUP12 PUSH1 0x1 DUP11 DUP9 DUP12 DUP12 PUSH2 0x512 JUMP JUMPDEST PUSH1 0x29 NOT PUSH1 0xFF DUP14 AND ADD PUSH2 0x2A2 JUMPI PUSH2 0x156 DUP12 DUP12 DUP12 PUSH1 0x0 DUP11 DUP9 DUP12 DUP12 PUSH2 0x512 JUMP JUMPDEST PUSH1 0x4 NOT PUSH1 0xFF DUP14 AND ADD PUSH2 0x2BE JUMPI PUSH2 0x156 DUP12 DUP12 DUP12 DUP12 DUP12 DUP9 DUP12 DUP12 PUSH2 0x569 JUMP JUMPDEST PUSH1 0x40 MLOAD PUSH3 0x461BCD PUSH1 0xE5 SHL DUP2 MSTORE PUSH1 0x20 PUSH1 0x4 DUP3 ADD MSTORE PUSH1 0xF PUSH1 0x24 DUP3 ADD MSTORE PUSH15 0x125B9D985B1A590818DBDB5B585B99 PUSH1 0x8A SHL PUSH1 0x44 DUP3 ADD MSTORE PUSH1 0x64 ADD JUMPDEST PUSH1 0x40 MLOAD DUP1 SWAP2 SUB SWAP1 REVERT JUMPDEST SWAP11 POP SWAP11 SWAP9 POP POP POP POP POP POP POP POP POP JUMP JUMPDEST PUSH1 0x0 SLOAD PUSH1 0x1 PUSH1 0x1 PUSH1 0xA0 SHL SUB AND DUP1 PUSH2 0x328 DUP2 DUP1 DUP10 DUP9 DUP11 DUP10 DUP10 PUSH2 0x5AA JUMP JUMPDEST POP POP POP POP POP POP POP JUMP JUMPDEST PUSH1 0x0 DUP1 PUSH1 0x0 PUSH2 0x341 DUP13 DUP13 DUP13 PUSH2 0x5F2 JUMP JUMPDEST SWAP1 POP PUSH2 0x351 DUP2 DUP14 DUP14 DUP13 DUP13 DUP13 PUSH2 0x64C JUMP JUMPDEST PUSH2 0x360 DUP10 DUP10 DUP10 DUP5 DUP10 DUP10 DUP13 PUSH2 0x723 JUMP JUMPDEST SWAP3 POP SWAP3 POP POP SWAP10 POP SWAP10 SWAP8 POP POP POP POP POP POP POP POP JUMP JUMPDEST PUSH1 0x0 DUP1 PUSH1 0x0 PUSH2 0x387 DUP14 DUP14 DUP14 DUP11 DUP15 DUP15 DUP15 PUSH2 0x794 JUMP JUMPDEST SWAP1 POP PUSH1 0x0 DUP1 PUSH2 0x39D DUP16 DUP16 DUP16 DUP16 DUP16 DUP9 DUP15 DUP15 DUP15 PUSH2 0x331 JUMP JUMPDEST SWAP2 POP SWAP2 POP PUSH2 0x3AD DUP3 DUP3 DUP12 DUP14 PUSH2 0x7D2 JUMP JUMPDEST SWAP5 POP SWAP5 POP POP POP POP SWAP11 POP SWAP11 SWAP9 POP POP POP POP POP POP POP POP POP JUMP JUMPDEST PUSH1 0x0 DUP1 PUSH1 0x0 PUSH2 0x3D3 DUP13 DUP13 DUP13 PUSH2 0x5F2 JUMP JUMPDEST SWAP1 POP PUSH2 0x3E3 DUP2 DUP14 DUP14 DUP13 DUP13 DUP13 PUSH2 0x837 JUMP JUMPDEST PUSH2 0x360 DUP10 DUP10 DUP10 DUP5 DUP10 DUP10 DUP13 PUSH2 0x890 JUMP JUMPDEST PUSH1 0x0 DUP1 PUSH1 0x0 PUSH2 0x402 DUP14 DUP14 DUP14 PUSH2 0x8E2 JUMP JUMPDEST SWAP1 POP PUSH1 0x0 PUSH2 0x40F DUP3 PUSH2 0x948 JUMP JUMPDEST SWAP1 POP PUSH1 0x0 PUSH2 0x426 DUP10 PUSH1 0x0 DUP5 PUSH1 0x0 ADD MLOAD DUP16 DUP16 DUP16 PUSH2 0x9F1 JUMP JUMPDEST SWAP1 POP PUSH2 0x3AD DUP16 DUP16 DUP16 DUP16 DUP16 DUP7 DUP15 DUP15 DUP15 PUSH2 0x3C3 JUMP JUMPDEST PUSH1 0x0 DUP1 PUSH1 0x0 PUSH2 0x449 DUP11 DUP11 DUP11 PUSH2 0x5F2 JUMP JUMPDEST SWAP1 POP PUSH2 0x45A DUP2 DUP12 DUP12 PUSH1 0x0 DUP1 DUP13 PUSH2 0x64C JUMP JUMPDEST PUSH2 0x467 DUP8 DUP3 DUP8 DUP8 DUP11 PUSH2 0xA5E JUMP JUMPDEST SWAP3 POP SWAP3 POP POP SWAP8 POP SWAP8 SWAP6 POP POP POP POP POP POP JUMP JUMPDEST PUSH1 0x0 DUP1 PUSH1 0x0 PUSH2 0x488 DUP12 DUP12 DUP12 PUSH2 0x8E2 JUMP JUMPDEST SWAP1 POP PUSH1 0x0 PUSH2 0x495 DUP3 PUSH2 0x948 JUMP JUMPDEST SWAP1 POP PUSH1 0x0 PUSH2 0x4AA DUP10 PUSH1 0x1 DUP5 PUSH1 0x0 ADD MLOAD DUP14 PUSH2 0xAA3 JUMP JUMPDEST SWAP1 POP PUSH1 0x0 DUP1 PUSH2 0x4BE DUP16 DUP16 DUP16 DUP7 DUP15 DUP15 DUP15 PUSH2 0x439 JUMP JUMPDEST SWAP2 POP SWAP2 POP PUSH2 0x4CE DUP3 DUP3 DUP14 DUP16 PUSH2 0x7D2 JUMP JUMPDEST SWAP7 POP SWAP7 POP POP POP POP POP POP SWAP9 POP SWAP9 SWAP7 POP POP POP POP POP POP POP JUMP JUMPDEST PUSH1 0x0 DUP1 PUSH1 0x0 PUSH2 0x4F4 DUP11 DUP11 DUP11 PUSH2 0x5F2 JUMP JUMPDEST SWAP1 POP PUSH2 0x505 DUP2 DUP12 DUP12 PUSH1 0x0 DUP1 DUP13 PUSH2 0x837 JUMP JUMPDEST PUSH2 0x467 DUP8 DUP3 DUP8 DUP8 DUP11 PUSH2 0xAEA JUMP JUMPDEST PUSH1 0x0 DUP1 PUSH1 0x0 PUSH2 0x522 DUP12 DUP12 DUP12 PUSH2 0x8E2 JUMP JUMPDEST SWAP1 POP PUSH1 0x0 PUSH2 0x52F DUP3 PUSH2 0x948 JUMP JUMPDEST SWAP1 POP PUSH1 0x0 PUSH2 0x544 DUP10 PUSH1 0x0 DUP5 PUSH1 0x0 ADD MLOAD DUP14 PUSH2 0xAA3 JUMP JUMPDEST SWAP1 POP PUSH2 0x555 DUP14 DUP14 DUP14 DUP5 DUP13 DUP13 DUP13 PUSH2 0x4E4 JUMP JUMPDEST SWAP5 POP SWAP5 POP POP POP POP SWAP9 POP SWAP9 SWAP7 POP POP POP POP POP POP POP JUMP JUMPDEST PUSH1 0x0 DUP1 PUSH1 0x0 PUSH2 0x579 DUP12 DUP12 DUP12 PUSH2 0x5F2 JUMP JUMPDEST SWAP1 POP PUSH2 0x58A DUP2 DUP13 DUP13 DUP12 DUP12 PUSH1 0x0 PUSH2 0x837 JUMP JUMPDEST PUSH2 0x598 DUP9 DUP9 DUP4 DUP9 DUP9 DUP12 PUSH2 0xB10 JUMP JUMPDEST SWAP3 POP SWAP3 POP POP SWAP9 POP SWAP9 SWAP7 POP POP POP POP POP POP POP JUMP JUMPDEST PUSH1 0x1 PUSH1 0x1 PUSH1 0xA0 SHL SUB DUP6 AND PUSH2 0x5CE JUMPI PUSH2 0x5C9 DUP8 DUP8 DUP7 PUSH1 0x1 DUP6 AND ISZERO ISZERO PUSH2 0xB6D JUMP JUMPDEST PUSH2 0x5E0 JUMP JUMPDEST PUSH2 0x5E0 DUP8 DUP8 DUP7 DUP9 PUSH1 0x1 DUP7 AND ISZERO ISZERO PUSH2 0xBA9 JUMP JUMPDEST PUSH2 0x328 DUP8 DUP8 DUP5 DUP7 PUSH1 0x2 DUP7 AND ISZERO ISZERO PUSH2 0xBA9 JUMP JUMPDEST PUSH2 0x5FA PUSH2 0x3397 JUMP JUMPDEST PUSH2 0x609 PUSH3 0x10009 DUP6 DUP6 DUP6 PUSH2 0xBCC JUMP JUMPDEST SWAP1 POP PUSH2 0x614 DUP2 PUSH2 0xC9C JUMP JUMPDEST PUSH2 0x645 JUMPI PUSH1 0x40 MLOAD PUSH3 0x461BCD PUSH1 0xE5 SHL DUP2 MSTORE PUSH1 0x20 PUSH1 0x4 DUP3 ADD MSTORE PUSH1 0x2 PUSH1 0x24 DUP3 ADD MSTORE PUSH2 0x5049 PUSH1 0xF0 SHL PUSH1 0x44 DUP3 ADD MSTORE PUSH1 0x64 ADD PUSH2 0x2F4 JUMP JUMPDEST SWAP4 SWAP3 POP POP POP JUMP JUMPDEST PUSH1 0x40 DUP7 ADD MLOAD PUSH1 0x1 PUSH1 0x1 PUSH1 0xA0 SHL SUB AND ISZERO PUSH2 0x71B JUMPI PUSH1 0x40 DUP1 DUP8 ADD MLOAD PUSH1 0x0 DUP1 SLOAD SWAP3 MLOAD PUSH4 0x1BA1B5D3 PUSH1 0xE0 SHL DUP2 MSTORE SWAP1 SWAP3 PUSH1 0x1 PUSH1 0x1 PUSH1 0xA0 SHL SUB SWAP3 DUP4 AND SWAP3 PUSH4 0x1BA1B5D3 SWAP3 PUSH2 0x6A5 SWAP3 SWAP1 SWAP2 AND SWAP1 CALLER SWAP1 DUP12 SWAP1 DUP12 SWAP1 DUP12 SWAP1 DUP12 SWAP1 DUP12 SWAP1 PUSH1 0x4 ADD PUSH2 0x35BA JUMP JUMPDEST PUSH1 0x20 PUSH1 0x40 MLOAD DUP1 DUP4 SUB DUP2 PUSH1 0x0 DUP8 GAS CALL ISZERO DUP1 ISZERO PUSH2 0x6C4 JUMPI RETURNDATASIZE PUSH1 0x0 DUP1 RETURNDATACOPY RETURNDATASIZE PUSH1 0x0 REVERT JUMPDEST POP POP POP POP PUSH1 0x40 MLOAD RETURNDATASIZE PUSH1 0x1F NOT PUSH1 0x1F DUP3 ADD AND DUP3 ADD DUP1 PUSH1 0x40 MSTORE POP DUP2 ADD SWAP1 PUSH2 0x6E8 SWAP2 SWAP1 PUSH2 0x3608 JUMP JUMPDEST SWAP1 POP DUP1 PUSH2 0x328 JUMPI PUSH1 0x40 MLOAD PUSH3 0x461BCD PUSH1 0xE5 SHL DUP2 MSTORE PUSH1 0x20 PUSH1 0x4 DUP3 ADD MSTORE PUSH1 0x1 PUSH1 0x24 DUP3 ADD MSTORE PUSH1 0x2D PUSH1 0xF9 SHL PUSH1 0x44 DUP3 ADD MSTORE PUSH1 0x64 ADD PUSH2 0x2F4 JUMP JUMPDEST POP POP POP POP POP POP JUMP JUMPDEST PUSH1 0x0 DUP1 PUSH1 0x0 PUSH2 0x737 DUP8 PUSH1 0x20 ADD MLOAD DUP8 DUP8 PUSH2 0xCE9 JUMP JUMPDEST SWAP1 POP PUSH2 0x761 DUP2 PUSH2 0x753 DUP4 PUSH1 0x0 ADD MLOAD PUSH1 0x1 PUSH1 0x1 PUSH1 0x80 SHL SUB AND PUSH2 0xD83 JUMP JUMPDEST DUP13 DUP13 DUP13 DUP13 PUSH1 0x20 ADD MLOAD DUP11 PUSH2 0x1069 JUMP JUMPDEST DUP9 MLOAD PUSH1 0x60 ADD MLOAD SWAP2 SWAP5 POP SWAP3 POP PUSH2 0x779 SWAP1 DUP12 SWAP1 DUP12 SWAP1 PUSH2 0x10DF JUMP JUMPDEST PUSH2 0x787 DUP8 PUSH1 0x20 ADD MLOAD DUP3 PUSH2 0x111F JUMP JUMPDEST POP SWAP8 POP SWAP8 SWAP6 POP POP POP POP POP POP JUMP JUMPDEST PUSH1 0x0 DUP1 PUSH2 0x7A2 DUP10 DUP10 DUP10 PUSH2 0x8E2 JUMP JUMPDEST SWAP1 POP PUSH1 0x0 PUSH2 0x7AF DUP3 PUSH2 0x948 JUMP JUMPDEST SWAP1 POP PUSH2 0x7C4 DUP8 PUSH1 0x1 DUP4 PUSH1 0x0 ADD MLOAD DUP10 DUP10 DUP10 PUSH2 0x9F1 JUMP JUMPDEST SWAP11 SWAP10 POP POP POP POP POP POP POP POP POP POP JUMP JUMPDEST PUSH1 0x0 DUP1 PUSH1 0x0 PUSH2 0x7E9 DUP6 PUSH1 0x1 PUSH1 0x1 PUSH1 0x80 SHL SUB AND PUSH2 0x11A9 JUMP JUMPDEST SWAP1 POP DUP4 DUP1 ISZERO PUSH2 0x7FD JUMPI POP DUP7 PUSH1 0xF SIGNEXTEND DUP2 PUSH1 0xF SIGNEXTEND SGT JUMPDEST ISZERO PUSH2 0x80A JUMPI DUP1 SWAP7 POP PUSH2 0x826 JUMP JUMPDEST DUP4 ISZERO DUP1 ISZERO PUSH2 0x81D JUMPI POP DUP6 PUSH1 0xF SIGNEXTEND DUP2 PUSH1 0xF SIGNEXTEND SGT JUMPDEST ISZERO PUSH2 0x826 JUMPI DUP1 SWAP6 POP JUMPDEST DUP7 DUP7 SWAP3 POP SWAP3 POP POP JUMPDEST SWAP5 POP SWAP5 SWAP3 POP POP POP JUMP JUMPDEST PUSH1 0x40 DUP7 ADD MLOAD PUSH1 0x1 PUSH1 0x1 PUSH1 0xA0 SHL SUB AND ISZERO PUSH2 0x71B JUMPI PUSH1 0x40 DUP1 DUP8 ADD MLOAD PUSH1 0x0 DUP1 SLOAD SWAP3 MLOAD PUSH4 0x753B7423 PUSH1 0xE0 SHL DUP2 MSTORE SWAP1 SWAP3 PUSH1 0x1 PUSH1 0x1 PUSH1 0xA0 SHL SUB SWAP3 DUP4 AND SWAP3 PUSH4 0x753B7423 SWAP3 PUSH2 0x6A5 SWAP3 SWAP1 SWAP2 AND SWAP1 CALLER SWAP1 DUP12 SWAP1 DUP12 SWAP1 DUP12 SWAP1 DUP12 SWAP1 DUP12 SWAP1 PUSH1 0x4 ADD PUSH2 0x35BA JUMP JUMPDEST PUSH1 0x0 DUP1 PUSH1 0x0 PUSH2 0x8A4 DUP8 PUSH1 0x20 ADD MLOAD DUP8 DUP8 PUSH2 0xCE9 JUMP JUMPDEST SWAP1 POP PUSH2 0x8CE DUP2 PUSH2 0x8C0 DUP4 PUSH1 0x0 ADD MLOAD PUSH1 0x1 PUSH1 0x1 PUSH1 0x80 SHL SUB AND PUSH2 0xD83 JUMP JUMPDEST DUP13 DUP13 DUP13 DUP13 PUSH1 0x20 ADD MLOAD DUP11 PUSH2 0x11C8 JUMP JUMPDEST PUSH1 0x20 DUP10 ADD MLOAD SWAP2 SWAP5 POP SWAP3 POP PUSH2 0x787 SWAP1 DUP3 PUSH2 0x111F JUMP JUMPDEST PUSH1 0x0 DUP3 PUSH1 0x1 PUSH1 0x1 PUSH1 0xA0 SHL SUB AND DUP5 PUSH1 0x1 PUSH1 0x1 PUSH1 0xA0 SHL SUB AND LT PUSH2 0x902 JUMPI PUSH1 0x0 DUP1 REVERT JUMPDEST PUSH1 0x40 DUP1 MLOAD PUSH1 0x1 PUSH1 0x1 PUSH1 0xA0 SHL SUB DUP1 DUP8 AND PUSH1 0x20 DUP4 ADD MSTORE DUP6 AND SWAP2 DUP2 ADD SWAP2 SWAP1 SWAP2 MSTORE PUSH1 0x60 DUP2 ADD DUP4 SWAP1 MSTORE PUSH1 0x80 ADD PUSH1 0x40 MLOAD PUSH1 0x20 DUP2 DUP4 SUB SUB DUP2 MSTORE SWAP1 PUSH1 0x40 MSTORE DUP1 MLOAD SWAP1 PUSH1 0x20 ADD KECCAK256 SWAP1 POP SWAP4 SWAP3 POP POP POP JUMP JUMPDEST PUSH1 0x40 DUP1 MLOAD PUSH1 0xA0 DUP2 ADD DUP3 MSTORE PUSH1 0x0 DUP1 DUP3 MSTORE PUSH1 0x20 DUP3 ADD DUP2 SWAP1 MSTORE SWAP2 DUP2 ADD DUP3 SWAP1 MSTORE PUSH1 0x60 DUP2 ADD DUP3 SWAP1 MSTORE PUSH1 0x80 DUP2 ADD SWAP2 SWAP1 SWAP2 MSTORE POP PUSH1 0x0 DUP2 DUP2 MSTORE PUSH3 0x1000F PUSH1 0x20 SWAP1 DUP2 MSTORE PUSH1 0x40 SWAP2 DUP3 SWAP1 KECCAK256 DUP3 MLOAD PUSH1 0xA0 DUP2 ADD DUP5 MSTORE DUP2 SLOAD PUSH1 0x1 PUSH1 0x1 PUSH1 0x80 SHL SUB DUP1 DUP3 AND DUP1 DUP5 MSTORE PUSH1 0x1 PUSH1 0x80 SHL SWAP3 DUP4 SWAP1 DIV DUP3 AND SWAP6 DUP5 ADD SWAP6 SWAP1 SWAP6 MSTORE PUSH1 0x1 SWAP1 SWAP4 ADD SLOAD SWAP3 DUP4 AND SWAP5 DUP3 ADD SWAP5 SWAP1 SWAP5 MSTORE SWAP3 DUP2 DIV PUSH1 0x1 PUSH1 0x1 PUSH1 0x40 SHL SUB SWAP1 DUP2 AND PUSH1 0x60 DUP6 ADD MSTORE PUSH1 0x1 PUSH1 0xC0 SHL SWAP1 SWAP2 DIV AND PUSH1 0x80 DUP4 ADD MSTORE PUSH2 0x9EC JUMPI PUSH1 0x0 DUP1 REVERT JUMPDEST SWAP2 SWAP1 POP JUMP JUMPDEST PUSH1 0x0 DUP1 PUSH1 0x0 PUSH2 0xA02 DUP8 DUP8 DUP8 DUP8 PUSH2 0x1244 JUMP JUMPDEST SWAP2 POP SWAP2 POP PUSH1 0x0 PUSH2 0xA29 DUP6 DUP5 DUP5 PUSH2 0xA18 DUP15 DUP15 PUSH2 0x12C5 JUMP JUMPDEST PUSH1 0x1 PUSH1 0x1 PUSH1 0x80 SHL SUB AND SWAP3 SWAP2 SWAP1 PUSH2 0x134D JUMP JUMPDEST SWAP1 POP DUP9 PUSH2 0xA47 JUMPI PUSH2 0xA42 DUP2 PUSH1 0x1 PUSH1 0x1 PUSH1 0x80 SHL SUB AND PUSH2 0x13B5 JUMP JUMPDEST PUSH2 0x7C4 JUMP JUMPDEST PUSH2 0x800 PUSH1 0x1 PUSH1 0x80 SHL SUB AND SWAP10 SWAP9 POP POP POP POP POP POP POP POP POP JUMP JUMPDEST PUSH1 0x0 DUP1 PUSH1 0x0 PUSH2 0xA72 DUP8 PUSH1 0x20 ADD MLOAD DUP8 DUP8 PUSH2 0xCE9 JUMP JUMPDEST SWAP1 POP PUSH2 0xA84 DUP2 DUP10 DUP10 PUSH1 0x20 ADD MLOAD DUP8 PUSH2 0x142F JUMP JUMPDEST PUSH1 0x20 DUP10 ADD MLOAD SWAP2 SWAP5 POP SWAP3 POP PUSH2 0xA98 SWAP1 DUP3 PUSH2 0x111F JUMP JUMPDEST POP SWAP6 POP SWAP6 SWAP4 POP POP POP POP JUMP JUMPDEST PUSH1 0x0 DUP1 PUSH2 0xAC5 DUP4 DUP6 PUSH2 0xAB5 DUP10 DUP10 PUSH2 0x12C5 JUMP JUMPDEST PUSH1 0x1 PUSH1 0x1 PUSH1 0x80 SHL SUB AND SWAP2 SWAP1 PUSH2 0x1481 JUMP JUMPDEST SWAP1 POP DUP5 PUSH2 0xADC JUMPI PUSH2 0xAD7 DUP2 PUSH1 0x1 PUSH2 0x3640 JUMP JUMPDEST PUSH2 0xADE JUMP JUMPDEST DUP1 JUMPDEST SWAP2 POP POP JUMPDEST SWAP5 SWAP4 POP POP POP POP JUMP JUMPDEST PUSH1 0x0 DUP1 PUSH1 0x0 PUSH2 0xAFE DUP8 PUSH1 0x20 ADD MLOAD DUP8 DUP8 PUSH2 0xCE9 JUMP JUMPDEST SWAP1 POP PUSH2 0xA84 DUP2 DUP10 DUP10 PUSH1 0x20 ADD MLOAD DUP8 PUSH2 0x14BE JUMP JUMPDEST PUSH1 0x0 DUP1 PUSH1 0x0 PUSH2 0xB24 DUP8 PUSH1 0x20 ADD MLOAD DUP8 DUP8 PUSH2 0xCE9 JUMP JUMPDEST SWAP1 POP PUSH2 0xB4D DUP2 PUSH2 0xB40 DUP4 PUSH1 0x0 ADD MLOAD PUSH1 0x1 PUSH1 0x1 PUSH1 0x80 SHL SUB AND PUSH2 0xD83 JUMP JUMPDEST DUP12 DUP12 DUP12 PUSH1 0x20 ADD MLOAD DUP10 PUSH2 0x1510 JUMP JUMPDEST PUSH1 0x20 DUP10 ADD MLOAD SWAP2 SWAP5 POP SWAP3 POP PUSH2 0xB61 SWAP1 DUP3 PUSH2 0x111F JUMP JUMPDEST POP SWAP7 POP SWAP7 SWAP5 POP POP POP POP POP JUMP JUMPDEST PUSH1 0x0 PUSH2 0xB77 PUSH2 0x1576 JUMP JUMPDEST SWAP1 POP DUP3 PUSH1 0xF SIGNEXTEND PUSH1 0x0 EQ PUSH2 0xB98 JUMPI PUSH2 0xB93 DUP6 DUP6 DUP6 PUSH1 0x0 DUP6 DUP8 PUSH2 0x15D7 JUMP JUMPDEST PUSH2 0xBA2 JUMP JUMPDEST PUSH2 0xBA2 DUP5 DUP3 PUSH2 0x1618 JUMP JUMPDEST POP POP POP POP POP JUMP JUMPDEST PUSH1 0x1 PUSH1 0x1 PUSH1 0xA0 SHL SUB DUP3 AND PUSH2 0xBBC JUMPI PUSH1 0x0 DUP1 REVERT JUMPDEST PUSH1 0x0 PUSH2 0x71B DUP7 DUP7 DUP7 DUP7 DUP6 DUP8 PUSH2 0x15D7 JUMP JUMPDEST PUSH2 0xBD4 PUSH2 0x3397 JUMP JUMPDEST PUSH1 0x0 PUSH2 0xBE1 DUP6 DUP6 DUP6 PUSH2 0x8E2 JUMP JUMPDEST PUSH1 0x0 DUP2 DUP2 MSTORE PUSH1 0x20 DUP9 DUP2 MSTORE PUSH1 0x40 DUP1 DUP4 KECCAK256 DUP2 MLOAD PUSH1 0xE0 DUP2 ADD DUP4 MSTORE SWAP1 SLOAD PUSH1 0xFF DUP1 DUP3 AND DUP4 MSTORE PUSH2 0xFFFF PUSH2 0x100 DUP4 DIV DUP2 AND SWAP6 DUP5 ADD SWAP6 SWAP1 SWAP6 MSTORE PUSH4 0x1000000 DUP3 DIV DUP2 AND SWAP4 DUP4 ADD SWAP4 SWAP1 SWAP4 MSTORE PUSH5 0x100000000 DUP2 DIV SWAP1 SWAP4 AND PUSH1 0x60 DUP3 ADD MSTORE PUSH1 0x1 PUSH1 0x30 SHL DUP4 DIV DUP3 AND PUSH1 0x80 DUP3 ADD MSTORE PUSH1 0x1 PUSH1 0x38 SHL DUP4 DIV DUP3 AND PUSH1 0xA0 DUP3 ADD MSTORE PUSH1 0x1 PUSH1 0x40 SHL SWAP1 SWAP3 DIV AND PUSH1 0xC0 DUP3 ADD DUP2 SWAP1 MSTORE SWAP3 SWAP4 POP SWAP2 PUSH2 0xC6D SWAP1 DUP7 SWAP1 PUSH2 0x163E JUMP JUMPDEST PUSH1 0x40 DUP1 MLOAD PUSH1 0x60 DUP2 ADD DUP3 MSTORE SWAP4 DUP5 MSTORE PUSH1 0x20 DUP5 ADD SWAP5 SWAP1 SWAP5 MSTORE PUSH1 0x1 PUSH1 0x1 PUSH1 0xA0 SHL SUB AND SWAP3 DUP3 ADD SWAP3 SWAP1 SWAP3 MSTORE SWAP7 SWAP6 POP POP POP POP POP POP JUMP JUMPDEST DUP1 MLOAD MLOAD PUSH1 0x0 SWAP1 PUSH1 0x1 PUSH1 0xFF SWAP1 SWAP2 AND GT ISZERO PUSH2 0xCDD JUMPI PUSH1 0x40 MLOAD PUSH3 0x461BCD PUSH1 0xE5 SHL DUP2 MSTORE PUSH1 0x20 PUSH1 0x4 DUP3 ADD MSTORE PUSH1 0x3 PUSH1 0x24 DUP3 ADD MSTORE PUSH3 0x495053 PUSH1 0xE8 SHL PUSH1 0x44 DUP3 ADD MSTORE PUSH1 0x64 ADD PUSH2 0x2F4 JUMP JUMPDEST POP MLOAD MLOAD PUSH1 0xFF AND PUSH1 0x1 EQ SWAP1 JUMP JUMPDEST PUSH1 0x40 DUP1 MLOAD PUSH1 0xA0 DUP2 ADD DUP3 MSTORE PUSH1 0x0 DUP1 DUP3 MSTORE PUSH1 0x20 DUP3 ADD DUP2 SWAP1 MSTORE SWAP2 DUP2 ADD DUP3 SWAP1 MSTORE PUSH1 0x60 DUP2 ADD DUP3 SWAP1 MSTORE PUSH1 0x80 DUP2 ADD SWAP2 SWAP1 SWAP2 MSTORE PUSH2 0xD1D DUP5 PUSH2 0x948 JUMP JUMPDEST SWAP1 POP DUP3 PUSH1 0x1 PUSH1 0x1 PUSH1 0x80 SHL SUB AND DUP2 PUSH1 0x0 ADD MLOAD PUSH1 0x1 PUSH1 0x1 PUSH1 0x80 SHL SUB AND LT ISZERO DUP1 ISZERO PUSH2 0xD52 JUMPI POP DUP1 MLOAD PUSH1 0x1 PUSH1 0x1 PUSH1 0x80 SHL SUB DUP1 DUP5 AND SWAP2 AND GT ISZERO JUMPDEST PUSH2 0x645 JUMPI PUSH1 0x40 MLOAD PUSH3 0x461BCD PUSH1 0xE5 SHL DUP2 MSTORE PUSH1 0x20 PUSH1 0x4 DUP3 ADD MSTORE PUSH1 0x2 PUSH1 0x24 DUP3 ADD MSTORE PUSH2 0x5243 PUSH1 0xF0 SHL PUSH1 0x44 DUP3 ADD MSTORE PUSH1 0x64 ADD PUSH2 0x2F4 JUMP JUMPDEST PUSH1 0x0 PUSH3 0x10002 PUSH1 0x1 PUSH1 0x1 PUSH1 0x80 SHL SUB DUP4 AND LT DUP1 ISZERO SWAP1 PUSH2 0xDB9 JUMPI POP PUSH16 0xFFFF5433E2B3D8211706E6102AA9472 PUSH1 0x1 PUSH1 0x1 PUSH1 0x80 SHL SUB DUP4 AND LT JUMPDEST PUSH2 0xDC2 JUMPI PUSH1 0x0 DUP1 REVERT JUMPDEST PUSH1 0x1 PUSH1 0x40 SHL PUSH1 0x1 PUSH1 0xC0 SHL SUB PUSH1 0x40 DUP4 SWAP1 SHL AND PUSH1 0x1 PUSH1 0x1 PUSH1 0x80 SHL SUB DUP2 GT PUSH1 0x7 SHL DUP2 DUP2 SHR PUSH1 0x1 PUSH1 0x1 PUSH1 0x40 SHL SUB DUP2 GT PUSH1 0x6 SHL SWAP1 DUP2 SHR PUSH4 0xFFFFFFFF DUP2 GT PUSH1 0x5 SHL SWAP1 DUP2 SHR PUSH2 0xFFFF DUP2 GT PUSH1 0x4 SHL SWAP1 DUP2 SHR PUSH1 0xFF DUP2 GT PUSH1 0x3 SWAP1 DUP2 SHL SWAP2 DUP3 SHR PUSH1 0xF DUP2 GT PUSH1 0x2 SHL SWAP1 DUP2 SHR SWAP2 DUP3 GT PUSH1 0x1 SWAP1 DUP2 SHL SWAP3 DUP4 SHR SWAP8 SWAP1 DUP9 GT SWAP7 OR SWAP1 SWAP5 OR SWAP1 SWAP3 OR OR SWAP1 SWAP2 OR OR OR PUSH1 0x80 DUP2 LT PUSH2 0xE54 JUMPI PUSH1 0x7F DUP2 SUB DUP4 SWAP1 SHR SWAP2 POP PUSH2 0xE5E JUMP JUMPDEST DUP1 PUSH1 0x7F SUB DUP4 SWAP1 SHL SWAP2 POP JUMPDEST SWAP1 DUP1 MUL PUSH1 0x7F DUP2 DUP2 SHR PUSH1 0xFF DUP4 DUP2 SHR SWAP2 SWAP1 SWAP2 SHR DUP1 MUL DUP1 DUP4 SHR DUP2 DUP4 SHR SHR DUP1 MUL DUP1 DUP5 SHR DUP2 DUP5 SHR SHR DUP1 MUL DUP1 DUP6 SHR DUP2 DUP6 SHR SHR DUP1 MUL DUP1 DUP7 SHR DUP2 DUP7 SHR SHR DUP1 MUL DUP1 DUP8 SHR DUP2 DUP8 SHR SHR DUP1 MUL DUP1 DUP9 SHR DUP2 DUP9 SHR SHR DUP1 MUL DUP1 DUP10 SHR DUP2 DUP10 SHR SHR DUP1 MUL DUP1 DUP11 SHR DUP2 DUP11 SHR SHR DUP1 MUL DUP1 DUP12 SHR DUP2 DUP12 SHR SHR DUP1 MUL DUP1 DUP13 SHR DUP2 DUP13 SHR SHR DUP1 MUL DUP1 DUP14 SHR DUP2 DUP14 SHR SHR DUP1 MUL DUP1 DUP15 SHR SWAP13 DUP2 SWAP1 SHR SWAP13 SWAP1 SWAP13 SHR DUP1 MUL SWAP13 DUP14 SWAP1 SHR SWAP15 SWAP14 PUSH1 0x7F NOT DUP16 ADD PUSH1 0x40 SHL PUSH1 0xC0 SWAP2 SWAP1 SWAP2 SHR PUSH8 0x8000000000000000 AND OR PUSH1 0xC1 SWAP12 SWAP1 SWAP12 SHR PUSH8 0x4000000000000000 AND SWAP11 SWAP1 SWAP11 OR PUSH1 0xC2 SWAP10 SWAP1 SWAP10 SHR PUSH8 0x2000000000000000 AND SWAP9 SWAP1 SWAP9 OR PUSH1 0xC3 SWAP8 SWAP1 SWAP8 SHR PUSH8 0x1000000000000000 AND SWAP7 SWAP1 SWAP7 OR PUSH1 0xC4 SWAP6 SWAP1 SWAP6 SHR PUSH8 0x800000000000000 AND SWAP5 SWAP1 SWAP5 OR PUSH1 0xC5 SWAP4 SWAP1 SWAP4 SHR PUSH8 0x400000000000000 AND SWAP3 SWAP1 SWAP3 OR PUSH1 0xC6 SWAP2 SWAP1 SWAP2 SHR PUSH8 0x200000000000000 AND OR PUSH1 0xC7 SWAP2 SWAP1 SWAP2 SHR PUSH1 0x1 PUSH1 0x38 SHL AND OR PUSH1 0xC8 SWAP2 SWAP1 SWAP2 SHR PUSH7 0x80000000000000 AND OR PUSH1 0xC9 SWAP2 SWAP1 SWAP2 SHR PUSH7 0x40000000000000 AND OR PUSH1 0xCA SWAP2 SWAP1 SWAP2 SHR PUSH7 0x20000000000000 AND OR PUSH1 0xCB SWAP2 SWAP1 SWAP2 SHR PUSH7 0x10000000000000 AND OR PUSH1 0xCC SWAP2 SWAP1 SWAP2 SHR PUSH7 0x8000000000000 AND OR PUSH1 0xCD SWAP2 SWAP1 SWAP2 SHR PUSH7 0x4000000000000 AND OR PUSH10 0x3627A301D71055774C85 DUP2 MUL PUSH16 0x28F6481AB7F045A5AF012A19D003AA9 NOT DUP2 ADD PUSH1 0x80 SWAP1 DUP2 SAR SWAP1 PUSH16 0xDB2DF09E81959A81455E260799A0632F DUP4 ADD SWAP1 SAR PUSH1 0x2 DUP2 DUP2 SIGNEXTEND SWAP1 DUP4 SWAP1 SIGNEXTEND EQ PUSH2 0x105A JUMPI DUP9 PUSH1 0x1 PUSH1 0x1 PUSH1 0x80 SHL SUB AND PUSH2 0x103F DUP3 PUSH2 0x1662 JUMP JUMPDEST PUSH1 0x1 PUSH1 0x1 PUSH1 0x80 SHL SUB AND GT ISZERO PUSH2 0x1054 JUMPI DUP2 PUSH2 0x105C JUMP JUMPDEST DUP1 PUSH2 0x105C JUMP JUMPDEST DUP2 JUMPDEST SWAP10 SWAP9 POP POP POP POP POP POP POP POP POP JUMP JUMPDEST PUSH1 0x0 DUP1 PUSH1 0x0 PUSH2 0x1091 DUP6 DUP11 DUP11 DUP11 PUSH2 0x1087 DUP12 PUSH1 0x1 PUSH1 0x1 PUSH1 0x80 SHL SUB AND PUSH2 0x1988 JUMP JUMPDEST DUP16 PUSH1 0x80 ADD MLOAD PUSH2 0x1A1B JUMP JUMPDEST SWAP1 POP PUSH2 0x10A1 DUP5 DUP7 DUP11 DUP11 DUP11 DUP7 PUSH2 0x1A63 JUMP JUMPDEST PUSH2 0x10AF DUP6 DUP10 DUP10 DUP10 DUP6 DUP10 PUSH2 0x1A7E JUMP JUMPDEST PUSH1 0x0 DUP1 PUSH2 0x10BE DUP13 DUP10 DUP13 DUP13 PUSH2 0x1B47 JUMP JUMPDEST SWAP2 POP SWAP2 POP PUSH2 0x10CC DUP3 DUP3 PUSH2 0x1B7B JUMP JUMPDEST SWAP1 SWAP14 SWAP1 SWAP13 POP SWAP11 POP POP POP POP POP POP POP POP POP POP POP JUMP JUMPDEST PUSH2 0x10EA DUP4 DUP4 DUP4 PUSH2 0x1BAE JUMP JUMPDEST PUSH2 0x111A JUMPI PUSH1 0x40 MLOAD PUSH3 0x461BCD PUSH1 0xE5 SHL DUP2 MSTORE PUSH1 0x20 PUSH1 0x4 DUP3 ADD MSTORE PUSH1 0x1 PUSH1 0x24 DUP3 ADD MSTORE PUSH1 0x11 PUSH1 0xFA SHL PUSH1 0x44 DUP3 ADD MSTORE PUSH1 0x64 ADD PUSH2 0x2F4 JUMP JUMPDEST POP POP POP JUMP JUMPDEST PUSH1 0x0 SWAP2 DUP3 MSTORE PUSH3 0x1000F PUSH1 0x20 SWAP1 DUP2 MSTORE PUSH1 0x40 SWAP3 DUP4 SWAP1 KECCAK256 DUP3 MLOAD SWAP2 DUP4 ADD MLOAD PUSH1 0x1 PUSH1 0x1 PUSH1 0x80 SHL SUB SWAP1 DUP2 AND PUSH1 0x1 PUSH1 0x80 SHL SWAP1 DUP2 MUL SWAP4 DUP3 AND SWAP4 SWAP1 SWAP4 OR DUP3 SSTORE SWAP4 DUP4 ADD MLOAD PUSH1 0x1 SWAP1 SWAP2 ADD DUP1 SLOAD PUSH1 0x60 DUP6 ADD MLOAD PUSH1 0x80 SWAP1 SWAP6 ADD MLOAD PUSH1 0x1 PUSH1 0x1 PUSH1 0x40 SHL SUB SWAP1 DUP2 AND PUSH1 0x1 PUSH1 0xC0 SHL MUL PUSH1 0x1 PUSH1 0x1 PUSH1 0xC0 SHL SUB SWAP2 SWAP1 SWAP7 AND SWAP1 SWAP5 MUL PUSH1 0x1 PUSH1 0x1 PUSH1 0xC0 SHL SUB NOT SWAP1 SWAP2 AND SWAP3 SWAP1 SWAP6 AND SWAP2 SWAP1 SWAP2 OR SWAP4 SWAP1 SWAP4 OR AND OR SWAP1 SSTORE JUMP JUMPDEST PUSH1 0x0 PUSH1 0x1 PUSH1 0x7F SHL DUP3 PUSH1 0x1 PUSH1 0x1 PUSH1 0x80 SHL SUB AND LT PUSH2 0x11C4 JUMPI PUSH1 0x0 DUP1 REVERT JUMPDEST POP SWAP1 JUMP JUMPDEST PUSH1 0x0 DUP1 PUSH1 0x0 PUSH2 0x11F0 DUP6 DUP11 DUP11 DUP11 PUSH2 0x11E6 DUP12 PUSH1 0x1 PUSH1 0x1 PUSH1 0x80 SHL SUB AND PUSH2 0x1988 JUMP JUMPDEST DUP16 PUSH1 0x80 ADD MLOAD PUSH2 0x1BE1 JUMP JUMPDEST SWAP1 POP PUSH1 0x0 PUSH2 0x1202 DUP6 DUP8 DUP12 DUP12 DUP12 DUP8 PUSH2 0x1C3B JUMP JUMPDEST SWAP1 POP PUSH2 0x1212 DUP7 DUP11 DUP11 DUP11 DUP7 DUP11 PUSH2 0x1C7D JUMP JUMPDEST PUSH1 0x0 DUP1 PUSH2 0x1222 DUP14 DUP11 DUP6 DUP15 DUP15 PUSH2 0x1CCF JUMP JUMPDEST SWAP2 POP SWAP2 POP PUSH2 0x1230 DUP3 DUP3 PUSH2 0x1CFE JUMP JUMPDEST SWAP6 POP SWAP6 POP POP POP POP POP SWAP8 POP SWAP8 SWAP6 POP POP POP POP POP POP JUMP JUMPDEST PUSH1 0x0 DUP1 PUSH2 0x1253 DUP6 PUSH1 0x2 SIGNEXTEND PUSH2 0x1662 JUMP JUMPDEST SWAP2 POP PUSH2 0x1261 DUP5 PUSH1 0x2 SIGNEXTEND PUSH2 0x1662 JUMP JUMPDEST SWAP1 POP DUP2 PUSH1 0x1 PUSH1 0x1 PUSH1 0x80 SHL SUB AND DUP7 PUSH1 0x1 PUSH1 0x1 PUSH1 0x80 SHL SUB AND GT PUSH2 0x128C JUMPI DUP3 ISZERO PUSH2 0x1287 JUMPI PUSH1 0x0 DUP1 REVERT JUMPDEST PUSH2 0x82E JUMP JUMPDEST DUP1 PUSH1 0x1 PUSH1 0x1 PUSH1 0x80 SHL SUB AND DUP7 PUSH1 0x1 PUSH1 0x1 PUSH1 0x80 SHL SUB AND LT PUSH2 0x12AF JUMPI DUP3 PUSH2 0x1287 JUMPI PUSH1 0x0 DUP1 REVERT JUMPDEST DUP3 ISZERO PUSH2 0x12BC JUMPI POP DUP5 PUSH2 0x82E JUMP JUMPDEST SWAP5 SWAP6 SWAP4 POP POP POP POP JUMP JUMPDEST PUSH1 0x0 PUSH1 0x4 DUP3 ISZERO PUSH2 0x1302 JUMPI DUP1 PUSH1 0x1 PUSH1 0x1 PUSH1 0x80 SHL SUB AND DUP5 PUSH1 0x1 PUSH1 0x1 PUSH1 0x80 SHL SUB AND LT PUSH2 0x12F7 JUMPI PUSH2 0x12F2 DUP2 DUP6 PUSH2 0x3660 JUMP JUMPDEST PUSH2 0x12FA JUMP JUMPDEST PUSH1 0x0 JUMPDEST SWAP2 POP POP PUSH2 0x99 JUMP JUMPDEST PUSH2 0x1314 PUSH1 0x4 PUSH1 0x1 PUSH1 0x1 PUSH1 0x80 SHL SUB PUSH2 0x3660 JUMP JUMPDEST PUSH1 0x1 PUSH1 0x1 PUSH1 0x80 SHL SUB AND DUP5 PUSH1 0x1 PUSH1 0x1 PUSH1 0x80 SHL SUB AND GT PUSH2 0x1336 JUMPI PUSH2 0x12F2 DUP2 DUP6 PUSH2 0x3640 JUMP JUMPDEST PUSH1 0x1 PUSH1 0x1 PUSH1 0x80 SHL SUB SWAP2 POP POP PUSH2 0x99 JUMP JUMPDEST POP SWAP3 SWAP2 POP POP JUMP JUMPDEST PUSH1 0x0 DUP4 PUSH2 0x1378 JUMPI PUSH2 0x1371 DUP6 PUSH1 0x1 PUSH2 0x1363 DUP7 PUSH2 0x1D37 JUMP JUMPDEST PUSH2 0x136C DUP7 PUSH2 0x1D37 JUMP JUMPDEST PUSH2 0x134D JUMP JUMPDEST SWAP1 POP PUSH2 0xAE2 JUMP JUMPDEST PUSH1 0x0 DUP3 PUSH1 0x1 PUSH1 0x1 PUSH1 0x80 SHL SUB AND DUP5 PUSH1 0x1 PUSH1 0x1 PUSH1 0x80 SHL SUB AND GT PUSH2 0x139B JUMPI DUP4 DUP4 SUB PUSH2 0x139F JUMP JUMPDEST DUP3 DUP5 SUB JUMPDEST SWAP1 POP PUSH2 0x13AD DUP7 PUSH1 0x1 DUP4 PUSH2 0x1481 JUMP JUMPDEST SWAP2 POP POP PUSH2 0xAE2 JUMP JUMPDEST PUSH1 0x0 PUSH2 0x800 PUSH1 0x1 PUSH1 0x80 SHL SUB DUP1 DUP4 AND SWAP1 SUB PUSH2 0x13FC JUMPI PUSH1 0x40 MLOAD PUSH3 0x461BCD PUSH1 0xE5 SHL DUP2 MSTORE PUSH1 0x20 PUSH1 0x4 DUP3 ADD MSTORE PUSH1 0x8 PUSH1 0x24 DUP3 ADD MSTORE PUSH8 0x6F766572666C6F77 PUSH1 0xC0 SHL PUSH1 0x44 DUP3 ADD MSTORE PUSH1 0x64 ADD PUSH2 0x2F4 JUMP JUMPDEST POP PUSH1 0xB SWAP1 DUP2 SHR PUSH15 0x1FFFFFFFFFFFFFFFFFFFFFFFFFFFFF AND PUSH1 0x1 ADD SWAP1 SHL PUSH18 0x7FFFFFFFFFFFFFFFFFFFFFFFFFFFFFFF800 AND SWAP1 JUMP JUMPDEST PUSH1 0x0 DUP1 PUSH1 0x0 PUSH2 0x1444 DUP5 DUP7 DUP9 DUP11 PUSH1 0x60 ADD MLOAD PUSH2 0x1D6D JUMP JUMPDEST SWAP1 POP PUSH2 0x1456 DUP6 DUP3 DUP10 PUSH1 0x60 ADD MLOAD DUP8 PUSH2 0x1DF2 JUMP JUMPDEST PUSH1 0x0 DUP1 PUSH2 0x1463 DUP10 DUP5 PUSH2 0x1E03 JUMP JUMPDEST SWAP2 POP SWAP2 POP PUSH2 0x1471 DUP3 DUP3 PUSH2 0x1B7B JUMP JUMPDEST SWAP1 SWAP11 SWAP1 SWAP10 POP SWAP8 POP POP POP POP POP POP POP POP JUMP JUMPDEST PUSH1 0x0 DUP3 PUSH2 0x14B1 JUMPI PUSH2 0x14AC PUSH1 0x1 PUSH1 0x1 PUSH1 0x80 SHL SUB DUP1 DUP7 AND SWAP1 DUP5 AND MUL PUSH1 0x40 SHR JUMPDEST PUSH1 0x1 PUSH1 0x1 PUSH1 0xC0 SHL SUB AND PUSH2 0x1E3A JUMP JUMPDEST PUSH2 0xAE2 JUMP JUMPDEST PUSH2 0xAE2 PUSH2 0x149E DUP6 DUP5 PUSH2 0x1E59 JUMP JUMPDEST PUSH1 0x0 DUP1 PUSH1 0x0 PUSH2 0x14D3 DUP5 DUP7 DUP9 DUP11 PUSH1 0x60 ADD MLOAD PUSH2 0x1E8B JUMP JUMPDEST SWAP1 POP PUSH2 0x14E5 DUP6 DUP3 DUP10 PUSH1 0x60 ADD MLOAD DUP8 PUSH2 0x1F2F JUMP JUMPDEST PUSH1 0x0 DUP1 PUSH2 0x14F2 DUP10 DUP5 PUSH2 0x1F44 JUMP JUMPDEST SWAP2 POP SWAP2 POP PUSH2 0x1500 DUP3 DUP3 PUSH2 0x1CFE JUMP JUMPDEST SWAP5 POP SWAP5 POP POP POP POP SWAP5 POP SWAP5 SWAP3 POP POP POP JUMP JUMPDEST PUSH1 0x0 DUP1 PUSH1 0x0 PUSH2 0x1526 DUP6 DUP10 DUP10 DUP10 DUP14 PUSH1 0x80 ADD MLOAD PUSH2 0x1F7A JUMP JUMPDEST SWAP1 POP PUSH1 0x0 PUSH2 0x1537 DUP6 DUP8 DUP11 DUP11 DUP7 PUSH2 0x1FA8 JUMP JUMPDEST SWAP1 POP PUSH2 0x1548 DUP7 DUP10 DUP10 PUSH1 0x0 DUP7 DUP11 PUSH2 0x1C7D JUMP JUMPDEST PUSH1 0x0 DUP1 PUSH2 0x1555 DUP13 DUP5 PUSH2 0x1F44 JUMP JUMPDEST SWAP2 POP SWAP2 POP PUSH2 0x1563 DUP3 DUP3 PUSH2 0x1CFE JUMP JUMPDEST SWAP6 POP SWAP6 POP POP POP POP POP SWAP7 POP SWAP7 SWAP5 POP POP POP POP POP JUMP JUMPDEST PUSH1 0x0 DUP1 SLOAD PUSH1 0x1 PUSH1 0xA8 SHL SWAP1 DIV PUSH1 0xFF AND ISZERO PUSH2 0x15B6 JUMPI PUSH1 0x40 MLOAD PUSH3 0x461BCD PUSH1 0xE5 SHL DUP2 MSTORE PUSH1 0x20 PUSH1 0x4 DUP3 ADD MSTORE PUSH1 0x2 PUSH1 0x24 DUP3 ADD MSTORE PUSH2 0x4453 PUSH1 0xF0 SHL PUSH1 0x44 DUP3 ADD MSTORE PUSH1 0x64 ADD PUSH2 0x2F4 JUMP JUMPDEST PUSH2 0x15BF CALLVALUE PUSH2 0x204E JUMP JUMPDEST PUSH1 0x0 DUP1 SLOAD PUSH1 0xFF PUSH1 0xA8 SHL NOT AND PUSH1 0x1 PUSH1 0xA8 SHL OR SWAP1 SSTORE SWAP2 SWAP1 POP JUMP JUMPDEST PUSH1 0x0 PUSH1 0xF DUP6 SWAP1 SIGNEXTEND SGT ISZERO PUSH2 0x15F6 JUMPI PUSH2 0x15F1 DUP7 DUP6 DUP6 DUP6 DUP6 PUSH2 0x2064 JUMP JUMPDEST PUSH2 0x71B JUMP JUMPDEST PUSH1 0x0 PUSH1 0xF DUP6 SWAP1 SIGNEXTEND SLT ISZERO PUSH2 0x71B JUMPI PUSH2 0x71B DUP6 PUSH2 0x1610 DUP7 PUSH2 0x3680 JUMP JUMPDEST DUP6 DUP6 DUP6 PUSH2 0x2097 JUMP JUMPDEST PUSH1 0x1 PUSH1 0x1 PUSH1 0x80 SHL SUB DUP2 AND ISZERO PUSH2 0x163A JUMPI PUSH2 0x163A DUP3 DUP3 PUSH1 0x1 PUSH1 0x1 PUSH1 0x80 SHL SUB AND PUSH2 0x20BF JUMP JUMPDEST POP POP JUMP JUMPDEST PUSH1 0x0 PUSH1 0x1 DUP3 DUP2 AND DUP2 EQ DUP1 PUSH2 0x1653 JUMPI PUSH1 0x0 PUSH2 0x1659 JUMP JUMPDEST PUSH1 0x60 DUP6 SWAP1 SHR JUMPDEST SWAP6 SWAP5 POP POP POP POP POP JUMP JUMPDEST PUSH1 0x0 PUSH3 0xA276D NOT PUSH1 0x2 DUP4 SWAP1 SIGNEXTEND SLT DUP1 ISZERO SWAP1 PUSH2 0x1683 JUMPI POP PUSH3 0xCB14A PUSH1 0x2 DUP4 SWAP1 SIGNEXTEND SGT ISZERO JUMPDEST PUSH2 0x168C JUMPI PUSH1 0x0 DUP1 REVERT JUMPDEST PUSH1 0x0 DUP1 DUP4 PUSH1 0x2 SIGNEXTEND SLT PUSH2 0x16A1 JUMPI DUP3 PUSH1 0x2 SIGNEXTEND PUSH2 0x16A9 JUMP JUMPDEST DUP3 PUSH1 0x2 SIGNEXTEND PUSH1 0x0 SUB JUMPDEST SWAP1 POP PUSH1 0x0 DUP2 PUSH1 0x1 AND PUSH1 0x0 SUB PUSH2 0x16C2 JUMPI PUSH1 0x1 PUSH1 0x80 SHL PUSH2 0x16D4 JUMP JUMPDEST PUSH16 0xFFFCB933BD6FAD37AA2D162D1A594001 JUMPDEST PUSH17 0xFFFFFFFFFFFFFFFFFFFFFFFFFFFFFFFFFF AND SWAP1 POP PUSH1 0x2 DUP3 AND ISZERO PUSH2 0x1708 JUMPI PUSH16 0xFFF97272373D413259A46990580E213A MUL PUSH1 0x80 SHR JUMPDEST PUSH1 0x4 DUP3 AND ISZERO PUSH2 0x1727 JUMPI PUSH16 0xFFF2E50F5F656932EF12357CF3C7FDCC MUL PUSH1 0x80 SHR JUMPDEST PUSH1 0x8 DUP3 AND ISZERO PUSH2 0x1746 JUMPI PUSH16 0xFFE5CACA7E10E4E61C3624EAA0941CD0 MUL PUSH1 0x80 SHR JUMPDEST PUSH1 0x10 DUP3 AND ISZERO PUSH2 0x1765 JUMPI PUSH16 0xFFCB9843D60F6159C9DB58835C926644 MUL PUSH1 0x80 SHR JUMPDEST PUSH1 0x20 DUP3 AND ISZERO PUSH2 0x1784 JUMPI PUSH16 0xFF973B41FA98C081472E6896DFB254C0 MUL PUSH1 0x80 SHR JUMPDEST PUSH1 0x40 DUP3 AND ISZERO PUSH2 0x17A3 JUMPI PUSH16 0xFF2EA16466C96A3843EC78B326B52861 MUL PUSH1 0x80 SHR JUMPDEST PUSH1 0x80 DUP3 AND ISZERO PUSH2 0x17C2 JUMPI PUSH16 0xFE5DEE046A99A2A811C461F1969C3053 MUL PUSH1 0x80 SHR JUMPDEST PUSH2 0x100 DUP3 AND ISZERO PUSH2 0x17E2 JUMPI PUSH16 0xFCBE86C7900A88AEDCFFC83B479AA3A4 MUL PUSH1 0x80 SHR JUMPDEST PUSH2 0x200 DUP3 AND ISZERO PUSH2 0x1802 JUMPI PUSH16 0xF987A7253AC413176F2B074CF7815E54 MUL PUSH1 0x80 SHR JUMPDEST PUSH2 0x400 DUP3 AND ISZERO PUSH2 0x1822 JUMPI PUSH16 0xF3392B0822B70005940C7A398E4B70F3 MUL PUSH1 0x80 SHR JUMPDEST PUSH2 0x800 DUP3 AND ISZERO PUSH2 0x1842 JUMPI PUSH16 0xE7159475A2C29B7443B29C7FA6E889D9 MUL PUSH1 0x80 SHR JUMPDEST PUSH2 0x1000 DUP3 AND ISZERO PUSH2 0x1862 JUMPI PUSH16 0xD097F3BDFD2022B8845AD8F792AA5825 MUL PUSH1 0x80 SHR JUMPDEST PUSH2 0x2000 DUP3 AND ISZERO PUSH2 0x1882 JUMPI PUSH16 0xA9F746462D870FDF8A65DC1F90E061E5 MUL PUSH1 0x80 SHR JUMPDEST PUSH2 0x4000 DUP3 AND ISZERO PUSH2 0x18A2 JUMPI PUSH16 0x70D869A156D2A1B890BB3DF62BAF32F7 MUL PUSH1 0x80 SHR JUMPDEST PUSH2 0x8000 DUP3 AND ISZERO PUSH2 0x18C2 JUMPI PUSH16 0x31BE135F97D08FD981231505542FCFA6 MUL PUSH1 0x80 SHR JUMPDEST PUSH3 0x10000 DUP3 AND ISZERO PUSH2 0x18E3 JUMPI PUSH16 0x9AA508B5B7A84E1C677DE54F3E99BC9 MUL PUSH1 0x80 SHR JUMPDEST PUSH3 0x20000 DUP3 AND ISZERO PUSH2 0x1903 JUMPI PUSH15 0x5D6AF8DEDB81196699C329225EE604 MUL PUSH1 0x80 SHR JUMPDEST PUSH3 0x40000 DUP3 AND ISZERO PUSH2 0x1922 JUMPI PUSH14 0x2216E584F5FA1EA926041BEDFE98 MUL PUSH1 0x80 SHR JUMPDEST PUSH3 0x80000 DUP3 AND ISZERO PUSH2 0x193F JUMPI PUSH12 0x48A170391F7DC42444E8FA2 MUL PUSH1 0x80 SHR JUMPDEST PUSH1 0x0 DUP5 PUSH1 0x2 SIGNEXTEND SGT ISZERO PUSH2 0x1960 JUMPI DUP1 PUSH1 0x0 NOT DUP2 PUSH2 0x195C JUMPI PUSH2 0x195C PUSH2 0x36AF JUMP JUMPDEST DIV SWAP1 POP JUMPDEST PUSH1 0x1 PUSH1 0x40 SHL DUP2 MOD ISZERO PUSH2 0x1973 JUMPI PUSH1 0x1 PUSH2 0x1976 JUMP JUMPDEST PUSH1 0x0 JUMPDEST PUSH1 0xFF AND PUSH1 0x40 DUP3 SWAP1 SHR ADD SWAP3 POP POP POP SWAP2 SWAP1 POP JUMP JUMPDEST PUSH1 0x0 PUSH1 0xA DUP3 SWAP1 SHR PUSH15 0x3FFFFFFFFFFFFFFFFFFFFFFFFFFFFF DUP2 AND SWAP1 PUSH16 0xFFFFFFFFFFFFFFFFFFFFFFFFFFFFFC00 DUP5 AND SWAP1 PUSH1 0x1 AND ISZERO DUP1 DUP1 ISZERO PUSH2 0x19CF JUMPI POP DUP5 PUSH1 0x1 PUSH1 0x1 PUSH1 0x80 SHL SUB AND DUP3 EQ JUMPDEST DUP1 ISZERO PUSH2 0x19E1 JUMPI POP PUSH1 0x1 PUSH1 0x1 PUSH1 0x60 SHL SUB DUP4 LT JUMPDEST PUSH2 0x1A12 JUMPI PUSH1 0x40 MLOAD PUSH3 0x461BCD PUSH1 0xE5 SHL DUP2 MSTORE PUSH1 0x20 PUSH1 0x4 DUP3 ADD MSTORE PUSH1 0x2 PUSH1 0x24 DUP3 ADD MSTORE PUSH2 0x1191 PUSH1 0xF2 SHL PUSH1 0x44 DUP3 ADD MSTORE PUSH1 0x64 ADD PUSH2 0x2F4 JUMP JUMPDEST POP SWAP1 SWAP4 SWAP3 POP POP POP JUMP JUMPDEST PUSH1 0x0 PUSH2 0x1A29 DUP8 DUP8 DUP8 DUP6 PUSH2 0x2132 JUMP JUMPDEST PUSH2 0x1A35 DUP8 DUP8 DUP7 DUP6 PUSH2 0x2132 JUMP JUMPDEST PUSH2 0x1A40 DUP8 DUP7 DUP6 PUSH2 0x21A3 JUMP JUMPDEST PUSH2 0x1A4B DUP8 DUP6 DUP6 PUSH2 0x21EC JUMP JUMPDEST PUSH2 0x1A58 DUP8 DUP8 DUP8 DUP8 DUP7 PUSH2 0x1F7A JUMP JUMPDEST SWAP8 SWAP7 POP POP POP POP POP POP POP JUMP JUMPDEST PUSH1 0x0 PUSH2 0x1A71 DUP8 DUP8 DUP8 DUP8 PUSH2 0x224B JUMP JUMPDEST SWAP1 POP PUSH2 0x328 DUP2 DUP5 DUP5 PUSH2 0x22AB JUMP JUMPDEST PUSH1 0x0 SLOAD PUSH1 0x1 PUSH1 0x1 PUSH1 0xA0 SHL SUB DUP3 DUP2 AND SWAP2 AND EQ PUSH2 0x71B JUMPI PUSH1 0x0 DUP1 SLOAD PUSH1 0x40 MLOAD PUSH4 0x46282DB PUSH1 0xE4 SHL DUP2 MSTORE PUSH1 0x1 PUSH1 0x1 PUSH1 0xA0 SHL SUB DUP5 DUP2 AND SWAP3 PUSH4 0x46282DB0 SWAP3 PUSH2 0x1AD0 SWAP3 SWAP1 SWAP2 AND SWAP1 DUP12 SWAP1 DUP12 SWAP1 DUP12 SWAP1 DUP12 SWAP1 DUP12 SWAP1 PUSH1 0x4 ADD PUSH2 0x36C5 JUMP JUMPDEST PUSH1 0x20 PUSH1 0x40 MLOAD DUP1 DUP4 SUB DUP2 PUSH1 0x0 DUP8 GAS CALL ISZERO DUP1 ISZERO PUSH2 0x1AEF JUMPI RETURNDATASIZE PUSH1 0x0 DUP1 RETURNDATACOPY RETURNDATASIZE PUSH1 0x0 REVERT JUMPDEST POP POP POP POP PUSH1 0x40 MLOAD RETURNDATASIZE PUSH1 0x1F NOT PUSH1 0x1F DUP3 ADD AND DUP3 ADD DUP1 PUSH1 0x40 MSTORE POP DUP2 ADD SWAP1 PUSH2 0x1B13 SWAP2 SWAP1 PUSH2 0x3608 JUMP JUMPDEST SWAP1 POP DUP1 PUSH2 0x328 JUMPI PUSH1 0x40 MLOAD PUSH3 0x461BCD PUSH1 0xE5 SHL DUP2 MSTORE PUSH1 0x20 PUSH1 0x4 DUP3 ADD MSTORE PUSH1 0x2 PUSH1 0x24 DUP3 ADD MSTORE PUSH2 0x4C5 PUSH1 0xF4 SHL PUSH1 0x44 DUP3 ADD MSTORE PUSH1 0x64 ADD PUSH2 0x2F4 JUMP JUMPDEST PUSH1 0x0 DUP1 PUSH1 0x0 DUP1 PUSH1 0x0 PUSH2 0x1B5F DUP10 PUSH1 0x0 ADD MLOAD DUP10 DUP10 DUP10 PUSH2 0x236C JUMP JUMPDEST SWAP3 POP SWAP3 POP SWAP3 POP PUSH2 0x1B70 DUP10 DUP10 DUP4 PUSH2 0x2428 JUMP JUMPDEST PUSH2 0x1500 DUP4 DUP4 DUP4 PUSH2 0x2444 JUMP JUMPDEST PUSH1 0x0 DUP1 PUSH2 0x1B90 DUP5 PUSH1 0x1 PUSH1 0x1 PUSH1 0x80 SHL SUB AND PUSH2 0x11A9 JUMP JUMPDEST PUSH2 0x1BA2 DUP5 PUSH1 0x1 PUSH1 0x1 PUSH1 0x80 SHL SUB AND PUSH2 0x11A9 JUMP JUMPDEST SWAP2 POP SWAP2 POP JUMPDEST SWAP3 POP SWAP3 SWAP1 POP JUMP JUMPDEST PUSH1 0x0 PUSH2 0xFFFF DUP3 AND PUSH2 0x1BBF DUP2 DUP7 PUSH2 0x370E JUMP JUMPDEST PUSH1 0x2 SIGNEXTEND ISZERO DUP1 ISZERO PUSH2 0x1659 JUMPI POP PUSH2 0x1BD4 DUP2 DUP6 PUSH2 0x370E JUMP JUMPDEST PUSH1 0x2 SIGNEXTEND ISZERO SWAP6 SWAP5 POP POP POP POP POP JUMP JUMPDEST PUSH1 0x0 DUP1 PUSH2 0x1BEF DUP9 DUP8 DUP7 PUSH2 0x24A9 JUMP JUMPDEST SWAP1 POP PUSH1 0x0 PUSH2 0x1BFE DUP10 DUP8 DUP8 PUSH2 0x2532 JUMP JUMPDEST SWAP1 POP PUSH2 0x1C0D DUP10 DUP10 DUP10 DUP10 DUP9 PUSH2 0x1F7A JUMP JUMPDEST SWAP3 POP DUP2 ISZERO PUSH2 0x1C1F JUMPI PUSH2 0x1C1F DUP10 DUP9 PUSH2 0x25B0 JUMP JUMPDEST DUP1 ISZERO PUSH2 0x1C2F JUMPI PUSH2 0x1C2F DUP10 DUP8 PUSH2 0x25B0 JUMP JUMPDEST POP POP SWAP7 SWAP6 POP POP POP POP POP POP JUMP JUMPDEST PUSH1 0x0 DUP1 PUSH2 0x1C4A DUP9 DUP9 DUP9 DUP9 PUSH2 0x224B JUMP JUMPDEST DUP1 SLOAD SWAP1 SWAP2 POP PUSH2 0x1C66 SWAP1 PUSH1 0x1 PUSH1 0xC0 SHL SWAP1 DIV PUSH4 0xFFFFFFFF AND DUP9 PUSH2 0x2601 JUMP JUMPDEST PUSH2 0x1C71 DUP2 DUP6 DUP6 PUSH2 0x268A JUMP JUMPDEST SWAP9 SWAP8 POP POP POP POP POP POP POP POP JUMP JUMPDEST PUSH1 0x0 SLOAD PUSH1 0x1 PUSH1 0x1 PUSH1 0xA0 SHL SUB DUP3 DUP2 AND SWAP2 AND EQ PUSH2 0x71B JUMPI PUSH1 0x0 DUP1 SLOAD PUSH1 0x40 MLOAD PUSH4 0x78F4DE31 PUSH1 0xE1 SHL DUP2 MSTORE PUSH1 0x1 PUSH1 0x1 PUSH1 0xA0 SHL SUB DUP5 DUP2 AND SWAP3 PUSH4 0xF1E9BC62 SWAP3 PUSH2 0x1AD0 SWAP3 SWAP1 SWAP2 AND SWAP1 DUP12 SWAP1 DUP12 SWAP1 DUP12 SWAP1 DUP12 SWAP1 DUP12 SWAP1 PUSH1 0x4 ADD PUSH2 0x36C5 JUMP JUMPDEST PUSH1 0x0 DUP1 PUSH2 0x1CDE DUP8 DUP8 DUP7 DUP7 PUSH2 0x274A JUMP JUMPDEST SWAP1 SWAP3 POP SWAP1 POP PUSH2 0x1CF0 DUP3 DUP3 DUP10 DUP10 DUP10 PUSH2 0x278F JUMP JUMPDEST SWAP1 SWAP9 SWAP1 SWAP8 POP SWAP6 POP POP POP POP POP POP JUMP JUMPDEST PUSH1 0x0 DUP1 PUSH2 0x1D13 DUP5 PUSH1 0x1 PUSH1 0x1 PUSH1 0x80 SHL SUB AND PUSH2 0x11A9 JUMP JUMPDEST PUSH2 0x1D1C SWAP1 PUSH2 0x3680 JUMP JUMPDEST PUSH2 0x1D2E DUP5 PUSH1 0x1 PUSH1 0x1 PUSH1 0x80 SHL SUB AND PUSH2 0x11A9 JUMP JUMPDEST PUSH2 0x1BA2 SWAP1 PUSH2 0x3680 JUMP JUMPDEST PUSH1 0x0 DUP1 DUP3 PUSH1 0x1 PUSH1 0x1 PUSH1 0x80 SHL SUB AND PUSH1 0x1 PUSH1 0x80 SHL DUP2 PUSH2 0x1D56 JUMPI PUSH2 0x1D56 PUSH2 0x36AF JUMP JUMPDEST DIV SWAP1 POP PUSH1 0x1 PUSH1 0x1 PUSH1 0x80 SHL SUB DUP2 GT ISZERO PUSH2 0x99 JUMPI PUSH1 0x0 DUP1 REVERT JUMPDEST PUSH1 0x0 DUP1 PUSH2 0x1D7A DUP7 DUP7 PUSH2 0x280E JUMP JUMPDEST SWAP1 POP PUSH2 0x1D8F PUSH1 0x1 PUSH1 0x1 PUSH1 0x80 SHL SUB DUP6 AND DUP5 PUSH2 0x2836 JUMP JUMPDEST DUP2 SLOAD SWAP1 SWAP3 POP PUSH2 0x1DA7 SWAP1 PUSH1 0x1 PUSH1 0x1 PUSH1 0x80 SHL SUB AND DUP4 PUSH2 0x2880 JUMP JUMPDEST DUP2 SLOAD PUSH1 0x1 PUSH1 0x1 PUSH1 0x80 SHL SUB NOT AND PUSH1 0x1 PUSH1 0x1 PUSH1 0x80 SHL SUB SWAP2 SWAP1 SWAP2 AND OR DUP2 SSTORE PUSH2 0x1DCA PUSH2 0x289C JUMP JUMPDEST DUP2 SLOAD PUSH4 0xFFFFFFFF SWAP2 SWAP1 SWAP2 AND PUSH1 0x1 PUSH1 0x80 SHL MUL PUSH4 0xFFFFFFFF PUSH1 0x80 SHL NOT SWAP1 SWAP2 AND OR SWAP1 SSTORE SWAP5 SWAP4 POP POP POP POP JUMP JUMPDEST PUSH1 0x0 DUP1 PUSH2 0x71B DUP7 DUP4 DUP4 DUP9 DUP9 DUP9 PUSH2 0x1A7E JUMP JUMPDEST PUSH1 0x0 DUP1 PUSH1 0x0 DUP1 PUSH2 0x1E13 DUP7 DUP7 PUSH2 0x28B6 JUMP JUMPDEST SWAP2 POP SWAP2 POP PUSH2 0x1E21 DUP7 DUP7 PUSH2 0x2905 JUMP JUMPDEST PUSH2 0x1E2D DUP3 DUP3 PUSH1 0x1 PUSH2 0x2444 JUMP JUMPDEST SWAP4 POP SWAP4 POP POP POP SWAP3 POP SWAP3 SWAP1 POP JUMP JUMPDEST DUP1 PUSH1 0x1 PUSH1 0x1 PUSH1 0x80 SHL SUB DUP2 AND PUSH1 0x1 PUSH1 0x1 PUSH1 0xC0 SHL SUB DUP3 AND EQ PUSH2 0x9EC JUMPI PUSH1 0x0 DUP1 REVERT JUMPDEST PUSH1 0x0 PUSH1 0x1 PUSH1 0x1 PUSH1 0x80 SHL SUB DUP3 AND PUSH1 0x1 PUSH1 0x40 SHL PUSH1 0x1 PUSH1 0xC0 SHL SUB PUSH1 0x40 DUP6 SWAP1 SHL AND DUP2 PUSH2 0x1E83 JUMPI PUSH2 0x1E83 PUSH2 0x36AF JUMP JUMPDEST DIV SWAP4 SWAP3 POP POP POP JUMP JUMPDEST PUSH1 0x0 DUP1 PUSH2 0x1E98 DUP7 DUP7 PUSH2 0x280E JUMP JUMPDEST SWAP1 POP PUSH2 0x1EAD PUSH1 0x1 PUSH1 0x1 PUSH1 0x80 SHL SUB DUP6 AND DUP5 PUSH2 0x2836 JUMP JUMPDEST DUP2 SLOAD SWAP1 SWAP3 POP PUSH1 0x1 PUSH1 0x1 PUSH1 0x80 SHL SUB SWAP1 DUP2 AND SWAP1 DUP4 AND LT PUSH2 0x1EE4 JUMPI DUP1 SLOAD PUSH1 0x1 PUSH1 0x1 PUSH1 0xA0 SHL SUB NOT DUP2 AND DUP3 SSTORE PUSH1 0x1 PUSH1 0x1 PUSH1 0x80 SHL SUB AND SWAP2 POP PUSH2 0x1F26 JUMP JUMPDEST DUP1 SLOAD DUP3 SWAP1 DUP3 SWAP1 PUSH1 0x0 SWAP1 PUSH2 0x1F01 SWAP1 DUP5 SWAP1 PUSH1 0x1 PUSH1 0x1 PUSH1 0x80 SHL SUB AND PUSH2 0x3660 JUMP JUMPDEST SWAP3 POP PUSH2 0x100 EXP DUP2 SLOAD DUP2 PUSH1 0x1 PUSH1 0x1 PUSH1 0x80 SHL SUB MUL NOT AND SWAP1 DUP4 PUSH1 0x1 PUSH1 0x1 PUSH1 0x80 SHL SUB AND MUL OR SWAP1 SSTORE POP JUMPDEST POP SWAP5 SWAP4 POP POP POP POP JUMP JUMPDEST PUSH2 0x1F3E DUP5 PUSH1 0x0 DUP1 DUP7 DUP7 DUP7 PUSH2 0x1C7D JUMP JUMPDEST POP POP POP POP JUMP JUMPDEST PUSH1 0x0 DUP1 PUSH2 0x1F51 DUP5 DUP5 PUSH2 0x28B6 JUMP JUMPDEST SWAP1 SWAP3 POP SWAP1 POP PUSH2 0x1BA7 DUP5 PUSH2 0x1F6C PUSH1 0x1 PUSH1 0x1 PUSH1 0x80 SHL SUB DUP7 AND PUSH2 0x11A9 JUMP JUMPDEST PUSH2 0x1F75 SWAP1 PUSH2 0x3680 JUMP JUMPDEST PUSH2 0x291B JUMP JUMPDEST PUSH1 0x0 DUP1 PUSH2 0x1F89 DUP8 DUP7 DUP9 DUP7 PUSH2 0x2948 JUMP JUMPDEST SWAP1 POP PUSH1 0x0 PUSH2 0x1F99 DUP9 DUP7 DUP10 DUP8 PUSH2 0x2948 JUMP JUMPDEST SWAP2 SWAP1 SWAP2 SUB SWAP8 SWAP7 POP POP POP POP POP POP POP JUMP JUMPDEST PUSH1 0x0 DUP1 PUSH2 0x1FB7 DUP8 DUP8 DUP8 DUP8 PUSH2 0x224B JUMP JUMPDEST DUP1 SLOAD SWAP1 SWAP2 POP PUSH1 0x1 PUSH1 0x1 PUSH1 0x40 SHL SUB PUSH1 0x1 PUSH1 0x80 SHL SWAP1 SWAP2 DIV DUP2 AND SWAP1 DUP5 AND DUP2 LT ISZERO PUSH2 0x2043 JUMPI PUSH1 0x0 PUSH2 0x1FED PUSH1 0x1 PUSH1 0x1 PUSH1 0x40 SHL SUB DUP7 AND DUP4 PUSH2 0x299B JUMP JUMPDEST DUP4 SLOAD SWAP1 SWAP2 POP PUSH2 0x201C SWAP1 PUSH1 0x1 PUSH1 0x1 PUSH1 0x80 SHL SUB AND PUSH1 0x1 PUSH1 0x1 PUSH1 0x40 SHL SUB DUP4 AND MUL PUSH1 0x30 SHR JUMPDEST PUSH1 0x1 PUSH1 0x1 PUSH1 0x90 SHL SUB AND PUSH2 0x29D7 JUMP JUMPDEST DUP4 SLOAD PUSH8 0xFFFFFFFFFFFFFFFF PUSH1 0x80 SHL NOT AND PUSH1 0x1 PUSH1 0x80 SHL PUSH1 0x1 PUSH1 0x1 PUSH1 0x40 SHL SUB DUP9 AND MUL OR DUP5 SSTORE SWAP4 POP POP JUMPDEST POP POP SWAP6 SWAP5 POP POP POP POP POP JUMP JUMPDEST DUP1 PUSH1 0x1 PUSH1 0x1 PUSH1 0x80 SHL SUB DUP2 AND DUP2 EQ PUSH2 0x9EC JUMPI PUSH1 0x0 DUP1 REVERT JUMPDEST DUP1 ISZERO PUSH2 0x208B JUMPI PUSH1 0x0 PUSH2 0x2077 DUP7 DUP7 DUP7 PUSH2 0x29F6 JUMP JUMPDEST SWAP1 POP PUSH2 0x2085 DUP7 DUP3 DUP7 DUP7 PUSH2 0x2A99 JUMP JUMPDEST POP PUSH2 0xBA2 JUMP JUMPDEST PUSH2 0xBA2 DUP6 DUP6 DUP6 DUP6 PUSH2 0x2AD1 JUMP JUMPDEST DUP1 ISZERO PUSH2 0x20B3 JUMPI PUSH2 0x20A8 DUP6 DUP6 DUP6 PUSH2 0x2AF5 JUMP JUMPDEST PUSH2 0xB93 DUP6 DUP5 DUP5 PUSH2 0x2B59 JUMP JUMPDEST PUSH2 0xBA2 DUP6 DUP6 DUP6 DUP6 PUSH2 0x2B71 JUMP JUMPDEST PUSH1 0x0 DUP3 PUSH1 0x1 PUSH1 0x1 PUSH1 0xA0 SHL SUB AND DUP3 PUSH1 0x40 MLOAD PUSH1 0x0 PUSH1 0x40 MLOAD DUP1 DUP4 SUB DUP2 DUP6 DUP8 GAS CALL SWAP3 POP POP POP RETURNDATASIZE DUP1 PUSH1 0x0 DUP2 EQ PUSH2 0x210C JUMPI PUSH1 0x40 MLOAD SWAP2 POP PUSH1 0x1F NOT PUSH1 0x3F RETURNDATASIZE ADD AND DUP3 ADD PUSH1 0x40 MSTORE RETURNDATASIZE DUP3 MSTORE RETURNDATASIZE PUSH1 0x0 PUSH1 0x20 DUP5 ADD RETURNDATACOPY PUSH2 0x2111 JUMP JUMPDEST PUSH1 0x60 SWAP2 POP JUMPDEST POP POP SWAP1 POP DUP1 PUSH2 0x111A JUMPI PUSH1 0x40 MLOAD PUSH3 0x461BCD PUSH1 0xE5 SHL DUP2 MSTORE PUSH1 0x4 ADD PUSH2 0x2F4 SWAP1 PUSH2 0x3730 JUMP JUMPDEST PUSH1 0x0 PUSH2 0x213E DUP6 DUP5 PUSH2 0x2B9E JUMP JUMPDEST DUP1 SLOAD SWAP1 SWAP2 POP PUSH1 0x1 PUSH1 0x1 PUSH1 0x60 SHL SUB AND ISZERO DUP1 ISZERO PUSH2 0x2168 JUMPI POP DUP1 SLOAD PUSH1 0x1 PUSH1 0x60 SHL SWAP1 DIV PUSH1 0x1 PUSH1 0x1 PUSH1 0x60 SHL SUB AND ISZERO JUMPDEST ISZERO PUSH2 0xBA2 JUMPI DUP4 PUSH1 0x2 SIGNEXTEND DUP4 PUSH1 0x2 SIGNEXTEND SLT PUSH2 0x2199 JUMPI DUP1 SLOAD PUSH1 0x1 PUSH1 0x1 PUSH1 0xC0 SHL SUB AND PUSH1 0x1 PUSH1 0xC0 SHL PUSH1 0x1 PUSH1 0x1 PUSH1 0x40 SHL SUB DUP5 AND MUL OR DUP2 SSTORE JUMPDEST PUSH2 0xBA2 DUP6 DUP5 PUSH2 0x2BF1 JUMP JUMPDEST PUSH1 0x0 PUSH2 0x21AF DUP5 DUP5 PUSH2 0x2B9E JUMP JUMPDEST DUP1 SLOAD SWAP1 SWAP2 POP PUSH1 0x1 PUSH1 0x1 PUSH1 0x60 SHL SUB AND PUSH1 0x0 PUSH2 0x21C9 DUP3 DUP6 PUSH2 0x2C79 JUMP JUMPDEST DUP4 SLOAD PUSH1 0x1 PUSH1 0x1 PUSH1 0x60 SHL SUB NOT AND PUSH1 0x1 PUSH1 0x1 PUSH1 0x60 SHL SUB SWAP2 SWAP1 SWAP2 AND OR SWAP1 SWAP3 SSTORE POP POP POP POP POP JUMP JUMPDEST PUSH1 0x0 PUSH2 0x21F8 DUP5 DUP5 PUSH2 0x2B9E JUMP JUMPDEST DUP1 SLOAD SWAP1 SWAP2 POP PUSH1 0x1 PUSH1 0x60 SHL SWAP1 DIV PUSH1 0x1 PUSH1 0x1 PUSH1 0x60 SHL SUB AND PUSH1 0x0 PUSH2 0x2219 DUP3 DUP6 PUSH2 0x2C79 JUMP JUMPDEST DUP4 SLOAD PUSH1 0x1 PUSH1 0x1 PUSH1 0x60 SHL SUB SWAP1 SWAP2 AND PUSH1 0x1 PUSH1 0x60 SHL MUL PUSH12 0xFFFFFFFFFFFFFFFFFFFFFFFF PUSH1 0x60 SHL NOT SWAP1 SWAP2 AND OR SWAP1 SWAP3 SSTORE POP POP POP POP POP JUMP JUMPDEST PUSH1 0x40 DUP1 MLOAD PUSH1 0x60 SWAP6 SWAP1 SWAP6 SHL PUSH1 0x1 PUSH1 0x1 PUSH1 0x60 SHL SUB NOT AND PUSH1 0x20 DUP1 DUP8 ADD SWAP2 SWAP1 SWAP2 MSTORE PUSH1 0x34 DUP7 ADD SWAP5 SWAP1 SWAP5 MSTORE PUSH1 0xE8 SWAP3 DUP4 SHL PUSH1 0x54 DUP7 ADD MSTORE SWAP2 SHL PUSH1 0x57 DUP5 ADD MSTORE DUP1 MLOAD PUSH1 0x3A DUP2 DUP6 SUB ADD DUP2 MSTORE PUSH1 0x5A SWAP1 SWAP4 ADD DUP2 MSTORE DUP3 MLOAD SWAP3 DUP3 ADD SWAP3 SWAP1 SWAP3 KECCAK256 PUSH1 0x0 SWAP1 DUP2 MSTORE PUSH3 0x1000D SWAP1 SWAP2 MSTORE KECCAK256 SWAP1 JUMP JUMPDEST DUP3 SLOAD PUSH1 0x1 PUSH1 0x1 PUSH1 0x80 SHL SUB AND PUSH1 0x0 DUP2 ISZERO PUSH2 0x22D6 JUMPI POP DUP4 SLOAD PUSH1 0x1 PUSH1 0x80 SHL SWAP1 DIV PUSH1 0x1 PUSH1 0x1 PUSH1 0x40 SHL SUB AND PUSH2 0x22DA JUMP JUMPDEST POP PUSH1 0x0 JUMPDEST PUSH1 0x0 PUSH2 0x22EF PUSH1 0x1 PUSH1 0x1 PUSH1 0x80 SHL SUB DUP5 AND DUP7 PUSH2 0x2880 JUMP JUMPDEST SWAP1 POP PUSH1 0x0 PUSH2 0x2308 PUSH1 0x1 PUSH1 0x1 PUSH1 0x40 SHL SUB DUP7 AND DUP8 DUP6 DUP8 PUSH2 0x2C95 JUMP JUMPDEST SWAP1 POP PUSH1 0x0 PUSH2 0x2314 PUSH2 0x289C JUMP JUMPDEST DUP9 SLOAD PUSH4 0xFFFFFFFF SWAP1 SWAP2 AND PUSH1 0x1 PUSH1 0xC0 SHL MUL PUSH4 0xFFFFFFFF PUSH1 0xC0 SHL NOT PUSH1 0x1 PUSH1 0x1 PUSH1 0x40 SHL SUB SWAP1 SWAP5 AND PUSH1 0x1 PUSH1 0x80 SHL MUL PUSH1 0x1 PUSH1 0x1 PUSH1 0xC0 SHL SUB NOT SWAP1 SWAP3 AND PUSH1 0x1 PUSH1 0x1 PUSH1 0x80 SHL SUB SWAP1 SWAP6 AND SWAP5 SWAP1 SWAP5 OR OR SWAP2 SWAP1 SWAP2 AND SWAP2 SWAP1 SWAP2 OR SWAP1 SWAP6 SSTORE POP POP POP POP POP JUMP JUMPDEST PUSH1 0x0 DUP1 PUSH1 0x0 DUP1 PUSH1 0x0 PUSH2 0x237E DUP8 DUP8 PUSH2 0x2D32 JUMP JUMPDEST SWAP2 POP SWAP2 POP DUP2 PUSH1 0x1 PUSH1 0x1 PUSH1 0x80 SHL SUB AND DUP10 PUSH1 0x1 PUSH1 0x1 PUSH1 0x80 SHL SUB AND LT ISZERO PUSH2 0x23B7 JUMPI PUSH2 0x23B0 PUSH1 0x1 PUSH1 0x1 PUSH1 0x80 SHL SUB DUP10 AND DUP4 DUP4 PUSH2 0x2D8D JUMP JUMPDEST SWAP4 POP PUSH2 0x241C JUMP JUMPDEST DUP1 PUSH1 0x1 PUSH1 0x1 PUSH1 0x80 SHL SUB AND DUP10 PUSH1 0x1 PUSH1 0x1 PUSH1 0x80 SHL SUB AND LT PUSH2 0x23EB JUMPI PUSH2 0x23E4 PUSH1 0x1 PUSH1 0x1 PUSH1 0x80 SHL SUB DUP10 AND DUP4 DUP4 PUSH2 0x2DC6 JUMP JUMPDEST SWAP5 POP PUSH2 0x241C JUMP JUMPDEST PUSH2 0x23FF PUSH1 0x1 PUSH1 0x1 PUSH1 0x80 SHL SUB DUP10 AND DUP11 DUP4 PUSH2 0x2D8D JUMP JUMPDEST SWAP4 POP PUSH2 0x2415 PUSH1 0x1 PUSH1 0x1 PUSH1 0x80 SHL SUB DUP10 AND DUP4 DUP12 PUSH2 0x2DC6 JUMP JUMPDEST SWAP5 POP PUSH1 0x1 SWAP3 POP JUMPDEST POP POP SWAP5 POP SWAP5 POP SWAP5 SWAP2 POP POP JUMP JUMPDEST PUSH2 0x111A DUP4 PUSH2 0x243E DUP5 PUSH1 0x1 PUSH1 0x1 PUSH1 0x80 SHL SUB AND PUSH2 0x11A9 JUMP JUMPDEST DUP4 PUSH2 0x2DFC JUMP JUMPDEST PUSH1 0x0 DUP1 PUSH1 0x0 DUP6 PUSH1 0x1 PUSH1 0x1 PUSH1 0x80 SHL SUB AND GT DUP1 PUSH2 0x245C JUMPI POP DUP3 JUMPDEST PUSH2 0x2467 JUMPI PUSH1 0x0 PUSH2 0x2472 JUMP JUMPDEST PUSH2 0x2472 PUSH1 0x4 DUP7 PUSH2 0x3640 JUMP JUMPDEST PUSH1 0x0 DUP6 PUSH1 0x1 PUSH1 0x1 PUSH1 0x80 SHL SUB AND GT DUP1 PUSH2 0x2487 JUMPI POP DUP4 JUMPDEST PUSH2 0x2492 JUMPI PUSH1 0x0 PUSH2 0x249D JUMP JUMPDEST PUSH2 0x249D PUSH1 0x4 DUP7 PUSH2 0x3640 JUMP JUMPDEST SWAP2 POP SWAP2 POP SWAP4 POP SWAP4 SWAP2 POP POP JUMP JUMPDEST PUSH1 0x0 DUP1 PUSH2 0x24B6 DUP6 DUP6 PUSH2 0x2B9E JUMP JUMPDEST DUP1 SLOAD SWAP1 SWAP2 POP PUSH1 0x1 PUSH1 0x1 PUSH1 0x60 SHL SUB AND PUSH1 0x0 PUSH2 0x24D0 DUP3 DUP7 PUSH2 0x2E2D JUMP JUMPDEST DUP4 SLOAD PUSH1 0x1 PUSH1 0x1 PUSH1 0x60 SHL SUB NOT AND PUSH1 0x1 PUSH1 0x1 PUSH1 0x60 SHL SUB DUP3 AND SWAP1 DUP2 OR DUP6 SSTORE SWAP1 SWAP2 POP ISZERO DUP1 ISZERO PUSH2 0x250A JUMPI POP DUP3 SLOAD PUSH1 0x1 PUSH1 0x60 SHL SWAP1 DIV PUSH1 0x1 PUSH1 0x1 PUSH1 0x60 SHL SUB AND ISZERO JUMPDEST ISZERO PUSH2 0x2525 JUMPI PUSH2 0x2519 DUP8 DUP8 PUSH2 0x2E39 JUMP JUMPDEST PUSH1 0x1 SWAP4 POP POP POP POP PUSH2 0x645 JUMP JUMPDEST POP PUSH1 0x0 SWAP7 SWAP6 POP POP POP POP POP POP JUMP JUMPDEST PUSH1 0x0 DUP1 PUSH2 0x253F DUP6 DUP6 PUSH2 0x2B9E JUMP JUMPDEST DUP1 SLOAD SWAP1 SWAP2 POP PUSH1 0x1 PUSH1 0x60 SHL SWAP1 DIV PUSH1 0x1 PUSH1 0x1 PUSH1 0x60 SHL SUB AND PUSH1 0x0 PUSH2 0x2560 DUP3 DUP7 PUSH2 0x2E2D JUMP JUMPDEST DUP4 SLOAD PUSH12 0xFFFFFFFFFFFFFFFFFFFFFFFF PUSH1 0x60 SHL NOT AND PUSH1 0x1 PUSH1 0x60 SHL PUSH1 0x1 PUSH1 0x1 PUSH1 0x60 SHL SUB DUP4 AND SWAP1 DUP2 MUL SWAP2 SWAP1 SWAP2 OR DUP6 SSTORE SWAP1 SWAP2 POP ISZERO DUP1 ISZERO PUSH2 0x250A JUMPI POP DUP3 SLOAD PUSH1 0x1 PUSH1 0x1 PUSH1 0x60 SHL SUB AND PUSH2 0x2525 JUMPI PUSH2 0x2519 DUP8 DUP8 PUSH2 0x2E39 JUMP JUMPDEST PUSH3 0x10002 PUSH1 0x0 DUP4 DUP4 PUSH1 0x40 MLOAD PUSH1 0x20 ADD PUSH2 0x25D5 SWAP3 SWAP2 SWAP1 SWAP2 DUP3 MSTORE PUSH1 0xE8 SHL PUSH1 0x20 DUP3 ADD MSTORE PUSH1 0x23 ADD SWAP1 JUMP JUMPDEST PUSH1 0x40 DUP1 MLOAD PUSH1 0x1F NOT DUP2 DUP5 SUB ADD DUP2 MSTORE SWAP2 DUP2 MSTORE DUP2 MLOAD PUSH1 0x20 SWAP3 DUP4 ADD KECCAK256 DUP4 MSTORE SWAP1 DUP3 ADD SWAP3 SWAP1 SWAP3 MSTORE ADD PUSH1 0x0 SWAP1 DUP2 KECCAK256 SSTORE POP POP JUMP JUMPDEST PUSH1 0xA PUSH1 0x0 DUP4 PUSH2 0x260E PUSH2 0x289C JUMP JUMPDEST PUSH2 0x2618 SWAP2 SWAP1 PUSH2 0x374C JUMP JUMPDEST SWAP1 POP PUSH1 0x0 PUSH2 0x2626 DUP4 DUP4 PUSH2 0x3769 JUMP JUMPDEST SWAP1 POP PUSH1 0xFF PUSH4 0xFFFFFFFF DUP3 AND GT PUSH2 0xBA2 JUMPI PUSH1 0x0 DUP5 DUP2 MSTORE PUSH3 0x10009 PUSH1 0x20 MSTORE PUSH1 0x40 SWAP1 KECCAK256 SLOAD PUSH1 0x1 PUSH1 0x30 SHL SWAP1 DIV PUSH1 0xFF AND PUSH4 0xFFFFFFFF DUP3 AND LT ISZERO PUSH2 0xBA2 JUMPI PUSH1 0x40 MLOAD PUSH3 0x461BCD PUSH1 0xE5 SHL DUP2 MSTORE PUSH1 0x20 PUSH1 0x4 DUP3 ADD MSTORE PUSH1 0x1 PUSH1 0x24 DUP3 ADD MSTORE PUSH1 0x25 PUSH1 0xF9 SHL PUSH1 0x44 DUP3 ADD MSTORE PUSH1 0x64 ADD PUSH2 0x2F4 JUMP JUMPDEST DUP3 SLOAD PUSH1 0x0 SWAP1 PUSH1 0x1 PUSH1 0x1 PUSH1 0x80 SHL SUB AND DUP2 PUSH2 0x26A3 DUP3 DUP7 PUSH2 0x2EC2 JUMP JUMPDEST DUP7 SLOAD SWAP1 SWAP2 POP PUSH2 0x26C5 SWAP1 PUSH1 0x1 PUSH1 0x1 PUSH1 0x40 SHL SUB DUP7 DUP2 AND SWAP2 PUSH1 0x1 PUSH1 0x80 SHL SWAP1 DIV AND PUSH2 0x299B JUMP JUMPDEST SWAP3 POP PUSH1 0x1 PUSH1 0x1 PUSH1 0x80 SHL SUB DUP2 AND ISZERO PUSH2 0x2732 JUMPI DUP6 SLOAD PUSH1 0x1 PUSH1 0xE0 SHL SWAP1 DIV PUSH1 0xFF AND ISZERO PUSH2 0x2714 JUMPI PUSH1 0x40 MLOAD PUSH3 0x461BCD PUSH1 0xE5 SHL DUP2 MSTORE PUSH1 0x20 PUSH1 0x4 DUP3 ADD MSTORE PUSH1 0x2 PUSH1 0x24 DUP3 ADD MSTORE PUSH2 0x27A9 PUSH1 0xF1 SHL PUSH1 0x44 DUP3 ADD MSTORE PUSH1 0x64 ADD PUSH2 0x2F4 JUMP JUMPDEST DUP6 SLOAD PUSH1 0x1 PUSH1 0x1 PUSH1 0x80 SHL SUB NOT AND PUSH1 0x1 PUSH1 0x1 PUSH1 0x80 SHL SUB DUP3 AND OR DUP7 SSTORE PUSH2 0x2741 JUMP JUMPDEST DUP6 SLOAD PUSH1 0x1 PUSH1 0x1 PUSH1 0xE8 SHL SUB NOT AND DUP7 SSTORE JUMPDEST POP POP SWAP4 SWAP3 POP POP POP JUMP JUMPDEST PUSH1 0x0 DUP1 PUSH1 0x0 PUSH2 0x275F DUP8 PUSH1 0x0 ADD MLOAD DUP8 DUP8 DUP8 PUSH2 0x236C JUMP JUMPDEST SWAP2 SWAP5 POP SWAP3 POP SWAP1 POP PUSH2 0x2785 DUP8 PUSH2 0x277C PUSH1 0x1 PUSH1 0x1 PUSH1 0x80 SHL SUB DUP10 AND PUSH2 0x11A9 JUMP JUMPDEST PUSH2 0x243E SWAP1 PUSH2 0x3680 JUMP JUMPDEST POP SWAP5 POP SWAP5 SWAP3 POP POP POP JUMP JUMPDEST PUSH1 0x0 DUP1 PUSH1 0x1 PUSH1 0x1 PUSH1 0x40 SHL SUB DUP4 AND ISZERO PUSH2 0x2803 JUMPI PUSH1 0x0 PUSH2 0x27C3 PUSH1 0x1 PUSH1 0x1 PUSH1 0x80 SHL SUB DUP7 AND PUSH1 0x1 PUSH1 0x1 PUSH1 0x40 SHL SUB DUP7 AND MUL PUSH1 0x30 SHR PUSH2 0x200E JUMP JUMPDEST SWAP1 POP PUSH1 0x1 PUSH1 0x1 PUSH1 0x80 SHL SUB DUP2 AND ISZERO PUSH2 0x2801 JUMPI PUSH1 0x0 DUP1 PUSH2 0x27E1 DUP9 DUP5 PUSH2 0x1F44 JUMP JUMPDEST SWAP1 SWAP3 POP SWAP1 POP PUSH2 0x27F0 DUP3 DUP12 PUSH2 0x3640 JUMP JUMPDEST SWAP10 POP PUSH2 0x27FC DUP2 DUP11 PUSH2 0x3640 JUMP JUMPDEST SWAP9 POP POP POP JUMPDEST POP JUMPDEST POP SWAP5 SWAP6 SWAP4 SWAP5 POP POP POP POP JUMP JUMPDEST PUSH1 0x0 PUSH3 0x1000E PUSH1 0x0 PUSH2 0x2820 DUP6 DUP6 PUSH2 0x2ECE JUMP JUMPDEST DUP2 MSTORE PUSH1 0x20 ADD SWAP1 DUP2 MSTORE PUSH1 0x20 ADD PUSH1 0x0 KECCAK256 SWAP1 POP SWAP3 SWAP2 POP POP JUMP JUMPDEST PUSH1 0x0 PUSH1 0x1 PUSH1 0x30 SHL PUSH22 0xFFFFFFFFFFFFFFFFFFFFFFFFFFFFFFFF000000000000 PUSH1 0x30 DUP6 SWAP1 SHL AND DUP3 PUSH1 0x1 PUSH1 0x1 PUSH1 0x40 SHL SUB DUP6 AND DUP4 ADD DUP3 DUP2 PUSH2 0x2875 JUMPI PUSH2 0x2875 PUSH2 0x36AF JUMP JUMPDEST DIV SWAP7 SWAP6 POP POP POP POP POP POP JUMP JUMPDEST DUP1 DUP3 ADD PUSH1 0x1 PUSH1 0x1 PUSH1 0x80 SHL SUB DUP1 DUP5 AND SWAP1 DUP3 AND LT ISZERO PUSH2 0x99 JUMPI PUSH1 0x0 DUP1 REVERT JUMPDEST PUSH1 0x0 TIMESTAMP PUSH4 0xFFFFFFFF DUP2 GT ISZERO PUSH2 0x9EC JUMPI PUSH4 0xFFFFFFFF SWAP2 POP POP SWAP1 JUMP JUMPDEST PUSH1 0x0 DUP1 PUSH1 0x0 PUSH2 0x28C9 DUP5 DUP7 PUSH1 0x60 ADD MLOAD PUSH2 0x2F11 JUMP JUMPDEST DUP6 MLOAD SWAP1 SWAP2 POP PUSH2 0x28E8 SWAP1 PUSH1 0x1 PUSH1 0x1 PUSH1 0x80 SHL SUB DUP1 DUP5 AND SWAP2 AND MUL PUSH1 0x40 SHR PUSH2 0x149E JUMP JUMPDEST SWAP3 POP PUSH2 0x28FB PUSH2 0x149E DUP3 DUP8 PUSH1 0x0 ADD MLOAD PUSH2 0x1E59 JUMP JUMPDEST SWAP2 POP POP SWAP3 POP SWAP3 SWAP1 POP JUMP JUMPDEST PUSH2 0x163A DUP3 PUSH2 0x1F75 DUP4 PUSH1 0x1 PUSH1 0x1 PUSH1 0x80 SHL SUB AND PUSH2 0x11A9 JUMP JUMPDEST PUSH1 0x20 DUP3 ADD MLOAD PUSH2 0x2933 SWAP1 PUSH1 0x1 PUSH1 0x1 PUSH1 0x80 SHL SUB AND DUP3 PUSH2 0x2F50 JUMP JUMPDEST PUSH1 0x1 PUSH1 0x1 PUSH1 0x80 SHL SUB AND PUSH1 0x20 SWAP1 SWAP3 ADD SWAP2 SWAP1 SWAP2 MSTORE POP JUMP JUMPDEST PUSH1 0x0 DUP1 PUSH2 0x2955 DUP7 DUP7 PUSH2 0x2B9E JUMP JUMPDEST SWAP1 POP DUP4 PUSH1 0x2 SIGNEXTEND DUP6 PUSH1 0x2 SIGNEXTEND SGT ISZERO PUSH2 0x2981 JUMPI DUP1 SLOAD PUSH2 0xAD7 SWAP1 PUSH1 0x1 PUSH1 0xC0 SHL SWAP1 DIV PUSH1 0x1 PUSH1 0x1 PUSH1 0x40 SHL SUB AND DUP5 PUSH2 0x378C JUMP JUMPDEST SLOAD PUSH1 0x1 PUSH1 0xC0 SHL SWAP1 DIV PUSH1 0x1 PUSH1 0x1 PUSH1 0x40 SHL SUB AND SWAP6 SWAP5 POP POP POP POP POP JUMP JUMPDEST PUSH1 0x0 PUSH1 0x2 PUSH2 0x29A9 DUP2 DUP5 PUSH2 0x37AC JUMP JUMPDEST PUSH1 0x1 PUSH1 0x1 PUSH1 0x40 SHL SUB AND DUP5 PUSH1 0x1 PUSH1 0x1 PUSH1 0x40 SHL SUB AND GT ISZERO PUSH2 0x12F7 JUMPI DUP1 PUSH2 0x29CD DUP5 DUP7 PUSH2 0x378C JUMP JUMPDEST PUSH2 0x12FA SWAP2 SWAP1 PUSH2 0x378C JUMP JUMPDEST DUP1 PUSH1 0x1 PUSH1 0x1 PUSH1 0x80 SHL SUB DUP2 AND PUSH1 0x1 PUSH1 0x1 PUSH1 0x90 SHL SUB DUP3 AND EQ PUSH2 0x9EC JUMPI PUSH1 0x0 DUP1 REVERT JUMPDEST PUSH1 0x0 DUP1 PUSH2 0x2A03 DUP6 DUP5 PUSH2 0x2FA2 JUMP JUMPDEST PUSH1 0x0 DUP2 DUP2 MSTORE PUSH3 0x10010 PUSH1 0x20 MSTORE PUSH1 0x40 SWAP1 KECCAK256 DUP1 SLOAD SWAP2 SWAP3 POP SWAP1 PUSH1 0x1 PUSH1 0x1 PUSH1 0x80 SHL SUB SWAP1 DUP2 AND SWAP1 DUP7 AND DUP2 GT ISZERO PUSH2 0x2A74 JUMPI DUP2 SLOAD DUP7 SWAP1 DUP4 SWAP1 PUSH1 0x0 SWAP1 PUSH2 0x2A4B SWAP1 DUP5 SWAP1 PUSH1 0x1 PUSH1 0x1 PUSH1 0x80 SHL SUB AND PUSH2 0x3660 JUMP JUMPDEST SWAP3 POP PUSH2 0x100 EXP DUP2 SLOAD DUP2 PUSH1 0x1 PUSH1 0x1 PUSH1 0x80 SHL SUB MUL NOT AND SWAP1 DUP4 PUSH1 0x1 PUSH1 0x1 PUSH1 0x80 SHL SUB AND MUL OR SWAP1 SSTORE POP PUSH2 0x2A8F JUMP JUMPDEST DUP2 SLOAD PUSH1 0x1 PUSH1 0x1 PUSH1 0x80 SHL SUB NOT AND DUP3 SSTORE PUSH2 0x2A8C DUP2 DUP8 PUSH2 0x3660 JUMP JUMPDEST SWAP4 POP JUMPDEST POP POP POP SWAP4 SWAP3 POP POP POP JUMP JUMPDEST PUSH1 0x1 PUSH1 0x1 PUSH1 0x80 SHL SUB DUP4 AND ISZERO PUSH2 0x2AB9 JUMPI PUSH2 0x2AB4 DUP5 DUP5 DUP5 DUP5 PUSH2 0x2AD1 JUMP JUMPDEST PUSH2 0x1F3E JUMP JUMPDEST PUSH1 0x1 PUSH1 0x1 PUSH1 0xA0 SHL SUB DUP3 AND PUSH2 0x1F3E JUMPI PUSH2 0x1F3E DUP5 DUP3 PUSH2 0x1618 JUMP JUMPDEST PUSH1 0x1 PUSH1 0x1 PUSH1 0xA0 SHL SUB DUP3 AND PUSH2 0x2AEA JUMPI PUSH2 0x2AB4 DUP5 DUP5 DUP4 PUSH2 0x2FCA JUMP JUMPDEST PUSH2 0x1F3E DUP5 DUP5 DUP5 PUSH2 0x3029 JUMP JUMPDEST PUSH1 0x0 PUSH2 0x2B01 DUP5 DUP4 PUSH2 0x2FA2 JUMP JUMPDEST PUSH1 0x0 DUP2 DUP2 MSTORE PUSH3 0x10010 PUSH1 0x20 MSTORE PUSH1 0x40 DUP2 KECCAK256 DUP1 SLOAD SWAP3 SWAP4 POP DUP6 SWAP3 SWAP1 SWAP2 SWAP1 PUSH2 0x2B2F SWAP1 DUP5 SWAP1 PUSH1 0x1 PUSH1 0x1 PUSH1 0x80 SHL SUB AND PUSH2 0x3640 JUMP JUMPDEST SWAP3 POP PUSH2 0x100 EXP DUP2 SLOAD DUP2 PUSH1 0x1 PUSH1 0x1 PUSH1 0x80 SHL SUB MUL NOT AND SWAP1 DUP4 PUSH1 0x1 PUSH1 0x1 PUSH1 0x80 SHL SUB AND MUL OR SWAP1 SSTORE POP POP POP POP POP JUMP JUMPDEST PUSH1 0x1 PUSH1 0x1 PUSH1 0xA0 SHL SUB DUP3 AND PUSH2 0x111A JUMPI PUSH2 0x111A DUP4 DUP3 PUSH2 0x1618 JUMP JUMPDEST PUSH1 0x1 PUSH1 0x1 PUSH1 0xA0 SHL SUB DUP3 AND PUSH2 0x2B8A JUMPI PUSH2 0x2AB4 DUP5 DUP5 DUP4 PUSH2 0x303E JUMP JUMPDEST PUSH2 0x1F3E DUP3 DUP6 DUP6 PUSH1 0x1 PUSH1 0x1 PUSH1 0x80 SHL SUB AND PUSH2 0x305A JUMP JUMPDEST PUSH1 0x0 PUSH3 0x10002 PUSH1 0x0 DUP5 DUP5 PUSH1 0x40 MLOAD PUSH1 0x20 ADD PUSH2 0x2BC5 SWAP3 SWAP2 SWAP1 SWAP2 DUP3 MSTORE PUSH1 0xE8 SHL PUSH1 0x20 DUP3 ADD MSTORE PUSH1 0x23 ADD SWAP1 JUMP JUMPDEST PUSH1 0x40 MLOAD PUSH1 0x20 DUP2 DUP4 SUB SUB DUP2 MSTORE SWAP1 PUSH1 0x40 MSTORE DUP1 MLOAD SWAP1 PUSH1 0x20 ADD KECCAK256 DUP2 MSTORE PUSH1 0x20 ADD SWAP1 DUP2 MSTORE PUSH1 0x20 ADD PUSH1 0x0 KECCAK256 SWAP1 POP SWAP3 SWAP2 POP POP JUMP JUMPDEST PUSH1 0x0 PUSH2 0x2BFF DUP3 PUSH1 0x2 SIGNEXTEND PUSH2 0x313E JUMP JUMPDEST PUSH1 0xFF AND PUSH1 0x1 SWAP1 SHL SWAP1 POP PUSH1 0x0 PUSH2 0x2C16 DUP4 PUSH1 0x2 SIGNEXTEND PUSH2 0x315A JUMP JUMPDEST PUSH1 0xFF AND PUSH1 0x1 SWAP1 SHL SWAP1 POP DUP2 PUSH3 0x10006 PUSH1 0x0 PUSH2 0x2C30 DUP8 DUP8 PUSH2 0x3168 JUMP JUMPDEST DUP2 MSTORE PUSH1 0x20 ADD SWAP1 DUP2 MSTORE PUSH1 0x20 ADD PUSH1 0x0 KECCAK256 PUSH1 0x0 DUP3 DUP3 SLOAD OR SWAP3 POP POP DUP2 SWAP1 SSTORE POP DUP1 PUSH3 0x10007 PUSH1 0x0 PUSH2 0x2C5C DUP8 DUP8 PUSH2 0x31B3 JUMP JUMPDEST DUP2 MSTORE PUSH1 0x20 DUP2 ADD SWAP2 SWAP1 SWAP2 MSTORE PUSH1 0x40 ADD PUSH1 0x0 KECCAK256 DUP1 SLOAD SWAP1 SWAP2 OR SWAP1 SSTORE POP POP POP POP JUMP JUMPDEST DUP1 DUP3 ADD PUSH1 0x1 PUSH1 0x1 PUSH1 0x60 SHL SUB DUP1 DUP5 AND SWAP1 DUP3 AND LT ISZERO PUSH2 0x99 JUMPI PUSH1 0x0 DUP1 REVERT JUMPDEST PUSH1 0x0 DUP2 PUSH1 0x1 PUSH1 0x1 PUSH1 0x80 SHL SUB AND PUSH1 0x0 SUB PUSH2 0x2CAF JUMPI POP DUP4 PUSH2 0xAE2 JUMP JUMPDEST DUP4 PUSH1 0x1 PUSH1 0x1 PUSH1 0x80 SHL SUB AND PUSH1 0x0 SUB PUSH2 0x2CC7 JUMPI POP DUP2 PUSH2 0xAE2 JUMP JUMPDEST DUP3 PUSH1 0x1 PUSH1 0x1 PUSH1 0x40 SHL SUB AND DUP6 PUSH1 0x1 PUSH1 0x1 PUSH1 0x40 SHL SUB AND SUB PUSH2 0x2CE7 JUMPI POP DUP4 PUSH2 0xAE2 JUMP JUMPDEST PUSH1 0x0 PUSH2 0x2CFD DUP7 DUP7 PUSH2 0x2CF8 DUP7 DUP3 PUSH2 0x3640 JUMP JUMPDEST PUSH2 0x31DF JUMP JUMPDEST SWAP1 POP PUSH1 0x0 PUSH2 0x2D10 DUP6 DUP6 PUSH2 0x2CF8 DUP2 DUP11 PUSH2 0x3640 JUMP JUMPDEST SWAP1 POP PUSH2 0x2D1D DUP2 PUSH1 0x1 PUSH2 0x37AC JUMP JUMPDEST PUSH2 0x2D28 DUP4 PUSH1 0x1 PUSH2 0x37AC JUMP JUMPDEST PUSH2 0x1A58 SWAP2 SWAP1 PUSH2 0x37AC JUMP JUMPDEST PUSH1 0x0 DUP1 DUP4 PUSH1 0x2 SIGNEXTEND DUP4 PUSH1 0x2 SIGNEXTEND SGT PUSH2 0x2D47 JUMPI PUSH1 0x0 DUP1 REVERT JUMPDEST PUSH3 0xA276D NOT PUSH1 0x2 DUP6 SWAP1 SIGNEXTEND SLT ISZERO PUSH2 0x2D5C JUMPI PUSH1 0x0 DUP1 REVERT JUMPDEST PUSH3 0xCB14A PUSH1 0x2 DUP5 SWAP1 SIGNEXTEND SGT ISZERO PUSH2 0x2D70 JUMPI PUSH1 0x0 DUP1 REVERT JUMPDEST PUSH2 0x2D79 DUP5 PUSH2 0x1662 JUMP JUMPDEST SWAP2 POP PUSH2 0x2D84 DUP4 PUSH2 0x1662 JUMP JUMPDEST SWAP1 POP SWAP3 POP SWAP3 SWAP1 POP JUMP JUMPDEST PUSH1 0x0 DUP3 PUSH1 0x1 PUSH1 0x1 PUSH1 0x80 SHL SUB AND DUP3 PUSH1 0x1 PUSH1 0x1 PUSH1 0x80 SHL SUB AND GT ISZERO PUSH2 0x2DBB JUMPI PUSH2 0x2DB4 DUP5 DUP4 DUP6 PUSH2 0x3216 JUMP JUMPDEST SWAP1 POP PUSH2 0x645 JUMP JUMPDEST PUSH2 0x2DB4 DUP5 DUP5 DUP5 PUSH2 0x3216 JUMP JUMPDEST PUSH1 0x0 DUP1 DUP3 PUSH1 0x1 PUSH1 0x1 PUSH1 0x80 SHL SUB AND DUP5 PUSH1 0x1 PUSH1 0x1 PUSH1 0x80 SHL SUB AND GT PUSH2 0x2DEA JUMPI DUP4 DUP4 SUB PUSH2 0x2DEE JUMP JUMPDEST DUP3 DUP5 SUB JUMPDEST SWAP1 POP PUSH2 0x1659 DUP6 DUP3 PUSH1 0x1 PUSH2 0x3272 JUMP JUMPDEST DUP1 ISZERO PUSH2 0x111A JUMPI PUSH1 0x40 DUP4 ADD MLOAD PUSH2 0x2E1A SWAP1 PUSH1 0x1 PUSH1 0x1 PUSH1 0x80 SHL SUB AND DUP4 PUSH2 0x2F50 JUMP JUMPDEST PUSH1 0x1 PUSH1 0x1 PUSH1 0x80 SHL SUB AND PUSH1 0x40 DUP5 ADD MSTORE POP POP POP JUMP JUMPDEST PUSH1 0x0 PUSH2 0x645 DUP3 DUP5 PUSH2 0x37CC JUMP JUMPDEST PUSH1 0x0 PUSH2 0x2E47 DUP3 PUSH1 0x2 SIGNEXTEND PUSH2 0x313E JUMP JUMPDEST PUSH1 0xFF AND PUSH1 0x1 SWAP1 SHL NOT SWAP1 POP PUSH1 0x0 PUSH2 0x2E5F DUP4 PUSH1 0x2 SIGNEXTEND PUSH2 0x315A JUMP JUMPDEST PUSH1 0xFF AND PUSH1 0x1 SWAP1 SHL NOT SWAP1 POP PUSH1 0x0 PUSH2 0x2E75 DUP6 DUP6 PUSH2 0x31B3 JUMP JUMPDEST PUSH1 0x0 DUP2 DUP2 MSTORE PUSH3 0x10007 PUSH1 0x20 MSTORE PUSH1 0x40 DUP2 KECCAK256 DUP1 SLOAD DUP6 AND SWAP1 DUP2 SWAP1 SSTORE SWAP2 SWAP3 POP DUP2 SWAP1 SUB PUSH2 0x71B JUMPI PUSH1 0x0 PUSH2 0x2EA3 DUP8 DUP8 PUSH2 0x3168 JUMP JUMPDEST PUSH1 0x0 SWAP1 DUP2 MSTORE PUSH3 0x10006 PUSH1 0x20 MSTORE PUSH1 0x40 SWAP1 KECCAK256 DUP1 SLOAD DUP7 AND SWAP1 SSTORE POP POP POP POP POP POP POP JUMP JUMPDEST PUSH1 0x0 PUSH2 0x645 DUP3 DUP5 PUSH2 0x3660 JUMP JUMPDEST PUSH1 0x40 MLOAD PUSH1 0x1 PUSH1 0x1 PUSH1 0x60 SHL SUB NOT PUSH1 0x60 DUP5 SWAP1 SHL AND PUSH1 0x20 DUP3 ADD MSTORE PUSH1 0x34 DUP2 ADD DUP3 SWAP1 MSTORE PUSH1 0x0 SWAP1 PUSH1 0x54 ADD JUMPDEST PUSH1 0x40 MLOAD PUSH1 0x20 DUP2 DUP4 SUB SUB DUP2 MSTORE SWAP1 PUSH1 0x40 MSTORE DUP1 MLOAD SWAP1 PUSH1 0x20 ADD KECCAK256 SWAP1 POP SWAP3 SWAP2 POP POP JUMP JUMPDEST PUSH1 0x0 PUSH1 0x1 PUSH1 0x30 SHL PUSH1 0x1 PUSH1 0x1 PUSH1 0x80 SHL SUB DUP1 DUP6 AND PUSH1 0x1 PUSH1 0x1 PUSH1 0x40 SHL SUB DUP6 AND DUP4 ADD MUL SWAP1 PUSH1 0x30 DUP3 SWAP1 SHR SWAP1 DUP2 GT ISZERO PUSH2 0x1659 JUMPI PUSH1 0x1 PUSH1 0x1 PUSH1 0x80 SHL SUB SWAP4 POP POP POP POP PUSH2 0x99 JUMP JUMPDEST PUSH1 0x0 DUP1 DUP3 PUSH1 0xF SIGNEXTEND SLT ISZERO PUSH2 0x2F7E JUMPI POP DUP1 DUP3 ADD PUSH1 0x1 PUSH1 0x1 PUSH1 0x80 SHL SUB DUP1 DUP5 AND SWAP1 DUP3 AND LT PUSH2 0x2F79 JUMPI PUSH1 0x0 DUP1 REVERT JUMPDEST PUSH2 0x99 JUMP JUMPDEST DUP3 PUSH1 0x1 PUSH1 0x1 PUSH1 0x80 SHL SUB AND DUP3 DUP5 ADD SWAP2 POP DUP2 PUSH1 0x1 PUSH1 0x1 PUSH1 0x80 SHL SUB AND LT ISZERO PUSH2 0x99 JUMPI PUSH1 0x0 DUP1 REVERT JUMPDEST PUSH1 0x40 DUP1 MLOAD PUSH1 0x1 PUSH1 0x1 PUSH1 0xA0 SHL SUB DUP1 DUP6 AND PUSH1 0x20 DUP4 ADD MSTORE DUP4 AND SWAP2 DUP2 ADD SWAP2 SWAP1 SWAP2 MSTORE PUSH1 0x0 SWAP1 PUSH1 0x60 ADD PUSH2 0x2EF3 JUMP JUMPDEST DUP2 PUSH1 0x1 PUSH1 0x1 PUSH1 0x80 SHL SUB AND DUP2 PUSH1 0x1 PUSH1 0x1 PUSH1 0x80 SHL SUB AND LT ISZERO PUSH2 0x3011 JUMPI PUSH1 0x40 MLOAD PUSH3 0x461BCD PUSH1 0xE5 SHL DUP2 MSTORE PUSH1 0x20 PUSH1 0x4 DUP3 ADD MSTORE PUSH1 0x2 PUSH1 0x24 DUP3 ADD MSTORE PUSH2 0x4543 PUSH1 0xF0 SHL PUSH1 0x44 DUP3 ADD MSTORE PUSH1 0x64 ADD PUSH2 0x2F4 JUMP JUMPDEST PUSH1 0x0 PUSH2 0x301D DUP4 DUP4 PUSH2 0x3660 JUMP JUMPDEST SWAP1 POP PUSH2 0x1F3E DUP5 DUP3 PUSH2 0x1618 JUMP JUMPDEST PUSH2 0x111A DUP2 DUP5 ADDRESS DUP6 PUSH1 0x1 PUSH1 0x1 PUSH1 0x80 SHL SUB AND PUSH2 0x32AB JUMP JUMPDEST PUSH2 0x111A DUP4 PUSH2 0x304C DUP4 DUP6 PUSH2 0x3640 JUMP JUMPDEST PUSH1 0x1 PUSH1 0x1 PUSH1 0x80 SHL SUB AND PUSH2 0x20BF JUMP JUMPDEST PUSH1 0x40 DUP1 MLOAD PUSH1 0x1 PUSH1 0x1 PUSH1 0xA0 SHL SUB DUP5 DUP2 AND PUSH1 0x24 DUP4 ADD MSTORE PUSH1 0x44 DUP1 DUP4 ADD DUP6 SWAP1 MSTORE DUP4 MLOAD DUP1 DUP5 SUB SWAP1 SWAP2 ADD DUP2 MSTORE PUSH1 0x64 SWAP1 SWAP3 ADD DUP4 MSTORE PUSH1 0x20 DUP3 ADD DUP1 MLOAD PUSH1 0x1 PUSH1 0x1 PUSH1 0xE0 SHL SUB AND PUSH4 0xA9059CBB PUSH1 0xE0 SHL OR SWAP1 MSTORE SWAP2 MLOAD PUSH1 0x0 SWAP3 DUP4 SWAP3 SWAP1 DUP8 AND SWAP2 PUSH2 0x30B6 SWAP2 SWAP1 PUSH2 0x37EC JUMP JUMPDEST PUSH1 0x0 PUSH1 0x40 MLOAD DUP1 DUP4 SUB DUP2 PUSH1 0x0 DUP7 GAS CALL SWAP2 POP POP RETURNDATASIZE DUP1 PUSH1 0x0 DUP2 EQ PUSH2 0x30F3 JUMPI PUSH1 0x40 MLOAD SWAP2 POP PUSH1 0x1F NOT PUSH1 0x3F RETURNDATASIZE ADD AND DUP3 ADD PUSH1 0x40 MSTORE RETURNDATASIZE DUP3 MSTORE RETURNDATASIZE PUSH1 0x0 PUSH1 0x20 DUP5 ADD RETURNDATACOPY PUSH2 0x30F8 JUMP JUMPDEST PUSH1 0x60 SWAP2 POP JUMPDEST POP SWAP2 POP SWAP2 POP DUP2 DUP1 ISZERO PUSH2 0x3122 JUMPI POP DUP1 MLOAD ISZERO DUP1 PUSH2 0x3122 JUMPI POP DUP1 DUP1 PUSH1 0x20 ADD SWAP1 MLOAD DUP2 ADD SWAP1 PUSH2 0x3122 SWAP2 SWAP1 PUSH2 0x3608 JUMP JUMPDEST PUSH2 0xBA2 JUMPI PUSH1 0x40 MLOAD PUSH3 0x461BCD PUSH1 0xE5 SHL DUP2 MSTORE PUSH1 0x4 ADD PUSH2 0x2F4 SWAP1 PUSH2 0x3730 JUMP JUMPDEST PUSH1 0x0 PUSH2 0x100 PUSH2 0x3150 DUP4 PUSH1 0x2 SIGNEXTEND PUSH1 0x8 SAR SWAP1 JUMP JUMPDEST PUSH2 0x99 SWAP2 SWAP1 PUSH2 0x381B JUMP JUMPDEST PUSH1 0x0 PUSH2 0x99 PUSH2 0x100 DUP4 PUSH2 0x370E JUMP JUMPDEST PUSH1 0x0 DUP1 PUSH1 0x2 DUP4 SWAP1 SIGNEXTEND PUSH1 0x10 SAR SWAP1 POP DUP4 DUP2 PUSH1 0x40 MLOAD PUSH1 0x20 ADD PUSH2 0x3194 SWAP3 SWAP2 SWAP1 SWAP2 DUP3 MSTORE PUSH1 0xF8 SHL PUSH1 0x20 DUP3 ADD MSTORE PUSH1 0x21 ADD SWAP1 JUMP JUMPDEST PUSH1 0x40 MLOAD PUSH1 0x20 DUP2 DUP4 SUB SUB DUP2 MSTORE SWAP1 PUSH1 0x40 MSTORE DUP1 MLOAD SWAP1 PUSH1 0x20 ADD KECCAK256 SWAP2 POP POP SWAP3 SWAP2 POP POP JUMP JUMPDEST PUSH1 0x0 DUP1 PUSH1 0x2 DUP4 SWAP1 SIGNEXTEND PUSH1 0x8 SAR SWAP1 POP DUP4 DUP2 PUSH1 0x40 MLOAD PUSH1 0x20 ADD PUSH2 0x3194 SWAP3 SWAP2 SWAP1 SWAP2 DUP3 MSTORE PUSH1 0xF0 SHL PUSH1 0x20 DUP3 ADD MSTORE PUSH1 0x22 ADD SWAP1 JUMP JUMPDEST PUSH1 0x0 DUP2 PUSH1 0x1 PUSH1 0x1 PUSH1 0x80 SHL SUB AND DUP4 PUSH1 0x1 PUSH1 0x1 PUSH1 0x80 SHL SUB AND DUP6 PUSH1 0x1 PUSH1 0x1 PUSH1 0x40 SHL SUB AND MUL DUP2 PUSH2 0x320D JUMPI PUSH2 0x320D PUSH2 0x36AF JUMP JUMPDEST DIV SWAP5 SWAP4 POP POP POP POP JUMP JUMPDEST PUSH1 0x0 DUP1 PUSH2 0x3223 DUP4 DUP6 PUSH2 0x3660 JUMP JUMPDEST SWAP1 POP PUSH1 0x0 PUSH2 0x3231 DUP7 DUP6 PUSH2 0x1E59 JUMP JUMPDEST PUSH1 0x1 PUSH1 0x1 PUSH1 0xC0 SHL SUB AND SWAP1 POP PUSH1 0x0 DUP6 PUSH1 0x1 PUSH1 0x1 PUSH1 0x80 SHL SUB AND DUP4 PUSH1 0x1 PUSH1 0x1 PUSH1 0x80 SHL SUB AND DUP4 PUSH2 0x325D SWAP2 SWAP1 PUSH2 0x383D JUMP JUMPDEST PUSH2 0x3267 SWAP2 SWAP1 PUSH2 0x3854 JUMP JUMPDEST SWAP1 POP PUSH2 0x2A8C DUP2 PUSH2 0x204E JUMP JUMPDEST PUSH1 0x0 PUSH2 0xAE2 DUP3 PUSH2 0x3294 JUMPI PUSH2 0x3286 DUP6 DUP6 PUSH2 0x1E59 JUMP JUMPDEST PUSH1 0x1 PUSH1 0x1 PUSH1 0xC0 SHL SUB AND PUSH2 0x204E JUMP JUMPDEST PUSH1 0x1 PUSH1 0x1 PUSH1 0x80 SHL SUB DUP1 DUP7 AND SWAP1 DUP6 AND MUL PUSH1 0x40 SHR PUSH2 0x3286 JUMP JUMPDEST PUSH1 0x40 DUP1 MLOAD PUSH1 0x1 PUSH1 0x1 PUSH1 0xA0 SHL SUB DUP6 DUP2 AND PUSH1 0x24 DUP4 ADD MSTORE DUP5 DUP2 AND PUSH1 0x44 DUP4 ADD MSTORE PUSH1 0x64 DUP1 DUP4 ADD DUP6 SWAP1 MSTORE DUP4 MLOAD DUP1 DUP5 SUB SWAP1 SWAP2 ADD DUP2 MSTORE PUSH1 0x84 SWAP1 SWAP3 ADD DUP4 MSTORE PUSH1 0x20 DUP3 ADD DUP1 MLOAD PUSH1 0x1 PUSH1 0x1 PUSH1 0xE0 SHL SUB AND PUSH4 0x23B872DD PUSH1 0xE0 SHL OR SWAP1 MSTORE SWAP2 MLOAD PUSH1 0x0 SWAP3 DUP4 SWAP3 SWAP1 DUP9 AND SWAP2 PUSH2 0x330F SWAP2 SWAP1 PUSH2 0x37EC JUMP JUMPDEST PUSH1 0x0 PUSH1 0x40 MLOAD DUP1 DUP4 SUB DUP2 PUSH1 0x0 DUP7 GAS CALL SWAP2 POP POP RETURNDATASIZE DUP1 PUSH1 0x0 DUP2 EQ PUSH2 0x334C JUMPI PUSH1 0x40 MLOAD SWAP2 POP PUSH1 0x1F NOT PUSH1 0x3F RETURNDATASIZE ADD AND DUP3 ADD PUSH1 0x40 MSTORE RETURNDATASIZE DUP3 MSTORE RETURNDATASIZE PUSH1 0x0 PUSH1 0x20 DUP5 ADD RETURNDATACOPY PUSH2 0x3351 JUMP JUMPDEST PUSH1 0x60 SWAP2 POP JUMPDEST POP SWAP2 POP SWAP2 POP DUP2 DUP1 ISZERO PUSH2 0x337B JUMPI POP DUP1 MLOAD ISZERO DUP1 PUSH2 0x337B JUMPI POP DUP1 DUP1 PUSH1 0x20 ADD SWAP1 MLOAD DUP2 ADD SWAP1 PUSH2 0x337B SWAP2 SWAP1 PUSH2 0x3608 JUMP JUMPDEST PUSH2 0x71B JUMPI PUSH1 0x40 MLOAD PUSH3 0x461BCD PUSH1 0xE5 SHL DUP2 MSTORE PUSH1 0x4 ADD PUSH2 0x2F4 SWAP1 PUSH2 0x3730 JUMP JUMPDEST PUSH1 0x40 DUP1 MLOAD PUSH2 0x140 DUP2 ADD DUP3 MSTORE PUSH1 0x0 PUSH1 0x60 DUP3 ADD DUP2 DUP2 MSTORE PUSH1 0x80 DUP4 ADD DUP3 SWAP1 MSTORE PUSH1 0xA0 DUP4 ADD DUP3 SWAP1 MSTORE PUSH1 0xC0 DUP4 ADD DUP3 SWAP1 MSTORE PUSH1 0xE0 DUP4 ADD DUP3 SWAP1 MSTORE PUSH2 0x100 DUP4 ADD DUP3 SWAP1 MSTORE PUSH2 0x120 DUP4 ADD DUP3 SWAP1 MSTORE DUP3 MSTORE PUSH1 0x20 DUP3 ADD DUP2 SWAP1 MSTORE SWAP2 DUP2 ADD SWAP2 SWAP1 SWAP2 MSTORE SWAP1 JUMP JUMPDEST PUSH1 0x1 PUSH1 0x1 PUSH1 0xA0 SHL SUB DUP2 AND DUP2 EQ PUSH2 0x33FF JUMPI PUSH1 0x0 DUP1 REVERT JUMPDEST POP JUMP JUMPDEST PUSH1 0x0 DUP1 PUSH1 0x40 DUP4 DUP6 SUB SLT ISZERO PUSH2 0x3415 JUMPI PUSH1 0x0 DUP1 REVERT JUMPDEST DUP3 CALLDATALOAD PUSH2 0x3420 DUP2 PUSH2 0x33EA JUMP JUMPDEST SWAP2 POP PUSH1 0x20 DUP4 ADD CALLDATALOAD PUSH2 0xFFFF DUP2 AND DUP2 EQ PUSH2 0x3437 JUMPI PUSH1 0x0 DUP1 REVERT JUMPDEST DUP1 SWAP2 POP POP SWAP3 POP SWAP3 SWAP1 POP JUMP JUMPDEST PUSH1 0x0 DUP1 PUSH1 0x20 DUP4 DUP6 SUB SLT ISZERO PUSH2 0x3455 JUMPI PUSH1 0x0 DUP1 REVERT JUMPDEST DUP3 CALLDATALOAD PUSH1 0x1 PUSH1 0x1 PUSH1 0x40 SHL SUB DUP1 DUP3 GT ISZERO PUSH2 0x346C JUMPI PUSH1 0x0 DUP1 REVERT JUMPDEST DUP2 DUP6 ADD SWAP2 POP DUP6 PUSH1 0x1F DUP4 ADD SLT PUSH2 0x3480 JUMPI PUSH1 0x0 DUP1 REVERT JUMPDEST DUP2 CALLDATALOAD DUP2 DUP2 GT ISZERO PUSH2 0x348F JUMPI PUSH1 0x0 DUP1 REVERT JUMPDEST DUP7 PUSH1 0x20 DUP3 DUP6 ADD ADD GT ISZERO PUSH2 0x34A1 JUMPI PUSH1 0x0 DUP1 REVERT JUMPDEST PUSH1 0x20 SWAP3 SWAP1 SWAP3 ADD SWAP7 SWAP2 SWAP6 POP SWAP1 SWAP4 POP POP POP POP JUMP JUMPDEST DUP1 CALLDATALOAD PUSH1 0xFF DUP2 AND DUP2 EQ PUSH2 0x9EC JUMPI PUSH1 0x0 DUP1 REVERT JUMPDEST DUP1 CALLDATALOAD PUSH1 0x2 DUP2 SWAP1 SIGNEXTEND DUP2 EQ PUSH2 0x9EC JUMPI PUSH1 0x0 DUP1 REVERT JUMPDEST DUP1 CALLDATALOAD PUSH1 0x1 PUSH1 0x1 PUSH1 0x80 SHL SUB DUP2 AND DUP2 EQ PUSH2 0x9EC JUMPI PUSH1 0x0 DUP1 REVERT JUMPDEST PUSH1 0x0 DUP1 PUSH1 0x0 DUP1 PUSH1 0x0 DUP1 PUSH1 0x0 DUP1 PUSH1 0x0 DUP1 PUSH1 0x0 PUSH2 0x160 DUP13 DUP15 SUB SLT ISZERO PUSH2 0x350F JUMPI PUSH1 0x0 DUP1 REVERT JUMPDEST PUSH2 0x3518 DUP13 PUSH2 0x34B3 JUMP JUMPDEST SWAP11 POP PUSH1 0x20 DUP13 ADD CALLDATALOAD PUSH2 0x3528 DUP2 PUSH2 0x33EA JUMP JUMPDEST SWAP10 POP PUSH1 0x40 DUP13 ADD CALLDATALOAD PUSH2 0x3538 DUP2 PUSH2 0x33EA JUMP JUMPDEST SWAP9 POP PUSH1 0x60 DUP13 ADD CALLDATALOAD SWAP8 POP PUSH2 0x354D PUSH1 0x80 DUP14 ADD PUSH2 0x34C4 JUMP JUMPDEST SWAP7 POP PUSH2 0x355B PUSH1 0xA0 DUP14 ADD PUSH2 0x34C4 JUMP JUMPDEST SWAP6 POP PUSH2 0x3569 PUSH1 0xC0 DUP14 ADD PUSH2 0x34D6 JUMP JUMPDEST SWAP5 POP PUSH2 0x3577 PUSH1 0xE0 DUP14 ADD PUSH2 0x34D6 JUMP JUMPDEST SWAP4 POP PUSH2 0x3586 PUSH2 0x100 DUP14 ADD PUSH2 0x34D6 JUMP JUMPDEST SWAP3 POP PUSH2 0x3595 PUSH2 0x120 DUP14 ADD PUSH2 0x34B3 JUMP JUMPDEST SWAP2 POP PUSH2 0x140 DUP13 ADD CALLDATALOAD PUSH2 0x35A6 DUP2 PUSH2 0x33EA JUMP JUMPDEST DUP1 SWAP2 POP POP SWAP3 SWAP6 SWAP9 SWAP12 POP SWAP3 SWAP6 SWAP9 SWAP12 SWAP1 SWAP4 SWAP7 SWAP10 POP JUMP JUMPDEST PUSH1 0x1 PUSH1 0x1 PUSH1 0xA0 SHL SUB SWAP8 DUP9 AND DUP2 MSTORE SWAP6 DUP8 AND PUSH1 0x20 DUP8 ADD MSTORE SWAP4 DUP7 AND PUSH1 0x40 DUP7 ADD MSTORE SWAP2 SWAP1 SWAP5 AND PUSH1 0x60 DUP5 ADD MSTORE PUSH1 0x2 SWAP4 DUP5 SIGNEXTEND PUSH1 0x80 DUP5 ADD MSTORE SWAP1 SWAP3 SIGNEXTEND PUSH1 0xA0 DUP3 ADD MSTORE PUSH1 0x1 PUSH1 0x1 PUSH1 0x80 SHL SUB SWAP1 SWAP2 AND PUSH1 0xC0 DUP3 ADD MSTORE PUSH1 0xE0 ADD SWAP1 JUMP JUMPDEST PUSH1 0x0 PUSH1 0x20 DUP3 DUP5 SUB SLT ISZERO PUSH2 0x361A JUMPI PUSH1 0x0 DUP1 REVERT JUMPDEST DUP2 MLOAD DUP1 ISZERO ISZERO DUP2 EQ PUSH2 0x645 JUMPI PUSH1 0x0 DUP1 REVERT JUMPDEST PUSH4 0x4E487B71 PUSH1 0xE0 SHL PUSH1 0x0 MSTORE PUSH1 0x11 PUSH1 0x4 MSTORE PUSH1 0x24 PUSH1 0x0 REVERT JUMPDEST PUSH1 0x1 PUSH1 0x1 PUSH1 0x80 SHL SUB DUP2 DUP2 AND DUP4 DUP3 AND ADD SWAP1 DUP1 DUP3 GT ISZERO PUSH2 0x1346 JUMPI PUSH2 0x1346 PUSH2 0x362A JUMP JUMPDEST PUSH1 0x1 PUSH1 0x1 PUSH1 0x80 SHL SUB DUP3 DUP2 AND DUP3 DUP3 AND SUB SWAP1 DUP1 DUP3 GT ISZERO PUSH2 0x1346 JUMPI PUSH2 0x1346 PUSH2 0x362A JUMP JUMPDEST PUSH1 0x0 DUP2 PUSH1 0xF SIGNEXTEND PUSH16 0x7FFFFFFFFFFFFFFFFFFFFFFFFFFFFFFF NOT DUP2 SUB PUSH2 0x36A6 JUMPI PUSH2 0x36A6 PUSH2 0x362A JUMP JUMPDEST PUSH1 0x0 SUB SWAP3 SWAP2 POP POP JUMP JUMPDEST PUSH4 0x4E487B71 PUSH1 0xE0 SHL PUSH1 0x0 MSTORE PUSH1 0x12 PUSH1 0x4 MSTORE PUSH1 0x24 PUSH1 0x0 REVERT JUMPDEST PUSH1 0x1 PUSH1 0x1 PUSH1 0xA0 SHL SUB SWAP7 SWAP1 SWAP7 AND DUP7 MSTORE PUSH1 0x20 DUP7 ADD SWAP5 SWAP1 SWAP5 MSTORE PUSH1 0x2 SWAP3 DUP4 SIGNEXTEND PUSH1 0x40 DUP7 ADD MSTORE SWAP2 SIGNEXTEND PUSH1 0x60 DUP5 ADD MSTORE PUSH1 0x1 PUSH1 0x1 PUSH1 0x80 SHL SUB AND PUSH1 0x80 DUP4 ADD MSTORE PUSH1 0x1 PUSH1 0x1 PUSH1 0x40 SHL SUB AND PUSH1 0xA0 DUP3 ADD MSTORE PUSH1 0xC0 ADD SWAP1 JUMP JUMPDEST PUSH1 0x0 DUP3 PUSH1 0x2 SIGNEXTEND DUP1 PUSH2 0x3721 JUMPI PUSH2 0x3721 PUSH2 0x36AF JUMP JUMPDEST DUP1 DUP4 PUSH1 0x2 SIGNEXTEND SMOD SWAP2 POP POP SWAP3 SWAP2 POP POP JUMP JUMPDEST PUSH1 0x20 DUP1 DUP3 MSTORE PUSH1 0x2 SWAP1 DUP3 ADD MSTORE PUSH2 0x2A23 PUSH1 0xF1 SHL PUSH1 0x40 DUP3 ADD MSTORE PUSH1 0x60 ADD SWAP1 JUMP JUMPDEST PUSH4 0xFFFFFFFF DUP3 DUP2 AND DUP3 DUP3 AND SUB SWAP1 DUP1 DUP3 GT ISZERO PUSH2 0x1346 JUMPI PUSH2 0x1346 PUSH2 0x362A JUMP JUMPDEST PUSH1 0x0 PUSH4 0xFFFFFFFF DUP1 DUP5 AND DUP1 PUSH2 0x3780 JUMPI PUSH2 0x3780 PUSH2 0x36AF JUMP JUMPDEST SWAP3 AND SWAP2 SWAP1 SWAP2 DIV SWAP3 SWAP2 POP POP JUMP JUMPDEST PUSH1 0x1 PUSH1 0x1 PUSH1 0x40 SHL SUB DUP3 DUP2 AND DUP3 DUP3 AND SUB SWAP1 DUP1 DUP3 GT ISZERO PUSH2 0x1346 JUMPI PUSH2 0x1346 PUSH2 0x362A JUMP JUMPDEST PUSH1 0x1 PUSH1 0x1 PUSH1 0x40 SHL SUB DUP2 DUP2 AND DUP4 DUP3 AND ADD SWAP1 DUP1 DUP3 GT ISZERO PUSH2 0x1346 JUMPI PUSH2 0x1346 PUSH2 0x362A JUMP JUMPDEST PUSH1 0x1 PUSH1 0x1 PUSH1 0x60 SHL SUB DUP3 DUP2 AND DUP3 DUP3 AND SUB SWAP1 DUP1 DUP3 GT ISZERO PUSH2 0x1346 JUMPI PUSH2 0x1346 PUSH2 0x362A JUMP JUMPDEST PUSH1 0x0 DUP3 MLOAD PUSH1 0x0 JUMPDEST DUP2 DUP2 LT ISZERO PUSH2 0x380D JUMPI PUSH1 0x20 DUP2 DUP7 ADD DUP2 ADD MLOAD DUP6 DUP4 ADD MSTORE ADD PUSH2 0x37F3 JUMP JUMPDEST POP PUSH1 0x0 SWAP3 ADD SWAP2 DUP3 MSTORE POP SWAP2 SWAP1 POP JUMP JUMPDEST PUSH1 0x0 DUP3 PUSH1 0x1 SIGNEXTEND DUP1 PUSH2 0x382E JUMPI PUSH2 0x382E PUSH2 0x36AF JUMP JUMPDEST DUP1 DUP4 PUSH1 0x1 SIGNEXTEND SMOD SWAP2 POP POP SWAP3 SWAP2 POP POP JUMP JUMPDEST DUP1 DUP3 MUL DUP2 ISZERO DUP3 DUP3 DIV DUP5 EQ OR PUSH2 0x99 JUMPI PUSH2 0x99 PUSH2 0x362A JUMP JUMPDEST PUSH1 0x0 DUP3 PUSH2 0x3863 JUMPI PUSH2 0x3863 PUSH2 0x36AF JUMP JUMPDEST POP DIV SWAP1 JUMP INVALID LOG2 PUSH5 0x6970667358 0x22 SLT KECCAK256 0xD3 PUSH8 0xFE53E5972C273DAD DUP5 0x1F CHAINID 0xD4 GASPRICE 0xD4 SLOAD 0xB7 DUP10 PUSH32 0xFB5EFC8394C1DDF7D088515664736F6C63430008130033000000000000000000 "
		},
		"gasEstimates": {
			"creation": {
				"codeDepositCost": "2898800",
				"executionCost": "27405",
				"totalCost": "2926205"
			},
			"external": {
				"acceptHaqqProxyRole(address,uint16)": "412",
				"userCmd(bytes)": "infinite"
			},
			"internal": {
				"burnConcentratedLiq(address,address,uint256,int24,int24,uint128,address,uint128,uint128)": "infinite",
				"burnConcentratedQty(address,address,uint256,int24,int24,bool,uint128,address,uint128,uint128)": "infinite",
				"burnHaqqXLiq(address,address,uint256,uint128,address,uint128,uint128)": "infinite",
				"burnHaqqXQty(address,address,uint256,bool,uint128,address,uint128,uint128)": "infinite",
				"commitLP(uint8,address,address,uint256,int24,int24,uint128,uint128,uint128,address)": "infinite",
				"harvest(address,address,uint256,int24,int24,address,uint128,uint128)": "infinite",
				"mintConcentratedLiq(address,address,uint256,int24,int24,uint128,address,uint128,uint128)": "infinite",
				"mintConcentratedQty(address,address,uint256,int24,int24,bool,uint128,address,uint128,uint128)": "infinite",
				"mintHaqqXLiq(address,address,uint256,uint128,address,uint128,uint128)": "infinite",
				"mintHaqqXQty(address,address,uint256,bool,uint128,address,uint128,uint128)": "infinite",
				"sizeAddLiq(address,address,uint256,uint128,int24,int24,bool)": "infinite"
			}
		},
		"methodIdentifiers": {
			"acceptHaqqProxyRole(address,uint16)": "24af4153",
			"userCmd(bytes)": "f96dc788"
		}
	},
	"abi": [
		{
			"anonymous": false,
			"inputs": [
				{
					"indexed": true,
					"internalType": "bytes32",
					"name": "pool",
					"type": "bytes32"
				},
				{
					"indexed": true,
					"internalType": "int24",
					"name": "tick",
					"type": "int24"
				},
				{
					"indexed": false,
					"internalType": "bool",
					"name": "isBid",
					"type": "bool"
				},
				{
					"indexed": false,
					"internalType": "uint32",
					"name": "pivotTime",
					"type": "uint32"
				},
				{
					"indexed": false,
					"internalType": "uint64",
					"name": "feeMileage",
					"type": "uint64"
				},
				{
					"indexed": false,
					"internalType": "uint160",
					"name": "commitEntropy",
					"type": "uint160"
				}
			],
			"name": "HaqqKnockoutCross",
			"type": "event"
		},
		{
			"inputs": [
				{
					"internalType": "address",
					"name": "",
					"type": "address"
				},
				{
					"internalType": "uint16",
					"name": "slot",
					"type": "uint16"
				}
			],
			"name": "acceptHaqqProxyRole",
			"outputs": [
				{
					"internalType": "bool",
					"name": "",
					"type": "bool"
				}
			],
			"stateMutability": "pure",
			"type": "function"
		},
		{
			"inputs": [
				{
					"internalType": "bytes",
					"name": "input",
					"type": "bytes"
				}
			],
			"name": "userCmd",
			"outputs": [
				{
					"internalType": "int128",
					"name": "baseFlow",
					"type": "int128"
				},
				{
					"internalType": "int128",
					"name": "quoteFlow",
					"type": "int128"
				}
			],
			"stateMutability": "payable",
			"type": "function"
		}
	]
}