{
	"data": {
		"bytecode": {
			"linkReferences": {},
			"object": "60a06040523480156200001157600080fd5b506040516200141c3803806200141c83398101604081905262000034916200013c565b6001600160a01b03811615801590620000ad5750806001600160a01b0316637a5783e76040518163ffffffff1660e01b8152600401602060405180830381865afa15801562000087573d6000803e3d6000fd5b505050506040513d601f19601f82011682018060405250810190620000ad91906200016e565b620000fe5760405162461bcd60e51b815260206004820152601360248201527f496e76616c696420486171715377617044657800000000000000000000000000604482015260640160405180910390fd5b6001600160a01b031660805260008054336001600160a01b031991821681179092556001805482168317905560028054909116909117905562000192565b6000602082840312156200014f57600080fd5b81516001600160a01b03811681146200016757600080fd5b9392505050565b6000602082840312156200018157600080fd5b815180151581146200016757600080fd5b60805161126e620001ae60003960006101c6015261126e6000f3fe608060405234801561001057600080fd5b50600436106100f55760003560e01c806370ba152911610097578063b30017f411610066578063b30017f41461020e578063c02504f214610221578063cdb3453c14610228578063e7db7f9f1461023b57600080fd5b806370ba1529146101ae57806387834a0e146101c15780638e6b5b33146101e857806393b890df146101fb57600080fd5b8063456a3d6f116100d3578063456a3d6f146101525780636573b80f146101755780636716c1cc14610188578063700a618e1461019b57600080fd5b80631882ad62146100fa57806323de6f871461010f5780632dc2eff81461013f575b600080fd5b61010d610108366004610d22565b610296565b005b600054610122906001600160a01b031681565b6040516001600160a01b0390911681526020015b60405180910390f35b61010d61014d366004610d87565b610410565b610165610160366004610e78565b6104f2565b6040519015158152602001610136565b600254610122906001600160a01b031681565b61010d610196366004610eb3565b610550565b61010d6101a9366004610f31565b610622565b61010d6101bc366004610d87565b610781565b6101227f000000000000000000000000000000000000000000000000000000000000000081565b600154610122906001600160a01b031681565b61010d610209366004610f74565b6108a9565b61010d61021c366004610d87565b610940565b6001610165565b61010d610236366004610f74565b610a06565b610274610249366004610fc3565b6003602052600090815260409020805460019091015463ffffffff8082169164010000000090041683565b6040805193845263ffffffff9283166020850152911690820152606001610136565b6002546001600160a01b031633146102eb5760405162461bcd60e51b8152602060048201526013602482015272456d657267656e637920417574686f7269747960681b60448201526064015b60405180910390fd5b7f1370db6b9ba8e31318b798d958684f43e87b4776f8dc6f4008dcd1e173ad9e7d83838360405161031e93929190611005565b60405180910390a160006103326000610b7a565b6040516304ff4d3d60e21b81529091506001600160a01b038516906313fd34f49061036790600390859060019060040161102a565b600060405180830381600087803b15801561038157600080fd5b505af1158015610395573d6000803e3d6000fd5b505050506103a36001610bab565b6040516304ff4d3d60e21b81529091506001600160a01b038516906313fd34f4906103d890600390859060019060040161102a565b600060405180830381600087803b1580156103f257600080fd5b505af1158015610406573d6000803e3d6000fd5b5050505050505050565b6000546001600160a01b031633148061043357506001546001600160a01b031633145b8061044857506002546001600160a01b031633145b6104845760405162461bcd60e51b815260206004820152600d60248201526c4f707320417574686f7269747960981b60448201526064016102e2565b7f2c3aaad5fd714987aaa5667b5616360a59c40c77ad504609326f3061b551246e8483836040516104b793929190611005565b60405180910390a16040516304ff4d3d60e21b81526001600160a01b038516906313fd34f4906103d89086908690869060009060040161108d565b60006104fd84610bca565b63ffffffff1661050b610be6565b63ffffffff161061051e57506000610549565b60008383601f818110610533576105336110be565b875192013560f81c9250506001821b1615159150505b9392505050565b6001546001600160a01b0316331461057a5760405162461bcd60e51b81526004016102e2906110d4565b7f0a01d9e661064ed93d5139d9fb821d617697f7d3a59029de8db20b1f1ad82590858285856040516105af9493929190611100565b60405180910390a16040516304ff4d3d60e21b81526001600160a01b038616906313fd34f4906105e990879087908790879060040161108d565b600060405180830381600087803b15801561060357600080fd5b505af1158015610617573d6000803e3d6000fd5b505050505050505050565b6001546001600160a01b0316331461064c5760405162461bcd60e51b81526004016102e2906110d4565b600080546001600160a01b038086166001600160a01b031992831617835560018054868316908416811790915560028054928616929093169190911790915560408051630e18b68160e01b815290519192630e18b6819260048084019382900301818387803b1580156106be57600080fd5b505af11580156106d2573d6000803e3d6000fd5b50505050826001600160a01b0316630e18b6816040518163ffffffff1660e01b8152600401600060405180830381600087803b15801561071157600080fd5b505af1158015610725573d6000803e3d6000fd5b50505050806001600160a01b0316630e18b6816040518163ffffffff1660e01b8152600401600060405180830381600087803b15801561076457600080fd5b505af1158015610778573d6000803e3d6000fd5b50505050505050565b6040805133602082015261ffff85169181019190915260009060600160408051601f198184030181528282528051602091820120600081815260038352839020606085018452805485526001015463ffffffff8082169386019390935264010000000090049091169183019190915291506107fd8185856104f2565b61083c5760405162461bcd60e51b815260206004820152601060248201526f506f6c69637920617574686f7269747960801b60448201526064016102e2565b6040516304ff4d3d60e21b81526001600160a01b038716906313fd34f49061086f9088908890889060009060040161108d565b600060405180830381600087803b15801561088957600080fd5b505af115801561089d573d6000803e3d6000fd5b50505050505050505050565b6001546001600160a01b031633146108d35760405162461bcd60e51b81526004016102e2906110d4565b60006108df8484610c05565b600081815260036020526040902090915082906108fc8282611137565b9050507f93d98787bc16e4ba41bf89638959b04a0db101fd48dcecc637d3ac8f9e8eb5298484846040516109329392919061118a565b60405180910390a150505050565b6002546001600160a01b031633146109905760405162461bcd60e51b8152602060048201526013602482015272456d657267656e637920417574686f7269747960681b60448201526064016102e2565b600061099c8585610c05565b6000818152600360205260408082209182556001909101805467ffffffffffffffff19169055519091507f2af98248014ebca43daa265b502ff2cd3b7e8c68b945a2b8703fe09d4b3d610e906109f790879086908690611005565b60405180910390a15050505050565b6000546001600160a01b0316331480610a2957506001546001600160a01b031633145b80610a3e57506002546001600160a01b031633145b610a7a5760405162461bcd60e51b815260206004820152600d60248201526c4f707320417574686f7269747960981b60448201526064016102e2565b6000610a868484610c05565b600081815260036020908152604091829020825160608101845281548152600182015463ffffffff8082169483019490945264010000000090049092169282019290925291925090610ae690610ae1368690038601866111ea565b610c41565b610b2a5760405162461bcd60e51b8152602060048201526015602482015274496c6c6567616c20706f6c6963792075706461746560581b60448201526064016102e2565b60008281526003602052604090208390610b448282611137565b9050507f0bfaba3422db1e9b489282bd512bad8212f2aa01538115bde73ef9060ce0a8948585856040516109f79392919061118a565b60408051601660208201528215159181019190915260609081015b6040516020818303038152906040529050919050565b6040805160176020820152821515918101919091526060908101610b95565b600081604001518260200151610be09190611206565b92915050565b60004263ffffffff811115610c005763ffffffff91505090565b919050565b604080516001600160a01b039390931660208085019190915261ffff929092168382015280518084038201815260609093019052815191012090565b6000610c4d8383610c6b565b15610c6257610c5b83610ca0565b9050610be0565b50600192915050565b80518251602080850151908401516000931990921615159163ffffffff9182169116108180610c975750805b95945050505050565b6000816020015163ffffffff16610cb5610be6565b63ffffffff161192915050565b80356001600160a01b0381168114610c0057600080fd5b60008083601f840112610ceb57600080fd5b50813567ffffffffffffffff811115610d0357600080fd5b602083019150836020828501011115610d1b57600080fd5b9250929050565b600080600060408486031215610d3757600080fd5b610d4084610cc2565b9250602084013567ffffffffffffffff811115610d5c57600080fd5b610d6886828701610cd9565b9497909650939450505050565b803561ffff81168114610c0057600080fd5b60008060008060608587031215610d9d57600080fd5b610da685610cc2565b9350610db460208601610d75565b9250604085013567ffffffffffffffff811115610dd057600080fd5b610ddc87828801610cd9565b95989497509550505050565b63ffffffff81168114610dfa57600080fd5b50565b600060608284031215610e0f57600080fd5b6040516060810181811067ffffffffffffffff82111715610e4057634e487b7160e01b600052604160045260246000fd5b604052823581529050806020830135610e5881610de8565b60208201526040830135610e6b81610de8565b6040919091015292915050565b600080600060808486031215610e8d57600080fd5b610e978585610dfd565b9250606084013567ffffffffffffffff811115610d5c57600080fd5b600080600080600060808688031215610ecb57600080fd5b610ed486610cc2565b9450610ee260208701610d75565b9350604086013567ffffffffffffffff811115610efe57600080fd5b610f0a88828901610cd9565b90945092505060608601358015158114610f2357600080fd5b809150509295509295909350565b600080600060608486031215610f4657600080fd5b610f4f84610cc2565b9250610f5d60208501610cc2565b9150610f6b60408501610cc2565b90509250925092565b600080600083850360a0811215610f8a57600080fd5b610f9385610cc2565b9350610fa160208601610d75565b92506060603f1982011215610fb557600080fd5b506040840190509250925092565b600060208284031215610fd557600080fd5b5035919050565b81835281816020850137506000828201602090810191909152601f909101601f19169091010190565b6001600160a01b0384168152604060208201819052600090610c979083018486610fdc565b61ffff8416815260006020606081840152845180606085015260005b8181101561106257868101830151858201608001528201611046565b506000608082860101526080601f19601f830116850101925050508215156040830152949350505050565b61ffff851681526060602082015260006110ab606083018587610fdc565b9050821515604083015295945050505050565b634e487b7160e01b600052603260045260246000fd5b602080825260129082015271547265617375727920417574686f7269747960701b604082015260600190565b6001600160a01b0385168152831515602082015260606040820181905260009061112d9083018486610fdc565b9695505050505050565b8135815560018101602083013561114d81610de8565b8154604085013561115d81610de8565b67ffffffff000000008160201b1663ffffffff841667ffffffffffffffff19841617178455505050505050565b6001600160a01b038416815261ffff83166020808301919091528235604083015260a08201908301356111bc81610de8565b63ffffffff90811660608401526040840135906111d882610de8565b80821660808501525050949350505050565b6000606082840312156111fc57600080fd5b6105498383610dfd565b63ffffffff81811683821601908082111561123157634e487b7160e01b600052601160045260246000fd5b509291505056fea2646970667358221220ad678d584218c0e68c3897960bf81ec865f92a09f5b21247421f2c035008599064736f6c63430008130033",
			"opcodes": "PUSH1 0xA0 PUSH1 0x40 MSTORE CALLVALUE DUP1 ISZERO PUSH3 0x11 JUMPI PUSH1 0x0 DUP1 REVERT JUMPDEST POP PUSH1 0x40 MLOAD PUSH3 0x141C CODESIZE SUB DUP1 PUSH3 0x141C DUP4 CODECOPY DUP2 ADD PUSH1 0x40 DUP2 SWAP1 MSTORE PUSH3 0x34 SWAP2 PUSH3 0x13C JUMP JUMPDEST PUSH1 0x1 PUSH1 0x1 PUSH1 0xA0 SHL SUB DUP2 AND ISZERO DUP1 ISZERO SWAP1 PUSH3 0xAD JUMPI POP DUP1 PUSH1 0x1 PUSH1 0x1 PUSH1 0xA0 SHL SUB AND PUSH4 0x7A5783E7 PUSH1 0x40 MLOAD DUP2 PUSH4 0xFFFFFFFF AND PUSH1 0xE0 SHL DUP2 MSTORE PUSH1 0x4 ADD PUSH1 0x20 PUSH1 0x40 MLOAD DUP1 DUP4 SUB DUP2 DUP7 GAS STATICCALL ISZERO DUP1 ISZERO PUSH3 0x87 JUMPI RETURNDATASIZE PUSH1 0x0 DUP1 RETURNDATACOPY RETURNDATASIZE PUSH1 0x0 REVERT JUMPDEST POP POP POP POP PUSH1 0x40 MLOAD RETURNDATASIZE PUSH1 0x1F NOT PUSH1 0x1F DUP3 ADD AND DUP3 ADD DUP1 PUSH1 0x40 MSTORE POP DUP2 ADD SWAP1 PUSH3 0xAD SWAP2 SWAP1 PUSH3 0x16E JUMP JUMPDEST PUSH3 0xFE JUMPI PUSH1 0x40 MLOAD PUSH3 0x461BCD PUSH1 0xE5 SHL DUP2 MSTORE PUSH1 0x20 PUSH1 0x4 DUP3 ADD MSTORE PUSH1 0x13 PUSH1 0x24 DUP3 ADD MSTORE PUSH32 0x496E76616C696420486171715377617044657800000000000000000000000000 PUSH1 0x44 DUP3 ADD MSTORE PUSH1 0x64 ADD PUSH1 0x40 MLOAD DUP1 SWAP2 SUB SWAP1 REVERT JUMPDEST PUSH1 0x1 PUSH1 0x1 PUSH1 0xA0 SHL SUB AND PUSH1 0x80 MSTORE PUSH1 0x0 DUP1 SLOAD CALLER PUSH1 0x1 PUSH1 0x1 PUSH1 0xA0 SHL SUB NOT SWAP2 DUP3 AND DUP2 OR SWAP1 SWAP3 SSTORE PUSH1 0x1 DUP1 SLOAD DUP3 AND DUP4 OR SWAP1 SSTORE PUSH1 0x2 DUP1 SLOAD SWAP1 SWAP2 AND SWAP1 SWAP2 OR SWAP1 SSTORE PUSH3 0x192 JUMP JUMPDEST PUSH1 0x0 PUSH1 0x20 DUP3 DUP5 SUB SLT ISZERO PUSH3 0x14F JUMPI PUSH1 0x0 DUP1 REVERT JUMPDEST DUP2 MLOAD PUSH1 0x1 PUSH1 0x1 PUSH1 0xA0 SHL SUB DUP2 AND DUP2 EQ PUSH3 0x167 JUMPI PUSH1 0x0 DUP1 REVERT JUMPDEST SWAP4 SWAP3 POP POP POP JUMP JUMPDEST PUSH1 0x0 PUSH1 0x20 DUP3 DUP5 SUB SLT ISZERO PUSH3 0x181 JUMPI PUSH1 0x0 DUP1 REVERT JUMPDEST DUP2 MLOAD DUP1 ISZERO ISZERO DUP2 EQ PUSH3 0x167 JUMPI PUSH1 0x0 DUP1 REVERT JUMPDEST PUSH1 0x80 MLOAD PUSH2 0x126E PUSH3 0x1AE PUSH1 0x0 CODECOPY PUSH1 0x0 PUSH2 0x1C6 ADD MSTORE PUSH2 0x126E PUSH1 0x0 RETURN INVALID PUSH1 0x80 PUSH1 0x40 MSTORE CALLVALUE DUP1 ISZERO PUSH2 0x10 JUMPI PUSH1 0x0 DUP1 REVERT JUMPDEST POP PUSH1 0x4 CALLDATASIZE LT PUSH2 0xF5 JUMPI PUSH1 0x0 CALLDATALOAD PUSH1 0xE0 SHR DUP1 PUSH4 0x70BA1529 GT PUSH2 0x97 JUMPI DUP1 PUSH4 0xB30017F4 GT PUSH2 0x66 JUMPI DUP1 PUSH4 0xB30017F4 EQ PUSH2 0x20E JUMPI DUP1 PUSH4 0xC02504F2 EQ PUSH2 0x221 JUMPI DUP1 PUSH4 0xCDB3453C EQ PUSH2 0x228 JUMPI DUP1 PUSH4 0xE7DB7F9F EQ PUSH2 0x23B JUMPI PUSH1 0x0 DUP1 REVERT JUMPDEST DUP1 PUSH4 0x70BA1529 EQ PUSH2 0x1AE JUMPI DUP1 PUSH4 0x87834A0E EQ PUSH2 0x1C1 JUMPI DUP1 PUSH4 0x8E6B5B33 EQ PUSH2 0x1E8 JUMPI DUP1 PUSH4 0x93B890DF EQ PUSH2 0x1FB JUMPI PUSH1 0x0 DUP1 REVERT JUMPDEST DUP1 PUSH4 0x456A3D6F GT PUSH2 0xD3 JUMPI DUP1 PUSH4 0x456A3D6F EQ PUSH2 0x152 JUMPI DUP1 PUSH4 0x6573B80F EQ PUSH2 0x175 JUMPI DUP1 PUSH4 0x6716C1CC EQ PUSH2 0x188 JUMPI DUP1 PUSH4 0x700A618E EQ PUSH2 0x19B JUMPI PUSH1 0x0 DUP1 REVERT JUMPDEST DUP1 PUSH4 0x1882AD62 EQ PUSH2 0xFA JUMPI DUP1 PUSH4 0x23DE6F87 EQ PUSH2 0x10F JUMPI DUP1 PUSH4 0x2DC2EFF8 EQ PUSH2 0x13F JUMPI JUMPDEST PUSH1 0x0 DUP1 REVERT JUMPDEST PUSH2 0x10D PUSH2 0x108 CALLDATASIZE PUSH1 0x4 PUSH2 0xD22 JUMP JUMPDEST PUSH2 0x296 JUMP JUMPDEST STOP JUMPDEST PUSH1 0x0 SLOAD PUSH2 0x122 SWAP1 PUSH1 0x1 PUSH1 0x1 PUSH1 0xA0 SHL SUB AND DUP2 JUMP JUMPDEST PUSH1 0x40 MLOAD PUSH1 0x1 PUSH1 0x1 PUSH1 0xA0 SHL SUB SWAP1 SWAP2 AND DUP2 MSTORE PUSH1 0x20 ADD JUMPDEST PUSH1 0x40 MLOAD DUP1 SWAP2 SUB SWAP1 RETURN JUMPDEST PUSH2 0x10D PUSH2 0x14D CALLDATASIZE PUSH1 0x4 PUSH2 0xD87 JUMP JUMPDEST PUSH2 0x410 JUMP JUMPDEST PUSH2 0x165 PUSH2 0x160 CALLDATASIZE PUSH1 0x4 PUSH2 0xE78 JUMP JUMPDEST PUSH2 0x4F2 JUMP JUMPDEST PUSH1 0x40 MLOAD SWAP1 ISZERO ISZERO DUP2 MSTORE PUSH1 0x20 ADD PUSH2 0x136 JUMP JUMPDEST PUSH1 0x2 SLOAD PUSH2 0x122 SWAP1 PUSH1 0x1 PUSH1 0x1 PUSH1 0xA0 SHL SUB AND DUP2 JUMP JUMPDEST PUSH2 0x10D PUSH2 0x196 CALLDATASIZE PUSH1 0x4 PUSH2 0xEB3 JUMP JUMPDEST PUSH2 0x550 JUMP JUMPDEST PUSH2 0x10D PUSH2 0x1A9 CALLDATASIZE PUSH1 0x4 PUSH2 0xF31 JUMP JUMPDEST PUSH2 0x622 JUMP JUMPDEST PUSH2 0x10D PUSH2 0x1BC CALLDATASIZE PUSH1 0x4 PUSH2 0xD87 JUMP JUMPDEST PUSH2 0x781 JUMP JUMPDEST PUSH2 0x122 PUSH32 0x0 DUP2 JUMP JUMPDEST PUSH1 0x1 SLOAD PUSH2 0x122 SWAP1 PUSH1 0x1 PUSH1 0x1 PUSH1 0xA0 SHL SUB AND DUP2 JUMP JUMPDEST PUSH2 0x10D PUSH2 0x209 CALLDATASIZE PUSH1 0x4 PUSH2 0xF74 JUMP JUMPDEST PUSH2 0x8A9 JUMP JUMPDEST PUSH2 0x10D PUSH2 0x21C CALLDATASIZE PUSH1 0x4 PUSH2 0xD87 JUMP JUMPDEST PUSH2 0x940 JUMP JUMPDEST PUSH1 0x1 PUSH2 0x165 JUMP JUMPDEST PUSH2 0x10D PUSH2 0x236 CALLDATASIZE PUSH1 0x4 PUSH2 0xF74 JUMP JUMPDEST PUSH2 0xA06 JUMP JUMPDEST PUSH2 0x274 PUSH2 0x249 CALLDATASIZE PUSH1 0x4 PUSH2 0xFC3 JUMP JUMPDEST PUSH1 0x3 PUSH1 0x20 MSTORE PUSH1 0x0 SWAP1 DUP2 MSTORE PUSH1 0x40 SWAP1 KECCAK256 DUP1 SLOAD PUSH1 0x1 SWAP1 SWAP2 ADD SLOAD PUSH4 0xFFFFFFFF DUP1 DUP3 AND SWAP2 PUSH5 0x100000000 SWAP1 DIV AND DUP4 JUMP JUMPDEST PUSH1 0x40 DUP1 MLOAD SWAP4 DUP5 MSTORE PUSH4 0xFFFFFFFF SWAP3 DUP4 AND PUSH1 0x20 DUP6 ADD MSTORE SWAP2 AND SWAP1 DUP3 ADD MSTORE PUSH1 0x60 ADD PUSH2 0x136 JUMP JUMPDEST PUSH1 0x2 SLOAD PUSH1 0x1 PUSH1 0x1 PUSH1 0xA0 SHL SUB AND CALLER EQ PUSH2 0x2EB JUMPI PUSH1 0x40 MLOAD PUSH3 0x461BCD PUSH1 0xE5 SHL DUP2 MSTORE PUSH1 0x20 PUSH1 0x4 DUP3 ADD MSTORE PUSH1 0x13 PUSH1 0x24 DUP3 ADD MSTORE PUSH19 0x456D657267656E637920417574686F72697479 PUSH1 0x68 SHL PUSH1 0x44 DUP3 ADD MSTORE PUSH1 0x64 ADD JUMPDEST PUSH1 0x40 MLOAD DUP1 SWAP2 SUB SWAP1 REVERT JUMPDEST PUSH32 0x1370DB6B9BA8E31318B798D958684F43E87B4776F8DC6F4008DCD1E173AD9E7D DUP4 DUP4 DUP4 PUSH1 0x40 MLOAD PUSH2 0x31E SWAP4 SWAP3 SWAP2 SWAP1 PUSH2 0x1005 JUMP JUMPDEST PUSH1 0x40 MLOAD DUP1 SWAP2 SUB SWAP1 LOG1 PUSH1 0x0 PUSH2 0x332 PUSH1 0x0 PUSH2 0xB7A JUMP JUMPDEST PUSH1 0x40 MLOAD PUSH4 0x4FF4D3D PUSH1 0xE2 SHL DUP2 MSTORE SWAP1 SWAP2 POP PUSH1 0x1 PUSH1 0x1 PUSH1 0xA0 SHL SUB DUP6 AND SWAP1 PUSH4 0x13FD34F4 SWAP1 PUSH2 0x367 SWAP1 PUSH1 0x3 SWAP1 DUP6 SWAP1 PUSH1 0x1 SWAP1 PUSH1 0x4 ADD PUSH2 0x102A JUMP JUMPDEST PUSH1 0x0 PUSH1 0x40 MLOAD DUP1 DUP4 SUB DUP2 PUSH1 0x0 DUP8 DUP1 EXTCODESIZE ISZERO DUP1 ISZERO PUSH2 0x381 JUMPI PUSH1 0x0 DUP1 REVERT JUMPDEST POP GAS CALL ISZERO DUP1 ISZERO PUSH2 0x395 JUMPI RETURNDATASIZE PUSH1 0x0 DUP1 RETURNDATACOPY RETURNDATASIZE PUSH1 0x0 REVERT JUMPDEST POP POP POP POP PUSH2 0x3A3 PUSH1 0x1 PUSH2 0xBAB JUMP JUMPDEST PUSH1 0x40 MLOAD PUSH4 0x4FF4D3D PUSH1 0xE2 SHL DUP2 MSTORE SWAP1 SWAP2 POP PUSH1 0x1 PUSH1 0x1 PUSH1 0xA0 SHL SUB DUP6 AND SWAP1 PUSH4 0x13FD34F4 SWAP1 PUSH2 0x3D8 SWAP1 PUSH1 0x3 SWAP1 DUP6 SWAP1 PUSH1 0x1 SWAP1 PUSH1 0x4 ADD PUSH2 0x102A JUMP JUMPDEST PUSH1 0x0 PUSH1 0x40 MLOAD DUP1 DUP4 SUB DUP2 PUSH1 0x0 DUP8 DUP1 EXTCODESIZE ISZERO DUP1 ISZERO PUSH2 0x3F2 JUMPI PUSH1 0x0 DUP1 REVERT JUMPDEST POP GAS CALL ISZERO DUP1 ISZERO PUSH2 0x406 JUMPI RETURNDATASIZE PUSH1 0x0 DUP1 RETURNDATACOPY RETURNDATASIZE PUSH1 0x0 REVERT JUMPDEST POP POP POP POP POP POP POP POP JUMP JUMPDEST PUSH1 0x0 SLOAD PUSH1 0x1 PUSH1 0x1 PUSH1 0xA0 SHL SUB AND CALLER EQ DUP1 PUSH2 0x433 JUMPI POP PUSH1 0x1 SLOAD PUSH1 0x1 PUSH1 0x1 PUSH1 0xA0 SHL SUB AND CALLER EQ JUMPDEST DUP1 PUSH2 0x448 JUMPI POP PUSH1 0x2 SLOAD PUSH1 0x1 PUSH1 0x1 PUSH1 0xA0 SHL SUB AND CALLER EQ JUMPDEST PUSH2 0x484 JUMPI PUSH1 0x40 MLOAD PUSH3 0x461BCD PUSH1 0xE5 SHL DUP2 MSTORE PUSH1 0x20 PUSH1 0x4 DUP3 ADD MSTORE PUSH1 0xD PUSH1 0x24 DUP3 ADD MSTORE PUSH13 0x4F707320417574686F72697479 PUSH1 0x98 SHL PUSH1 0x44 DUP3 ADD MSTORE PUSH1 0x64 ADD PUSH2 0x2E2 JUMP JUMPDEST PUSH32 0x2C3AAAD5FD714987AAA5667B5616360A59C40C77AD504609326F3061B551246E DUP5 DUP4 DUP4 PUSH1 0x40 MLOAD PUSH2 0x4B7 SWAP4 SWAP3 SWAP2 SWAP1 PUSH2 0x1005 JUMP JUMPDEST PUSH1 0x40 MLOAD DUP1 SWAP2 SUB SWAP1 LOG1 PUSH1 0x40 MLOAD PUSH4 0x4FF4D3D PUSH1 0xE2 SHL DUP2 MSTORE PUSH1 0x1 PUSH1 0x1 PUSH1 0xA0 SHL SUB DUP6 AND SWAP1 PUSH4 0x13FD34F4 SWAP1 PUSH2 0x3D8 SWAP1 DUP7 SWAP1 DUP7 SWAP1 DUP7 SWAP1 PUSH1 0x0 SWAP1 PUSH1 0x4 ADD PUSH2 0x108D JUMP JUMPDEST PUSH1 0x0 PUSH2 0x4FD DUP5 PUSH2 0xBCA JUMP JUMPDEST PUSH4 0xFFFFFFFF AND PUSH2 0x50B PUSH2 0xBE6 JUMP JUMPDEST PUSH4 0xFFFFFFFF AND LT PUSH2 0x51E JUMPI POP PUSH1 0x0 PUSH2 0x549 JUMP JUMPDEST PUSH1 0x0 DUP4 DUP4 PUSH1 0x1F DUP2 DUP2 LT PUSH2 0x533 JUMPI PUSH2 0x533 PUSH2 0x10BE JUMP JUMPDEST DUP8 MLOAD SWAP3 ADD CALLDATALOAD PUSH1 0xF8 SHR SWAP3 POP POP PUSH1 0x1 DUP3 SHL AND ISZERO ISZERO SWAP2 POP POP JUMPDEST SWAP4 SWAP3 POP POP POP JUMP JUMPDEST PUSH1 0x1 SLOAD PUSH1 0x1 PUSH1 0x1 PUSH1 0xA0 SHL SUB AND CALLER EQ PUSH2 0x57A JUMPI PUSH1 0x40 MLOAD PUSH3 0x461BCD PUSH1 0xE5 SHL DUP2 MSTORE PUSH1 0x4 ADD PUSH2 0x2E2 SWAP1 PUSH2 0x10D4 JUMP JUMPDEST PUSH32 0xA01D9E661064ED93D5139D9FB821D617697F7D3A59029DE8DB20B1F1AD82590 DUP6 DUP3 DUP6 DUP6 PUSH1 0x40 MLOAD PUSH2 0x5AF SWAP5 SWAP4 SWAP3 SWAP2 SWAP1 PUSH2 0x1100 JUMP JUMPDEST PUSH1 0x40 MLOAD DUP1 SWAP2 SUB SWAP1 LOG1 PUSH1 0x40 MLOAD PUSH4 0x4FF4D3D PUSH1 0xE2 SHL DUP2 MSTORE PUSH1 0x1 PUSH1 0x1 PUSH1 0xA0 SHL SUB DUP7 AND SWAP1 PUSH4 0x13FD34F4 SWAP1 PUSH2 0x5E9 SWAP1 DUP8 SWAP1 DUP8 SWAP1 DUP8 SWAP1 DUP8 SWAP1 PUSH1 0x4 ADD PUSH2 0x108D JUMP JUMPDEST PUSH1 0x0 PUSH1 0x40 MLOAD DUP1 DUP4 SUB DUP2 PUSH1 0x0 DUP8 DUP1 EXTCODESIZE ISZERO DUP1 ISZERO PUSH2 0x603 JUMPI PUSH1 0x0 DUP1 REVERT JUMPDEST POP GAS CALL ISZERO DUP1 ISZERO PUSH2 0x617 JUMPI RETURNDATASIZE PUSH1 0x0 DUP1 RETURNDATACOPY RETURNDATASIZE PUSH1 0x0 REVERT JUMPDEST POP POP POP POP POP POP POP POP POP JUMP JUMPDEST PUSH1 0x1 SLOAD PUSH1 0x1 PUSH1 0x1 PUSH1 0xA0 SHL SUB AND CALLER EQ PUSH2 0x64C JUMPI PUSH1 0x40 MLOAD PUSH3 0x461BCD PUSH1 0xE5 SHL DUP2 MSTORE PUSH1 0x4 ADD PUSH2 0x2E2 SWAP1 PUSH2 0x10D4 JUMP JUMPDEST PUSH1 0x0 DUP1 SLOAD PUSH1 0x1 PUSH1 0x1 PUSH1 0xA0 SHL SUB DUP1 DUP7 AND PUSH1 0x1 PUSH1 0x1 PUSH1 0xA0 SHL SUB NOT SWAP3 DUP4 AND OR DUP4 SSTORE PUSH1 0x1 DUP1 SLOAD DUP7 DUP4 AND SWAP1 DUP5 AND DUP2 OR SWAP1 SWAP2 SSTORE PUSH1 0x2 DUP1 SLOAD SWAP3 DUP7 AND SWAP3 SWAP1 SWAP4 AND SWAP2 SWAP1 SWAP2 OR SWAP1 SWAP2 SSTORE PUSH1 0x40 DUP1 MLOAD PUSH4 0xE18B681 PUSH1 0xE0 SHL DUP2 MSTORE SWAP1 MLOAD SWAP2 SWAP3 PUSH4 0xE18B681 SWAP3 PUSH1 0x4 DUP1 DUP5 ADD SWAP4 DUP3 SWAP1 SUB ADD DUP2 DUP4 DUP8 DUP1 EXTCODESIZE ISZERO DUP1 ISZERO PUSH2 0x6BE JUMPI PUSH1 0x0 DUP1 REVERT JUMPDEST POP GAS CALL ISZERO DUP1 ISZERO PUSH2 0x6D2 JUMPI RETURNDATASIZE PUSH1 0x0 DUP1 RETURNDATACOPY RETURNDATASIZE PUSH1 0x0 REVERT JUMPDEST POP POP POP POP DUP3 PUSH1 0x1 PUSH1 0x1 PUSH1 0xA0 SHL SUB AND PUSH4 0xE18B681 PUSH1 0x40 MLOAD DUP2 PUSH4 0xFFFFFFFF AND PUSH1 0xE0 SHL DUP2 MSTORE PUSH1 0x4 ADD PUSH1 0x0 PUSH1 0x40 MLOAD DUP1 DUP4 SUB DUP2 PUSH1 0x0 DUP8 DUP1 EXTCODESIZE ISZERO DUP1 ISZERO PUSH2 0x711 JUMPI PUSH1 0x0 DUP1 REVERT JUMPDEST POP GAS CALL ISZERO DUP1 ISZERO PUSH2 0x725 JUMPI RETURNDATASIZE PUSH1 0x0 DUP1 RETURNDATACOPY RETURNDATASIZE PUSH1 0x0 REVERT JUMPDEST POP POP POP POP DUP1 PUSH1 0x1 PUSH1 0x1 PUSH1 0xA0 SHL SUB AND PUSH4 0xE18B681 PUSH1 0x40 MLOAD DUP2 PUSH4 0xFFFFFFFF AND PUSH1 0xE0 SHL DUP2 MSTORE PUSH1 0x4 ADD PUSH1 0x0 PUSH1 0x40 MLOAD DUP1 DUP4 SUB DUP2 PUSH1 0x0 DUP8 DUP1 EXTCODESIZE ISZERO DUP1 ISZERO PUSH2 0x764 JUMPI PUSH1 0x0 DUP1 REVERT JUMPDEST POP GAS CALL ISZERO DUP1 ISZERO PUSH2 0x778 JUMPI RETURNDATASIZE PUSH1 0x0 DUP1 RETURNDATACOPY RETURNDATASIZE PUSH1 0x0 REVERT JUMPDEST POP POP POP POP POP POP POP JUMP JUMPDEST PUSH1 0x40 DUP1 MLOAD CALLER PUSH1 0x20 DUP3 ADD MSTORE PUSH2 0xFFFF DUP6 AND SWAP2 DUP2 ADD SWAP2 SWAP1 SWAP2 MSTORE PUSH1 0x0 SWAP1 PUSH1 0x60 ADD PUSH1 0x40 DUP1 MLOAD PUSH1 0x1F NOT DUP2 DUP5 SUB ADD DUP2 MSTORE DUP3 DUP3 MSTORE DUP1 MLOAD PUSH1 0x20 SWAP2 DUP3 ADD KECCAK256 PUSH1 0x0 DUP2 DUP2 MSTORE PUSH1 0x3 DUP4 MSTORE DUP4 SWAP1 KECCAK256 PUSH1 0x60 DUP6 ADD DUP5 MSTORE DUP1 SLOAD DUP6 MSTORE PUSH1 0x1 ADD SLOAD PUSH4 0xFFFFFFFF DUP1 DUP3 AND SWAP4 DUP7 ADD SWAP4 SWAP1 SWAP4 MSTORE PUSH5 0x100000000 SWAP1 DIV SWAP1 SWAP2 AND SWAP2 DUP4 ADD SWAP2 SWAP1 SWAP2 MSTORE SWAP2 POP PUSH2 0x7FD DUP2 DUP6 DUP6 PUSH2 0x4F2 JUMP JUMPDEST PUSH2 0x83C JUMPI PUSH1 0x40 MLOAD PUSH3 0x461BCD PUSH1 0xE5 SHL DUP2 MSTORE PUSH1 0x20 PUSH1 0x4 DUP3 ADD MSTORE PUSH1 0x10 PUSH1 0x24 DUP3 ADD MSTORE PUSH16 0x506F6C69637920617574686F72697479 PUSH1 0x80 SHL PUSH1 0x44 DUP3 ADD MSTORE PUSH1 0x64 ADD PUSH2 0x2E2 JUMP JUMPDEST PUSH1 0x40 MLOAD PUSH4 0x4FF4D3D PUSH1 0xE2 SHL DUP2 MSTORE PUSH1 0x1 PUSH1 0x1 PUSH1 0xA0 SHL SUB DUP8 AND SWAP1 PUSH4 0x13FD34F4 SWAP1 PUSH2 0x86F SWAP1 DUP9 SWAP1 DUP9 SWAP1 DUP9 SWAP1 PUSH1 0x0 SWAP1 PUSH1 0x4 ADD PUSH2 0x108D JUMP JUMPDEST PUSH1 0x0 PUSH1 0x40 MLOAD DUP1 DUP4 SUB DUP2 PUSH1 0x0 DUP8 DUP1 EXTCODESIZE ISZERO DUP1 ISZERO PUSH2 0x889 JUMPI PUSH1 0x0 DUP1 REVERT JUMPDEST POP GAS CALL ISZERO DUP1 ISZERO PUSH2 0x89D JUMPI RETURNDATASIZE PUSH1 0x0 DUP1 RETURNDATACOPY RETURNDATASIZE PUSH1 0x0 REVERT JUMPDEST POP POP POP POP POP POP POP POP POP POP JUMP JUMPDEST PUSH1 0x1 SLOAD PUSH1 0x1 PUSH1 0x1 PUSH1 0xA0 SHL SUB AND CALLER EQ PUSH2 0x8D3 JUMPI PUSH1 0x40 MLOAD PUSH3 0x461BCD PUSH1 0xE5 SHL DUP2 MSTORE PUSH1 0x4 ADD PUSH2 0x2E2 SWAP1 PUSH2 0x10D4 JUMP JUMPDEST PUSH1 0x0 PUSH2 0x8DF DUP5 DUP5 PUSH2 0xC05 JUMP JUMPDEST PUSH1 0x0 DUP2 DUP2 MSTORE PUSH1 0x3 PUSH1 0x20 MSTORE PUSH1 0x40 SWAP1 KECCAK256 SWAP1 SWAP2 POP DUP3 SWAP1 PUSH2 0x8FC DUP3 DUP3 PUSH2 0x1137 JUMP JUMPDEST SWAP1 POP POP PUSH32 0x93D98787BC16E4BA41BF89638959B04A0DB101FD48DCECC637D3AC8F9E8EB529 DUP5 DUP5 DUP5 PUSH1 0x40 MLOAD PUSH2 0x932 SWAP4 SWAP3 SWAP2 SWAP1 PUSH2 0x118A JUMP JUMPDEST PUSH1 0x40 MLOAD DUP1 SWAP2 SUB SWAP1 LOG1 POP POP POP POP JUMP JUMPDEST PUSH1 0x2 SLOAD PUSH1 0x1 PUSH1 0x1 PUSH1 0xA0 SHL SUB AND CALLER EQ PUSH2 0x990 JUMPI PUSH1 0x40 MLOAD PUSH3 0x461BCD PUSH1 0xE5 SHL DUP2 MSTORE PUSH1 0x20 PUSH1 0x4 DUP3 ADD MSTORE PUSH1 0x13 PUSH1 0x24 DUP3 ADD MSTORE PUSH19 0x456D657267656E637920417574686F72697479 PUSH1 0x68 SHL PUSH1 0x44 DUP3 ADD MSTORE PUSH1 0x64 ADD PUSH2 0x2E2 JUMP JUMPDEST PUSH1 0x0 PUSH2 0x99C DUP6 DUP6 PUSH2 0xC05 JUMP JUMPDEST PUSH1 0x0 DUP2 DUP2 MSTORE PUSH1 0x3 PUSH1 0x20 MSTORE PUSH1 0x40 DUP1 DUP3 KECCAK256 SWAP2 DUP3 SSTORE PUSH1 0x1 SWAP1 SWAP2 ADD DUP1 SLOAD PUSH8 0xFFFFFFFFFFFFFFFF NOT AND SWAP1 SSTORE MLOAD SWAP1 SWAP2 POP PUSH32 0x2AF98248014EBCA43DAA265B502FF2CD3B7E8C68B945A2B8703FE09D4B3D610E SWAP1 PUSH2 0x9F7 SWAP1 DUP8 SWAP1 DUP7 SWAP1 DUP7 SWAP1 PUSH2 0x1005 JUMP JUMPDEST PUSH1 0x40 MLOAD DUP1 SWAP2 SUB SWAP1 LOG1 POP POP POP POP POP JUMP JUMPDEST PUSH1 0x0 SLOAD PUSH1 0x1 PUSH1 0x1 PUSH1 0xA0 SHL SUB AND CALLER EQ DUP1 PUSH2 0xA29 JUMPI POP PUSH1 0x1 SLOAD PUSH1 0x1 PUSH1 0x1 PUSH1 0xA0 SHL SUB AND CALLER EQ JUMPDEST DUP1 PUSH2 0xA3E JUMPI POP PUSH1 0x2 SLOAD PUSH1 0x1 PUSH1 0x1 PUSH1 0xA0 SHL SUB AND CALLER EQ JUMPDEST PUSH2 0xA7A JUMPI PUSH1 0x40 MLOAD PUSH3 0x461BCD PUSH1 0xE5 SHL DUP2 MSTORE PUSH1 0x20 PUSH1 0x4 DUP3 ADD MSTORE PUSH1 0xD PUSH1 0x24 DUP3 ADD MSTORE PUSH13 0x4F707320417574686F72697479 PUSH1 0x98 SHL PUSH1 0x44 DUP3 ADD MSTORE PUSH1 0x64 ADD PUSH2 0x2E2 JUMP JUMPDEST PUSH1 0x0 PUSH2 0xA86 DUP5 DUP5 PUSH2 0xC05 JUMP JUMPDEST PUSH1 0x0 DUP2 DUP2 MSTORE PUSH1 0x3 PUSH1 0x20 SWAP1 DUP2 MSTORE PUSH1 0x40 SWAP2 DUP3 SWAP1 KECCAK256 DUP3 MLOAD PUSH1 0x60 DUP2 ADD DUP5 MSTORE DUP2 SLOAD DUP2 MSTORE PUSH1 0x1 DUP3 ADD SLOAD PUSH4 0xFFFFFFFF DUP1 DUP3 AND SWAP5 DUP4 ADD SWAP5 SWAP1 SWAP5 MSTORE PUSH5 0x100000000 SWAP1 DIV SWAP1 SWAP3 AND SWAP3 DUP3 ADD SWAP3 SWAP1 SWAP3 MSTORE SWAP2 SWAP3 POP SWAP1 PUSH2 0xAE6 SWAP1 PUSH2 0xAE1 CALLDATASIZE DUP7 SWAP1 SUB DUP7 ADD DUP7 PUSH2 0x11EA JUMP JUMPDEST PUSH2 0xC41 JUMP JUMPDEST PUSH2 0xB2A JUMPI PUSH1 0x40 MLOAD PUSH3 0x461BCD PUSH1 0xE5 SHL DUP2 MSTORE PUSH1 0x20 PUSH1 0x4 DUP3 ADD MSTORE PUSH1 0x15 PUSH1 0x24 DUP3 ADD MSTORE PUSH21 0x496C6C6567616C20706F6C69637920757064617465 PUSH1 0x58 SHL PUSH1 0x44 DUP3 ADD MSTORE PUSH1 0x64 ADD PUSH2 0x2E2 JUMP JUMPDEST PUSH1 0x0 DUP3 DUP2 MSTORE PUSH1 0x3 PUSH1 0x20 MSTORE PUSH1 0x40 SWAP1 KECCAK256 DUP4 SWAP1 PUSH2 0xB44 DUP3 DUP3 PUSH2 0x1137 JUMP JUMPDEST SWAP1 POP POP PUSH32 0xBFABA3422DB1E9B489282BD512BAD8212F2AA01538115BDE73EF9060CE0A894 DUP6 DUP6 DUP6 PUSH1 0x40 MLOAD PUSH2 0x9F7 SWAP4 SWAP3 SWAP2 SWAP1 PUSH2 0x118A JUMP JUMPDEST PUSH1 0x40 DUP1 MLOAD PUSH1 0x16 PUSH1 0x20 DUP3 ADD MSTORE DUP3 ISZERO ISZERO SWAP2 DUP2 ADD SWAP2 SWAP1 SWAP2 MSTORE PUSH1 0x60 SWAP1 DUP2 ADD JUMPDEST PUSH1 0x40 MLOAD PUSH1 0x20 DUP2 DUP4 SUB SUB DUP2 MSTORE SWAP1 PUSH1 0x40 MSTORE SWAP1 POP SWAP2 SWAP1 POP JUMP JUMPDEST PUSH1 0x40 DUP1 MLOAD PUSH1 0x17 PUSH1 0x20 DUP3 ADD MSTORE DUP3 ISZERO ISZERO SWAP2 DUP2 ADD SWAP2 SWAP1 SWAP2 MSTORE PUSH1 0x60 SWAP1 DUP2 ADD PUSH2 0xB95 JUMP JUMPDEST PUSH1 0x0 DUP2 PUSH1 0x40 ADD MLOAD DUP3 PUSH1 0x20 ADD MLOAD PUSH2 0xBE0 SWAP2 SWAP1 PUSH2 0x1206 JUMP JUMPDEST SWAP3 SWAP2 POP POP JUMP JUMPDEST PUSH1 0x0 TIMESTAMP PUSH4 0xFFFFFFFF DUP2 GT ISZERO PUSH2 0xC00 JUMPI PUSH4 0xFFFFFFFF SWAP2 POP POP SWAP1 JUMP JUMPDEST SWAP2 SWAP1 POP JUMP JUMPDEST PUSH1 0x40 DUP1 MLOAD PUSH1 0x1 PUSH1 0x1 PUSH1 0xA0 SHL SUB SWAP4 SWAP1 SWAP4 AND PUSH1 0x20 DUP1 DUP6 ADD SWAP2 SWAP1 SWAP2 MSTORE PUSH2 0xFFFF SWAP3 SWAP1 SWAP3 AND DUP4 DUP3 ADD MSTORE DUP1 MLOAD DUP1 DUP5 SUB DUP3 ADD DUP2 MSTORE PUSH1 0x60 SWAP1 SWAP4 ADD SWAP1 MSTORE DUP2 MLOAD SWAP2 ADD KECCAK256 SWAP1 JUMP JUMPDEST PUSH1 0x0 PUSH2 0xC4D DUP4 DUP4 PUSH2 0xC6B JUMP JUMPDEST ISZERO PUSH2 0xC62 JUMPI PUSH2 0xC5B DUP4 PUSH2 0xCA0 JUMP JUMPDEST SWAP1 POP PUSH2 0xBE0 JUMP JUMPDEST POP PUSH1 0x1 SWAP3 SWAP2 POP POP JUMP JUMPDEST DUP1 MLOAD DUP3 MLOAD PUSH1 0x20 DUP1 DUP6 ADD MLOAD SWAP1 DUP5 ADD MLOAD PUSH1 0x0 SWAP4 NOT SWAP1 SWAP3 AND ISZERO ISZERO SWAP2 PUSH4 0xFFFFFFFF SWAP2 DUP3 AND SWAP2 AND LT DUP2 DUP1 PUSH2 0xC97 JUMPI POP DUP1 JUMPDEST SWAP6 SWAP5 POP POP POP POP POP JUMP JUMPDEST PUSH1 0x0 DUP2 PUSH1 0x20 ADD MLOAD PUSH4 0xFFFFFFFF AND PUSH2 0xCB5 PUSH2 0xBE6 JUMP JUMPDEST PUSH4 0xFFFFFFFF AND GT SWAP3 SWAP2 POP POP JUMP JUMPDEST DUP1 CALLDATALOAD PUSH1 0x1 PUSH1 0x1 PUSH1 0xA0 SHL SUB DUP2 AND DUP2 EQ PUSH2 0xC00 JUMPI PUSH1 0x0 DUP1 REVERT JUMPDEST PUSH1 0x0 DUP1 DUP4 PUSH1 0x1F DUP5 ADD SLT PUSH2 0xCEB JUMPI PUSH1 0x0 DUP1 REVERT JUMPDEST POP DUP2 CALLDATALOAD PUSH8 0xFFFFFFFFFFFFFFFF DUP2 GT ISZERO PUSH2 0xD03 JUMPI PUSH1 0x0 DUP1 REVERT JUMPDEST PUSH1 0x20 DUP4 ADD SWAP2 POP DUP4 PUSH1 0x20 DUP3 DUP6 ADD ADD GT ISZERO PUSH2 0xD1B JUMPI PUSH1 0x0 DUP1 REVERT JUMPDEST SWAP3 POP SWAP3 SWAP1 POP JUMP JUMPDEST PUSH1 0x0 DUP1 PUSH1 0x0 PUSH1 0x40 DUP5 DUP7 SUB SLT ISZERO PUSH2 0xD37 JUMPI PUSH1 0x0 DUP1 REVERT JUMPDEST PUSH2 0xD40 DUP5 PUSH2 0xCC2 JUMP JUMPDEST SWAP3 POP PUSH1 0x20 DUP5 ADD CALLDATALOAD PUSH8 0xFFFFFFFFFFFFFFFF DUP2 GT ISZERO PUSH2 0xD5C JUMPI PUSH1 0x0 DUP1 REVERT JUMPDEST PUSH2 0xD68 DUP7 DUP3 DUP8 ADD PUSH2 0xCD9 JUMP JUMPDEST SWAP5 SWAP8 SWAP1 SWAP7 POP SWAP4 SWAP5 POP POP POP POP JUMP JUMPDEST DUP1 CALLDATALOAD PUSH2 0xFFFF DUP2 AND DUP2 EQ PUSH2 0xC00 JUMPI PUSH1 0x0 DUP1 REVERT JUMPDEST PUSH1 0x0 DUP1 PUSH1 0x0 DUP1 PUSH1 0x60 DUP6 DUP8 SUB SLT ISZERO PUSH2 0xD9D JUMPI PUSH1 0x0 DUP1 REVERT JUMPDEST PUSH2 0xDA6 DUP6 PUSH2 0xCC2 JUMP JUMPDEST SWAP4 POP PUSH2 0xDB4 PUSH1 0x20 DUP7 ADD PUSH2 0xD75 JUMP JUMPDEST SWAP3 POP PUSH1 0x40 DUP6 ADD CALLDATALOAD PUSH8 0xFFFFFFFFFFFFFFFF DUP2 GT ISZERO PUSH2 0xDD0 JUMPI PUSH1 0x0 DUP1 REVERT JUMPDEST PUSH2 0xDDC DUP8 DUP3 DUP9 ADD PUSH2 0xCD9 JUMP JUMPDEST SWAP6 SWAP9 SWAP5 SWAP8 POP SWAP6 POP POP POP POP JUMP JUMPDEST PUSH4 0xFFFFFFFF DUP2 AND DUP2 EQ PUSH2 0xDFA JUMPI PUSH1 0x0 DUP1 REVERT JUMPDEST POP JUMP JUMPDEST PUSH1 0x0 PUSH1 0x60 DUP3 DUP5 SUB SLT ISZERO PUSH2 0xE0F JUMPI PUSH1 0x0 DUP1 REVERT JUMPDEST PUSH1 0x40 MLOAD PUSH1 0x60 DUP2 ADD DUP2 DUP2 LT PUSH8 0xFFFFFFFFFFFFFFFF DUP3 GT OR ISZERO PUSH2 0xE40 JUMPI PUSH4 0x4E487B71 PUSH1 0xE0 SHL PUSH1 0x0 MSTORE PUSH1 0x41 PUSH1 0x4 MSTORE PUSH1 0x24 PUSH1 0x0 REVERT JUMPDEST PUSH1 0x40 MSTORE DUP3 CALLDATALOAD DUP2 MSTORE SWAP1 POP DUP1 PUSH1 0x20 DUP4 ADD CALLDATALOAD PUSH2 0xE58 DUP2 PUSH2 0xDE8 JUMP JUMPDEST PUSH1 0x20 DUP3 ADD MSTORE PUSH1 0x40 DUP4 ADD CALLDATALOAD PUSH2 0xE6B DUP2 PUSH2 0xDE8 JUMP JUMPDEST PUSH1 0x40 SWAP2 SWAP1 SWAP2 ADD MSTORE SWAP3 SWAP2 POP POP JUMP JUMPDEST PUSH1 0x0 DUP1 PUSH1 0x0 PUSH1 0x80 DUP5 DUP7 SUB SLT ISZERO PUSH2 0xE8D JUMPI PUSH1 0x0 DUP1 REVERT JUMPDEST PUSH2 0xE97 DUP6 DUP6 PUSH2 0xDFD JUMP JUMPDEST SWAP3 POP PUSH1 0x60 DUP5 ADD CALLDATALOAD PUSH8 0xFFFFFFFFFFFFFFFF DUP2 GT ISZERO PUSH2 0xD5C JUMPI PUSH1 0x0 DUP1 REVERT JUMPDEST PUSH1 0x0 DUP1 PUSH1 0x0 DUP1 PUSH1 0x0 PUSH1 0x80 DUP7 DUP9 SUB SLT ISZERO PUSH2 0xECB JUMPI PUSH1 0x0 DUP1 REVERT JUMPDEST PUSH2 0xED4 DUP7 PUSH2 0xCC2 JUMP JUMPDEST SWAP5 POP PUSH2 0xEE2 PUSH1 0x20 DUP8 ADD PUSH2 0xD75 JUMP JUMPDEST SWAP4 POP PUSH1 0x40 DUP7 ADD CALLDATALOAD PUSH8 0xFFFFFFFFFFFFFFFF DUP2 GT ISZERO PUSH2 0xEFE JUMPI PUSH1 0x0 DUP1 REVERT JUMPDEST PUSH2 0xF0A DUP9 DUP3 DUP10 ADD PUSH2 0xCD9 JUMP JUMPDEST SWAP1 SWAP5 POP SWAP3 POP POP PUSH1 0x60 DUP7 ADD CALLDATALOAD DUP1 ISZERO ISZERO DUP2 EQ PUSH2 0xF23 JUMPI PUSH1 0x0 DUP1 REVERT JUMPDEST DUP1 SWAP2 POP POP SWAP3 SWAP6 POP SWAP3 SWAP6 SWAP1 SWAP4 POP JUMP JUMPDEST PUSH1 0x0 DUP1 PUSH1 0x0 PUSH1 0x60 DUP5 DUP7 SUB SLT ISZERO PUSH2 0xF46 JUMPI PUSH1 0x0 DUP1 REVERT JUMPDEST PUSH2 0xF4F DUP5 PUSH2 0xCC2 JUMP JUMPDEST SWAP3 POP PUSH2 0xF5D PUSH1 0x20 DUP6 ADD PUSH2 0xCC2 JUMP JUMPDEST SWAP2 POP PUSH2 0xF6B PUSH1 0x40 DUP6 ADD PUSH2 0xCC2 JUMP JUMPDEST SWAP1 POP SWAP3 POP SWAP3 POP SWAP3 JUMP JUMPDEST PUSH1 0x0 DUP1 PUSH1 0x0 DUP4 DUP6 SUB PUSH1 0xA0 DUP2 SLT ISZERO PUSH2 0xF8A JUMPI PUSH1 0x0 DUP1 REVERT JUMPDEST PUSH2 0xF93 DUP6 PUSH2 0xCC2 JUMP JUMPDEST SWAP4 POP PUSH2 0xFA1 PUSH1 0x20 DUP7 ADD PUSH2 0xD75 JUMP JUMPDEST SWAP3 POP PUSH1 0x60 PUSH1 0x3F NOT DUP3 ADD SLT ISZERO PUSH2 0xFB5 JUMPI PUSH1 0x0 DUP1 REVERT JUMPDEST POP PUSH1 0x40 DUP5 ADD SWAP1 POP SWAP3 POP SWAP3 POP SWAP3 JUMP JUMPDEST PUSH1 0x0 PUSH1 0x20 DUP3 DUP5 SUB SLT ISZERO PUSH2 0xFD5 JUMPI PUSH1 0x0 DUP1 REVERT JUMPDEST POP CALLDATALOAD SWAP2 SWAP1 POP JUMP JUMPDEST DUP2 DUP4 MSTORE DUP2 DUP2 PUSH1 0x20 DUP6 ADD CALLDATACOPY POP PUSH1 0x0 DUP3 DUP3 ADD PUSH1 0x20 SWAP1 DUP2 ADD SWAP2 SWAP1 SWAP2 MSTORE PUSH1 0x1F SWAP1 SWAP2 ADD PUSH1 0x1F NOT AND SWAP1 SWAP2 ADD ADD SWAP1 JUMP JUMPDEST PUSH1 0x1 PUSH1 0x1 PUSH1 0xA0 SHL SUB DUP5 AND DUP2 MSTORE PUSH1 0x40 PUSH1 0x20 DUP3 ADD DUP2 SWAP1 MSTORE PUSH1 0x0 SWAP1 PUSH2 0xC97 SWAP1 DUP4 ADD DUP5 DUP7 PUSH2 0xFDC JUMP JUMPDEST PUSH2 0xFFFF DUP5 AND DUP2 MSTORE PUSH1 0x0 PUSH1 0x20 PUSH1 0x60 DUP2 DUP5 ADD MSTORE DUP5 MLOAD DUP1 PUSH1 0x60 DUP6 ADD MSTORE PUSH1 0x0 JUMPDEST DUP2 DUP2 LT ISZERO PUSH2 0x1062 JUMPI DUP7 DUP2 ADD DUP4 ADD MLOAD DUP6 DUP3 ADD PUSH1 0x80 ADD MSTORE DUP3 ADD PUSH2 0x1046 JUMP JUMPDEST POP PUSH1 0x0 PUSH1 0x80 DUP3 DUP7 ADD ADD MSTORE PUSH1 0x80 PUSH1 0x1F NOT PUSH1 0x1F DUP4 ADD AND DUP6 ADD ADD SWAP3 POP POP POP DUP3 ISZERO ISZERO PUSH1 0x40 DUP4 ADD MSTORE SWAP5 SWAP4 POP POP POP POP JUMP JUMPDEST PUSH2 0xFFFF DUP6 AND DUP2 MSTORE PUSH1 0x60 PUSH1 0x20 DUP3 ADD MSTORE PUSH1 0x0 PUSH2 0x10AB PUSH1 0x60 DUP4 ADD DUP6 DUP8 PUSH2 0xFDC JUMP JUMPDEST SWAP1 POP DUP3 ISZERO ISZERO PUSH1 0x40 DUP4 ADD MSTORE SWAP6 SWAP5 POP POP POP POP POP JUMP JUMPDEST PUSH4 0x4E487B71 PUSH1 0xE0 SHL PUSH1 0x0 MSTORE PUSH1 0x32 PUSH1 0x4 MSTORE PUSH1 0x24 PUSH1 0x0 REVERT JUMPDEST PUSH1 0x20 DUP1 DUP3 MSTORE PUSH1 0x12 SWAP1 DUP3 ADD MSTORE PUSH18 0x547265617375727920417574686F72697479 PUSH1 0x70 SHL PUSH1 0x40 DUP3 ADD MSTORE PUSH1 0x60 ADD SWAP1 JUMP JUMPDEST PUSH1 0x1 PUSH1 0x1 PUSH1 0xA0 SHL SUB DUP6 AND DUP2 MSTORE DUP4 ISZERO ISZERO PUSH1 0x20 DUP3 ADD MSTORE PUSH1 0x60 PUSH1 0x40 DUP3 ADD DUP2 SWAP1 MSTORE PUSH1 0x0 SWAP1 PUSH2 0x112D SWAP1 DUP4 ADD DUP5 DUP7 PUSH2 0xFDC JUMP JUMPDEST SWAP7 SWAP6 POP POP POP POP POP POP JUMP JUMPDEST DUP2 CALLDATALOAD DUP2 SSTORE PUSH1 0x1 DUP2 ADD PUSH1 0x20 DUP4 ADD CALLDATALOAD PUSH2 0x114D DUP2 PUSH2 0xDE8 JUMP JUMPDEST DUP2 SLOAD PUSH1 0x40 DUP6 ADD CALLDATALOAD PUSH2 0x115D DUP2 PUSH2 0xDE8 JUMP JUMPDEST PUSH8 0xFFFFFFFF00000000 DUP2 PUSH1 0x20 SHL AND PUSH4 0xFFFFFFFF DUP5 AND PUSH8 0xFFFFFFFFFFFFFFFF NOT DUP5 AND OR OR DUP5 SSTORE POP POP POP POP POP POP JUMP JUMPDEST PUSH1 0x1 PUSH1 0x1 PUSH1 0xA0 SHL SUB DUP5 AND DUP2 MSTORE PUSH2 0xFFFF DUP4 AND PUSH1 0x20 DUP1 DUP4 ADD SWAP2 SWAP1 SWAP2 MSTORE DUP3 CALLDATALOAD PUSH1 0x40 DUP4 ADD MSTORE PUSH1 0xA0 DUP3 ADD SWAP1 DUP4 ADD CALLDATALOAD PUSH2 0x11BC DUP2 PUSH2 0xDE8 JUMP JUMPDEST PUSH4 0xFFFFFFFF SWAP1 DUP2 AND PUSH1 0x60 DUP5 ADD MSTORE PUSH1 0x40 DUP5 ADD CALLDATALOAD SWAP1 PUSH2 0x11D8 DUP3 PUSH2 0xDE8 JUMP JUMPDEST DUP1 DUP3 AND PUSH1 0x80 DUP6 ADD MSTORE POP POP SWAP5 SWAP4 POP POP POP POP JUMP JUMPDEST PUSH1 0x0 PUSH1 0x60 DUP3 DUP5 SUB SLT ISZERO PUSH2 0x11FC JUMPI PUSH1 0x0 DUP1 REVERT JUMPDEST PUSH2 0x549 DUP4 DUP4 PUSH2 0xDFD JUMP JUMPDEST PUSH4 0xFFFFFFFF DUP2 DUP2 AND DUP4 DUP3 AND ADD SWAP1 DUP1 DUP3 GT ISZERO PUSH2 0x1231 JUMPI PUSH4 0x4E487B71 PUSH1 0xE0 SHL PUSH1 0x0 MSTORE PUSH1 0x11 PUSH1 0x4 MSTORE PUSH1 0x24 PUSH1 0x0 REVERT JUMPDEST POP SWAP3 SWAP2 POP POP JUMP INVALID LOG2 PUSH5 0x6970667358 0x22 SLT KECCAK256 0xAD PUSH8 0x8D584218C0E68C38 SWAP8 SWAP7 SIGNEXTEND 0xF8 0x1E 0xC8 PUSH6 0xF92A09F5B212 SELFBALANCE TIMESTAMP 0x1F 0x2C SUB POP ADDMOD MSIZE SWAP1 PUSH5 0x736F6C6343 STOP ADDMOD SGT STOP CALLER "
		},
		"gasEstimates": {
			"creation": {
				"codeDepositCost": "943600",
				"executionCost": "infinite",
				"totalCost": "infinite"
			},
			"external": {
				"acceptsHaqqAuthority()": "242",
				"dex_()": "infinite",
				"emergencyAuthority_()": "2371",
				"emergencyHalt(address,string)": "infinite",
				"emergencyReset(address,uint16,string)": "infinite",
				"forcePolicy(address,uint16,(bytes32,uint32,uint32))": "infinite",
				"invokePolicy(address,uint16,bytes)": "infinite",
				"opsAuthority_()": "2372",
				"opsResolution(address,uint16,bytes)": "infinite",
				"passesPolicy((bytes32,uint32,uint32),bytes)": "infinite",
				"rules_(bytes32)": "4721",
				"setPolicy(address,uint16,(bytes32,uint32,uint32))": "infinite",
				"transferGovernance(address,address,address)": "infinite",
				"treasuryAuthority_()": "2393",
				"treasuryResolution(address,uint16,bytes,bool)": "infinite"
			},
			"internal": {
				"expireTime(struct HaqqPolicy.PolicyRule memory)": "infinite",
				"isFlagSet(bytes32,uint8)": "infinite",
				"isLegal(struct HaqqPolicy.PolicyRule memory,struct HaqqPolicy.PolicyRule memory)": "infinite",
				"isPostMandate(struct HaqqPolicy.PolicyRule memory)": "infinite",
				"rulesKey(address,uint16)": "infinite",
				"weakensPolicy(struct HaqqPolicy.PolicyRule memory,struct HaqqPolicy.PolicyRule memory)": "infinite"
			}
		},
		"methodIdentifiers": {
			"acceptsHaqqAuthority()": "c02504f2",
			"dex_()": "87834a0e",
			"emergencyAuthority_()": "6573b80f",
			"emergencyHalt(address,string)": "1882ad62",
			"emergencyReset(address,uint16,string)": "b30017f4",
			"forcePolicy(address,uint16,(bytes32,uint32,uint32))": "93b890df",
			"invokePolicy(address,uint16,bytes)": "70ba1529",
			"opsAuthority_()": "23de6f87",
			"opsResolution(address,uint16,bytes)": "2dc2eff8",
			"passesPolicy((bytes32,uint32,uint32),bytes)": "456a3d6f",
			"rules_(bytes32)": "e7db7f9f",
			"setPolicy(address,uint16,(bytes32,uint32,uint32))": "cdb3453c",
			"transferGovernance(address,address,address)": "700a618e",
			"treasuryAuthority_()": "8e6b5b33",
			"treasuryResolution(address,uint16,bytes,bool)": "6716c1cc"
		}
	},
	"abi": [
		{
			"inputs": [
				{
					"internalType": "address",
					"name": "dex",
					"type": "address"
				}
			],
			"stateMutability": "nonpayable",
			"type": "constructor"
		},
		{
			"anonymous": false,
			"inputs": [
				{
					"indexed": false,
					"internalType": "address",
					"name": "minion",
					"type": "address"
				},
				{
					"indexed": false,
					"internalType": "string",
					"name": "reason",
					"type": "string"
				}
			],
			"name": "HaqqEmergencyHalt",
			"type": "event"
		},
		{
			"anonymous": false,
			"inputs": [
				{
					"indexed": false,
					"internalType": "address",
					"name": "ops",
					"type": "address"
				},
				{
					"indexed": false,
					"internalType": "address",
					"name": "treasury",
					"type": "address"
				},
				{
					"indexed": false,
					"internalType": "address",
					"name": "emergency",
					"type": "address"
				}
			],
			"name": "HaqqGovernAuthority",
			"type": "event"
		},
		{
			"anonymous": false,
			"inputs": [
				{
					"indexed": false,
					"internalType": "address",
					"name": "conduit",
					"type": "address"
				},
				{
					"indexed": false,
					"internalType": "string",
					"name": "reason",
					"type": "string"
				}
			],
			"name": "HaqqPolicyEmergency",
			"type": "event"
		},
		{
			"anonymous": false,
			"inputs": [
				{
					"indexed": false,
					"internalType": "address",
					"name": "conduit",
					"type": "address"
				},
				{
					"indexed": false,
					"internalType": "uint16",
					"name": "proxyPath",
					"type": "uint16"
				},
				{
					"components": [
						{
							"internalType": "bytes32",
							"name": "cmdFlags_",
							"type": "bytes32"
						},
						{
							"internalType": "uint32",
							"name": "mandateTime_",
							"type": "uint32"
						},
						{
							"internalType": "uint32",
							"name": "expiryOffset_",
							"type": "uint32"
						}
					],
					"indexed": false,
					"internalType": "struct HaqqPolicy.PolicyRule",
					"name": "",
					"type": "tuple"
				}
			],
			"name": "HaqqPolicyForce",
			"type": "event"
		},
		{
			"anonymous": false,
			"inputs": [
				{
					"indexed": false,
					"internalType": "address",
					"name": "conduit",
					"type": "address"
				},
				{
					"indexed": false,
					"internalType": "uint16",
					"name": "proxyPath",
					"type": "uint16"
				},
				{
					"components": [
						{
							"internalType": "bytes32",
							"name": "cmdFlags_",
							"type": "bytes32"
						},
						{
							"internalType": "uint32",
							"name": "mandateTime_",
							"type": "uint32"
						},
						{
							"internalType": "uint32",
							"name": "expiryOffset_",
							"type": "uint32"
						}
					],
					"indexed": false,
					"internalType": "struct HaqqPolicy.PolicyRule",
					"name": "",
					"type": "tuple"
				}
			],
			"name": "HaqqPolicySet",
			"type": "event"
		},
		{
			"anonymous": false,
			"inputs": [
				{
					"indexed": false,
					"internalType": "address",
					"name": "minion",
					"type": "address"
				},
				{
					"indexed": false,
					"internalType": "bytes",
					"name": "cmd",
					"type": "bytes"
				}
			],
			"name": "HaqqResolutionOps",
			"type": "event"
		},
		{
			"anonymous": false,
			"inputs": [
				{
					"indexed": false,
					"internalType": "address",
					"name": "minion",
					"type": "address"
				},
				{
					"indexed": false,
					"internalType": "bool",
					"name": "sudo",
					"type": "bool"
				},
				{
					"indexed": false,
					"internalType": "bytes",
					"name": "cmd",
					"type": "bytes"
				}
			],
			"name": "HaqqResolutionTreasury",
			"type": "event"
		},
		{
			"inputs": [],
			"name": "acceptsHaqqAuthority",
			"outputs": [
				{
					"internalType": "bool",
					"name": "",
					"type": "bool"
				}
			],
			"stateMutability": "pure",
			"type": "function"
		},
		{
			"inputs": [],
			"name": "dex_",
			"outputs": [
				{
					"internalType": "address",
					"name": "",
					"type": "address"
				}
			],
			"stateMutability": "view",
			"type": "function"
		},
		{
			"inputs": [],
			"name": "emergencyAuthority_",
			"outputs": [
				{
					"internalType": "address",
					"name": "",
					"type": "address"
				}
			],
			"stateMutability": "view",
			"type": "function"
		},
		{
			"inputs": [
				{
					"internalType": "address",
					"name": "minion",
					"type": "address"
				},
				{
					"internalType": "string",
					"name": "reason",
					"type": "string"
				}
			],
			"name": "emergencyHalt",
			"outputs": [],
			"stateMutability": "nonpayable",
			"type": "function"
		},
		{
			"inputs": [
				{
					"internalType": "address",
					"name": "conduit",
					"type": "address"
				},
				{
					"internalType": "uint16",
					"name": "proxyPath",
					"type": "uint16"
				},
				{
					"internalType": "string",
					"name": "reason",
					"type": "string"
				}
			],
			"name": "emergencyReset",
			"outputs": [],
			"stateMutability": "nonpayable",
			"type": "function"
		},
		{
			"inputs": [
				{
					"internalType": "address",
					"name": "conduit",
					"type": "address"
				},
				{
					"internalType": "uint16",
					"name": "proxyPath",
					"type": "uint16"
				},
				{
					"components": [
						{
							"internalType": "bytes32",
							"name": "cmdFlags_",
							"type": "bytes32"
						},
						{
							"internalType": "uint32",
							"name": "mandateTime_",
							"type": "uint32"
						},
						{
							"internalType": "uint32",
							"name": "expiryOffset_",
							"type": "uint32"
						}
					],
					"internalType": "struct HaqqPolicy.PolicyRule",
					"name": "policy",
					"type": "tuple"
				}
			],
			"name": "forcePolicy",
			"outputs": [],
			"stateMutability": "nonpayable",
			"type": "function"
		},
		{
			"inputs": [
				{
					"internalType": "address",
					"name": "minion",
					"type": "address"
				},
				{
					"internalType": "uint16",
					"name": "proxyPath",
					"type": "uint16"
				},
				{
					"internalType": "bytes",
					"name": "cmd",
					"type": "bytes"
				}
			],
			"name": "invokePolicy",
			"outputs": [],
			"stateMutability": "nonpayable",
			"type": "function"
		},
		{
			"inputs": [],
			"name": "opsAuthority_",
			"outputs": [
				{
					"internalType": "address",
					"name": "",
					"type": "address"
				}
			],
			"stateMutability": "view",
			"type": "function"
		},
		{
			"inputs": [
				{
					"internalType": "address",
					"name": "minion",
					"type": "address"
				},
				{
					"internalType": "uint16",
					"name": "proxyPath",
					"type": "uint16"
				},
				{
					"internalType": "bytes",
					"name": "cmd",
					"type": "bytes"
				}
			],
			"name": "opsResolution",
			"outputs": [],
			"stateMutability": "nonpayable",
			"type": "function"
		},
		{
			"inputs": [
				{
					"components": [
						{
							"internalType": "bytes32",
							"name": "cmdFlags_",
							"type": "bytes32"
						},
						{
							"internalType": "uint32",
							"name": "mandateTime_",
							"type": "uint32"
						},
						{
							"internalType": "uint32",
							"name": "expiryOffset_",
							"type": "uint32"
						}
					],
					"internalType": "struct HaqqPolicy.PolicyRule",
					"name": "policy",
					"type": "tuple"
				},
				{
					"internalType": "bytes",
					"name": "protocolCmd",
					"type": "bytes"
				}
			],
			"name": "passesPolicy",
			"outputs": [
				{
					"internalType": "bool",
					"name": "",
					"type": "bool"
				}
			],
			"stateMutability": "view",
			"type": "function"
		},
		{
			"inputs": [
				{
					"internalType": "bytes32",
					"name": "",
					"type": "bytes32"
				}
			],
			"name": "rules_",
			"outputs": [
				{
					"internalType": "bytes32",
					"name": "cmdFlags_",
					"type": "bytes32"
				},
				{
					"internalType": "uint32",
					"name": "mandateTime_",
					"type": "uint32"
				},
				{
					"internalType": "uint32",
					"name": "expiryOffset_",
					"type": "uint32"
				}
			],
			"stateMutability": "view",
			"type": "function"
		},
		{
			"inputs": [
				{
					"internalType": "address",
					"name": "conduit",
					"type": "address"
				},
				{
					"internalType": "uint16",
					"name": "proxyPath",
					"type": "uint16"
				},
				{
					"components": [
						{
							"internalType": "bytes32",
							"name": "cmdFlags_",
							"type": "bytes32"
						},
						{
							"internalType": "uint32",
							"name": "mandateTime_",
							"type": "uint32"
						},
						{
							"internalType": "uint32",
							"name": "expiryOffset_",
							"type": "uint32"
						}
					],
					"internalType": "struct HaqqPolicy.PolicyRule",
					"name": "policy",
					"type": "tuple"
				}
			],
			"name": "setPolicy",
			"outputs": [],
			"stateMutability": "nonpayable",
			"type": "function"
		},
		{
			"inputs": [
				{
					"internalType": "address",
					"name": "ops",
					"type": "address"
				},
				{
					"internalType": "address",
					"name": "treasury",
					"type": "address"
				},
				{
					"internalType": "address",
					"name": "emergency",
					"type": "address"
				}
			],
			"name": "transferGovernance",
			"outputs": [],
			"stateMutability": "nonpayable",
			"type": "function"
		},
		{
			"inputs": [],
			"name": "treasuryAuthority_",
			"outputs": [
				{
					"internalType": "address",
					"name": "",
					"type": "address"
				}
			],
			"stateMutability": "view",
			"type": "function"
		},
		{
			"inputs": [
				{
					"internalType": "address",
					"name": "minion",
					"type": "address"
				},
				{
					"internalType": "uint16",
					"name": "proxyPath",
					"type": "uint16"
				},
				{
					"internalType": "bytes",
					"name": "cmd",
					"type": "bytes"
				},
				{
					"internalType": "bool",
					"name": "sudo",
					"type": "bool"
				}
			],
			"name": "treasuryResolution",
			"outputs": [],
			"stateMutability": "nonpayable",
			"type": "function"
		}
	]
}