{
	"data": {
		"bytecode": {
			"linkReferences": {},
			"object": "60a060405234801561001057600080fd5b5060405161052938038061052983398101604081905261002f91610040565b6001600160a01b0316608052610070565b60006020828403121561005257600080fd5b81516001600160a01b038116811461006957600080fd5b9392505050565b60805161049f61008a600039600060c6015261049f6000f3fe608060405234801561001057600080fd5b506004361061004c5760003560e01c806387834a0e146100515780638b60a6bd1461008057806394ca2cb5146100955780639c4ae2d0146100a8575b600080fd5b600054610064906001600160a01b031681565b6040516001600160a01b03909116815260200160405180910390f35b61009361008e36600461029e565b6100bb565b005b6100646100a3366004610370565b61019a565b6100646100b6366004610370565b6101f9565b336001600160a01b037f0000000000000000000000000000000000000000000000000000000000000000161461012f5760405162461bcd60e51b81526020600482015260156024820152742237b2b9903737ba1037bbb7103232b83637bcb2b960591b604482015260640160405180910390fd5b6040516304ff4d3d60e21b81526001600160a01b038616906313fd34f490610161908790879087908790600401610425565b600060405180830381600087803b15801561017b57600080fd5b505af115801561018f573d6000803e3d6000fd5b505050505050505050565b8151602080840191909120604080516001600160f81b0319818501523060601b6bffffffffffffffffffffffff191660218201526035810185905260558082019390935281518082039093018352607501905280519101205b92915050565b60006102058383610270565b600080546001600160a01b0319166001600160a01b0392909216918217905560408051918252602082018490527fc8f08f2c35ec486897064f2b1a16cd67bb90c6b504f9e218d0eaa38332ba77b3910160405180910390a1506000546001600160a01b031692915050565b6000818351602085016000f59050803b6101f357600080fd5b8035801515811461029957600080fd5b919050565b6000806000806000608086880312156102b657600080fd5b85356001600160a01b03811681146102cd57600080fd5b9450602086013561ffff811681146102e457600080fd5b9350604086013567ffffffffffffffff8082111561030157600080fd5b818801915088601f83011261031557600080fd5b81358181111561032457600080fd5b89602082850101111561033657600080fd5b60208301955080945050505061034e60608701610289565b90509295509295909350565b634e487b7160e01b600052604160045260246000fd5b6000806040838503121561038357600080fd5b823567ffffffffffffffff8082111561039b57600080fd5b818501915085601f8301126103af57600080fd5b8135818111156103c1576103c161035a565b604051601f8201601f19908116603f011681019083821181831017156103e9576103e961035a565b8160405282815288602084870101111561040257600080fd5b826020860160208301376000602093820184015298969091013596505050505050565b61ffff85168152606060208201528260608201528284608083013760008184016080908101919091529115156040820152601f909201601f1916909101019291505056fea2646970667358221220cc125b6bce7539491d6823d3d6bc90259c833ce4110f15d166f3178478bf7b2264736f6c63430008130033",
			"opcodes": "PUSH1 0xA0 PUSH1 0x40 MSTORE CALLVALUE DUP1 ISZERO PUSH2 0x10 JUMPI PUSH1 0x0 DUP1 REVERT JUMPDEST POP PUSH1 0x40 MLOAD PUSH2 0x529 CODESIZE SUB DUP1 PUSH2 0x529 DUP4 CODECOPY DUP2 ADD PUSH1 0x40 DUP2 SWAP1 MSTORE PUSH2 0x2F SWAP2 PUSH2 0x40 JUMP JUMPDEST PUSH1 0x1 PUSH1 0x1 PUSH1 0xA0 SHL SUB AND PUSH1 0x80 MSTORE PUSH2 0x70 JUMP JUMPDEST PUSH1 0x0 PUSH1 0x20 DUP3 DUP5 SUB SLT ISZERO PUSH2 0x52 JUMPI PUSH1 0x0 DUP1 REVERT JUMPDEST DUP2 MLOAD PUSH1 0x1 PUSH1 0x1 PUSH1 0xA0 SHL SUB DUP2 AND DUP2 EQ PUSH2 0x69 JUMPI PUSH1 0x0 DUP1 REVERT JUMPDEST SWAP4 SWAP3 POP POP POP JUMP JUMPDEST PUSH1 0x80 MLOAD PUSH2 0x49F PUSH2 0x8A PUSH1 0x0 CODECOPY PUSH1 0x0 PUSH1 0xC6 ADD MSTORE PUSH2 0x49F PUSH1 0x0 RETURN INVALID PUSH1 0x80 PUSH1 0x40 MSTORE CALLVALUE DUP1 ISZERO PUSH2 0x10 JUMPI PUSH1 0x0 DUP1 REVERT JUMPDEST POP PUSH1 0x4 CALLDATASIZE LT PUSH2 0x4C JUMPI PUSH1 0x0 CALLDATALOAD PUSH1 0xE0 SHR DUP1 PUSH4 0x87834A0E EQ PUSH2 0x51 JUMPI DUP1 PUSH4 0x8B60A6BD EQ PUSH2 0x80 JUMPI DUP1 PUSH4 0x94CA2CB5 EQ PUSH2 0x95 JUMPI DUP1 PUSH4 0x9C4AE2D0 EQ PUSH2 0xA8 JUMPI JUMPDEST PUSH1 0x0 DUP1 REVERT JUMPDEST PUSH1 0x0 SLOAD PUSH2 0x64 SWAP1 PUSH1 0x1 PUSH1 0x1 PUSH1 0xA0 SHL SUB AND DUP2 JUMP JUMPDEST PUSH1 0x40 MLOAD PUSH1 0x1 PUSH1 0x1 PUSH1 0xA0 SHL SUB SWAP1 SWAP2 AND DUP2 MSTORE PUSH1 0x20 ADD PUSH1 0x40 MLOAD DUP1 SWAP2 SUB SWAP1 RETURN JUMPDEST PUSH2 0x93 PUSH2 0x8E CALLDATASIZE PUSH1 0x4 PUSH2 0x29E JUMP JUMPDEST PUSH2 0xBB JUMP JUMPDEST STOP JUMPDEST PUSH2 0x64 PUSH2 0xA3 CALLDATASIZE PUSH1 0x4 PUSH2 0x370 JUMP JUMPDEST PUSH2 0x19A JUMP JUMPDEST PUSH2 0x64 PUSH2 0xB6 CALLDATASIZE PUSH1 0x4 PUSH2 0x370 JUMP JUMPDEST PUSH2 0x1F9 JUMP JUMPDEST CALLER PUSH1 0x1 PUSH1 0x1 PUSH1 0xA0 SHL SUB PUSH32 0x0 AND EQ PUSH2 0x12F JUMPI PUSH1 0x40 MLOAD PUSH3 0x461BCD PUSH1 0xE5 SHL DUP2 MSTORE PUSH1 0x20 PUSH1 0x4 DUP3 ADD MSTORE PUSH1 0x15 PUSH1 0x24 DUP3 ADD MSTORE PUSH21 0x2237B2B9903737BA1037BBB7103232B83637BCB2B9 PUSH1 0x59 SHL PUSH1 0x44 DUP3 ADD MSTORE PUSH1 0x64 ADD PUSH1 0x40 MLOAD DUP1 SWAP2 SUB SWAP1 REVERT JUMPDEST PUSH1 0x40 MLOAD PUSH4 0x4FF4D3D PUSH1 0xE2 SHL DUP2 MSTORE PUSH1 0x1 PUSH1 0x1 PUSH1 0xA0 SHL SUB DUP7 AND SWAP1 PUSH4 0x13FD34F4 SWAP1 PUSH2 0x161 SWAP1 DUP8 SWAP1 DUP8 SWAP1 DUP8 SWAP1 DUP8 SWAP1 PUSH1 0x4 ADD PUSH2 0x425 JUMP JUMPDEST PUSH1 0x0 PUSH1 0x40 MLOAD DUP1 DUP4 SUB DUP2 PUSH1 0x0 DUP8 DUP1 EXTCODESIZE ISZERO DUP1 ISZERO PUSH2 0x17B JUMPI PUSH1 0x0 DUP1 REVERT JUMPDEST POP GAS CALL ISZERO DUP1 ISZERO PUSH2 0x18F JUMPI RETURNDATASIZE PUSH1 0x0 DUP1 RETURNDATACOPY RETURNDATASIZE PUSH1 0x0 REVERT JUMPDEST POP POP POP POP POP POP POP POP POP JUMP JUMPDEST DUP2 MLOAD PUSH1 0x20 DUP1 DUP5 ADD SWAP2 SWAP1 SWAP2 KECCAK256 PUSH1 0x40 DUP1 MLOAD PUSH1 0x1 PUSH1 0x1 PUSH1 0xF8 SHL SUB NOT DUP2 DUP6 ADD MSTORE ADDRESS PUSH1 0x60 SHL PUSH12 0xFFFFFFFFFFFFFFFFFFFFFFFF NOT AND PUSH1 0x21 DUP3 ADD MSTORE PUSH1 0x35 DUP2 ADD DUP6 SWAP1 MSTORE PUSH1 0x55 DUP1 DUP3 ADD SWAP4 SWAP1 SWAP4 MSTORE DUP2 MLOAD DUP1 DUP3 SUB SWAP1 SWAP4 ADD DUP4 MSTORE PUSH1 0x75 ADD SWAP1 MSTORE DUP1 MLOAD SWAP2 ADD KECCAK256 JUMPDEST SWAP3 SWAP2 POP POP JUMP JUMPDEST PUSH1 0x0 PUSH2 0x205 DUP4 DUP4 PUSH2 0x270 JUMP JUMPDEST PUSH1 0x0 DUP1 SLOAD PUSH1 0x1 PUSH1 0x1 PUSH1 0xA0 SHL SUB NOT AND PUSH1 0x1 PUSH1 0x1 PUSH1 0xA0 SHL SUB SWAP3 SWAP1 SWAP3 AND SWAP2 DUP3 OR SWAP1 SSTORE PUSH1 0x40 DUP1 MLOAD SWAP2 DUP3 MSTORE PUSH1 0x20 DUP3 ADD DUP5 SWAP1 MSTORE PUSH32 0xC8F08F2C35EC486897064F2B1A16CD67BB90C6B504F9E218D0EAA38332BA77B3 SWAP2 ADD PUSH1 0x40 MLOAD DUP1 SWAP2 SUB SWAP1 LOG1 POP PUSH1 0x0 SLOAD PUSH1 0x1 PUSH1 0x1 PUSH1 0xA0 SHL SUB AND SWAP3 SWAP2 POP POP JUMP JUMPDEST PUSH1 0x0 DUP2 DUP4 MLOAD PUSH1 0x20 DUP6 ADD PUSH1 0x0 CREATE2 SWAP1 POP DUP1 EXTCODESIZE PUSH2 0x1F3 JUMPI PUSH1 0x0 DUP1 REVERT JUMPDEST DUP1 CALLDATALOAD DUP1 ISZERO ISZERO DUP2 EQ PUSH2 0x299 JUMPI PUSH1 0x0 DUP1 REVERT JUMPDEST SWAP2 SWAP1 POP JUMP JUMPDEST PUSH1 0x0 DUP1 PUSH1 0x0 DUP1 PUSH1 0x0 PUSH1 0x80 DUP7 DUP9 SUB SLT ISZERO PUSH2 0x2B6 JUMPI PUSH1 0x0 DUP1 REVERT JUMPDEST DUP6 CALLDATALOAD PUSH1 0x1 PUSH1 0x1 PUSH1 0xA0 SHL SUB DUP2 AND DUP2 EQ PUSH2 0x2CD JUMPI PUSH1 0x0 DUP1 REVERT JUMPDEST SWAP5 POP PUSH1 0x20 DUP7 ADD CALLDATALOAD PUSH2 0xFFFF DUP2 AND DUP2 EQ PUSH2 0x2E4 JUMPI PUSH1 0x0 DUP1 REVERT JUMPDEST SWAP4 POP PUSH1 0x40 DUP7 ADD CALLDATALOAD PUSH8 0xFFFFFFFFFFFFFFFF DUP1 DUP3 GT ISZERO PUSH2 0x301 JUMPI PUSH1 0x0 DUP1 REVERT JUMPDEST DUP2 DUP9 ADD SWAP2 POP DUP9 PUSH1 0x1F DUP4 ADD SLT PUSH2 0x315 JUMPI PUSH1 0x0 DUP1 REVERT JUMPDEST DUP2 CALLDATALOAD DUP2 DUP2 GT ISZERO PUSH2 0x324 JUMPI PUSH1 0x0 DUP1 REVERT JUMPDEST DUP10 PUSH1 0x20 DUP3 DUP6 ADD ADD GT ISZERO PUSH2 0x336 JUMPI PUSH1 0x0 DUP1 REVERT JUMPDEST PUSH1 0x20 DUP4 ADD SWAP6 POP DUP1 SWAP5 POP POP POP POP PUSH2 0x34E PUSH1 0x60 DUP8 ADD PUSH2 0x289 JUMP JUMPDEST SWAP1 POP SWAP3 SWAP6 POP SWAP3 SWAP6 SWAP1 SWAP4 POP JUMP JUMPDEST PUSH4 0x4E487B71 PUSH1 0xE0 SHL PUSH1 0x0 MSTORE PUSH1 0x41 PUSH1 0x4 MSTORE PUSH1 0x24 PUSH1 0x0 REVERT JUMPDEST PUSH1 0x0 DUP1 PUSH1 0x40 DUP4 DUP6 SUB SLT ISZERO PUSH2 0x383 JUMPI PUSH1 0x0 DUP1 REVERT JUMPDEST DUP3 CALLDATALOAD PUSH8 0xFFFFFFFFFFFFFFFF DUP1 DUP3 GT ISZERO PUSH2 0x39B JUMPI PUSH1 0x0 DUP1 REVERT JUMPDEST DUP2 DUP6 ADD SWAP2 POP DUP6 PUSH1 0x1F DUP4 ADD SLT PUSH2 0x3AF JUMPI PUSH1 0x0 DUP1 REVERT JUMPDEST DUP2 CALLDATALOAD DUP2 DUP2 GT ISZERO PUSH2 0x3C1 JUMPI PUSH2 0x3C1 PUSH2 0x35A JUMP JUMPDEST PUSH1 0x40 MLOAD PUSH1 0x1F DUP3 ADD PUSH1 0x1F NOT SWAP1 DUP2 AND PUSH1 0x3F ADD AND DUP2 ADD SWAP1 DUP4 DUP3 GT DUP2 DUP4 LT OR ISZERO PUSH2 0x3E9 JUMPI PUSH2 0x3E9 PUSH2 0x35A JUMP JUMPDEST DUP2 PUSH1 0x40 MSTORE DUP3 DUP2 MSTORE DUP9 PUSH1 0x20 DUP5 DUP8 ADD ADD GT ISZERO PUSH2 0x402 JUMPI PUSH1 0x0 DUP1 REVERT JUMPDEST DUP3 PUSH1 0x20 DUP7 ADD PUSH1 0x20 DUP4 ADD CALLDATACOPY PUSH1 0x0 PUSH1 0x20 SWAP4 DUP3 ADD DUP5 ADD MSTORE SWAP9 SWAP7 SWAP1 SWAP2 ADD CALLDATALOAD SWAP7 POP POP POP POP POP POP JUMP JUMPDEST PUSH2 0xFFFF DUP6 AND DUP2 MSTORE PUSH1 0x60 PUSH1 0x20 DUP3 ADD MSTORE DUP3 PUSH1 0x60 DUP3 ADD MSTORE DUP3 DUP5 PUSH1 0x80 DUP4 ADD CALLDATACOPY PUSH1 0x0 DUP2 DUP5 ADD PUSH1 0x80 SWAP1 DUP2 ADD SWAP2 SWAP1 SWAP2 MSTORE SWAP2 ISZERO ISZERO PUSH1 0x40 DUP3 ADD MSTORE PUSH1 0x1F SWAP1 SWAP3 ADD PUSH1 0x1F NOT AND SWAP1 SWAP2 ADD ADD SWAP3 SWAP2 POP POP JUMP INVALID LOG2 PUSH5 0x6970667358 0x22 SLT KECCAK256 0xCC SLT JUMPDEST PUSH12 0xCE7539491D6823D3D6BC9025 SWAP13 DUP4 EXTCODECOPY 0xE4 GT 0xF ISZERO 0xD1 PUSH7 0xF3178478BF7B22 PUSH5 0x736F6C6343 STOP ADDMOD SGT STOP CALLER "
		},
		"gasEstimates": {
			"creation": {
				"codeDepositCost": "236600",
				"executionCost": "infinite",
				"totalCost": "infinite"
			},
			"external": {
				"deploy(bytes,uint256)": "infinite",
				"dex_()": "2303",
				"getAddress(bytes,uint256)": "infinite",
				"protocolCmd(address,uint16,bytes,bool)": "infinite"
			},
			"internal": {
				"createContract(bytes memory,uint256)": "infinite"
			}
		},
		"methodIdentifiers": {
			"deploy(bytes,uint256)": "9c4ae2d0",
			"dex_()": "87834a0e",
			"getAddress(bytes,uint256)": "94ca2cb5",
			"protocolCmd(address,uint16,bytes,bool)": "8b60a6bd"
		}
	},
	"abi": [
		{
			"inputs": [
				{
					"internalType": "address",
					"name": "owner",
					"type": "address"
				}
			],
			"stateMutability": "nonpayable",
			"type": "constructor"
		},
		{
			"anonymous": false,
			"inputs": [
				{
					"indexed": false,
					"internalType": "address",
					"name": "addr",
					"type": "address"
				},
				{
					"indexed": false,
					"internalType": "uint256",
					"name": "salt",
					"type": "uint256"
				}
			],
			"name": "HaqqDeploy",
			"type": "event"
		},
		{
			"inputs": [
				{
					"internalType": "bytes",
					"name": "bytescode",
					"type": "bytes"
				},
				{
					"internalType": "uint256",
					"name": "salt",
					"type": "uint256"
				}
			],
			"name": "deploy",
			"outputs": [
				{
					"internalType": "address",
					"name": "",
					"type": "address"
				}
			],
			"stateMutability": "nonpayable",
			"type": "function"
		},
		{
			"inputs": [],
			"name": "dex_",
			"outputs": [
				{
					"internalType": "address",
					"name": "",
					"type": "address"
				}
			],
			"stateMutability": "view",
			"type": "function"
		},
		{
			"inputs": [
				{
					"internalType": "bytes",
					"name": "bytecode",
					"type": "bytes"
				},
				{
					"internalType": "uint256",
					"name": "_salt",
					"type": "uint256"
				}
			],
			"name": "getAddress",
			"outputs": [
				{
					"internalType": "address",
					"name": "",
					"type": "address"
				}
			],
			"stateMutability": "view",
			"type": "function"
		},
		{
			"inputs": [
				{
					"internalType": "address",
					"name": "dex",
					"type": "address"
				},
				{
					"internalType": "uint16",
					"name": "proxyPath",
					"type": "uint16"
				},
				{
					"internalType": "bytes",
					"name": "cmd",
					"type": "bytes"
				},
				{
					"internalType": "bool",
					"name": "sudo",
					"type": "bool"
				}
			],
			"name": "protocolCmd",
			"outputs": [],
			"stateMutability": "nonpayable",
			"type": "function"
		}
	]
}