{
	"data": {
		"bytecode": {
			"linkReferences": {},
			"object": "60a06040523480156200001157600080fd5b506040516200264238038062002642833981016040819052620000349162000110565b6001600160a01b03811615801590620000ad5750806001600160a01b0316637a5783e76040518163ffffffff1660e01b8152600401602060405180830381865afa15801562000087573d6000803e3d6000fd5b505050506040513d601f19601f82011682018060405250810190620000ad919062000142565b620000fe5760405162461bcd60e51b815260206004820152601360248201527f496e76616c696420486171715377617044657800000000000000000000000000604482015260640160405180910390fd5b6001600160a01b031660805262000166565b6000602082840312156200012357600080fd5b81516001600160a01b03811681146200013b57600080fd5b9392505050565b6000602082840312156200015557600080fd5b815180151581146200013b57600080fd5b608051612465620001dd6000396000818161034d01528181610601015281816107100152818161083b015281816109c901528181610c8a01528181610df001528181610e71015281816110bd0152818161122501528181611370015281816114640152818161158501526117cd01526124656000f3fe608060405234801561001057600080fd5b506004361061012c5760003560e01c80638e56c1c1116100ad578063d7fd8d0f11610071578063d7fd8d0f146104e9578063dc91a6ad146104fc578063ed8f58f414610522578063f8c7efa714610535578063ff163e141461054857600080fd5b80638e56c1c11461038757806393c33a71146103f4578063992236c51461043c578063a6e2fe721461048f578063ab0a9898146104a257600080fd5b8063391d582f116100f4578063391d582f1461029e5780633dccd7d7146102e557806356bf0f5b146103225780636756e9b81461033557806387834a0e1461034857600080fd5b80630a7827621461013157806310fc74f41461016d5780632855bcf3146101ae578063338adc6714610230578063340bfa121461025b575b600080fd5b61014461013f3660046120d5565b61055b565b604080516001600160801b03909316835263ffffffff9091166020830152015b60405180910390f35b61018061017b366004612142565b61069c565b604080516001600160601b03909416845263ffffffff909216602084015261ffff1690820152606001610164565b6101c16101bc3660046121a0565b6107b0565b6040516101649190600060e08201905060ff8351168252602083015161ffff808216602085015260ff6040860151166040850152806060860151166060850152505060ff608084015116608083015260ff60a08401511660a083015260ff60c08401511660c083015292915050565b61024361023e3660046121b9565b61090e565b6040516001600160801b039091168152602001610164565b61026e6102693660046121f5565b61092b565b604080516001600160601b03948516815293909216602084015267ffffffffffffffff1690820152606001610164565b6102b16102ac366004612242565b610a66565b604080516001600160601b03909416845267ffffffffffffffff909216602084015263ffffffff1690820152606001610164565b6102f86102f33660046122dd565b610abf565b604080516001600160801b0394851681529284166020840152921691810191909152606001610164565b61024361033036600461234a565b610bf5565b6102436103433660046121b9565b610d10565b61036f7f000000000000000000000000000000000000000000000000000000000000000081565b6040516001600160a01b039091168152602001610164565b61039a6103953660046121b9565b610d66565b6040805182516001600160801b03908116825260208085015182169083015283830151169181019190915260608083015167ffffffffffffffff90811691830191909152608092830151169181019190915260a001610164565b610407610402366004612242565b610f45565b60405161016494939291906001600160801b039485168152928416602084015292166040820152901515606082015260800190565b61044f61044a3660046122dd565b61100d565b604080516001600160801b03909516855267ffffffffffffffff909316602085015263ffffffff9091169183019190915215156060820152608001610164565b6102f861049d3660046120d5565b611171565b6104b56104b0366004612142565b6111b1565b604080516001600160a01b03909416845263ffffffff909216602084015267ffffffffffffffff1690820152606001610164565b6102f86104f73660046122dd565b6112c5565b61050f61050a3660046121b9565b61130e565b60405160029190910b8152602001610164565b610243610530366004612374565b611404565b6102436105433660046121b9565b6114d7565b6101c16105563660046121b9565b6114ed565b600080600061056b86868661165b565b6040516bffffffffffffffffffffffff1960608a901b166020820152603481018290529091506000906054016040516020818303038152906040528051906020012090506000816201000e6040516020016105d0929190918252602082015260400190565b60408051808303601f190181529082905280516020909101206302ce8af360e01b82526004820181905291506000907f00000000000000000000000000000000000000000000000000000000000000006001600160a01b0316906302ce8af390602401602060405180830381865afa158015610650573d6000803e3d6000fd5b505050506040513d601f19601f82011682018060405250810190610674919061238f565b6001600160801b0381169b60809190911c6001600160601b03169a5098505050505050505050565b6000806000806106ad89898961165b565b905060006106bc8288886116c2565b9050600081620100036040516020016106df929190918252602082015260400190565b60408051808303601f190181529082905280516020909101206302ce8af360e01b82526004820181905291506000907f00000000000000000000000000000000000000000000000000000000000000006001600160a01b0316906302ce8af390602401602060405180830381865afa15801561075f573d6000803e3d6000fd5b505050506040513d601f19601f82011682018060405250810190610783919061238f565b6001600160601b0381169d63ffffffff606083901c169d5060809190911c9b509950505050505050505050565b6040805160e081018252600080825260208201819052918101829052606081018290526080810182905260a0810182905260c08101919091526000826201000860405160200161080a929190918252602082015260400190565b60408051808303601f190181529082905280516020909101206302ce8af360e01b82526004820181905291506000907f00000000000000000000000000000000000000000000000000000000000000006001600160a01b0316906302ce8af390602401602060405180830381865afa15801561088a573d6000803e3d6000fd5b505050506040513d601f19601f820116820180604052508101906108ae919061238f565b60ff808216855261ffff600883901c8116602080880191909152601884901c83166040808901919091529084901c9091166060870152603083901c82166080870152603883901c821660a08701529190911c1660c0840152509092915050565b600061092361091e858585610d66565b6116ed565b949350505050565b60008060008061093c88888861165b565b90506000818660405160200161095f92919091825260e81b602082015260230190565b60405160208183030381529060405280519060200120905060008162010002604051602001610998929190918252602082015260400190565b60408051808303601f190181529082905280516020909101206302ce8af360e01b82526004820181905291506000907f00000000000000000000000000000000000000000000000000000000000000006001600160a01b0316906302ce8af390602401602060405180830381865afa158015610a18573d6000803e3d6000fd5b505050506040513d601f19601f82011682018060405250810190610a3c919061238f565b6001600160601b038181169d606083901c9091169c5060c09190911c9a5098505050505050505050565b600080600080610a778b8b8b61165b565b604080516060810182528915158152600289810b602083015288900b91810191909152909150610aa981838f8c611719565b9450945094505050985098509895505050505050565b6000806000806000610ad58b8b8b8b8b8b61100d565b5050915091506000610ae98b8b8b8b61092b565b925050506000610afb8c8c8c8b61092b565b925050506000610b0c8d8d8d610d66565b90506000610b1b8e8e8e610d66565b6080015190506000610b30836000015161186b565b905060008160020b8d60020b1315610b5157610b4c86846123be565b610b53565b855b905060008260020b8d60020b1315610b7457610b6f86856123be565b610b76565b855b905081810367ffffffffffffffff808a169082161015610baa5760008060009c509c509c5050505050505050505050610be9565b8881036000610bca610bbc8d84611b56565b6001600160901b0316611b76565b9050610bd68882611b9a565b9e509e509e505050505050505050505050505b96509650969350505050565b6000808383604051602001610c209291906001600160a01b0392831681529116602082015260400190565b60405160208183030381529060405280519060200120905060008162010010604051602001610c59929190918252602082015260400190565b60408051808303601f190181529082905280516020909101206302ce8af360e01b82526004820181905291506000907f00000000000000000000000000000000000000000000000000000000000000006001600160a01b0316906302ce8af390602401602060405180830381865afa158015610cd9573d6000803e3d6000fd5b505050506040513d601f19601f82011682018060405250810190610cfd919061238f565b6001600160801b03169695505050505050565b600080610d518484604080516001600160a01b0393841660208083019190915281830193909352815180820383018152606090910190915280519101201690565b9050610d5d8582610bf5565b95945050505050565b6040805160a081018252600080825260208201819052918101829052606081018290526080810182905290610d9c85858561165b565b90506000816201000f604051602001610dbf929190918252602082015260400190565b60408051808303601f190181529082905280516020909101206302ce8af360e01b82526004820181905291506000907f00000000000000000000000000000000000000000000000000000000000000006001600160a01b0316906302ce8af390602401602060405180830381865afa158015610e3f573d6000803e3d6000fd5b505050506040513d601f19601f82011682018060405250810190610e63919061238f565b905060006001600160a01b037f0000000000000000000000000000000000000000000000000000000000000000166302ce8af3610ea18560016123e6565b6040518263ffffffff1660e01b8152600401610ebf91815260200190565b602060405180830381865afa158015610edc573d6000803e3d6000fd5b505050506040513d601f19601f82011682018060405250810190610f00919061238f565b6001600160801b038084168752608093841c60208801528116604087015267ffffffffffffffff81841c16606087015260c01c91850191909152509195945050505050565b600080600080600087610f585785610f5a565b865b90506000610f6e8e8e8e8e8e8e8e8e610a66565b505090506000610f818e8e8e8d8761069c565b50915050600a82901b6d03fffffffffffffffffffffff8001696508a63ffffffff168163ffffffff16141593508315610fd9576000610fbf84611bc5565b9050610fcd818b8b8b611ef0565b9097509550610ffb9050565b6000610fe68f8f8f610d66565b9050610ff4818b8b8b611fca565b9097509550505b50505098509850985098945050505050565b60008060008060006110208a8a8a61165b565b6040805160608e901b6bffffffffffffffffffffffff19166020808301919091526034820184905260e88b811b60548401528a901b60578301528251603a818403018152605a83019093528251920191909120607a82018190526201000d609a83015291925060009060ba0160408051808303601f190181529082905280516020909101206302ce8af360e01b82526004820181905291506000907f00000000000000000000000000000000000000000000000000000000000000006001600160a01b0316906302ce8af390602401602060405180830381865afa15801561110c573d6000803e3d6000fd5b505050506040513d601f19601f82011682018060405250810190611130919061238f565b6001600160801b0381169f67ffffffffffffffff608083901c169f5063ffffffff60c083901c169e5060e09190911c15159c509a5050505050505050505050565b6000806000806111838888888861055b565b5090506000611193888888610d66565b905061119f8183611b9a565b94509450945050509450945094915050565b6000806000806111c289898961165b565b905060006111d18288886116c2565b9050600081620100046040516020016111f4929190918252602082015260400190565b60408051808303601f190181529082905280516020909101206302ce8af360e01b82526004820181905291506000907f00000000000000000000000000000000000000000000000000000000000000006001600160a01b0316906302ce8af390602401602060405180830381865afa158015611274573d6000803e3d6000fd5b505050506040513d601f19601f82011682018060405250810190611298919061238f565b6001600160a01b0381169d63ffffffff60a083901c169d5060c09190911c9b509950505050505050505050565b60008060006112d889898989898961100d565b50919450600091506112ed9050898989610d66565b90506112fb81878787611fca565b949b909a50939850929650505050505050565b60008061131c85858561165b565b90506000816201000f60405160200161133f929190918252602082015260400190565b60408051808303601f190181529082905280516020909101206302ce8af360e01b82526004820181905291506000907f00000000000000000000000000000000000000000000000000000000000000006001600160a01b0316906302ce8af390602401602060405180830381865afa1580156113bf573d6000803e3d6000fd5b505050506040513d601f19601f820116820180604052508101906113e3919061238f565b90506001600160801b0381166113f88161186b565b98975050505050505050565b6040516000906001600160a01b0383169082906114339083906201000c90602001918252602082015260400190565b60408051808303601f190181529082905280516020909101206302ce8af360e01b82526004820181905291506000907f00000000000000000000000000000000000000000000000000000000000000006001600160a01b0316906302ce8af390602401602060405180830381865afa1580156114b3573d6000803e3d6000fd5b505050506040513d601f19601f82011682018060405250810190610d5d919061238f565b60006114e4848484610d66565b51949350505050565b6040805160e081018252600080825260208201819052918101829052606081018290526080810182905260a0810182905260c081018290529061153185858561165b565b905060008162010009604051602001611554929190918252602082015260400190565b60408051808303601f190181529082905280516020909101206302ce8af360e01b82526004820181905291506000907f00000000000000000000000000000000000000000000000000000000000000006001600160a01b0316906302ce8af390602401602060405180830381865afa1580156115d4573d6000803e3d6000fd5b505050506040513d601f19601f820116820180604052508101906115f8919061238f565b60ff808216865261ffff600883901c8116602080890191909152601884901c83166040808a01919091529084901c9091166060880152603083901c82166080880152603883901c821660a08801529190911c1660c0850152509195945050505050565b6000826001600160a01b0316846001600160a01b03161061167b57600080fd5b604080516001600160a01b038087166020830152851691810191909152606081018390526080015b6040516020818303038152906040528051906020012090509392505050565b60008383836040516020016116a393929190928352901515602083015260020b604082015260600190565b60008061170283602001518460600151611fea565b905061171281846040015161202d565b9392505050565b835160208086015160408088015181518085018990526001600160a01b038816818401529415156060860152600292830b608086015290910b60a084015263ffffffff841660c0808501919091528151808503909101815260e0840190915280519101206101008201819052620100056101208301526000918291829182906101400160408051808303601f190181529082905280516020909101206302ce8af360e01b82526004820181905291506000907f00000000000000000000000000000000000000000000000000000000000000006001600160a01b0316906302ce8af390602401602060405180830381865afa15801561181c573d6000803e3d6000fd5b505050506040513d601f19601f82011682018060405250810190611840919061238f565b6001600160601b0381169b63ffffffff608083901c169b5060e09190911c9950975050505050505050565b6000620100026001600160801b038316108015906118a157506f0ffff5433e2b3d8211706e6102aa94726001600160801b038316105b6118aa57600080fd5b600160401b600160c01b03604083901b166001600160801b03811160071b81811c67ffffffffffffffff811160061b90811c63ffffffff811160051b90811c61ffff811160041b90811c60ff8111600390811b91821c600f811160021b90811c918211600190811b92831c9790881196179094179092171790911717176080811061193d57607f810383901c9150611947565b80607f0383901b91505b908002607f81811c60ff83811c9190911c800280831c81831c1c800280841c81841c1c800280851c81851c1c800280861c81861c1c800280871c81871c1c800280881c81881c1c800280891c81891c1c8002808a1c818a1c1c8002808b1c818b1c1c8002808c1c818c1c1c8002808d1c818d1c1c8002808e1c9c81901c9c909c1c80029c8d901c9e9d607f198f0160401b60c09190911c678000000000000000161760c19b909b1c674000000000000000169a909a1760c29990991c672000000000000000169890981760c39790971c671000000000000000169690961760c49590951c670800000000000000169490941760c59390931c670400000000000000169290921760c69190911c670200000000000000161760c79190911c670100000000000000161760c89190911c6680000000000000161760c99190911c6640000000000000161760ca9190911c6620000000000000161760cb9190911c6610000000000000161760cc9190911c6608000000000000161760cd9190911c66040000000000001617693627a301d71055774c8581026f028f6481ab7f045a5af012a19d003aa9198101608090811d906fdb2df09e81959a81455e260799a0632f8301901d600281810b9083900b14611b4757886001600160801b0316611b2c82611bc5565b6001600160801b03161115611b415781611b49565b80611b49565b815b9998505050505050505050565b6001600160801b03821667ffffffffffffffff82160260301c5b92915050565b806001600160801b0381166001600160901b03821614611b9557600080fd5b919050565b6000806000611bad848660600151611fea565b9250611bb98584612049565b93969095509293505050565b6000620a276d19600283900b12801590611be65750620cb14a600283900b13155b611bef57600080fd5b6000808360020b12611c04578260020b611c0c565b8260020b6000035b9050600081600116600003611c2557600160801b611c37565b6ffffcb933bd6fad37aa2d162d1a5940015b70ffffffffffffffffffffffffffffffffff1690506002821615611c6b576ffff97272373d413259a46990580e213a0260801c5b6004821615611c8a576ffff2e50f5f656932ef12357cf3c7fdcc0260801c5b6008821615611ca9576fffe5caca7e10e4e61c3624eaa0941cd00260801c5b6010821615611cc8576fffcb9843d60f6159c9db58835c9266440260801c5b6020821615611ce7576fff973b41fa98c081472e6896dfb254c00260801c5b6040821615611d06576fff2ea16466c96a3843ec78b326b528610260801c5b6080821615611d25576ffe5dee046a99a2a811c461f1969c30530260801c5b610100821615611d45576ffcbe86c7900a88aedcffc83b479aa3a40260801c5b610200821615611d65576ff987a7253ac413176f2b074cf7815e540260801c5b610400821615611d85576ff3392b0822b70005940c7a398e4b70f30260801c5b610800821615611da5576fe7159475a2c29b7443b29c7fa6e889d90260801c5b611000821615611dc5576fd097f3bdfd2022b8845ad8f792aa58250260801c5b612000821615611de5576fa9f746462d870fdf8a65dc1f90e061e50260801c5b614000821615611e05576f70d869a156d2a1b890bb3df62baf32f70260801c5b618000821615611e25576f31be135f97d08fd981231505542fcfa60260801c5b62010000821615611e46576f09aa508b5b7a84e1c677de54f3e99bc90260801c5b62020000821615611e66576e5d6af8dedb81196699c329225ee6040260801c5b62040000821615611e85576d2216e584f5fa1ea926041bedfe980260801c5b62080000821615611ea2576b048a170391f7dc42444e8fa20260801c5b60008460020b1315611ec3578060001981611ebf57611ebf6123f9565b0490505b68010000000000000000810615611edb576001611ede565b60005b60ff16604082901c0192505050919050565b6000806000611efe86611bc5565b90506000611f0b86611bc5565b9050600080611f1a8488612065565b91509150600080611f2b858a612065565b91509150600080611f3c8e8c612065565b91509150876001600160801b03168e6001600160801b03161015611f77576000611f66848761240f565b995099505050505050505050611fc1565b866001600160801b03168e6001600160801b031610611fad57611f9a868561240f565b6000995099505050505050505050611fc1565b611fb7868361240f565b611f66848361240f565b94509492505050565b600080611fdd8660000151868686611ef0565b9150915094509492505050565b600066010000000000006001600160801b0380851667ffffffffffffffff851683010290603082901c90811115610d5d576001600160801b039350505050611b70565b8082016001600160801b038084169082161015611b7057600080fd5b60008061205a846000015184612065565b915091509250929050565b6001600160801b038281169082160260401c6000612083838561208c565b90509250929050565b60006001600160801b038216600160401b600160c01b03604085901b16816120b6576120b66123f9565b049392505050565b80356001600160a01b0381168114611b9557600080fd5b600080600080608085870312156120eb57600080fd5b6120f4856120be565b9350612102602086016120be565b9250612110604086016120be565b9396929550929360600135925050565b80358015158114611b9557600080fd5b8035600281900b8114611b9557600080fd5b600080600080600060a0868803121561215a57600080fd5b612163866120be565b9450612171602087016120be565b93506040860135925061218660608701612120565b915061219460808701612130565b90509295509295909350565b6000602082840312156121b257600080fd5b5035919050565b6000806000606084860312156121ce57600080fd5b6121d7846120be565b92506121e5602085016120be565b9150604084013590509250925092565b6000806000806080858703121561220b57600080fd5b612214856120be565b9350612222602086016120be565b92506040850135915061223760608601612130565b905092959194509250565b600080600080600080600080610100898b03121561225f57600080fd5b612268896120be565b975061227660208a016120be565b965061228460408a016120be565b955060608901359450608089013563ffffffff811681146122a457600080fd5b93506122b260a08a01612120565b92506122c060c08a01612130565b91506122ce60e08a01612130565b90509295985092959890939650565b60008060008060008060c087890312156122f657600080fd5b6122ff876120be565b955061230d602088016120be565b945061231b604088016120be565b93506060870135925061233060808801612130565b915061233e60a08801612130565b90509295509295509295565b6000806040838503121561235d57600080fd5b612366836120be565b9150612083602084016120be565b60006020828403121561238657600080fd5b611712826120be565b6000602082840312156123a157600080fd5b5051919050565b634e487b7160e01b600052601160045260246000fd5b67ffffffffffffffff8281168282160390808211156123df576123df6123a8565b5092915050565b80820180821115611b7057611b706123a8565b634e487b7160e01b600052601260045260246000fd5b6001600160801b038281168282160390808211156123df576123df6123a856fea2646970667358221220902eff72acde45da3b0f31acc732ed4a64973d197c2f4283242e5a5a4c5b41d464736f6c63430008130033",
			"opcodes": "PUSH1 0xA0 PUSH1 0x40 MSTORE CALLVALUE DUP1 ISZERO PUSH3 0x11 JUMPI PUSH1 0x0 DUP1 REVERT JUMPDEST POP PUSH1 0x40 MLOAD PUSH3 0x2642 CODESIZE SUB DUP1 PUSH3 0x2642 DUP4 CODECOPY DUP2 ADD PUSH1 0x40 DUP2 SWAP1 MSTORE PUSH3 0x34 SWAP2 PUSH3 0x110 JUMP JUMPDEST PUSH1 0x1 PUSH1 0x1 PUSH1 0xA0 SHL SUB DUP2 AND ISZERO DUP1 ISZERO SWAP1 PUSH3 0xAD JUMPI POP DUP1 PUSH1 0x1 PUSH1 0x1 PUSH1 0xA0 SHL SUB AND PUSH4 0x7A5783E7 PUSH1 0x40 MLOAD DUP2 PUSH4 0xFFFFFFFF AND PUSH1 0xE0 SHL DUP2 MSTORE PUSH1 0x4 ADD PUSH1 0x20 PUSH1 0x40 MLOAD DUP1 DUP4 SUB DUP2 DUP7 GAS STATICCALL ISZERO DUP1 ISZERO PUSH3 0x87 JUMPI RETURNDATASIZE PUSH1 0x0 DUP1 RETURNDATACOPY RETURNDATASIZE PUSH1 0x0 REVERT JUMPDEST POP POP POP POP PUSH1 0x40 MLOAD RETURNDATASIZE PUSH1 0x1F NOT PUSH1 0x1F DUP3 ADD AND DUP3 ADD DUP1 PUSH1 0x40 MSTORE POP DUP2 ADD SWAP1 PUSH3 0xAD SWAP2 SWAP1 PUSH3 0x142 JUMP JUMPDEST PUSH3 0xFE JUMPI PUSH1 0x40 MLOAD PUSH3 0x461BCD PUSH1 0xE5 SHL DUP2 MSTORE PUSH1 0x20 PUSH1 0x4 DUP3 ADD MSTORE PUSH1 0x13 PUSH1 0x24 DUP3 ADD MSTORE PUSH32 0x496E76616C696420486171715377617044657800000000000000000000000000 PUSH1 0x44 DUP3 ADD MSTORE PUSH1 0x64 ADD PUSH1 0x40 MLOAD DUP1 SWAP2 SUB SWAP1 REVERT JUMPDEST PUSH1 0x1 PUSH1 0x1 PUSH1 0xA0 SHL SUB AND PUSH1 0x80 MSTORE PUSH3 0x166 JUMP JUMPDEST PUSH1 0x0 PUSH1 0x20 DUP3 DUP5 SUB SLT ISZERO PUSH3 0x123 JUMPI PUSH1 0x0 DUP1 REVERT JUMPDEST DUP2 MLOAD PUSH1 0x1 PUSH1 0x1 PUSH1 0xA0 SHL SUB DUP2 AND DUP2 EQ PUSH3 0x13B JUMPI PUSH1 0x0 DUP1 REVERT JUMPDEST SWAP4 SWAP3 POP POP POP JUMP JUMPDEST PUSH1 0x0 PUSH1 0x20 DUP3 DUP5 SUB SLT ISZERO PUSH3 0x155 JUMPI PUSH1 0x0 DUP1 REVERT JUMPDEST DUP2 MLOAD DUP1 ISZERO ISZERO DUP2 EQ PUSH3 0x13B JUMPI PUSH1 0x0 DUP1 REVERT JUMPDEST PUSH1 0x80 MLOAD PUSH2 0x2465 PUSH3 0x1DD PUSH1 0x0 CODECOPY PUSH1 0x0 DUP2 DUP2 PUSH2 0x34D ADD MSTORE DUP2 DUP2 PUSH2 0x601 ADD MSTORE DUP2 DUP2 PUSH2 0x710 ADD MSTORE DUP2 DUP2 PUSH2 0x83B ADD MSTORE DUP2 DUP2 PUSH2 0x9C9 ADD MSTORE DUP2 DUP2 PUSH2 0xC8A ADD MSTORE DUP2 DUP2 PUSH2 0xDF0 ADD MSTORE DUP2 DUP2 PUSH2 0xE71 ADD MSTORE DUP2 DUP2 PUSH2 0x10BD ADD MSTORE DUP2 DUP2 PUSH2 0x1225 ADD MSTORE DUP2 DUP2 PUSH2 0x1370 ADD MSTORE DUP2 DUP2 PUSH2 0x1464 ADD MSTORE DUP2 DUP2 PUSH2 0x1585 ADD MSTORE PUSH2 0x17CD ADD MSTORE PUSH2 0x2465 PUSH1 0x0 RETURN INVALID PUSH1 0x80 PUSH1 0x40 MSTORE CALLVALUE DUP1 ISZERO PUSH2 0x10 JUMPI PUSH1 0x0 DUP1 REVERT JUMPDEST POP PUSH1 0x4 CALLDATASIZE LT PUSH2 0x12C JUMPI PUSH1 0x0 CALLDATALOAD PUSH1 0xE0 SHR DUP1 PUSH4 0x8E56C1C1 GT PUSH2 0xAD JUMPI DUP1 PUSH4 0xD7FD8D0F GT PUSH2 0x71 JUMPI DUP1 PUSH4 0xD7FD8D0F EQ PUSH2 0x4E9 JUMPI DUP1 PUSH4 0xDC91A6AD EQ PUSH2 0x4FC JUMPI DUP1 PUSH4 0xED8F58F4 EQ PUSH2 0x522 JUMPI DUP1 PUSH4 0xF8C7EFA7 EQ PUSH2 0x535 JUMPI DUP1 PUSH4 0xFF163E14 EQ PUSH2 0x548 JUMPI PUSH1 0x0 DUP1 REVERT JUMPDEST DUP1 PUSH4 0x8E56C1C1 EQ PUSH2 0x387 JUMPI DUP1 PUSH4 0x93C33A71 EQ PUSH2 0x3F4 JUMPI DUP1 PUSH4 0x992236C5 EQ PUSH2 0x43C JUMPI DUP1 PUSH4 0xA6E2FE72 EQ PUSH2 0x48F JUMPI DUP1 PUSH4 0xAB0A9898 EQ PUSH2 0x4A2 JUMPI PUSH1 0x0 DUP1 REVERT JUMPDEST DUP1 PUSH4 0x391D582F GT PUSH2 0xF4 JUMPI DUP1 PUSH4 0x391D582F EQ PUSH2 0x29E JUMPI DUP1 PUSH4 0x3DCCD7D7 EQ PUSH2 0x2E5 JUMPI DUP1 PUSH4 0x56BF0F5B EQ PUSH2 0x322 JUMPI DUP1 PUSH4 0x6756E9B8 EQ PUSH2 0x335 JUMPI DUP1 PUSH4 0x87834A0E EQ PUSH2 0x348 JUMPI PUSH1 0x0 DUP1 REVERT JUMPDEST DUP1 PUSH4 0xA782762 EQ PUSH2 0x131 JUMPI DUP1 PUSH4 0x10FC74F4 EQ PUSH2 0x16D JUMPI DUP1 PUSH4 0x2855BCF3 EQ PUSH2 0x1AE JUMPI DUP1 PUSH4 0x338ADC67 EQ PUSH2 0x230 JUMPI DUP1 PUSH4 0x340BFA12 EQ PUSH2 0x25B JUMPI JUMPDEST PUSH1 0x0 DUP1 REVERT JUMPDEST PUSH2 0x144 PUSH2 0x13F CALLDATASIZE PUSH1 0x4 PUSH2 0x20D5 JUMP JUMPDEST PUSH2 0x55B JUMP JUMPDEST PUSH1 0x40 DUP1 MLOAD PUSH1 0x1 PUSH1 0x1 PUSH1 0x80 SHL SUB SWAP1 SWAP4 AND DUP4 MSTORE PUSH4 0xFFFFFFFF SWAP1 SWAP2 AND PUSH1 0x20 DUP4 ADD MSTORE ADD JUMPDEST PUSH1 0x40 MLOAD DUP1 SWAP2 SUB SWAP1 RETURN JUMPDEST PUSH2 0x180 PUSH2 0x17B CALLDATASIZE PUSH1 0x4 PUSH2 0x2142 JUMP JUMPDEST PUSH2 0x69C JUMP JUMPDEST PUSH1 0x40 DUP1 MLOAD PUSH1 0x1 PUSH1 0x1 PUSH1 0x60 SHL SUB SWAP1 SWAP5 AND DUP5 MSTORE PUSH4 0xFFFFFFFF SWAP1 SWAP3 AND PUSH1 0x20 DUP5 ADD MSTORE PUSH2 0xFFFF AND SWAP1 DUP3 ADD MSTORE PUSH1 0x60 ADD PUSH2 0x164 JUMP JUMPDEST PUSH2 0x1C1 PUSH2 0x1BC CALLDATASIZE PUSH1 0x4 PUSH2 0x21A0 JUMP JUMPDEST PUSH2 0x7B0 JUMP JUMPDEST PUSH1 0x40 MLOAD PUSH2 0x164 SWAP2 SWAP1 PUSH1 0x0 PUSH1 0xE0 DUP3 ADD SWAP1 POP PUSH1 0xFF DUP4 MLOAD AND DUP3 MSTORE PUSH1 0x20 DUP4 ADD MLOAD PUSH2 0xFFFF DUP1 DUP3 AND PUSH1 0x20 DUP6 ADD MSTORE PUSH1 0xFF PUSH1 0x40 DUP7 ADD MLOAD AND PUSH1 0x40 DUP6 ADD MSTORE DUP1 PUSH1 0x60 DUP7 ADD MLOAD AND PUSH1 0x60 DUP6 ADD MSTORE POP POP PUSH1 0xFF PUSH1 0x80 DUP5 ADD MLOAD AND PUSH1 0x80 DUP4 ADD MSTORE PUSH1 0xFF PUSH1 0xA0 DUP5 ADD MLOAD AND PUSH1 0xA0 DUP4 ADD MSTORE PUSH1 0xFF PUSH1 0xC0 DUP5 ADD MLOAD AND PUSH1 0xC0 DUP4 ADD MSTORE SWAP3 SWAP2 POP POP JUMP JUMPDEST PUSH2 0x243 PUSH2 0x23E CALLDATASIZE PUSH1 0x4 PUSH2 0x21B9 JUMP JUMPDEST PUSH2 0x90E JUMP JUMPDEST PUSH1 0x40 MLOAD PUSH1 0x1 PUSH1 0x1 PUSH1 0x80 SHL SUB SWAP1 SWAP2 AND DUP2 MSTORE PUSH1 0x20 ADD PUSH2 0x164 JUMP JUMPDEST PUSH2 0x26E PUSH2 0x269 CALLDATASIZE PUSH1 0x4 PUSH2 0x21F5 JUMP JUMPDEST PUSH2 0x92B JUMP JUMPDEST PUSH1 0x40 DUP1 MLOAD PUSH1 0x1 PUSH1 0x1 PUSH1 0x60 SHL SUB SWAP5 DUP6 AND DUP2 MSTORE SWAP4 SWAP1 SWAP3 AND PUSH1 0x20 DUP5 ADD MSTORE PUSH8 0xFFFFFFFFFFFFFFFF AND SWAP1 DUP3 ADD MSTORE PUSH1 0x60 ADD PUSH2 0x164 JUMP JUMPDEST PUSH2 0x2B1 PUSH2 0x2AC CALLDATASIZE PUSH1 0x4 PUSH2 0x2242 JUMP JUMPDEST PUSH2 0xA66 JUMP JUMPDEST PUSH1 0x40 DUP1 MLOAD PUSH1 0x1 PUSH1 0x1 PUSH1 0x60 SHL SUB SWAP1 SWAP5 AND DUP5 MSTORE PUSH8 0xFFFFFFFFFFFFFFFF SWAP1 SWAP3 AND PUSH1 0x20 DUP5 ADD MSTORE PUSH4 0xFFFFFFFF AND SWAP1 DUP3 ADD MSTORE PUSH1 0x60 ADD PUSH2 0x164 JUMP JUMPDEST PUSH2 0x2F8 PUSH2 0x2F3 CALLDATASIZE PUSH1 0x4 PUSH2 0x22DD JUMP JUMPDEST PUSH2 0xABF JUMP JUMPDEST PUSH1 0x40 DUP1 MLOAD PUSH1 0x1 PUSH1 0x1 PUSH1 0x80 SHL SUB SWAP5 DUP6 AND DUP2 MSTORE SWAP3 DUP5 AND PUSH1 0x20 DUP5 ADD MSTORE SWAP3 AND SWAP2 DUP2 ADD SWAP2 SWAP1 SWAP2 MSTORE PUSH1 0x60 ADD PUSH2 0x164 JUMP JUMPDEST PUSH2 0x243 PUSH2 0x330 CALLDATASIZE PUSH1 0x4 PUSH2 0x234A JUMP JUMPDEST PUSH2 0xBF5 JUMP JUMPDEST PUSH2 0x243 PUSH2 0x343 CALLDATASIZE PUSH1 0x4 PUSH2 0x21B9 JUMP JUMPDEST PUSH2 0xD10 JUMP JUMPDEST PUSH2 0x36F PUSH32 0x0 DUP2 JUMP JUMPDEST PUSH1 0x40 MLOAD PUSH1 0x1 PUSH1 0x1 PUSH1 0xA0 SHL SUB SWAP1 SWAP2 AND DUP2 MSTORE PUSH1 0x20 ADD PUSH2 0x164 JUMP JUMPDEST PUSH2 0x39A PUSH2 0x395 CALLDATASIZE PUSH1 0x4 PUSH2 0x21B9 JUMP JUMPDEST PUSH2 0xD66 JUMP JUMPDEST PUSH1 0x40 DUP1 MLOAD DUP3 MLOAD PUSH1 0x1 PUSH1 0x1 PUSH1 0x80 SHL SUB SWAP1 DUP2 AND DUP3 MSTORE PUSH1 0x20 DUP1 DUP6 ADD MLOAD DUP3 AND SWAP1 DUP4 ADD MSTORE DUP4 DUP4 ADD MLOAD AND SWAP2 DUP2 ADD SWAP2 SWAP1 SWAP2 MSTORE PUSH1 0x60 DUP1 DUP4 ADD MLOAD PUSH8 0xFFFFFFFFFFFFFFFF SWAP1 DUP2 AND SWAP2 DUP4 ADD SWAP2 SWAP1 SWAP2 MSTORE PUSH1 0x80 SWAP3 DUP4 ADD MLOAD AND SWAP2 DUP2 ADD SWAP2 SWAP1 SWAP2 MSTORE PUSH1 0xA0 ADD PUSH2 0x164 JUMP JUMPDEST PUSH2 0x407 PUSH2 0x402 CALLDATASIZE PUSH1 0x4 PUSH2 0x2242 JUMP JUMPDEST PUSH2 0xF45 JUMP JUMPDEST PUSH1 0x40 MLOAD PUSH2 0x164 SWAP5 SWAP4 SWAP3 SWAP2 SWAP1 PUSH1 0x1 PUSH1 0x1 PUSH1 0x80 SHL SUB SWAP5 DUP6 AND DUP2 MSTORE SWAP3 DUP5 AND PUSH1 0x20 DUP5 ADD MSTORE SWAP3 AND PUSH1 0x40 DUP3 ADD MSTORE SWAP1 ISZERO ISZERO PUSH1 0x60 DUP3 ADD MSTORE PUSH1 0x80 ADD SWAP1 JUMP JUMPDEST PUSH2 0x44F PUSH2 0x44A CALLDATASIZE PUSH1 0x4 PUSH2 0x22DD JUMP JUMPDEST PUSH2 0x100D JUMP JUMPDEST PUSH1 0x40 DUP1 MLOAD PUSH1 0x1 PUSH1 0x1 PUSH1 0x80 SHL SUB SWAP1 SWAP6 AND DUP6 MSTORE PUSH8 0xFFFFFFFFFFFFFFFF SWAP1 SWAP4 AND PUSH1 0x20 DUP6 ADD MSTORE PUSH4 0xFFFFFFFF SWAP1 SWAP2 AND SWAP2 DUP4 ADD SWAP2 SWAP1 SWAP2 MSTORE ISZERO ISZERO PUSH1 0x60 DUP3 ADD MSTORE PUSH1 0x80 ADD PUSH2 0x164 JUMP JUMPDEST PUSH2 0x2F8 PUSH2 0x49D CALLDATASIZE PUSH1 0x4 PUSH2 0x20D5 JUMP JUMPDEST PUSH2 0x1171 JUMP JUMPDEST PUSH2 0x4B5 PUSH2 0x4B0 CALLDATASIZE PUSH1 0x4 PUSH2 0x2142 JUMP JUMPDEST PUSH2 0x11B1 JUMP JUMPDEST PUSH1 0x40 DUP1 MLOAD PUSH1 0x1 PUSH1 0x1 PUSH1 0xA0 SHL SUB SWAP1 SWAP5 AND DUP5 MSTORE PUSH4 0xFFFFFFFF SWAP1 SWAP3 AND PUSH1 0x20 DUP5 ADD MSTORE PUSH8 0xFFFFFFFFFFFFFFFF AND SWAP1 DUP3 ADD MSTORE PUSH1 0x60 ADD PUSH2 0x164 JUMP JUMPDEST PUSH2 0x2F8 PUSH2 0x4F7 CALLDATASIZE PUSH1 0x4 PUSH2 0x22DD JUMP JUMPDEST PUSH2 0x12C5 JUMP JUMPDEST PUSH2 0x50F PUSH2 0x50A CALLDATASIZE PUSH1 0x4 PUSH2 0x21B9 JUMP JUMPDEST PUSH2 0x130E JUMP JUMPDEST PUSH1 0x40 MLOAD PUSH1 0x2 SWAP2 SWAP1 SWAP2 SIGNEXTEND DUP2 MSTORE PUSH1 0x20 ADD PUSH2 0x164 JUMP JUMPDEST PUSH2 0x243 PUSH2 0x530 CALLDATASIZE PUSH1 0x4 PUSH2 0x2374 JUMP JUMPDEST PUSH2 0x1404 JUMP JUMPDEST PUSH2 0x243 PUSH2 0x543 CALLDATASIZE PUSH1 0x4 PUSH2 0x21B9 JUMP JUMPDEST PUSH2 0x14D7 JUMP JUMPDEST PUSH2 0x1C1 PUSH2 0x556 CALLDATASIZE PUSH1 0x4 PUSH2 0x21B9 JUMP JUMPDEST PUSH2 0x14ED JUMP JUMPDEST PUSH1 0x0 DUP1 PUSH1 0x0 PUSH2 0x56B DUP7 DUP7 DUP7 PUSH2 0x165B JUMP JUMPDEST PUSH1 0x40 MLOAD PUSH12 0xFFFFFFFFFFFFFFFFFFFFFFFF NOT PUSH1 0x60 DUP11 SWAP1 SHL AND PUSH1 0x20 DUP3 ADD MSTORE PUSH1 0x34 DUP2 ADD DUP3 SWAP1 MSTORE SWAP1 SWAP2 POP PUSH1 0x0 SWAP1 PUSH1 0x54 ADD PUSH1 0x40 MLOAD PUSH1 0x20 DUP2 DUP4 SUB SUB DUP2 MSTORE SWAP1 PUSH1 0x40 MSTORE DUP1 MLOAD SWAP1 PUSH1 0x20 ADD KECCAK256 SWAP1 POP PUSH1 0x0 DUP2 PUSH3 0x1000E PUSH1 0x40 MLOAD PUSH1 0x20 ADD PUSH2 0x5D0 SWAP3 SWAP2 SWAP1 SWAP2 DUP3 MSTORE PUSH1 0x20 DUP3 ADD MSTORE PUSH1 0x40 ADD SWAP1 JUMP JUMPDEST PUSH1 0x40 DUP1 MLOAD DUP1 DUP4 SUB PUSH1 0x1F NOT ADD DUP2 MSTORE SWAP1 DUP3 SWAP1 MSTORE DUP1 MLOAD PUSH1 0x20 SWAP1 SWAP2 ADD KECCAK256 PUSH4 0x2CE8AF3 PUSH1 0xE0 SHL DUP3 MSTORE PUSH1 0x4 DUP3 ADD DUP2 SWAP1 MSTORE SWAP2 POP PUSH1 0x0 SWAP1 PUSH32 0x0 PUSH1 0x1 PUSH1 0x1 PUSH1 0xA0 SHL SUB AND SWAP1 PUSH4 0x2CE8AF3 SWAP1 PUSH1 0x24 ADD PUSH1 0x20 PUSH1 0x40 MLOAD DUP1 DUP4 SUB DUP2 DUP7 GAS STATICCALL ISZERO DUP1 ISZERO PUSH2 0x650 JUMPI RETURNDATASIZE PUSH1 0x0 DUP1 RETURNDATACOPY RETURNDATASIZE PUSH1 0x0 REVERT JUMPDEST POP POP POP POP PUSH1 0x40 MLOAD RETURNDATASIZE PUSH1 0x1F NOT PUSH1 0x1F DUP3 ADD AND DUP3 ADD DUP1 PUSH1 0x40 MSTORE POP DUP2 ADD SWAP1 PUSH2 0x674 SWAP2 SWAP1 PUSH2 0x238F JUMP JUMPDEST PUSH1 0x1 PUSH1 0x1 PUSH1 0x80 SHL SUB DUP2 AND SWAP12 PUSH1 0x80 SWAP2 SWAP1 SWAP2 SHR PUSH1 0x1 PUSH1 0x1 PUSH1 0x60 SHL SUB AND SWAP11 POP SWAP9 POP POP POP POP POP POP POP POP POP JUMP JUMPDEST PUSH1 0x0 DUP1 PUSH1 0x0 DUP1 PUSH2 0x6AD DUP10 DUP10 DUP10 PUSH2 0x165B JUMP JUMPDEST SWAP1 POP PUSH1 0x0 PUSH2 0x6BC DUP3 DUP9 DUP9 PUSH2 0x16C2 JUMP JUMPDEST SWAP1 POP PUSH1 0x0 DUP2 PUSH3 0x10003 PUSH1 0x40 MLOAD PUSH1 0x20 ADD PUSH2 0x6DF SWAP3 SWAP2 SWAP1 SWAP2 DUP3 MSTORE PUSH1 0x20 DUP3 ADD MSTORE PUSH1 0x40 ADD SWAP1 JUMP JUMPDEST PUSH1 0x40 DUP1 MLOAD DUP1 DUP4 SUB PUSH1 0x1F NOT ADD DUP2 MSTORE SWAP1 DUP3 SWAP1 MSTORE DUP1 MLOAD PUSH1 0x20 SWAP1 SWAP2 ADD KECCAK256 PUSH4 0x2CE8AF3 PUSH1 0xE0 SHL DUP3 MSTORE PUSH1 0x4 DUP3 ADD DUP2 SWAP1 MSTORE SWAP2 POP PUSH1 0x0 SWAP1 PUSH32 0x0 PUSH1 0x1 PUSH1 0x1 PUSH1 0xA0 SHL SUB AND SWAP1 PUSH4 0x2CE8AF3 SWAP1 PUSH1 0x24 ADD PUSH1 0x20 PUSH1 0x40 MLOAD DUP1 DUP4 SUB DUP2 DUP7 GAS STATICCALL ISZERO DUP1 ISZERO PUSH2 0x75F JUMPI RETURNDATASIZE PUSH1 0x0 DUP1 RETURNDATACOPY RETURNDATASIZE PUSH1 0x0 REVERT JUMPDEST POP POP POP POP PUSH1 0x40 MLOAD RETURNDATASIZE PUSH1 0x1F NOT PUSH1 0x1F DUP3 ADD AND DUP3 ADD DUP1 PUSH1 0x40 MSTORE POP DUP2 ADD SWAP1 PUSH2 0x783 SWAP2 SWAP1 PUSH2 0x238F JUMP JUMPDEST PUSH1 0x1 PUSH1 0x1 PUSH1 0x60 SHL SUB DUP2 AND SWAP14 PUSH4 0xFFFFFFFF PUSH1 0x60 DUP4 SWAP1 SHR AND SWAP14 POP PUSH1 0x80 SWAP2 SWAP1 SWAP2 SHR SWAP12 POP SWAP10 POP POP POP POP POP POP POP POP POP POP JUMP JUMPDEST PUSH1 0x40 DUP1 MLOAD PUSH1 0xE0 DUP2 ADD DUP3 MSTORE PUSH1 0x0 DUP1 DUP3 MSTORE PUSH1 0x20 DUP3 ADD DUP2 SWAP1 MSTORE SWAP2 DUP2 ADD DUP3 SWAP1 MSTORE PUSH1 0x60 DUP2 ADD DUP3 SWAP1 MSTORE PUSH1 0x80 DUP2 ADD DUP3 SWAP1 MSTORE PUSH1 0xA0 DUP2 ADD DUP3 SWAP1 MSTORE PUSH1 0xC0 DUP2 ADD SWAP2 SWAP1 SWAP2 MSTORE PUSH1 0x0 DUP3 PUSH3 0x10008 PUSH1 0x40 MLOAD PUSH1 0x20 ADD PUSH2 0x80A SWAP3 SWAP2 SWAP1 SWAP2 DUP3 MSTORE PUSH1 0x20 DUP3 ADD MSTORE PUSH1 0x40 ADD SWAP1 JUMP JUMPDEST PUSH1 0x40 DUP1 MLOAD DUP1 DUP4 SUB PUSH1 0x1F NOT ADD DUP2 MSTORE SWAP1 DUP3 SWAP1 MSTORE DUP1 MLOAD PUSH1 0x20 SWAP1 SWAP2 ADD KECCAK256 PUSH4 0x2CE8AF3 PUSH1 0xE0 SHL DUP3 MSTORE PUSH1 0x4 DUP3 ADD DUP2 SWAP1 MSTORE SWAP2 POP PUSH1 0x0 SWAP1 PUSH32 0x0 PUSH1 0x1 PUSH1 0x1 PUSH1 0xA0 SHL SUB AND SWAP1 PUSH4 0x2CE8AF3 SWAP1 PUSH1 0x24 ADD PUSH1 0x20 PUSH1 0x40 MLOAD DUP1 DUP4 SUB DUP2 DUP7 GAS STATICCALL ISZERO DUP1 ISZERO PUSH2 0x88A JUMPI RETURNDATASIZE PUSH1 0x0 DUP1 RETURNDATACOPY RETURNDATASIZE PUSH1 0x0 REVERT JUMPDEST POP POP POP POP PUSH1 0x40 MLOAD RETURNDATASIZE PUSH1 0x1F NOT PUSH1 0x1F DUP3 ADD AND DUP3 ADD DUP1 PUSH1 0x40 MSTORE POP DUP2 ADD SWAP1 PUSH2 0x8AE SWAP2 SWAP1 PUSH2 0x238F JUMP JUMPDEST PUSH1 0xFF DUP1 DUP3 AND DUP6 MSTORE PUSH2 0xFFFF PUSH1 0x8 DUP4 SWAP1 SHR DUP2 AND PUSH1 0x20 DUP1 DUP9 ADD SWAP2 SWAP1 SWAP2 MSTORE PUSH1 0x18 DUP5 SWAP1 SHR DUP4 AND PUSH1 0x40 DUP1 DUP10 ADD SWAP2 SWAP1 SWAP2 MSTORE SWAP1 DUP5 SWAP1 SHR SWAP1 SWAP2 AND PUSH1 0x60 DUP8 ADD MSTORE PUSH1 0x30 DUP4 SWAP1 SHR DUP3 AND PUSH1 0x80 DUP8 ADD MSTORE PUSH1 0x38 DUP4 SWAP1 SHR DUP3 AND PUSH1 0xA0 DUP8 ADD MSTORE SWAP2 SWAP1 SWAP2 SHR AND PUSH1 0xC0 DUP5 ADD MSTORE POP SWAP1 SWAP3 SWAP2 POP POP JUMP JUMPDEST PUSH1 0x0 PUSH2 0x923 PUSH2 0x91E DUP6 DUP6 DUP6 PUSH2 0xD66 JUMP JUMPDEST PUSH2 0x16ED JUMP JUMPDEST SWAP5 SWAP4 POP POP POP POP JUMP JUMPDEST PUSH1 0x0 DUP1 PUSH1 0x0 DUP1 PUSH2 0x93C DUP9 DUP9 DUP9 PUSH2 0x165B JUMP JUMPDEST SWAP1 POP PUSH1 0x0 DUP2 DUP7 PUSH1 0x40 MLOAD PUSH1 0x20 ADD PUSH2 0x95F SWAP3 SWAP2 SWAP1 SWAP2 DUP3 MSTORE PUSH1 0xE8 SHL PUSH1 0x20 DUP3 ADD MSTORE PUSH1 0x23 ADD SWAP1 JUMP JUMPDEST PUSH1 0x40 MLOAD PUSH1 0x20 DUP2 DUP4 SUB SUB DUP2 MSTORE SWAP1 PUSH1 0x40 MSTORE DUP1 MLOAD SWAP1 PUSH1 0x20 ADD KECCAK256 SWAP1 POP PUSH1 0x0 DUP2 PUSH3 0x10002 PUSH1 0x40 MLOAD PUSH1 0x20 ADD PUSH2 0x998 SWAP3 SWAP2 SWAP1 SWAP2 DUP3 MSTORE PUSH1 0x20 DUP3 ADD MSTORE PUSH1 0x40 ADD SWAP1 JUMP JUMPDEST PUSH1 0x40 DUP1 MLOAD DUP1 DUP4 SUB PUSH1 0x1F NOT ADD DUP2 MSTORE SWAP1 DUP3 SWAP1 MSTORE DUP1 MLOAD PUSH1 0x20 SWAP1 SWAP2 ADD KECCAK256 PUSH4 0x2CE8AF3 PUSH1 0xE0 SHL DUP3 MSTORE PUSH1 0x4 DUP3 ADD DUP2 SWAP1 MSTORE SWAP2 POP PUSH1 0x0 SWAP1 PUSH32 0x0 PUSH1 0x1 PUSH1 0x1 PUSH1 0xA0 SHL SUB AND SWAP1 PUSH4 0x2CE8AF3 SWAP1 PUSH1 0x24 ADD PUSH1 0x20 PUSH1 0x40 MLOAD DUP1 DUP4 SUB DUP2 DUP7 GAS STATICCALL ISZERO DUP1 ISZERO PUSH2 0xA18 JUMPI RETURNDATASIZE PUSH1 0x0 DUP1 RETURNDATACOPY RETURNDATASIZE PUSH1 0x0 REVERT JUMPDEST POP POP POP POP PUSH1 0x40 MLOAD RETURNDATASIZE PUSH1 0x1F NOT PUSH1 0x1F DUP3 ADD AND DUP3 ADD DUP1 PUSH1 0x40 MSTORE POP DUP2 ADD SWAP1 PUSH2 0xA3C SWAP2 SWAP1 PUSH2 0x238F JUMP JUMPDEST PUSH1 0x1 PUSH1 0x1 PUSH1 0x60 SHL SUB DUP2 DUP2 AND SWAP14 PUSH1 0x60 DUP4 SWAP1 SHR SWAP1 SWAP2 AND SWAP13 POP PUSH1 0xC0 SWAP2 SWAP1 SWAP2 SHR SWAP11 POP SWAP9 POP POP POP POP POP POP POP POP POP JUMP JUMPDEST PUSH1 0x0 DUP1 PUSH1 0x0 DUP1 PUSH2 0xA77 DUP12 DUP12 DUP12 PUSH2 0x165B JUMP JUMPDEST PUSH1 0x40 DUP1 MLOAD PUSH1 0x60 DUP2 ADD DUP3 MSTORE DUP10 ISZERO ISZERO DUP2 MSTORE PUSH1 0x2 DUP10 DUP2 SIGNEXTEND PUSH1 0x20 DUP4 ADD MSTORE DUP9 SWAP1 SIGNEXTEND SWAP2 DUP2 ADD SWAP2 SWAP1 SWAP2 MSTORE SWAP1 SWAP2 POP PUSH2 0xAA9 DUP2 DUP4 DUP16 DUP13 PUSH2 0x1719 JUMP JUMPDEST SWAP5 POP SWAP5 POP SWAP5 POP POP POP SWAP9 POP SWAP9 POP SWAP9 SWAP6 POP POP POP POP POP POP JUMP JUMPDEST PUSH1 0x0 DUP1 PUSH1 0x0 DUP1 PUSH1 0x0 PUSH2 0xAD5 DUP12 DUP12 DUP12 DUP12 DUP12 DUP12 PUSH2 0x100D JUMP JUMPDEST POP POP SWAP2 POP SWAP2 POP PUSH1 0x0 PUSH2 0xAE9 DUP12 DUP12 DUP12 DUP12 PUSH2 0x92B JUMP JUMPDEST SWAP3 POP POP POP PUSH1 0x0 PUSH2 0xAFB DUP13 DUP13 DUP13 DUP12 PUSH2 0x92B JUMP JUMPDEST SWAP3 POP POP POP PUSH1 0x0 PUSH2 0xB0C DUP14 DUP14 DUP14 PUSH2 0xD66 JUMP JUMPDEST SWAP1 POP PUSH1 0x0 PUSH2 0xB1B DUP15 DUP15 DUP15 PUSH2 0xD66 JUMP JUMPDEST PUSH1 0x80 ADD MLOAD SWAP1 POP PUSH1 0x0 PUSH2 0xB30 DUP4 PUSH1 0x0 ADD MLOAD PUSH2 0x186B JUMP JUMPDEST SWAP1 POP PUSH1 0x0 DUP2 PUSH1 0x2 SIGNEXTEND DUP14 PUSH1 0x2 SIGNEXTEND SGT ISZERO PUSH2 0xB51 JUMPI PUSH2 0xB4C DUP7 DUP5 PUSH2 0x23BE JUMP JUMPDEST PUSH2 0xB53 JUMP JUMPDEST DUP6 JUMPDEST SWAP1 POP PUSH1 0x0 DUP3 PUSH1 0x2 SIGNEXTEND DUP14 PUSH1 0x2 SIGNEXTEND SGT ISZERO PUSH2 0xB74 JUMPI PUSH2 0xB6F DUP7 DUP6 PUSH2 0x23BE JUMP JUMPDEST PUSH2 0xB76 JUMP JUMPDEST DUP6 JUMPDEST SWAP1 POP DUP2 DUP2 SUB PUSH8 0xFFFFFFFFFFFFFFFF DUP1 DUP11 AND SWAP1 DUP3 AND LT ISZERO PUSH2 0xBAA JUMPI PUSH1 0x0 DUP1 PUSH1 0x0 SWAP13 POP SWAP13 POP SWAP13 POP POP POP POP POP POP POP POP POP POP POP PUSH2 0xBE9 JUMP JUMPDEST DUP9 DUP2 SUB PUSH1 0x0 PUSH2 0xBCA PUSH2 0xBBC DUP14 DUP5 PUSH2 0x1B56 JUMP JUMPDEST PUSH1 0x1 PUSH1 0x1 PUSH1 0x90 SHL SUB AND PUSH2 0x1B76 JUMP JUMPDEST SWAP1 POP PUSH2 0xBD6 DUP9 DUP3 PUSH2 0x1B9A JUMP JUMPDEST SWAP15 POP SWAP15 POP SWAP15 POP POP POP POP POP POP POP POP POP POP POP POP POP JUMPDEST SWAP7 POP SWAP7 POP SWAP7 SWAP4 POP POP POP POP JUMP JUMPDEST PUSH1 0x0 DUP1 DUP4 DUP4 PUSH1 0x40 MLOAD PUSH1 0x20 ADD PUSH2 0xC20 SWAP3 SWAP2 SWAP1 PUSH1 0x1 PUSH1 0x1 PUSH1 0xA0 SHL SUB SWAP3 DUP4 AND DUP2 MSTORE SWAP2 AND PUSH1 0x20 DUP3 ADD MSTORE PUSH1 0x40 ADD SWAP1 JUMP JUMPDEST PUSH1 0x40 MLOAD PUSH1 0x20 DUP2 DUP4 SUB SUB DUP2 MSTORE SWAP1 PUSH1 0x40 MSTORE DUP1 MLOAD SWAP1 PUSH1 0x20 ADD KECCAK256 SWAP1 POP PUSH1 0x0 DUP2 PUSH3 0x10010 PUSH1 0x40 MLOAD PUSH1 0x20 ADD PUSH2 0xC59 SWAP3 SWAP2 SWAP1 SWAP2 DUP3 MSTORE PUSH1 0x20 DUP3 ADD MSTORE PUSH1 0x40 ADD SWAP1 JUMP JUMPDEST PUSH1 0x40 DUP1 MLOAD DUP1 DUP4 SUB PUSH1 0x1F NOT ADD DUP2 MSTORE SWAP1 DUP3 SWAP1 MSTORE DUP1 MLOAD PUSH1 0x20 SWAP1 SWAP2 ADD KECCAK256 PUSH4 0x2CE8AF3 PUSH1 0xE0 SHL DUP3 MSTORE PUSH1 0x4 DUP3 ADD DUP2 SWAP1 MSTORE SWAP2 POP PUSH1 0x0 SWAP1 PUSH32 0x0 PUSH1 0x1 PUSH1 0x1 PUSH1 0xA0 SHL SUB AND SWAP1 PUSH4 0x2CE8AF3 SWAP1 PUSH1 0x24 ADD PUSH1 0x20 PUSH1 0x40 MLOAD DUP1 DUP4 SUB DUP2 DUP7 GAS STATICCALL ISZERO DUP1 ISZERO PUSH2 0xCD9 JUMPI RETURNDATASIZE PUSH1 0x0 DUP1 RETURNDATACOPY RETURNDATASIZE PUSH1 0x0 REVERT JUMPDEST POP POP POP POP PUSH1 0x40 MLOAD RETURNDATASIZE PUSH1 0x1F NOT PUSH1 0x1F DUP3 ADD AND DUP3 ADD DUP1 PUSH1 0x40 MSTORE POP DUP2 ADD SWAP1 PUSH2 0xCFD SWAP2 SWAP1 PUSH2 0x238F JUMP JUMPDEST PUSH1 0x1 PUSH1 0x1 PUSH1 0x80 SHL SUB AND SWAP7 SWAP6 POP POP POP POP POP POP JUMP JUMPDEST PUSH1 0x0 DUP1 PUSH2 0xD51 DUP5 DUP5 PUSH1 0x40 DUP1 MLOAD PUSH1 0x1 PUSH1 0x1 PUSH1 0xA0 SHL SUB SWAP4 DUP5 AND PUSH1 0x20 DUP1 DUP4 ADD SWAP2 SWAP1 SWAP2 MSTORE DUP2 DUP4 ADD SWAP4 SWAP1 SWAP4 MSTORE DUP2 MLOAD DUP1 DUP3 SUB DUP4 ADD DUP2 MSTORE PUSH1 0x60 SWAP1 SWAP2 ADD SWAP1 SWAP2 MSTORE DUP1 MLOAD SWAP2 ADD KECCAK256 AND SWAP1 JUMP JUMPDEST SWAP1 POP PUSH2 0xD5D DUP6 DUP3 PUSH2 0xBF5 JUMP JUMPDEST SWAP6 SWAP5 POP POP POP POP POP JUMP JUMPDEST PUSH1 0x40 DUP1 MLOAD PUSH1 0xA0 DUP2 ADD DUP3 MSTORE PUSH1 0x0 DUP1 DUP3 MSTORE PUSH1 0x20 DUP3 ADD DUP2 SWAP1 MSTORE SWAP2 DUP2 ADD DUP3 SWAP1 MSTORE PUSH1 0x60 DUP2 ADD DUP3 SWAP1 MSTORE PUSH1 0x80 DUP2 ADD DUP3 SWAP1 MSTORE SWAP1 PUSH2 0xD9C DUP6 DUP6 DUP6 PUSH2 0x165B JUMP JUMPDEST SWAP1 POP PUSH1 0x0 DUP2 PUSH3 0x1000F PUSH1 0x40 MLOAD PUSH1 0x20 ADD PUSH2 0xDBF SWAP3 SWAP2 SWAP1 SWAP2 DUP3 MSTORE PUSH1 0x20 DUP3 ADD MSTORE PUSH1 0x40 ADD SWAP1 JUMP JUMPDEST PUSH1 0x40 DUP1 MLOAD DUP1 DUP4 SUB PUSH1 0x1F NOT ADD DUP2 MSTORE SWAP1 DUP3 SWAP1 MSTORE DUP1 MLOAD PUSH1 0x20 SWAP1 SWAP2 ADD KECCAK256 PUSH4 0x2CE8AF3 PUSH1 0xE0 SHL DUP3 MSTORE PUSH1 0x4 DUP3 ADD DUP2 SWAP1 MSTORE SWAP2 POP PUSH1 0x0 SWAP1 PUSH32 0x0 PUSH1 0x1 PUSH1 0x1 PUSH1 0xA0 SHL SUB AND SWAP1 PUSH4 0x2CE8AF3 SWAP1 PUSH1 0x24 ADD PUSH1 0x20 PUSH1 0x40 MLOAD DUP1 DUP4 SUB DUP2 DUP7 GAS STATICCALL ISZERO DUP1 ISZERO PUSH2 0xE3F JUMPI RETURNDATASIZE PUSH1 0x0 DUP1 RETURNDATACOPY RETURNDATASIZE PUSH1 0x0 REVERT JUMPDEST POP POP POP POP PUSH1 0x40 MLOAD RETURNDATASIZE PUSH1 0x1F NOT PUSH1 0x1F DUP3 ADD AND DUP3 ADD DUP1 PUSH1 0x40 MSTORE POP DUP2 ADD SWAP1 PUSH2 0xE63 SWAP2 SWAP1 PUSH2 0x238F JUMP JUMPDEST SWAP1 POP PUSH1 0x0 PUSH1 0x1 PUSH1 0x1 PUSH1 0xA0 SHL SUB PUSH32 0x0 AND PUSH4 0x2CE8AF3 PUSH2 0xEA1 DUP6 PUSH1 0x1 PUSH2 0x23E6 JUMP JUMPDEST PUSH1 0x40 MLOAD DUP3 PUSH4 0xFFFFFFFF AND PUSH1 0xE0 SHL DUP2 MSTORE PUSH1 0x4 ADD PUSH2 0xEBF SWAP2 DUP2 MSTORE PUSH1 0x20 ADD SWAP1 JUMP JUMPDEST PUSH1 0x20 PUSH1 0x40 MLOAD DUP1 DUP4 SUB DUP2 DUP7 GAS STATICCALL ISZERO DUP1 ISZERO PUSH2 0xEDC JUMPI RETURNDATASIZE PUSH1 0x0 DUP1 RETURNDATACOPY RETURNDATASIZE PUSH1 0x0 REVERT JUMPDEST POP POP POP POP PUSH1 0x40 MLOAD RETURNDATASIZE PUSH1 0x1F NOT PUSH1 0x1F DUP3 ADD AND DUP3 ADD DUP1 PUSH1 0x40 MSTORE POP DUP2 ADD SWAP1 PUSH2 0xF00 SWAP2 SWAP1 PUSH2 0x238F JUMP JUMPDEST PUSH1 0x1 PUSH1 0x1 PUSH1 0x80 SHL SUB DUP1 DUP5 AND DUP8 MSTORE PUSH1 0x80 SWAP4 DUP5 SHR PUSH1 0x20 DUP9 ADD MSTORE DUP2 AND PUSH1 0x40 DUP8 ADD MSTORE PUSH8 0xFFFFFFFFFFFFFFFF DUP2 DUP5 SHR AND PUSH1 0x60 DUP8 ADD MSTORE PUSH1 0xC0 SHR SWAP2 DUP6 ADD SWAP2 SWAP1 SWAP2 MSTORE POP SWAP2 SWAP6 SWAP5 POP POP POP POP POP JUMP JUMPDEST PUSH1 0x0 DUP1 PUSH1 0x0 DUP1 PUSH1 0x0 DUP8 PUSH2 0xF58 JUMPI DUP6 PUSH2 0xF5A JUMP JUMPDEST DUP7 JUMPDEST SWAP1 POP PUSH1 0x0 PUSH2 0xF6E DUP15 DUP15 DUP15 DUP15 DUP15 DUP15 DUP15 DUP15 PUSH2 0xA66 JUMP JUMPDEST POP POP SWAP1 POP PUSH1 0x0 PUSH2 0xF81 DUP15 DUP15 DUP15 DUP14 DUP8 PUSH2 0x69C JUMP JUMPDEST POP SWAP2 POP POP PUSH1 0xA DUP3 SWAP1 SHL PUSH14 0x3FFFFFFFFFFFFFFFFFFFFFFF800 AND SWAP7 POP DUP11 PUSH4 0xFFFFFFFF AND DUP2 PUSH4 0xFFFFFFFF AND EQ ISZERO SWAP4 POP DUP4 ISZERO PUSH2 0xFD9 JUMPI PUSH1 0x0 PUSH2 0xFBF DUP5 PUSH2 0x1BC5 JUMP JUMPDEST SWAP1 POP PUSH2 0xFCD DUP2 DUP12 DUP12 DUP12 PUSH2 0x1EF0 JUMP JUMPDEST SWAP1 SWAP8 POP SWAP6 POP PUSH2 0xFFB SWAP1 POP JUMP JUMPDEST PUSH1 0x0 PUSH2 0xFE6 DUP16 DUP16 DUP16 PUSH2 0xD66 JUMP JUMPDEST SWAP1 POP PUSH2 0xFF4 DUP2 DUP12 DUP12 DUP12 PUSH2 0x1FCA JUMP JUMPDEST SWAP1 SWAP8 POP SWAP6 POP POP JUMPDEST POP POP POP SWAP9 POP SWAP9 POP SWAP9 POP SWAP9 SWAP5 POP POP POP POP POP JUMP JUMPDEST PUSH1 0x0 DUP1 PUSH1 0x0 DUP1 PUSH1 0x0 PUSH2 0x1020 DUP11 DUP11 DUP11 PUSH2 0x165B JUMP JUMPDEST PUSH1 0x40 DUP1 MLOAD PUSH1 0x60 DUP15 SWAP1 SHL PUSH12 0xFFFFFFFFFFFFFFFFFFFFFFFF NOT AND PUSH1 0x20 DUP1 DUP4 ADD SWAP2 SWAP1 SWAP2 MSTORE PUSH1 0x34 DUP3 ADD DUP5 SWAP1 MSTORE PUSH1 0xE8 DUP12 DUP2 SHL PUSH1 0x54 DUP5 ADD MSTORE DUP11 SWAP1 SHL PUSH1 0x57 DUP4 ADD MSTORE DUP3 MLOAD PUSH1 0x3A DUP2 DUP5 SUB ADD DUP2 MSTORE PUSH1 0x5A DUP4 ADD SWAP1 SWAP4 MSTORE DUP3 MLOAD SWAP3 ADD SWAP2 SWAP1 SWAP2 KECCAK256 PUSH1 0x7A DUP3 ADD DUP2 SWAP1 MSTORE PUSH3 0x1000D PUSH1 0x9A DUP4 ADD MSTORE SWAP2 SWAP3 POP PUSH1 0x0 SWAP1 PUSH1 0xBA ADD PUSH1 0x40 DUP1 MLOAD DUP1 DUP4 SUB PUSH1 0x1F NOT ADD DUP2 MSTORE SWAP1 DUP3 SWAP1 MSTORE DUP1 MLOAD PUSH1 0x20 SWAP1 SWAP2 ADD KECCAK256 PUSH4 0x2CE8AF3 PUSH1 0xE0 SHL DUP3 MSTORE PUSH1 0x4 DUP3 ADD DUP2 SWAP1 MSTORE SWAP2 POP PUSH1 0x0 SWAP1 PUSH32 0x0 PUSH1 0x1 PUSH1 0x1 PUSH1 0xA0 SHL SUB AND SWAP1 PUSH4 0x2CE8AF3 SWAP1 PUSH1 0x24 ADD PUSH1 0x20 PUSH1 0x40 MLOAD DUP1 DUP4 SUB DUP2 DUP7 GAS STATICCALL ISZERO DUP1 ISZERO PUSH2 0x110C JUMPI RETURNDATASIZE PUSH1 0x0 DUP1 RETURNDATACOPY RETURNDATASIZE PUSH1 0x0 REVERT JUMPDEST POP POP POP POP PUSH1 0x40 MLOAD RETURNDATASIZE PUSH1 0x1F NOT PUSH1 0x1F DUP3 ADD AND DUP3 ADD DUP1 PUSH1 0x40 MSTORE POP DUP2 ADD SWAP1 PUSH2 0x1130 SWAP2 SWAP1 PUSH2 0x238F JUMP JUMPDEST PUSH1 0x1 PUSH1 0x1 PUSH1 0x80 SHL SUB DUP2 AND SWAP16 PUSH8 0xFFFFFFFFFFFFFFFF PUSH1 0x80 DUP4 SWAP1 SHR AND SWAP16 POP PUSH4 0xFFFFFFFF PUSH1 0xC0 DUP4 SWAP1 SHR AND SWAP15 POP PUSH1 0xE0 SWAP2 SWAP1 SWAP2 SHR ISZERO ISZERO SWAP13 POP SWAP11 POP POP POP POP POP POP POP POP POP POP POP JUMP JUMPDEST PUSH1 0x0 DUP1 PUSH1 0x0 DUP1 PUSH2 0x1183 DUP9 DUP9 DUP9 DUP9 PUSH2 0x55B JUMP JUMPDEST POP SWAP1 POP PUSH1 0x0 PUSH2 0x1193 DUP9 DUP9 DUP9 PUSH2 0xD66 JUMP JUMPDEST SWAP1 POP PUSH2 0x119F DUP2 DUP4 PUSH2 0x1B9A JUMP JUMPDEST SWAP5 POP SWAP5 POP SWAP5 POP POP POP SWAP5 POP SWAP5 POP SWAP5 SWAP2 POP POP JUMP JUMPDEST PUSH1 0x0 DUP1 PUSH1 0x0 DUP1 PUSH2 0x11C2 DUP10 DUP10 DUP10 PUSH2 0x165B JUMP JUMPDEST SWAP1 POP PUSH1 0x0 PUSH2 0x11D1 DUP3 DUP9 DUP9 PUSH2 0x16C2 JUMP JUMPDEST SWAP1 POP PUSH1 0x0 DUP2 PUSH3 0x10004 PUSH1 0x40 MLOAD PUSH1 0x20 ADD PUSH2 0x11F4 SWAP3 SWAP2 SWAP1 SWAP2 DUP3 MSTORE PUSH1 0x20 DUP3 ADD MSTORE PUSH1 0x40 ADD SWAP1 JUMP JUMPDEST PUSH1 0x40 DUP1 MLOAD DUP1 DUP4 SUB PUSH1 0x1F NOT ADD DUP2 MSTORE SWAP1 DUP3 SWAP1 MSTORE DUP1 MLOAD PUSH1 0x20 SWAP1 SWAP2 ADD KECCAK256 PUSH4 0x2CE8AF3 PUSH1 0xE0 SHL DUP3 MSTORE PUSH1 0x4 DUP3 ADD DUP2 SWAP1 MSTORE SWAP2 POP PUSH1 0x0 SWAP1 PUSH32 0x0 PUSH1 0x1 PUSH1 0x1 PUSH1 0xA0 SHL SUB AND SWAP1 PUSH4 0x2CE8AF3 SWAP1 PUSH1 0x24 ADD PUSH1 0x20 PUSH1 0x40 MLOAD DUP1 DUP4 SUB DUP2 DUP7 GAS STATICCALL ISZERO DUP1 ISZERO PUSH2 0x1274 JUMPI RETURNDATASIZE PUSH1 0x0 DUP1 RETURNDATACOPY RETURNDATASIZE PUSH1 0x0 REVERT JUMPDEST POP POP POP POP PUSH1 0x40 MLOAD RETURNDATASIZE PUSH1 0x1F NOT PUSH1 0x1F DUP3 ADD AND DUP3 ADD DUP1 PUSH1 0x40 MSTORE POP DUP2 ADD SWAP1 PUSH2 0x1298 SWAP2 SWAP1 PUSH2 0x238F JUMP JUMPDEST PUSH1 0x1 PUSH1 0x1 PUSH1 0xA0 SHL SUB DUP2 AND SWAP14 PUSH4 0xFFFFFFFF PUSH1 0xA0 DUP4 SWAP1 SHR AND SWAP14 POP PUSH1 0xC0 SWAP2 SWAP1 SWAP2 SHR SWAP12 POP SWAP10 POP POP POP POP POP POP POP POP POP POP JUMP JUMPDEST PUSH1 0x0 DUP1 PUSH1 0x0 PUSH2 0x12D8 DUP10 DUP10 DUP10 DUP10 DUP10 DUP10 PUSH2 0x100D JUMP JUMPDEST POP SWAP2 SWAP5 POP PUSH1 0x0 SWAP2 POP PUSH2 0x12ED SWAP1 POP DUP10 DUP10 DUP10 PUSH2 0xD66 JUMP JUMPDEST SWAP1 POP PUSH2 0x12FB DUP2 DUP8 DUP8 DUP8 PUSH2 0x1FCA JUMP JUMPDEST SWAP5 SWAP12 SWAP1 SWAP11 POP SWAP4 SWAP9 POP SWAP3 SWAP7 POP POP POP POP POP POP POP JUMP JUMPDEST PUSH1 0x0 DUP1 PUSH2 0x131C DUP6 DUP6 DUP6 PUSH2 0x165B JUMP JUMPDEST SWAP1 POP PUSH1 0x0 DUP2 PUSH3 0x1000F PUSH1 0x40 MLOAD PUSH1 0x20 ADD PUSH2 0x133F SWAP3 SWAP2 SWAP1 SWAP2 DUP3 MSTORE PUSH1 0x20 DUP3 ADD MSTORE PUSH1 0x40 ADD SWAP1 JUMP JUMPDEST PUSH1 0x40 DUP1 MLOAD DUP1 DUP4 SUB PUSH1 0x1F NOT ADD DUP2 MSTORE SWAP1 DUP3 SWAP1 MSTORE DUP1 MLOAD PUSH1 0x20 SWAP1 SWAP2 ADD KECCAK256 PUSH4 0x2CE8AF3 PUSH1 0xE0 SHL DUP3 MSTORE PUSH1 0x4 DUP3 ADD DUP2 SWAP1 MSTORE SWAP2 POP PUSH1 0x0 SWAP1 PUSH32 0x0 PUSH1 0x1 PUSH1 0x1 PUSH1 0xA0 SHL SUB AND SWAP1 PUSH4 0x2CE8AF3 SWAP1 PUSH1 0x24 ADD PUSH1 0x20 PUSH1 0x40 MLOAD DUP1 DUP4 SUB DUP2 DUP7 GAS STATICCALL ISZERO DUP1 ISZERO PUSH2 0x13BF JUMPI RETURNDATASIZE PUSH1 0x0 DUP1 RETURNDATACOPY RETURNDATASIZE PUSH1 0x0 REVERT JUMPDEST POP POP POP POP PUSH1 0x40 MLOAD RETURNDATASIZE PUSH1 0x1F NOT PUSH1 0x1F DUP3 ADD AND DUP3 ADD DUP1 PUSH1 0x40 MSTORE POP DUP2 ADD SWAP1 PUSH2 0x13E3 SWAP2 SWAP1 PUSH2 0x238F JUMP JUMPDEST SWAP1 POP PUSH1 0x1 PUSH1 0x1 PUSH1 0x80 SHL SUB DUP2 AND PUSH2 0x13F8 DUP2 PUSH2 0x186B JUMP JUMPDEST SWAP9 SWAP8 POP POP POP POP POP POP POP POP JUMP JUMPDEST PUSH1 0x40 MLOAD PUSH1 0x0 SWAP1 PUSH1 0x1 PUSH1 0x1 PUSH1 0xA0 SHL SUB DUP4 AND SWAP1 DUP3 SWAP1 PUSH2 0x1433 SWAP1 DUP4 SWAP1 PUSH3 0x1000C SWAP1 PUSH1 0x20 ADD SWAP2 DUP3 MSTORE PUSH1 0x20 DUP3 ADD MSTORE PUSH1 0x40 ADD SWAP1 JUMP JUMPDEST PUSH1 0x40 DUP1 MLOAD DUP1 DUP4 SUB PUSH1 0x1F NOT ADD DUP2 MSTORE SWAP1 DUP3 SWAP1 MSTORE DUP1 MLOAD PUSH1 0x20 SWAP1 SWAP2 ADD KECCAK256 PUSH4 0x2CE8AF3 PUSH1 0xE0 SHL DUP3 MSTORE PUSH1 0x4 DUP3 ADD DUP2 SWAP1 MSTORE SWAP2 POP PUSH1 0x0 SWAP1 PUSH32 0x0 PUSH1 0x1 PUSH1 0x1 PUSH1 0xA0 SHL SUB AND SWAP1 PUSH4 0x2CE8AF3 SWAP1 PUSH1 0x24 ADD PUSH1 0x20 PUSH1 0x40 MLOAD DUP1 DUP4 SUB DUP2 DUP7 GAS STATICCALL ISZERO DUP1 ISZERO PUSH2 0x14B3 JUMPI RETURNDATASIZE PUSH1 0x0 DUP1 RETURNDATACOPY RETURNDATASIZE PUSH1 0x0 REVERT JUMPDEST POP POP POP POP PUSH1 0x40 MLOAD RETURNDATASIZE PUSH1 0x1F NOT PUSH1 0x1F DUP3 ADD AND DUP3 ADD DUP1 PUSH1 0x40 MSTORE POP DUP2 ADD SWAP1 PUSH2 0xD5D SWAP2 SWAP1 PUSH2 0x238F JUMP JUMPDEST PUSH1 0x0 PUSH2 0x14E4 DUP5 DUP5 DUP5 PUSH2 0xD66 JUMP JUMPDEST MLOAD SWAP5 SWAP4 POP POP POP POP JUMP JUMPDEST PUSH1 0x40 DUP1 MLOAD PUSH1 0xE0 DUP2 ADD DUP3 MSTORE PUSH1 0x0 DUP1 DUP3 MSTORE PUSH1 0x20 DUP3 ADD DUP2 SWAP1 MSTORE SWAP2 DUP2 ADD DUP3 SWAP1 MSTORE PUSH1 0x60 DUP2 ADD DUP3 SWAP1 MSTORE PUSH1 0x80 DUP2 ADD DUP3 SWAP1 MSTORE PUSH1 0xA0 DUP2 ADD DUP3 SWAP1 MSTORE PUSH1 0xC0 DUP2 ADD DUP3 SWAP1 MSTORE SWAP1 PUSH2 0x1531 DUP6 DUP6 DUP6 PUSH2 0x165B JUMP JUMPDEST SWAP1 POP PUSH1 0x0 DUP2 PUSH3 0x10009 PUSH1 0x40 MLOAD PUSH1 0x20 ADD PUSH2 0x1554 SWAP3 SWAP2 SWAP1 SWAP2 DUP3 MSTORE PUSH1 0x20 DUP3 ADD MSTORE PUSH1 0x40 ADD SWAP1 JUMP JUMPDEST PUSH1 0x40 DUP1 MLOAD DUP1 DUP4 SUB PUSH1 0x1F NOT ADD DUP2 MSTORE SWAP1 DUP3 SWAP1 MSTORE DUP1 MLOAD PUSH1 0x20 SWAP1 SWAP2 ADD KECCAK256 PUSH4 0x2CE8AF3 PUSH1 0xE0 SHL DUP3 MSTORE PUSH1 0x4 DUP3 ADD DUP2 SWAP1 MSTORE SWAP2 POP PUSH1 0x0 SWAP1 PUSH32 0x0 PUSH1 0x1 PUSH1 0x1 PUSH1 0xA0 SHL SUB AND SWAP1 PUSH4 0x2CE8AF3 SWAP1 PUSH1 0x24 ADD PUSH1 0x20 PUSH1 0x40 MLOAD DUP1 DUP4 SUB DUP2 DUP7 GAS STATICCALL ISZERO DUP1 ISZERO PUSH2 0x15D4 JUMPI RETURNDATASIZE PUSH1 0x0 DUP1 RETURNDATACOPY RETURNDATASIZE PUSH1 0x0 REVERT JUMPDEST POP POP POP POP PUSH1 0x40 MLOAD RETURNDATASIZE PUSH1 0x1F NOT PUSH1 0x1F DUP3 ADD AND DUP3 ADD DUP1 PUSH1 0x40 MSTORE POP DUP2 ADD SWAP1 PUSH2 0x15F8 SWAP2 SWAP1 PUSH2 0x238F JUMP JUMPDEST PUSH1 0xFF DUP1 DUP3 AND DUP7 MSTORE PUSH2 0xFFFF PUSH1 0x8 DUP4 SWAP1 SHR DUP2 AND PUSH1 0x20 DUP1 DUP10 ADD SWAP2 SWAP1 SWAP2 MSTORE PUSH1 0x18 DUP5 SWAP1 SHR DUP4 AND PUSH1 0x40 DUP1 DUP11 ADD SWAP2 SWAP1 SWAP2 MSTORE SWAP1 DUP5 SWAP1 SHR SWAP1 SWAP2 AND PUSH1 0x60 DUP9 ADD MSTORE PUSH1 0x30 DUP4 SWAP1 SHR DUP3 AND PUSH1 0x80 DUP9 ADD MSTORE PUSH1 0x38 DUP4 SWAP1 SHR DUP3 AND PUSH1 0xA0 DUP9 ADD MSTORE SWAP2 SWAP1 SWAP2 SHR AND PUSH1 0xC0 DUP6 ADD MSTORE POP SWAP2 SWAP6 SWAP5 POP POP POP POP POP JUMP JUMPDEST PUSH1 0x0 DUP3 PUSH1 0x1 PUSH1 0x1 PUSH1 0xA0 SHL SUB AND DUP5 PUSH1 0x1 PUSH1 0x1 PUSH1 0xA0 SHL SUB AND LT PUSH2 0x167B JUMPI PUSH1 0x0 DUP1 REVERT JUMPDEST PUSH1 0x40 DUP1 MLOAD PUSH1 0x1 PUSH1 0x1 PUSH1 0xA0 SHL SUB DUP1 DUP8 AND PUSH1 0x20 DUP4 ADD MSTORE DUP6 AND SWAP2 DUP2 ADD SWAP2 SWAP1 SWAP2 MSTORE PUSH1 0x60 DUP2 ADD DUP4 SWAP1 MSTORE PUSH1 0x80 ADD JUMPDEST PUSH1 0x40 MLOAD PUSH1 0x20 DUP2 DUP4 SUB SUB DUP2 MSTORE SWAP1 PUSH1 0x40 MSTORE DUP1 MLOAD SWAP1 PUSH1 0x20 ADD KECCAK256 SWAP1 POP SWAP4 SWAP3 POP POP POP JUMP JUMPDEST PUSH1 0x0 DUP4 DUP4 DUP4 PUSH1 0x40 MLOAD PUSH1 0x20 ADD PUSH2 0x16A3 SWAP4 SWAP3 SWAP2 SWAP1 SWAP3 DUP4 MSTORE SWAP1 ISZERO ISZERO PUSH1 0x20 DUP4 ADD MSTORE PUSH1 0x2 SIGNEXTEND PUSH1 0x40 DUP3 ADD MSTORE PUSH1 0x60 ADD SWAP1 JUMP JUMPDEST PUSH1 0x0 DUP1 PUSH2 0x1702 DUP4 PUSH1 0x20 ADD MLOAD DUP5 PUSH1 0x60 ADD MLOAD PUSH2 0x1FEA JUMP JUMPDEST SWAP1 POP PUSH2 0x1712 DUP2 DUP5 PUSH1 0x40 ADD MLOAD PUSH2 0x202D JUMP JUMPDEST SWAP4 SWAP3 POP POP POP JUMP JUMPDEST DUP4 MLOAD PUSH1 0x20 DUP1 DUP7 ADD MLOAD PUSH1 0x40 DUP1 DUP9 ADD MLOAD DUP2 MLOAD DUP1 DUP6 ADD DUP10 SWAP1 MSTORE PUSH1 0x1 PUSH1 0x1 PUSH1 0xA0 SHL SUB DUP9 AND DUP2 DUP5 ADD MSTORE SWAP5 ISZERO ISZERO PUSH1 0x60 DUP7 ADD MSTORE PUSH1 0x2 SWAP3 DUP4 SIGNEXTEND PUSH1 0x80 DUP7 ADD MSTORE SWAP1 SWAP2 SIGNEXTEND PUSH1 0xA0 DUP5 ADD MSTORE PUSH4 0xFFFFFFFF DUP5 AND PUSH1 0xC0 DUP1 DUP6 ADD SWAP2 SWAP1 SWAP2 MSTORE DUP2 MLOAD DUP1 DUP6 SUB SWAP1 SWAP2 ADD DUP2 MSTORE PUSH1 0xE0 DUP5 ADD SWAP1 SWAP2 MSTORE DUP1 MLOAD SWAP2 ADD KECCAK256 PUSH2 0x100 DUP3 ADD DUP2 SWAP1 MSTORE PUSH3 0x10005 PUSH2 0x120 DUP4 ADD MSTORE PUSH1 0x0 SWAP2 DUP3 SWAP2 DUP3 SWAP2 DUP3 SWAP1 PUSH2 0x140 ADD PUSH1 0x40 DUP1 MLOAD DUP1 DUP4 SUB PUSH1 0x1F NOT ADD DUP2 MSTORE SWAP1 DUP3 SWAP1 MSTORE DUP1 MLOAD PUSH1 0x20 SWAP1 SWAP2 ADD KECCAK256 PUSH4 0x2CE8AF3 PUSH1 0xE0 SHL DUP3 MSTORE PUSH1 0x4 DUP3 ADD DUP2 SWAP1 MSTORE SWAP2 POP PUSH1 0x0 SWAP1 PUSH32 0x0 PUSH1 0x1 PUSH1 0x1 PUSH1 0xA0 SHL SUB AND SWAP1 PUSH4 0x2CE8AF3 SWAP1 PUSH1 0x24 ADD PUSH1 0x20 PUSH1 0x40 MLOAD DUP1 DUP4 SUB DUP2 DUP7 GAS STATICCALL ISZERO DUP1 ISZERO PUSH2 0x181C JUMPI RETURNDATASIZE PUSH1 0x0 DUP1 RETURNDATACOPY RETURNDATASIZE PUSH1 0x0 REVERT JUMPDEST POP POP POP POP PUSH1 0x40 MLOAD RETURNDATASIZE PUSH1 0x1F NOT PUSH1 0x1F DUP3 ADD AND DUP3 ADD DUP1 PUSH1 0x40 MSTORE POP DUP2 ADD SWAP1 PUSH2 0x1840 SWAP2 SWAP1 PUSH2 0x238F JUMP JUMPDEST PUSH1 0x1 PUSH1 0x1 PUSH1 0x60 SHL SUB DUP2 AND SWAP12 PUSH4 0xFFFFFFFF PUSH1 0x80 DUP4 SWAP1 SHR AND SWAP12 POP PUSH1 0xE0 SWAP2 SWAP1 SWAP2 SHR SWAP10 POP SWAP8 POP POP POP POP POP POP POP POP JUMP JUMPDEST PUSH1 0x0 PUSH3 0x10002 PUSH1 0x1 PUSH1 0x1 PUSH1 0x80 SHL SUB DUP4 AND LT DUP1 ISZERO SWAP1 PUSH2 0x18A1 JUMPI POP PUSH16 0xFFFF5433E2B3D8211706E6102AA9472 PUSH1 0x1 PUSH1 0x1 PUSH1 0x80 SHL SUB DUP4 AND LT JUMPDEST PUSH2 0x18AA JUMPI PUSH1 0x0 DUP1 REVERT JUMPDEST PUSH1 0x1 PUSH1 0x40 SHL PUSH1 0x1 PUSH1 0xC0 SHL SUB PUSH1 0x40 DUP4 SWAP1 SHL AND PUSH1 0x1 PUSH1 0x1 PUSH1 0x80 SHL SUB DUP2 GT PUSH1 0x7 SHL DUP2 DUP2 SHR PUSH8 0xFFFFFFFFFFFFFFFF DUP2 GT PUSH1 0x6 SHL SWAP1 DUP2 SHR PUSH4 0xFFFFFFFF DUP2 GT PUSH1 0x5 SHL SWAP1 DUP2 SHR PUSH2 0xFFFF DUP2 GT PUSH1 0x4 SHL SWAP1 DUP2 SHR PUSH1 0xFF DUP2 GT PUSH1 0x3 SWAP1 DUP2 SHL SWAP2 DUP3 SHR PUSH1 0xF DUP2 GT PUSH1 0x2 SHL SWAP1 DUP2 SHR SWAP2 DUP3 GT PUSH1 0x1 SWAP1 DUP2 SHL SWAP3 DUP4 SHR SWAP8 SWAP1 DUP9 GT SWAP7 OR SWAP1 SWAP5 OR SWAP1 SWAP3 OR OR SWAP1 SWAP2 OR OR OR PUSH1 0x80 DUP2 LT PUSH2 0x193D JUMPI PUSH1 0x7F DUP2 SUB DUP4 SWAP1 SHR SWAP2 POP PUSH2 0x1947 JUMP JUMPDEST DUP1 PUSH1 0x7F SUB DUP4 SWAP1 SHL SWAP2 POP JUMPDEST SWAP1 DUP1 MUL PUSH1 0x7F DUP2 DUP2 SHR PUSH1 0xFF DUP4 DUP2 SHR SWAP2 SWAP1 SWAP2 SHR DUP1 MUL DUP1 DUP4 SHR DUP2 DUP4 SHR SHR DUP1 MUL DUP1 DUP5 SHR DUP2 DUP5 SHR SHR DUP1 MUL DUP1 DUP6 SHR DUP2 DUP6 SHR SHR DUP1 MUL DUP1 DUP7 SHR DUP2 DUP7 SHR SHR DUP1 MUL DUP1 DUP8 SHR DUP2 DUP8 SHR SHR DUP1 MUL DUP1 DUP9 SHR DUP2 DUP9 SHR SHR DUP1 MUL DUP1 DUP10 SHR DUP2 DUP10 SHR SHR DUP1 MUL DUP1 DUP11 SHR DUP2 DUP11 SHR SHR DUP1 MUL DUP1 DUP12 SHR DUP2 DUP12 SHR SHR DUP1 MUL DUP1 DUP13 SHR DUP2 DUP13 SHR SHR DUP1 MUL DUP1 DUP14 SHR DUP2 DUP14 SHR SHR DUP1 MUL DUP1 DUP15 SHR SWAP13 DUP2 SWAP1 SHR SWAP13 SWAP1 SWAP13 SHR DUP1 MUL SWAP13 DUP14 SWAP1 SHR SWAP15 SWAP14 PUSH1 0x7F NOT DUP16 ADD PUSH1 0x40 SHL PUSH1 0xC0 SWAP2 SWAP1 SWAP2 SHR PUSH8 0x8000000000000000 AND OR PUSH1 0xC1 SWAP12 SWAP1 SWAP12 SHR PUSH8 0x4000000000000000 AND SWAP11 SWAP1 SWAP11 OR PUSH1 0xC2 SWAP10 SWAP1 SWAP10 SHR PUSH8 0x2000000000000000 AND SWAP9 SWAP1 SWAP9 OR PUSH1 0xC3 SWAP8 SWAP1 SWAP8 SHR PUSH8 0x1000000000000000 AND SWAP7 SWAP1 SWAP7 OR PUSH1 0xC4 SWAP6 SWAP1 SWAP6 SHR PUSH8 0x800000000000000 AND SWAP5 SWAP1 SWAP5 OR PUSH1 0xC5 SWAP4 SWAP1 SWAP4 SHR PUSH8 0x400000000000000 AND SWAP3 SWAP1 SWAP3 OR PUSH1 0xC6 SWAP2 SWAP1 SWAP2 SHR PUSH8 0x200000000000000 AND OR PUSH1 0xC7 SWAP2 SWAP1 SWAP2 SHR PUSH8 0x100000000000000 AND OR PUSH1 0xC8 SWAP2 SWAP1 SWAP2 SHR PUSH7 0x80000000000000 AND OR PUSH1 0xC9 SWAP2 SWAP1 SWAP2 SHR PUSH7 0x40000000000000 AND OR PUSH1 0xCA SWAP2 SWAP1 SWAP2 SHR PUSH7 0x20000000000000 AND OR PUSH1 0xCB SWAP2 SWAP1 SWAP2 SHR PUSH7 0x10000000000000 AND OR PUSH1 0xCC SWAP2 SWAP1 SWAP2 SHR PUSH7 0x8000000000000 AND OR PUSH1 0xCD SWAP2 SWAP1 SWAP2 SHR PUSH7 0x4000000000000 AND OR PUSH10 0x3627A301D71055774C85 DUP2 MUL PUSH16 0x28F6481AB7F045A5AF012A19D003AA9 NOT DUP2 ADD PUSH1 0x80 SWAP1 DUP2 SAR SWAP1 PUSH16 0xDB2DF09E81959A81455E260799A0632F DUP4 ADD SWAP1 SAR PUSH1 0x2 DUP2 DUP2 SIGNEXTEND SWAP1 DUP4 SWAP1 SIGNEXTEND EQ PUSH2 0x1B47 JUMPI DUP9 PUSH1 0x1 PUSH1 0x1 PUSH1 0x80 SHL SUB AND PUSH2 0x1B2C DUP3 PUSH2 0x1BC5 JUMP JUMPDEST PUSH1 0x1 PUSH1 0x1 PUSH1 0x80 SHL SUB AND GT ISZERO PUSH2 0x1B41 JUMPI DUP2 PUSH2 0x1B49 JUMP JUMPDEST DUP1 PUSH2 0x1B49 JUMP JUMPDEST DUP2 JUMPDEST SWAP10 SWAP9 POP POP POP POP POP POP POP POP POP JUMP JUMPDEST PUSH1 0x1 PUSH1 0x1 PUSH1 0x80 SHL SUB DUP3 AND PUSH8 0xFFFFFFFFFFFFFFFF DUP3 AND MUL PUSH1 0x30 SHR JUMPDEST SWAP3 SWAP2 POP POP JUMP JUMPDEST DUP1 PUSH1 0x1 PUSH1 0x1 PUSH1 0x80 SHL SUB DUP2 AND PUSH1 0x1 PUSH1 0x1 PUSH1 0x90 SHL SUB DUP3 AND EQ PUSH2 0x1B95 JUMPI PUSH1 0x0 DUP1 REVERT JUMPDEST SWAP2 SWAP1 POP JUMP JUMPDEST PUSH1 0x0 DUP1 PUSH1 0x0 PUSH2 0x1BAD DUP5 DUP7 PUSH1 0x60 ADD MLOAD PUSH2 0x1FEA JUMP JUMPDEST SWAP3 POP PUSH2 0x1BB9 DUP6 DUP5 PUSH2 0x2049 JUMP JUMPDEST SWAP4 SWAP7 SWAP1 SWAP6 POP SWAP3 SWAP4 POP POP POP JUMP JUMPDEST PUSH1 0x0 PUSH3 0xA276D NOT PUSH1 0x2 DUP4 SWAP1 SIGNEXTEND SLT DUP1 ISZERO SWAP1 PUSH2 0x1BE6 JUMPI POP PUSH3 0xCB14A PUSH1 0x2 DUP4 SWAP1 SIGNEXTEND SGT ISZERO JUMPDEST PUSH2 0x1BEF JUMPI PUSH1 0x0 DUP1 REVERT JUMPDEST PUSH1 0x0 DUP1 DUP4 PUSH1 0x2 SIGNEXTEND SLT PUSH2 0x1C04 JUMPI DUP3 PUSH1 0x2 SIGNEXTEND PUSH2 0x1C0C JUMP JUMPDEST DUP3 PUSH1 0x2 SIGNEXTEND PUSH1 0x0 SUB JUMPDEST SWAP1 POP PUSH1 0x0 DUP2 PUSH1 0x1 AND PUSH1 0x0 SUB PUSH2 0x1C25 JUMPI PUSH1 0x1 PUSH1 0x80 SHL PUSH2 0x1C37 JUMP JUMPDEST PUSH16 0xFFFCB933BD6FAD37AA2D162D1A594001 JUMPDEST PUSH17 0xFFFFFFFFFFFFFFFFFFFFFFFFFFFFFFFFFF AND SWAP1 POP PUSH1 0x2 DUP3 AND ISZERO PUSH2 0x1C6B JUMPI PUSH16 0xFFF97272373D413259A46990580E213A MUL PUSH1 0x80 SHR JUMPDEST PUSH1 0x4 DUP3 AND ISZERO PUSH2 0x1C8A JUMPI PUSH16 0xFFF2E50F5F656932EF12357CF3C7FDCC MUL PUSH1 0x80 SHR JUMPDEST PUSH1 0x8 DUP3 AND ISZERO PUSH2 0x1CA9 JUMPI PUSH16 0xFFE5CACA7E10E4E61C3624EAA0941CD0 MUL PUSH1 0x80 SHR JUMPDEST PUSH1 0x10 DUP3 AND ISZERO PUSH2 0x1CC8 JUMPI PUSH16 0xFFCB9843D60F6159C9DB58835C926644 MUL PUSH1 0x80 SHR JUMPDEST PUSH1 0x20 DUP3 AND ISZERO PUSH2 0x1CE7 JUMPI PUSH16 0xFF973B41FA98C081472E6896DFB254C0 MUL PUSH1 0x80 SHR JUMPDEST PUSH1 0x40 DUP3 AND ISZERO PUSH2 0x1D06 JUMPI PUSH16 0xFF2EA16466C96A3843EC78B326B52861 MUL PUSH1 0x80 SHR JUMPDEST PUSH1 0x80 DUP3 AND ISZERO PUSH2 0x1D25 JUMPI PUSH16 0xFE5DEE046A99A2A811C461F1969C3053 MUL PUSH1 0x80 SHR JUMPDEST PUSH2 0x100 DUP3 AND ISZERO PUSH2 0x1D45 JUMPI PUSH16 0xFCBE86C7900A88AEDCFFC83B479AA3A4 MUL PUSH1 0x80 SHR JUMPDEST PUSH2 0x200 DUP3 AND ISZERO PUSH2 0x1D65 JUMPI PUSH16 0xF987A7253AC413176F2B074CF7815E54 MUL PUSH1 0x80 SHR JUMPDEST PUSH2 0x400 DUP3 AND ISZERO PUSH2 0x1D85 JUMPI PUSH16 0xF3392B0822B70005940C7A398E4B70F3 MUL PUSH1 0x80 SHR JUMPDEST PUSH2 0x800 DUP3 AND ISZERO PUSH2 0x1DA5 JUMPI PUSH16 0xE7159475A2C29B7443B29C7FA6E889D9 MUL PUSH1 0x80 SHR JUMPDEST PUSH2 0x1000 DUP3 AND ISZERO PUSH2 0x1DC5 JUMPI PUSH16 0xD097F3BDFD2022B8845AD8F792AA5825 MUL PUSH1 0x80 SHR JUMPDEST PUSH2 0x2000 DUP3 AND ISZERO PUSH2 0x1DE5 JUMPI PUSH16 0xA9F746462D870FDF8A65DC1F90E061E5 MUL PUSH1 0x80 SHR JUMPDEST PUSH2 0x4000 DUP3 AND ISZERO PUSH2 0x1E05 JUMPI PUSH16 0x70D869A156D2A1B890BB3DF62BAF32F7 MUL PUSH1 0x80 SHR JUMPDEST PUSH2 0x8000 DUP3 AND ISZERO PUSH2 0x1E25 JUMPI PUSH16 0x31BE135F97D08FD981231505542FCFA6 MUL PUSH1 0x80 SHR JUMPDEST PUSH3 0x10000 DUP3 AND ISZERO PUSH2 0x1E46 JUMPI PUSH16 0x9AA508B5B7A84E1C677DE54F3E99BC9 MUL PUSH1 0x80 SHR JUMPDEST PUSH3 0x20000 DUP3 AND ISZERO PUSH2 0x1E66 JUMPI PUSH15 0x5D6AF8DEDB81196699C329225EE604 MUL PUSH1 0x80 SHR JUMPDEST PUSH3 0x40000 DUP3 AND ISZERO PUSH2 0x1E85 JUMPI PUSH14 0x2216E584F5FA1EA926041BEDFE98 MUL PUSH1 0x80 SHR JUMPDEST PUSH3 0x80000 DUP3 AND ISZERO PUSH2 0x1EA2 JUMPI PUSH12 0x48A170391F7DC42444E8FA2 MUL PUSH1 0x80 SHR JUMPDEST PUSH1 0x0 DUP5 PUSH1 0x2 SIGNEXTEND SGT ISZERO PUSH2 0x1EC3 JUMPI DUP1 PUSH1 0x0 NOT DUP2 PUSH2 0x1EBF JUMPI PUSH2 0x1EBF PUSH2 0x23F9 JUMP JUMPDEST DIV SWAP1 POP JUMPDEST PUSH9 0x10000000000000000 DUP2 MOD ISZERO PUSH2 0x1EDB JUMPI PUSH1 0x1 PUSH2 0x1EDE JUMP JUMPDEST PUSH1 0x0 JUMPDEST PUSH1 0xFF AND PUSH1 0x40 DUP3 SWAP1 SHR ADD SWAP3 POP POP POP SWAP2 SWAP1 POP JUMP JUMPDEST PUSH1 0x0 DUP1 PUSH1 0x0 PUSH2 0x1EFE DUP7 PUSH2 0x1BC5 JUMP JUMPDEST SWAP1 POP PUSH1 0x0 PUSH2 0x1F0B DUP7 PUSH2 0x1BC5 JUMP JUMPDEST SWAP1 POP PUSH1 0x0 DUP1 PUSH2 0x1F1A DUP5 DUP9 PUSH2 0x2065 JUMP JUMPDEST SWAP2 POP SWAP2 POP PUSH1 0x0 DUP1 PUSH2 0x1F2B DUP6 DUP11 PUSH2 0x2065 JUMP JUMPDEST SWAP2 POP SWAP2 POP PUSH1 0x0 DUP1 PUSH2 0x1F3C DUP15 DUP13 PUSH2 0x2065 JUMP JUMPDEST SWAP2 POP SWAP2 POP DUP8 PUSH1 0x1 PUSH1 0x1 PUSH1 0x80 SHL SUB AND DUP15 PUSH1 0x1 PUSH1 0x1 PUSH1 0x80 SHL SUB AND LT ISZERO PUSH2 0x1F77 JUMPI PUSH1 0x0 PUSH2 0x1F66 DUP5 DUP8 PUSH2 0x240F JUMP JUMPDEST SWAP10 POP SWAP10 POP POP POP POP POP POP POP POP POP PUSH2 0x1FC1 JUMP JUMPDEST DUP7 PUSH1 0x1 PUSH1 0x1 PUSH1 0x80 SHL SUB AND DUP15 PUSH1 0x1 PUSH1 0x1 PUSH1 0x80 SHL SUB AND LT PUSH2 0x1FAD JUMPI PUSH2 0x1F9A DUP7 DUP6 PUSH2 0x240F JUMP JUMPDEST PUSH1 0x0 SWAP10 POP SWAP10 POP POP POP POP POP POP POP POP POP PUSH2 0x1FC1 JUMP JUMPDEST PUSH2 0x1FB7 DUP7 DUP4 PUSH2 0x240F JUMP JUMPDEST PUSH2 0x1F66 DUP5 DUP4 PUSH2 0x240F JUMP JUMPDEST SWAP5 POP SWAP5 SWAP3 POP POP POP JUMP JUMPDEST PUSH1 0x0 DUP1 PUSH2 0x1FDD DUP7 PUSH1 0x0 ADD MLOAD DUP7 DUP7 DUP7 PUSH2 0x1EF0 JUMP JUMPDEST SWAP2 POP SWAP2 POP SWAP5 POP SWAP5 SWAP3 POP POP POP JUMP JUMPDEST PUSH1 0x0 PUSH7 0x1000000000000 PUSH1 0x1 PUSH1 0x1 PUSH1 0x80 SHL SUB DUP1 DUP6 AND PUSH8 0xFFFFFFFFFFFFFFFF DUP6 AND DUP4 ADD MUL SWAP1 PUSH1 0x30 DUP3 SWAP1 SHR SWAP1 DUP2 GT ISZERO PUSH2 0xD5D JUMPI PUSH1 0x1 PUSH1 0x1 PUSH1 0x80 SHL SUB SWAP4 POP POP POP POP PUSH2 0x1B70 JUMP JUMPDEST DUP1 DUP3 ADD PUSH1 0x1 PUSH1 0x1 PUSH1 0x80 SHL SUB DUP1 DUP5 AND SWAP1 DUP3 AND LT ISZERO PUSH2 0x1B70 JUMPI PUSH1 0x0 DUP1 REVERT JUMPDEST PUSH1 0x0 DUP1 PUSH2 0x205A DUP5 PUSH1 0x0 ADD MLOAD DUP5 PUSH2 0x2065 JUMP JUMPDEST SWAP2 POP SWAP2 POP SWAP3 POP SWAP3 SWAP1 POP JUMP JUMPDEST PUSH1 0x1 PUSH1 0x1 PUSH1 0x80 SHL SUB DUP3 DUP2 AND SWAP1 DUP3 AND MUL PUSH1 0x40 SHR PUSH1 0x0 PUSH2 0x2083 DUP4 DUP6 PUSH2 0x208C JUMP JUMPDEST SWAP1 POP SWAP3 POP SWAP3 SWAP1 POP JUMP JUMPDEST PUSH1 0x0 PUSH1 0x1 PUSH1 0x1 PUSH1 0x80 SHL SUB DUP3 AND PUSH1 0x1 PUSH1 0x40 SHL PUSH1 0x1 PUSH1 0xC0 SHL SUB PUSH1 0x40 DUP6 SWAP1 SHL AND DUP2 PUSH2 0x20B6 JUMPI PUSH2 0x20B6 PUSH2 0x23F9 JUMP JUMPDEST DIV SWAP4 SWAP3 POP POP POP JUMP JUMPDEST DUP1 CALLDATALOAD PUSH1 0x1 PUSH1 0x1 PUSH1 0xA0 SHL SUB DUP2 AND DUP2 EQ PUSH2 0x1B95 JUMPI PUSH1 0x0 DUP1 REVERT JUMPDEST PUSH1 0x0 DUP1 PUSH1 0x0 DUP1 PUSH1 0x80 DUP6 DUP8 SUB SLT ISZERO PUSH2 0x20EB JUMPI PUSH1 0x0 DUP1 REVERT JUMPDEST PUSH2 0x20F4 DUP6 PUSH2 0x20BE JUMP JUMPDEST SWAP4 POP PUSH2 0x2102 PUSH1 0x20 DUP7 ADD PUSH2 0x20BE JUMP JUMPDEST SWAP3 POP PUSH2 0x2110 PUSH1 0x40 DUP7 ADD PUSH2 0x20BE JUMP JUMPDEST SWAP4 SWAP7 SWAP3 SWAP6 POP SWAP3 SWAP4 PUSH1 0x60 ADD CALLDATALOAD SWAP3 POP POP JUMP JUMPDEST DUP1 CALLDATALOAD DUP1 ISZERO ISZERO DUP2 EQ PUSH2 0x1B95 JUMPI PUSH1 0x0 DUP1 REVERT JUMPDEST DUP1 CALLDATALOAD PUSH1 0x2 DUP2 SWAP1 SIGNEXTEND DUP2 EQ PUSH2 0x1B95 JUMPI PUSH1 0x0 DUP1 REVERT JUMPDEST PUSH1 0x0 DUP1 PUSH1 0x0 DUP1 PUSH1 0x0 PUSH1 0xA0 DUP7 DUP9 SUB SLT ISZERO PUSH2 0x215A JUMPI PUSH1 0x0 DUP1 REVERT JUMPDEST PUSH2 0x2163 DUP7 PUSH2 0x20BE JUMP JUMPDEST SWAP5 POP PUSH2 0x2171 PUSH1 0x20 DUP8 ADD PUSH2 0x20BE JUMP JUMPDEST SWAP4 POP PUSH1 0x40 DUP7 ADD CALLDATALOAD SWAP3 POP PUSH2 0x2186 PUSH1 0x60 DUP8 ADD PUSH2 0x2120 JUMP JUMPDEST SWAP2 POP PUSH2 0x2194 PUSH1 0x80 DUP8 ADD PUSH2 0x2130 JUMP JUMPDEST SWAP1 POP SWAP3 SWAP6 POP SWAP3 SWAP6 SWAP1 SWAP4 POP JUMP JUMPDEST PUSH1 0x0 PUSH1 0x20 DUP3 DUP5 SUB SLT ISZERO PUSH2 0x21B2 JUMPI PUSH1 0x0 DUP1 REVERT JUMPDEST POP CALLDATALOAD SWAP2 SWAP1 POP JUMP JUMPDEST PUSH1 0x0 DUP1 PUSH1 0x0 PUSH1 0x60 DUP5 DUP7 SUB SLT ISZERO PUSH2 0x21CE JUMPI PUSH1 0x0 DUP1 REVERT JUMPDEST PUSH2 0x21D7 DUP5 PUSH2 0x20BE JUMP JUMPDEST SWAP3 POP PUSH2 0x21E5 PUSH1 0x20 DUP6 ADD PUSH2 0x20BE JUMP JUMPDEST SWAP2 POP PUSH1 0x40 DUP5 ADD CALLDATALOAD SWAP1 POP SWAP3 POP SWAP3 POP SWAP3 JUMP JUMPDEST PUSH1 0x0 DUP1 PUSH1 0x0 DUP1 PUSH1 0x80 DUP6 DUP8 SUB SLT ISZERO PUSH2 0x220B JUMPI PUSH1 0x0 DUP1 REVERT JUMPDEST PUSH2 0x2214 DUP6 PUSH2 0x20BE JUMP JUMPDEST SWAP4 POP PUSH2 0x2222 PUSH1 0x20 DUP7 ADD PUSH2 0x20BE JUMP JUMPDEST SWAP3 POP PUSH1 0x40 DUP6 ADD CALLDATALOAD SWAP2 POP PUSH2 0x2237 PUSH1 0x60 DUP7 ADD PUSH2 0x2130 JUMP JUMPDEST SWAP1 POP SWAP3 SWAP6 SWAP2 SWAP5 POP SWAP3 POP JUMP JUMPDEST PUSH1 0x0 DUP1 PUSH1 0x0 DUP1 PUSH1 0x0 DUP1 PUSH1 0x0 DUP1 PUSH2 0x100 DUP10 DUP12 SUB SLT ISZERO PUSH2 0x225F JUMPI PUSH1 0x0 DUP1 REVERT JUMPDEST PUSH2 0x2268 DUP10 PUSH2 0x20BE JUMP JUMPDEST SWAP8 POP PUSH2 0x2276 PUSH1 0x20 DUP11 ADD PUSH2 0x20BE JUMP JUMPDEST SWAP7 POP PUSH2 0x2284 PUSH1 0x40 DUP11 ADD PUSH2 0x20BE JUMP JUMPDEST SWAP6 POP PUSH1 0x60 DUP10 ADD CALLDATALOAD SWAP5 POP PUSH1 0x80 DUP10 ADD CALLDATALOAD PUSH4 0xFFFFFFFF DUP2 AND DUP2 EQ PUSH2 0x22A4 JUMPI PUSH1 0x0 DUP1 REVERT JUMPDEST SWAP4 POP PUSH2 0x22B2 PUSH1 0xA0 DUP11 ADD PUSH2 0x2120 JUMP JUMPDEST SWAP3 POP PUSH2 0x22C0 PUSH1 0xC0 DUP11 ADD PUSH2 0x2130 JUMP JUMPDEST SWAP2 POP PUSH2 0x22CE PUSH1 0xE0 DUP11 ADD PUSH2 0x2130 JUMP JUMPDEST SWAP1 POP SWAP3 SWAP6 SWAP9 POP SWAP3 SWAP6 SWAP9 SWAP1 SWAP4 SWAP7 POP JUMP JUMPDEST PUSH1 0x0 DUP1 PUSH1 0x0 DUP1 PUSH1 0x0 DUP1 PUSH1 0xC0 DUP8 DUP10 SUB SLT ISZERO PUSH2 0x22F6 JUMPI PUSH1 0x0 DUP1 REVERT JUMPDEST PUSH2 0x22FF DUP8 PUSH2 0x20BE JUMP JUMPDEST SWAP6 POP PUSH2 0x230D PUSH1 0x20 DUP9 ADD PUSH2 0x20BE JUMP JUMPDEST SWAP5 POP PUSH2 0x231B PUSH1 0x40 DUP9 ADD PUSH2 0x20BE JUMP JUMPDEST SWAP4 POP PUSH1 0x60 DUP8 ADD CALLDATALOAD SWAP3 POP PUSH2 0x2330 PUSH1 0x80 DUP9 ADD PUSH2 0x2130 JUMP JUMPDEST SWAP2 POP PUSH2 0x233E PUSH1 0xA0 DUP9 ADD PUSH2 0x2130 JUMP JUMPDEST SWAP1 POP SWAP3 SWAP6 POP SWAP3 SWAP6 POP SWAP3 SWAP6 JUMP JUMPDEST PUSH1 0x0 DUP1 PUSH1 0x40 DUP4 DUP6 SUB SLT ISZERO PUSH2 0x235D JUMPI PUSH1 0x0 DUP1 REVERT JUMPDEST PUSH2 0x2366 DUP4 PUSH2 0x20BE JUMP JUMPDEST SWAP2 POP PUSH2 0x2083 PUSH1 0x20 DUP5 ADD PUSH2 0x20BE JUMP JUMPDEST PUSH1 0x0 PUSH1 0x20 DUP3 DUP5 SUB SLT ISZERO PUSH2 0x2386 JUMPI PUSH1 0x0 DUP1 REVERT JUMPDEST PUSH2 0x1712 DUP3 PUSH2 0x20BE JUMP JUMPDEST PUSH1 0x0 PUSH1 0x20 DUP3 DUP5 SUB SLT ISZERO PUSH2 0x23A1 JUMPI PUSH1 0x0 DUP1 REVERT JUMPDEST POP MLOAD SWAP2 SWAP1 POP JUMP JUMPDEST PUSH4 0x4E487B71 PUSH1 0xE0 SHL PUSH1 0x0 MSTORE PUSH1 0x11 PUSH1 0x4 MSTORE PUSH1 0x24 PUSH1 0x0 REVERT JUMPDEST PUSH8 0xFFFFFFFFFFFFFFFF DUP3 DUP2 AND DUP3 DUP3 AND SUB SWAP1 DUP1 DUP3 GT ISZERO PUSH2 0x23DF JUMPI PUSH2 0x23DF PUSH2 0x23A8 JUMP JUMPDEST POP SWAP3 SWAP2 POP POP JUMP JUMPDEST DUP1 DUP3 ADD DUP1 DUP3 GT ISZERO PUSH2 0x1B70 JUMPI PUSH2 0x1B70 PUSH2 0x23A8 JUMP JUMPDEST PUSH4 0x4E487B71 PUSH1 0xE0 SHL PUSH1 0x0 MSTORE PUSH1 0x12 PUSH1 0x4 MSTORE PUSH1 0x24 PUSH1 0x0 REVERT JUMPDEST PUSH1 0x1 PUSH1 0x1 PUSH1 0x80 SHL SUB DUP3 DUP2 AND DUP3 DUP3 AND SUB SWAP1 DUP1 DUP3 GT ISZERO PUSH2 0x23DF JUMPI PUSH2 0x23DF PUSH2 0x23A8 JUMP INVALID LOG2 PUSH5 0x6970667358 0x22 SLT KECCAK256 SWAP1 0x2E SELFDESTRUCT PUSH19 0xACDE45DA3B0F31ACC732ED4A64973D197C2F42 DUP4 0x24 0x2E GAS GAS 0x4C JUMPDEST COINBASE 0xD4 PUSH5 0x736F6C6343 STOP ADDMOD SGT STOP CALLER "
		},
		"gasEstimates": {
			"creation": {
				"codeDepositCost": "1863400",
				"executionCost": "infinite",
				"totalCost": "infinite"
			},
			"external": {
				"dex_()": "infinite",
				"queryConcRewards(address,address,address,uint256,int24,int24)": "infinite",
				"queryCurve(address,address,uint256)": "infinite",
				"queryCurveTick(address,address,uint256)": "infinite",
				"queryHaqqXPosition(address,address,address,uint256)": "infinite",
				"queryHaqqXTokens(address,address,address,uint256)": "infinite",
				"queryKnockoutMerkle(address,address,uint256,bool,int24)": "infinite",
				"queryKnockoutPivot(address,address,uint256,bool,int24)": "infinite",
				"queryKnockoutPos(address,address,address,uint256,uint32,bool,int24,int24)": "infinite",
				"queryKnockoutTokens(address,address,address,uint256,uint32,bool,int24,int24)": "infinite",
				"queryLevel(address,address,uint256,int24)": "infinite",
				"queryLiquidity(address,address,uint256)": "infinite",
				"queryPoolParams(address,address,uint256)": "infinite",
				"queryPoolTemplate(uint256)": "infinite",
				"queryPrice(address,address,uint256)": "infinite",
				"queryProtocolAccum(address)": "infinite",
				"queryRangePosition(address,address,address,uint256,int24,int24)": "infinite",
				"queryRangeTokens(address,address,address,uint256,int24,int24)": "infinite",
				"querySurplus(address,address)": "infinite",
				"queryVirtual(address,address,uint256)": "infinite"
			},
			"internal": {
				"concLiqToTokens(struct CurveMath.CurveState memory,int24,int24,uint128)": "infinite",
				"concLiqToTokens(uint128,int24,int24,uint128)": "infinite",
				"convertSeedsToLiq(struct CurveMath.CurveState memory,uint128)": "infinite",
				"liquidityToTokens(struct CurveMath.CurveState memory,uint128)": "infinite",
				"liquidityToTokens(uint128,uint128)": "198",
				"queryKnockoutPos(struct KnockoutLiq.KnockoutPosLoc memory,bytes32,address,uint32)": "infinite"
			}
		},
		"methodIdentifiers": {
			"dex_()": "87834a0e",
			"queryConcRewards(address,address,address,uint256,int24,int24)": "3dccd7d7",
			"queryCurve(address,address,uint256)": "8e56c1c1",
			"queryCurveTick(address,address,uint256)": "dc91a6ad",
			"queryHaqqXPosition(address,address,address,uint256)": "0a782762",
			"queryHaqqXTokens(address,address,address,uint256)": "a6e2fe72",
			"queryKnockoutMerkle(address,address,uint256,bool,int24)": "ab0a9898",
			"queryKnockoutPivot(address,address,uint256,bool,int24)": "10fc74f4",
			"queryKnockoutPos(address,address,address,uint256,uint32,bool,int24,int24)": "391d582f",
			"queryKnockoutTokens(address,address,address,uint256,uint32,bool,int24,int24)": "93c33a71",
			"queryLevel(address,address,uint256,int24)": "340bfa12",
			"queryLiquidity(address,address,uint256)": "338adc67",
			"queryPoolParams(address,address,uint256)": "ff163e14",
			"queryPoolTemplate(uint256)": "2855bcf3",
			"queryPrice(address,address,uint256)": "f8c7efa7",
			"queryProtocolAccum(address)": "ed8f58f4",
			"queryRangePosition(address,address,address,uint256,int24,int24)": "992236c5",
			"queryRangeTokens(address,address,address,uint256,int24,int24)": "d7fd8d0f",
			"querySurplus(address,address)": "56bf0f5b",
			"queryVirtual(address,address,uint256)": "6756e9b8"
		}
	},
	"abi": [
		{
			"inputs": [
				{
					"internalType": "address",
					"name": "dex",
					"type": "address"
				}
			],
			"stateMutability": "nonpayable",
			"type": "constructor"
		},
		{
			"inputs": [],
			"name": "dex_",
			"outputs": [
				{
					"internalType": "address",
					"name": "",
					"type": "address"
				}
			],
			"stateMutability": "view",
			"type": "function"
		},
		{
			"inputs": [
				{
					"internalType": "address",
					"name": "owner",
					"type": "address"
				},
				{
					"internalType": "address",
					"name": "base",
					"type": "address"
				},
				{
					"internalType": "address",
					"name": "quote",
					"type": "address"
				},
				{
					"internalType": "uint256",
					"name": "poolIdx",
					"type": "uint256"
				},
				{
					"internalType": "int24",
					"name": "lowerTick",
					"type": "int24"
				},
				{
					"internalType": "int24",
					"name": "upperTick",
					"type": "int24"
				}
			],
			"name": "queryConcRewards",
			"outputs": [
				{
					"internalType": "uint128",
					"name": "liqRewards",
					"type": "uint128"
				},
				{
					"internalType": "uint128",
					"name": "baseRewards",
					"type": "uint128"
				},
				{
					"internalType": "uint128",
					"name": "quoteRewards",
					"type": "uint128"
				}
			],
			"stateMutability": "view",
			"type": "function"
		},
		{
			"inputs": [
				{
					"internalType": "address",
					"name": "base",
					"type": "address"
				},
				{
					"internalType": "address",
					"name": "quote",
					"type": "address"
				},
				{
					"internalType": "uint256",
					"name": "poolIdx",
					"type": "uint256"
				}
			],
			"name": "queryCurve",
			"outputs": [
				{
					"components": [
						{
							"internalType": "uint128",
							"name": "priceRoot_",
							"type": "uint128"
						},
						{
							"internalType": "uint128",
							"name": "haqqxSeeds_",
							"type": "uint128"
						},
						{
							"internalType": "uint128",
							"name": "concLiq_",
							"type": "uint128"
						},
						{
							"internalType": "uint64",
							"name": "seedDeflator_",
							"type": "uint64"
						},
						{
							"internalType": "uint64",
							"name": "concGrowth_",
							"type": "uint64"
						}
					],
					"internalType": "struct CurveMath.CurveState",
					"name": "curve",
					"type": "tuple"
				}
			],
			"stateMutability": "view",
			"type": "function"
		},
		{
			"inputs": [
				{
					"internalType": "address",
					"name": "base",
					"type": "address"
				},
				{
					"internalType": "address",
					"name": "quote",
					"type": "address"
				},
				{
					"internalType": "uint256",
					"name": "poolIdx",
					"type": "uint256"
				}
			],
			"name": "queryCurveTick",
			"outputs": [
				{
					"internalType": "int24",
					"name": "",
					"type": "int24"
				}
			],
			"stateMutability": "view",
			"type": "function"
		},
		{
			"inputs": [
				{
					"internalType": "address",
					"name": "owner",
					"type": "address"
				},
				{
					"internalType": "address",
					"name": "base",
					"type": "address"
				},
				{
					"internalType": "address",
					"name": "quote",
					"type": "address"
				},
				{
					"internalType": "uint256",
					"name": "poolIdx",
					"type": "uint256"
				}
			],
			"name": "queryHaqqXPosition",
			"outputs": [
				{
					"internalType": "uint128",
					"name": "seeds",
					"type": "uint128"
				},
				{
					"internalType": "uint32",
					"name": "timestamp",
					"type": "uint32"
				}
			],
			"stateMutability": "view",
			"type": "function"
		},
		{
			"inputs": [
				{
					"internalType": "address",
					"name": "owner",
					"type": "address"
				},
				{
					"internalType": "address",
					"name": "base",
					"type": "address"
				},
				{
					"internalType": "address",
					"name": "quote",
					"type": "address"
				},
				{
					"internalType": "uint256",
					"name": "poolIdx",
					"type": "uint256"
				}
			],
			"name": "queryHaqqXTokens",
			"outputs": [
				{
					"internalType": "uint128",
					"name": "liq",
					"type": "uint128"
				},
				{
					"internalType": "uint128",
					"name": "baseQty",
					"type": "uint128"
				},
				{
					"internalType": "uint128",
					"name": "quoteQty",
					"type": "uint128"
				}
			],
			"stateMutability": "view",
			"type": "function"
		},
		{
			"inputs": [
				{
					"internalType": "address",
					"name": "base",
					"type": "address"
				},
				{
					"internalType": "address",
					"name": "quote",
					"type": "address"
				},
				{
					"internalType": "uint256",
					"name": "poolIdx",
					"type": "uint256"
				},
				{
					"internalType": "bool",
					"name": "isBid",
					"type": "bool"
				},
				{
					"internalType": "int24",
					"name": "tick",
					"type": "int24"
				}
			],
			"name": "queryKnockoutMerkle",
			"outputs": [
				{
					"internalType": "uint160",
					"name": "root",
					"type": "uint160"
				},
				{
					"internalType": "uint32",
					"name": "pivot",
					"type": "uint32"
				},
				{
					"internalType": "uint64",
					"name": "fee",
					"type": "uint64"
				}
			],
			"stateMutability": "view",
			"type": "function"
		},
		{
			"inputs": [
				{
					"internalType": "address",
					"name": "base",
					"type": "address"
				},
				{
					"internalType": "address",
					"name": "quote",
					"type": "address"
				},
				{
					"internalType": "uint256",
					"name": "poolIdx",
					"type": "uint256"
				},
				{
					"internalType": "bool",
					"name": "isBid",
					"type": "bool"
				},
				{
					"internalType": "int24",
					"name": "tick",
					"type": "int24"
				}
			],
			"name": "queryKnockoutPivot",
			"outputs": [
				{
					"internalType": "uint96",
					"name": "lots",
					"type": "uint96"
				},
				{
					"internalType": "uint32",
					"name": "pivot",
					"type": "uint32"
				},
				{
					"internalType": "uint16",
					"name": "range",
					"type": "uint16"
				}
			],
			"stateMutability": "view",
			"type": "function"
		},
		{
			"inputs": [
				{
					"internalType": "address",
					"name": "owner",
					"type": "address"
				},
				{
					"internalType": "address",
					"name": "base",
					"type": "address"
				},
				{
					"internalType": "address",
					"name": "quote",
					"type": "address"
				},
				{
					"internalType": "uint256",
					"name": "poolIdx",
					"type": "uint256"
				},
				{
					"internalType": "uint32",
					"name": "pivot",
					"type": "uint32"
				},
				{
					"internalType": "bool",
					"name": "isBid",
					"type": "bool"
				},
				{
					"internalType": "int24",
					"name": "lowerTick",
					"type": "int24"
				},
				{
					"internalType": "int24",
					"name": "upperTick",
					"type": "int24"
				}
			],
			"name": "queryKnockoutPos",
			"outputs": [
				{
					"internalType": "uint96",
					"name": "lots",
					"type": "uint96"
				},
				{
					"internalType": "uint64",
					"name": "mileage",
					"type": "uint64"
				},
				{
					"internalType": "uint32",
					"name": "timestamp",
					"type": "uint32"
				}
			],
			"stateMutability": "view",
			"type": "function"
		},
		{
			"inputs": [
				{
					"internalType": "address",
					"name": "owner",
					"type": "address"
				},
				{
					"internalType": "address",
					"name": "base",
					"type": "address"
				},
				{
					"internalType": "address",
					"name": "quote",
					"type": "address"
				},
				{
					"internalType": "uint256",
					"name": "poolIdx",
					"type": "uint256"
				},
				{
					"internalType": "uint32",
					"name": "pivot",
					"type": "uint32"
				},
				{
					"internalType": "bool",
					"name": "isBid",
					"type": "bool"
				},
				{
					"internalType": "int24",
					"name": "lowerTick",
					"type": "int24"
				},
				{
					"internalType": "int24",
					"name": "upperTick",
					"type": "int24"
				}
			],
			"name": "queryKnockoutTokens",
			"outputs": [
				{
					"internalType": "uint128",
					"name": "liq",
					"type": "uint128"
				},
				{
					"internalType": "uint128",
					"name": "baseQty",
					"type": "uint128"
				},
				{
					"internalType": "uint128",
					"name": "quoteQty",
					"type": "uint128"
				},
				{
					"internalType": "bool",
					"name": "knockedOut",
					"type": "bool"
				}
			],
			"stateMutability": "view",
			"type": "function"
		},
		{
			"inputs": [
				{
					"internalType": "address",
					"name": "base",
					"type": "address"
				},
				{
					"internalType": "address",
					"name": "quote",
					"type": "address"
				},
				{
					"internalType": "uint256",
					"name": "poolIdx",
					"type": "uint256"
				},
				{
					"internalType": "int24",
					"name": "tick",
					"type": "int24"
				}
			],
			"name": "queryLevel",
			"outputs": [
				{
					"internalType": "uint96",
					"name": "bidLots",
					"type": "uint96"
				},
				{
					"internalType": "uint96",
					"name": "askLots",
					"type": "uint96"
				},
				{
					"internalType": "uint64",
					"name": "odometer",
					"type": "uint64"
				}
			],
			"stateMutability": "view",
			"type": "function"
		},
		{
			"inputs": [
				{
					"internalType": "address",
					"name": "base",
					"type": "address"
				},
				{
					"internalType": "address",
					"name": "quote",
					"type": "address"
				},
				{
					"internalType": "uint256",
					"name": "poolIdx",
					"type": "uint256"
				}
			],
			"name": "queryLiquidity",
			"outputs": [
				{
					"internalType": "uint128",
					"name": "",
					"type": "uint128"
				}
			],
			"stateMutability": "view",
			"type": "function"
		},
		{
			"inputs": [
				{
					"internalType": "address",
					"name": "base",
					"type": "address"
				},
				{
					"internalType": "address",
					"name": "quote",
					"type": "address"
				},
				{
					"internalType": "uint256",
					"name": "poolIdx",
					"type": "uint256"
				}
			],
			"name": "queryPoolParams",
			"outputs": [
				{
					"components": [
						{
							"internalType": "uint8",
							"name": "schema_",
							"type": "uint8"
						},
						{
							"internalType": "uint16",
							"name": "feeRate_",
							"type": "uint16"
						},
						{
							"internalType": "uint8",
							"name": "protocolTake_",
							"type": "uint8"
						},
						{
							"internalType": "uint16",
							"name": "tickSize_",
							"type": "uint16"
						},
						{
							"internalType": "uint8",
							"name": "jitThresh_",
							"type": "uint8"
						},
						{
							"internalType": "uint8",
							"name": "knockoutBits_",
							"type": "uint8"
						},
						{
							"internalType": "uint8",
							"name": "oracleFlags_",
							"type": "uint8"
						}
					],
					"internalType": "struct PoolSpecs.Pool",
					"name": "pool",
					"type": "tuple"
				}
			],
			"stateMutability": "view",
			"type": "function"
		},
		{
			"inputs": [
				{
					"internalType": "uint256",
					"name": "poolIdx",
					"type": "uint256"
				}
			],
			"name": "queryPoolTemplate",
			"outputs": [
				{
					"components": [
						{
							"internalType": "uint8",
							"name": "schema_",
							"type": "uint8"
						},
						{
							"internalType": "uint16",
							"name": "feeRate_",
							"type": "uint16"
						},
						{
							"internalType": "uint8",
							"name": "protocolTake_",
							"type": "uint8"
						},
						{
							"internalType": "uint16",
							"name": "tickSize_",
							"type": "uint16"
						},
						{
							"internalType": "uint8",
							"name": "jitThresh_",
							"type": "uint8"
						},
						{
							"internalType": "uint8",
							"name": "knockoutBits_",
							"type": "uint8"
						},
						{
							"internalType": "uint8",
							"name": "oracleFlags_",
							"type": "uint8"
						}
					],
					"internalType": "struct PoolSpecs.Pool",
					"name": "pool",
					"type": "tuple"
				}
			],
			"stateMutability": "view",
			"type": "function"
		},
		{
			"inputs": [
				{
					"internalType": "address",
					"name": "base",
					"type": "address"
				},
				{
					"internalType": "address",
					"name": "quote",
					"type": "address"
				},
				{
					"internalType": "uint256",
					"name": "poolIdx",
					"type": "uint256"
				}
			],
			"name": "queryPrice",
			"outputs": [
				{
					"internalType": "uint128",
					"name": "",
					"type": "uint128"
				}
			],
			"stateMutability": "view",
			"type": "function"
		},
		{
			"inputs": [
				{
					"internalType": "address",
					"name": "token",
					"type": "address"
				}
			],
			"name": "queryProtocolAccum",
			"outputs": [
				{
					"internalType": "uint128",
					"name": "",
					"type": "uint128"
				}
			],
			"stateMutability": "view",
			"type": "function"
		},
		{
			"inputs": [
				{
					"internalType": "address",
					"name": "owner",
					"type": "address"
				},
				{
					"internalType": "address",
					"name": "base",
					"type": "address"
				},
				{
					"internalType": "address",
					"name": "quote",
					"type": "address"
				},
				{
					"internalType": "uint256",
					"name": "poolIdx",
					"type": "uint256"
				},
				{
					"internalType": "int24",
					"name": "lowerTick",
					"type": "int24"
				},
				{
					"internalType": "int24",
					"name": "upperTick",
					"type": "int24"
				}
			],
			"name": "queryRangePosition",
			"outputs": [
				{
					"internalType": "uint128",
					"name": "liq",
					"type": "uint128"
				},
				{
					"internalType": "uint64",
					"name": "fee",
					"type": "uint64"
				},
				{
					"internalType": "uint32",
					"name": "timestamp",
					"type": "uint32"
				},
				{
					"internalType": "bool",
					"name": "atomic",
					"type": "bool"
				}
			],
			"stateMutability": "view",
			"type": "function"
		},
		{
			"inputs": [
				{
					"internalType": "address",
					"name": "owner",
					"type": "address"
				},
				{
					"internalType": "address",
					"name": "base",
					"type": "address"
				},
				{
					"internalType": "address",
					"name": "quote",
					"type": "address"
				},
				{
					"internalType": "uint256",
					"name": "poolIdx",
					"type": "uint256"
				},
				{
					"internalType": "int24",
					"name": "lowerTick",
					"type": "int24"
				},
				{
					"internalType": "int24",
					"name": "upperTick",
					"type": "int24"
				}
			],
			"name": "queryRangeTokens",
			"outputs": [
				{
					"internalType": "uint128",
					"name": "liq",
					"type": "uint128"
				},
				{
					"internalType": "uint128",
					"name": "baseQty",
					"type": "uint128"
				},
				{
					"internalType": "uint128",
					"name": "quoteQty",
					"type": "uint128"
				}
			],
			"stateMutability": "view",
			"type": "function"
		},
		{
			"inputs": [
				{
					"internalType": "address",
					"name": "owner",
					"type": "address"
				},
				{
					"internalType": "address",
					"name": "token",
					"type": "address"
				}
			],
			"name": "querySurplus",
			"outputs": [
				{
					"internalType": "uint128",
					"name": "surplus",
					"type": "uint128"
				}
			],
			"stateMutability": "view",
			"type": "function"
		},
		{
			"inputs": [
				{
					"internalType": "address",
					"name": "owner",
					"type": "address"
				},
				{
					"internalType": "address",
					"name": "tracker",
					"type": "address"
				},
				{
					"internalType": "uint256",
					"name": "salt",
					"type": "uint256"
				}
			],
			"name": "queryVirtual",
			"outputs": [
				{
					"internalType": "uint128",
					"name": "surplus",
					"type": "uint128"
				}
			],
			"stateMutability": "view",
			"type": "function"
		}
	]
}