{
	"data": {
		"bytecode": {
			"linkReferences": {},
			"object": "60a06040523480156200001157600080fd5b5060405162002fa438038062002fa4833981016040819052620000349162000110565b6001600160a01b03811615801590620000ad5750806001600160a01b0316637a5783e76040518163ffffffff1660e01b8152600401602060405180830381865afa15801562000087573d6000803e3d6000fd5b505050506040513d601f19601f82011682018060405250810190620000ad919062000142565b620000fe5760405162461bcd60e51b815260206004820152601360248201527f496e76616c696420486171715377617044657800000000000000000000000000604482015260640160405180910390fd5b6001600160a01b031660805262000166565b6000602082840312156200012357600080fd5b81516001600160a01b03811681146200013b57600080fd5b9392505050565b6000602082840312156200015557600080fd5b815180151581146200013b57600080fd5b608051612e00620001a4600039600081816084015281816101ee01528181610345015281816103c601528181610f8901526113f50152612e006000f3fe608060405234801561001057600080fd5b50600436106100365760003560e01c80634a6c44bf1461003b57806387834a0e1461007f575b600080fd5b61004e610049366004612b3c565b6100be565b60408051600f94850b81529290930b60208301526001600160801b0316918101919091526060015b60405180910390f35b6100a67f000000000000000000000000000000000000000000000000000000000000000081565b6040516001600160a01b039091168152602001610076565b6000806000806100d08c8c8c8961013c565b905060006100df8d8d8d6102bb565b6040805160a0810182526000918101919091528b151581528a151560208201526001600160801b038a8116606083015288166080820152909150610124838383610499565b9251909f929e509c50909a5050505050505050505050565b60408051610140810182526000606082018181526080830182905260a0830182905260c0830182905260e08301829052610100830182905261012083018290528252602082018190529181019190915262010009600061019d8787876105d7565b9050600081836040516020016101bd929190918252602082015260400190565b60408051808303601f190181529082905280516020909101206302ce8af360e01b82526004820181905291506000907f00000000000000000000000000000000000000000000000000000000000000006001600160a01b0316906302ce8af390602401602060405180830381865afa15801561023d573d6000803e3d6000fd5b505050506040513d601f19601f820116820180604052508101906102619190612bd5565b6020808701859052865161ffff600884901c811691830191909152875160ff601885901c1660409091015287519091015191925090811690871611156102af57845161ffff87166020909101525b50505050949350505050565b6040805160a0810182526000808252602082018190529181018290526060810182905260808101829052906102f18585856105d7565b90506000816201000f604051602001610314929190918252602082015260400190565b60408051808303601f190181529082905280516020909101206302ce8af360e01b82526004820181905291506000907f00000000000000000000000000000000000000000000000000000000000000006001600160a01b0316906302ce8af390602401602060405180830381865afa158015610394573d6000803e3d6000fd5b505050506040513d601f19601f820116820180604052508101906103b89190612bd5565b905060006001600160a01b037f0000000000000000000000000000000000000000000000000000000000000000166302ce8af36103f6856001612c04565b6040518263ffffffff1660e01b815260040161041491815260200190565b602060405180830381865afa158015610431573d6000803e3d6000fd5b505050506040513d601f19601f820116820180604052508101906104559190612bd5565b6001600160801b038084168752608093841c6020880152811660408701526001600160401b0381841c16606087015260c01c91850191909152509195945050505050565b60808101518251825160009283926001600160801b0391821691161015901515036104c9575060009050806105cf565b604080516080810182526000808252602082018190529181018290526060810191909152600061050586600001516001600160801b031661063e565b905060015b80156105bf576000806105268a60200151896000015186610928565b8b51919350915061053d908a9087908b9086610976565b6105478989610a0d565b925082156105b857801561059e57600061056a8b60200151848b60000151610a7f565b92839150600282810b91900b148061059b578b5161058e908c9089908d9088610976565b6105988b8b610a0d565b94505b50505b82156105b8576105b585838b8b8e60200151610aed565b93505b505061050a565b5050805160209091015190925090505b935093915050565b6000826001600160a01b0316846001600160a01b0316106105f757600080fd5b604080516001600160a01b038087166020830152851691810191909152606081018390526080016040516020818303038152906040528051906020012090505b9392505050565b6000620100026001600160801b0383161080159061067457506f0ffff5433e2b3d8211706e6102aa94726001600160801b038316105b61067d57600080fd5b600160401b600160c01b03604083901b166001600160801b03811160071b81811c6001600160401b03811160061b90811c63ffffffff811160051b90811c61ffff811160041b90811c60ff8111600390811b91821c600f811160021b90811c918211600190811b92831c9790881196179094179092171790911717176080811061070f57607f810383901c9150610719565b80607f0383901b91505b908002607f81811c60ff83811c9190911c800280831c81831c1c800280841c81841c1c800280851c81851c1c800280861c81861c1c800280871c81871c1c800280881c81881c1c800280891c81891c1c8002808a1c818a1c1c8002808b1c818b1c1c8002808c1c818c1c1c8002808d1c818d1c1c8002808e1c9c81901c9c909c1c80029c8d901c9e9d607f198f0160401b60c09190911c678000000000000000161760c19b909b1c674000000000000000169a909a1760c29990991c672000000000000000169890981760c39790971c671000000000000000169690961760c49590951c670800000000000000169490941760c59390931c670400000000000000169290921760c69190911c670200000000000000161760c79190911c670100000000000000161760c89190911c6680000000000000161760c99190911c6640000000000000161760ca9190911c6620000000000000161760cb9190911c6610000000000000161760cc9190911c6608000000000000161760cd9190911c66040000000000001617693627a301d71055774c8581026f028f6481ab7f045a5af012a19d003aa9198101608090811d906fdb2df09e81959a81455e260799a0632f8301901d600281810b9083900b1461091957886001600160801b03166108fe82610bcb565b6001600160801b03161115610913578161091b565b8061091b565b815b9998505050505050505050565b600080600061093f61093a8786610ef1565b610f3c565b90506000610951600286900b87611004565b9050600285900b60081d61096787838386611040565b90999098509650505050505050565b600061098b828560800151866000015161108f565b905060008060006109a7898860600151888a60200151886110f8565b60208a015192955090935091506109c2908990858585611144565b6109db89886020015189600001518a606001518861119e565b6001600160801b031660608a015260208901519194509250610a0290899085856000611144565b505050505050505050565b6000808260000151610a3b5782608001516001600160801b031684600001516001600160801b031611610a59565b82608001516001600160801b031684600001516001600160801b0316105b9050808015610a755750600083606001516001600160801b0316115b9150505b92915050565b6000806000610a8e8585611217565b91509150600080610aa188858589611259565b9150915080610ab557509250610637915050565b610ac1888585896112b4565b909250905080610ad657509250610637915050565b610ae1888588611324565b98975050505050505050565b6000610af885611344565b610b03575083610bc2565b600080610b108488611367565b915091506000610b20838361148b565b905060008660000151610b365781600003610b38565b815b6040890151909150610b53906001600160801b0316826114a7565b6001600160801b0316604089015260208701518751606089015160009283928392610b81928e9290916114f9565b91945092509050610b938d8484611592565b60608a0180518290036001600160801b031690528951610bb65760018c03610bb8565b8b5b9750505050505050505b95945050505050565b6000620a276d19600283900b12801590610bec5750620cb14a600283900b13155b610bf557600080fd5b6000808360020b12610c0a578260020b610c12565b8260020b6000035b9050600081600116600003610c2b57600160801b610c3d565b6ffffcb933bd6fad37aa2d162d1a5940015b70ffffffffffffffffffffffffffffffffff1690506002821615610c71576ffff97272373d413259a46990580e213a0260801c5b6004821615610c90576ffff2e50f5f656932ef12357cf3c7fdcc0260801c5b6008821615610caf576fffe5caca7e10e4e61c3624eaa0941cd00260801c5b6010821615610cce576fffcb9843d60f6159c9db58835c9266440260801c5b6020821615610ced576fff973b41fa98c081472e6896dfb254c00260801c5b6040821615610d0c576fff2ea16466c96a3843ec78b326b528610260801c5b6080821615610d2b576ffe5dee046a99a2a811c461f1969c30530260801c5b610100821615610d4b576ffcbe86c7900a88aedcffc83b479aa3a40260801c5b610200821615610d6b576ff987a7253ac413176f2b074cf7815e540260801c5b610400821615610d8b576ff3392b0822b70005940c7a398e4b70f30260801c5b610800821615610dab576fe7159475a2c29b7443b29c7fa6e889d90260801c5b611000821615610dcb576fd097f3bdfd2022b8845ad8f792aa58250260801c5b612000821615610deb576fa9f746462d870fdf8a65dc1f90e061e50260801c5b614000821615610e0b576f70d869a156d2a1b890bb3df62baf32f70260801c5b618000821615610e2b576f31be135f97d08fd981231505542fcfa60260801c5b62010000821615610e4c576f09aa508b5b7a84e1c677de54f3e99bc90260801c5b62020000821615610e6c576e5d6af8dedb81196699c329225ee6040260801c5b62040000821615610e8b576d2216e584f5fa1ea926041bedfe980260801c5b62080000821615610ea8576b048a170391f7dc42444e8fa20260801c5b60008460020b1315610ec9578060001981610ec557610ec5612c17565b0490505b600160401b810615610edc576001610edf565b60005b60ff16604082901c0192505050919050565b600080600283900b60081d90508381604051602001610f1d92919091825260f01b602082015260220190565b6040516020818303038152906040528051906020012091505092915050565b6040805160208101839052620100079181018290526000919082906060015b60408051808303601f190181529082905280516020909101206302ce8af360e01b82526004820181905291507f00000000000000000000000000000000000000000000000000000000000000006001600160a01b0316906302ce8af390602401602060405180830381865afa158015610fd8573d6000803e3d6000fd5b505050506040513d601f19601f82011682018060405250810190610ffc9190612bd5565b949350505050565b600080611010846115c9565b9050600083611020576000611023565b60015b60ff1690508061103383866115d7565b60ff160195945050505050565b600080808061105085888a6115ee565b9150915061105f88828761162c565b92508261107857600886901b60020b60ff831601611082565b611082888761165f565b9350505094509492505050565b60008061109d8585856116c6565b9050620100026001600160801b03821610156110bf5762010002915050610637565b6f0ffff5433e2b3d8211706e6102aa94726001600160801b03821610610ffc57506f0ffff5433e2b3d8211706e6102aa94719050610637565b60008060008060006111168a8a8a602001518b604001518b8b611769565b90925090506111268a83896117b0565b611131828289611822565b9450945094505050955095509592505050565b61114f858484611592565b83156111785780856060018181516111679190612c2d565b6001600160801b0316905250611197565b808560400181815161118a9190612c2d565b6001600160801b03169052505b5050505050565b60008080806111af89878a88611868565b90506001600160801b038087169082161080156111ea576111d38a878b8b8b6118a3565b919650945092506111e58a84886118f1565b61120a565b6111f78a838b8b8b611942565b9196509450925061120a8a848a8961197c565b5050955095509592505050565b6000806000836112315761122c600186612c54565b611233565b845b90506112418160020b6119f9565b925061124f8160020b611a10565b9150509250929050565b600080600061126c61093a888888611a2c565b905060008061127c8382886115ee565b9150915080156112965760006001945094505050506112ab565b6112a1888884611a8a565b6000945094505050505b94509492505050565b60008060006112cb6112c68888611ab3565b611ac7565b905060006112d986866115d7565b90506000806112ec8460ff8516896115ee565b915091508015611307576000600195509550505050506112ab565b6113138a8a848a611259565b955095505050505094509492505050565b60008161133a576113358484611aea565b610ffc565b610ffc8484611b3a565b6000627fffff19600283900b138015610a79575050627fffff60029190910b1290565b6000806000848460405160200161138b92919091825260e81b602082015260230190565b604051602081830303815290604052805190602001209050600081620100026040516020016113c4929190918252602082015260400190565b60408051808303601f190181529082905280516020909101206302ce8af360e01b82526004820181905291506000907f00000000000000000000000000000000000000000000000000000000000000006001600160a01b0316906302ce8af390602401602060405180830381865afa158015611444573d6000803e3d6000fd5b505050506040513d601f19601f820116820180604052508101906114689190612bd5565b6bffffffffffffffffffffffff8082169960609290921c16975095505050505050565b600061149682611b84565b61149f84611b84565b039392505050565b60008082600f0b12156114d557508082016001600160801b03808416908216106114d057600080fd5b610a79565b826001600160801b03168284019150816001600160801b03161015610a7957600080fd5b60008060008061151361150b89611ba0565b895189611bc5565b9050806001600160801b0316856001600160801b0316116115605760405162461bcd60e51b8152602060048201526002602482015261109160f21b60448201526064015b60405180910390fd5b851561157d57611571888883611c27565b93509350935050611588565b611571888883611c9f565b9450945094915050565b81836000018181516115a49190612c79565b600f0b9052506020830180518291906115be908390612c79565b600f0b905250505050565b6000610a7961010083612caf565b6000816115e7578260ff03610637565b5090919050565b6000806115fc858585611d07565b9450508315806105cf57826116195761161485611d2b565b611622565b61162285611dc7565b9150935093915050565b6000831561163b575081610637565b60006116478382611eb0565b9050806116545783610bc2565b600095945050505050565b600082156116b95761167083611ee3565b60010b8260010b146116a9576116a461168a836001612cd1565b6116948515611efc565b60ff1660089190911b60020b0190565b6116b2565b6116b283611f12565b9050610a79565b600882901b60020b6116b2565b6000620a276d19600285900b1315806116e65750620cb14a600285900b12155b156116f2575081610637565b811561173357600160008161170687610bcb565b039050846001600160801b0316816001600160801b031610611728578461172a565b805b92505050610637565b600061173e85610bcb565b9050836001600160801b0316816001600160801b03161161175f5783611761565b805b915050610637565b6000808061177989898787611f2d565b9050610100620f42406001600160801b03831661ffff8a16020460ff8816810291909104908190039a909950975050505050505050565b60006117bb84611ba0565b9050806001600160801b03166000036117d45750505050565b83518215906000906117e99084908785611f71565b905060006117fd8488600001518486611fbc565b90506001600160401b0381161561181957611819878285611fd6565b50505050505050565b60008080858501841561184857611841816001600160801b03166120a5565b925061185d565b61185a816001600160801b03166120a5565b93505b509195909450915050565b6000806118768685856120c4565b9050846001600160801b0316816001600160801b0316116118975780611899565b845b9695505050505050565b60008060008060006118b68a8a8a6120fa565b915091506000806118c984848c8c612168565b915091506118dc8c8b8b8b8f878761219f565b96509650965050505050955095509592505050565b82516001600160801b039081168183161490831615158180156119115750805b6111975760405162461bcd60e51b8152602060048201526002602482015261052560f41b6044820152606401611557565b60008060008060006119568a8a8a8a61221c565b915091506000806119698b858c8c612284565b915091506118dc8c8b8b8b87878761219f565b6000826119985784516001600160801b038084169116116119a9565b84516001600160801b038084169116105b90506001600160801b038416158180156119c05750805b6119f15760405162461bcd60e51b8152602060048201526002602482015261292360f11b6044820152606401611557565b505050505050565b6000610a79611a0b8360020b60101d90565b6122a3565b6000610100611a228360020b60081d90565b610a799190612cf4565b600080611a49611a3b856122c3565b60081b60010b60ff85160190565b90508481604051602001611a6a92919091825260f01b602082015260220190565b604051602081830303815290604052805190602001209150509392505050565b6000610ffc611a98856122c3565b60101b60020b61ff00600886901b1660030b0160ff84160190565b600061063783611ac2846122c3565b6122e4565b604080516020810183905262010006918101829052600091908290606001610f5b565b600060ff60001983015b60ff8160ff161015611b2f57600080611b1087848660006112b4565b9150915080611b2457509250610a79915050565b505060001901611af4565b50610a756000611f12565b600080600183015b60ff811615611b7957600080611b5b87848660016112b4565b9150915080611b6f57509250610a79915050565b5050600101611b42565b50610a756001611f12565b6000600a82901b6d03fffffffffffffffffffffff80016610a79565b600080611bb583602001518460600151612323565b9050610637818460400151612362565b60008115611be4575060016001600160401b03604085901c1601610637565b6000611bf3856001860361237e565b90506000611c01868661237e565b905080820360016001600160c01b03821601611c1c816123b0565b945050505050610637565b600080600060016f0ffff5433e2b3d8211706e6102aa9472036001600160801b031686600001516001600160801b03161015611c6e5785516001016001600160801b031686525b60009150611c84846001600160801b03166120a5565b925084611c92576000611c94565b835b905093509350939050565b6000806000620100026001600160801b031686600001516001600160801b03161115611cd7578551600019016001600160801b031686525b60009250611ced846001600160801b03166120a5565b915084611cfa5783611c94565b6000905093509350939050565b600081611d1d5761ffff831684811b901c610ffc565b505061ffff1690811c901b90565b6000808211611d3957600080fd5b600160801b8210611d4c57608091821c91015b600160401b8210611d5f57604091821c91015b6401000000008210611d7357602091821c91015b620100008210611d8557601091821c91015b6101008210611d9657600891821c91015b60108210611da657600491821c91015b60048210611db657600291821c91015b60028210611dc2576001015b919050565b6000808211611dd557600080fd5b5060ff6001600160801b03821615611df057607f1901611df8565b608082901c91505b6001600160401b03821615611e1057603f1901611e18565b604082901c91505b63ffffffff821615611e2d57601f1901611e35565b602082901c91505b61ffff821615611e4857600f1901611e50565b601082901c91505b60ff821615611e625760071901611e6a565b600882901c91505b600f821615611e7c5760031901611e84565b600482901c91505b6003821615611e965760011901611e9e565b600282901c91505b6001821615611dc25760001901919050565b6000806000611ec4858560ff1660016115ee565b915060ff16915080158015610bc257508360ff16821495945050505050565b600081611ef357617fff19610a79565b617fff92915050565b600081611f0a576000610a79565b60ff92915050565b600081611f2357627fffff19610a79565b627fffff92915050565b83516000906001600160801b039081169083161181611f4e87878787611868565b9050611f66611f5c88611ba0565b88518385896123c6565b979650505050505050565b6000600281611f81878786611bc5565b611f8b9083612d16565b9050806001600160801b0316856001600160801b03161115611faf57808503611f66565b5060009695505050505050565b600080611fca8686856124a0565b905061189981856124d9565b8251611fe3908383612591565b6001600160801b031683526060830151612006906001600160401b0316836125f5565b6001600160401b0390811660608501819052600091612028919085169061263a565b9050600061206861204f8387604001516001600160801b031661267e90919063ffffffff16565b71ffffffffffffffffffffffffffffffffffff166123b0565b9050612074828261269a565b856080018181516120859190612d39565b6001600160401b031690525060208501805182919061118a908390612c2d565b60006001607f1b826001600160801b0316106120c057600080fd5b5090565b6000806120d085611ba0565b9050836120eb576120e6818660000151856126f1565b610bc2565b610bc28186600001518561272a565b600080600061210886611ba0565b8651909150600090612125906001600160801b038416908861272a565b8751909150600090612142906001600160801b03851690896126f1565b90508515612156579093509150828261215d565b9350915081835b505050935093915050565b60008061217786868686612760565b9092509050612187600483612c79565b9150612194600482612c79565b905094509492505050565b6000806000806121b0868b8b6127df565b9050876001600160801b0316816001600160801b0316106121d457600091506121e1565b6121de8189612d59565b91505b896121ec57846121ee565b855b9350896121fb57856121fd565b845b6001600160801b03909716909a52919994985090965092945050505050565b600080600061222a87611ba0565b905061223d876000015182888888612815565b9150841561226157865161225c906001600160801b03831690846126f1565b612278565b8651612278906001600160801b038316908461272a565b92505094509492505050565b60008061229386868686612760565b9092509050612194600482612c79565b6000808260000b12156122bc578160000b608001610a79565b5060800190565b600060808260ff16106122d95760808203610a79565b5060ff16607f190190565b6000828260405160200161230592919091825260f81b602082015260210190565b60405160208183030381529060405280519060200120905092915050565b6000600160301b6001600160801b038085166001600160401b03851683010290603082901c90811115610bc2576001600160801b039350505050610a79565b8082016001600160801b038084169082161015610a7957600080fd5b60006001600160801b038216600160401b600160c01b03604085901b16816123a8576123a8612c17565b049392505050565b806001600160801b0381168114611dc257600080fd5b6000856001600160801b03166000036123e157506000610bc2565b60006123ef878785156124a0565b6001600160801b0316905060006124078888866124a0565b6001600160801b0316905060008415158615151461243057866001600160801b0316820361243d565b866001600160801b031682015b905080600003612459576001600160801b039350505050610bc2565b6000816001600160801b038b1680028161247557612475612c17565b04905061249284821161248a578185036123b0565b8482036123b0565b9a9950505050505050505050565b6000610ffc826124c2576124b4858561237e565b6001600160c01b03166123b0565b6001600160801b038086169085160260401c6124b4565b60006001600160801b03831615806125025750826001600160801b0316826001600160801b0316115b1561250f57506000610a79565b600061251b8385612c2d565b905060006125326001600160801b0383168661289f565b9050612546816001600160401b0316612925565b9250600160301b836001600160401b0316106125895760405162461bcd60e51b815260206004820152600260248201526124a360f11b6044820152606401611557565b505092915050565b6000600160301b6001600160401b038416810183156125c7576001600160801b0386168102603081901c611c1c600182016123b0565b6601000000000000600160b01b03603087901b168181816125ea576125ea612c17565b049350505050610637565b6000600160301b6001600160401b03848116820181851683010290603082901c9065ffffffffffff198201908110611899576001600160401b03945050505050610a79565b6000600160301b6001600160401b03831681016dffffffffffffffff000000000000603086901b168382828161267257612672612c17565b04979650505050505050565b6001600160401b03166001600160801b03919091160260301c90565b6000816001600160801b03166000036126b557506000610a79565b6126c0826001612c2d565b6001600160801b0316826001600160801b0316846001600160401b03166126e79190612d79565b6106379190612d90565b6000826001600160801b0316826001600160801b0316111561271f57612718848385612964565b9050610637565b612718848484612964565b600080826001600160801b0316846001600160801b03161161274e57838303612752565b8284035b9050610bc2858260016124a0565b600080821515841515036127a557612780866001600160801b03166120a5565b612792866001600160801b03166120a5565b61279b90612da4565b90925090506112ab565b6127b7866001600160801b03166120a5565b6127c090612da4565b6127d2866001600160801b03166120a5565b9097909650945050505050565b600080821515841515146127fb576127f685612da4565b6127fd565b845b9050600081600f0b1215610ffc576000915050610637565b6000808361282e57612829878787866129c0565b61283a565b61283a87878786612a1e565b90506f0ffff5433e2b3d8211706e6102aa94726001600160801b0382161061287f5761287760016f0ffff5433e2b3d8211706e6102aa9472612d59565b915050610bc2565b620100026001600160801b03821610156118995762010002915050610bc2565b60006001600160d01b036001600160801b0384161080156128d25750816001600160801b0316836001600160801b031610155b6128db57600080fd5b600160301b6601000000000000600160b01b03603085901b166000826001600160801b038616838161290f5761290f612c17565b04039050828110610bc257829350505050610a79565b6000600160301b826001600160401b03161061294057600080fd5b506001600160401b038116800260331c60019190911c677fffffffffffffff160390565b6000806129718385612d59565b9050600061297f868561237e565b6001600160c01b031690506000856001600160801b0316836001600160801b0316836129ab9190612d79565b6129b59190612d90565b9050611f66816123b0565b6000806129cc86612ac8565b905060006129dd8287878715612a1e565b9050806001600160801b0316600003612a0a576f0ffff5433e2b3d8211706e6102aa947292505050610ffc565b612a1381612ac8565b611f66906001612c2d565b6000836001600160801b0316600003612a3f57506001600160801b03610ffc565b6000612a4b848661237e565b90506001600160801b036001600160c01b0382161115612a75576001600160801b03915050610ffc565b808315612a8f57612a868188612c2d565b92505050610ffc565b866001600160801b0316816001600160801b031610612ab357600092505050610ffc565b612abe816001612c2d565b612a869088612d59565b600080826001600160801b0316600160801b81612ae757612ae7612c17565b0490506001600160801b03811115610a7957600080fd5b80356001600160a01b0381168114611dc257600080fd5b80358015158114611dc257600080fd5b80356001600160801b0381168114611dc257600080fd5b600080600080600080600080610100898b031215612b5957600080fd5b612b6289612afe565b9750612b7060208a01612afe565b965060408901359550612b8560608a01612b15565b9450612b9360808a01612b15565b9350612ba160a08a01612b25565b925060c089013561ffff81168114612bb857600080fd5b9150612bc660e08a01612b25565b90509295985092959890939650565b600060208284031215612be757600080fd5b5051919050565b634e487b7160e01b600052601160045260246000fd5b80820180821115610a7957610a79612bee565b634e487b7160e01b600052601260045260246000fd5b6001600160801b03818116838216019080821115612c4d57612c4d612bee565b5092915050565b600282810b9082900b03627fffff198112627fffff82131715610a7957610a79612bee565b600f81810b9083900b0160016001607f1b0381136f7fffffffffffffffffffffffffffffff1982121715610a7957610a79612bee565b60008260020b80612cc257612cc2612c17565b808360020b0791505092915050565b600181810b9083900b01617fff8113617fff1982121715610a7957610a79612bee565b60008260010b80612d0757612d07612c17565b808360010b0791505092915050565b6001600160801b0381811683821602808216919082811461258957612589612bee565b6001600160401b03818116838216019080821115612c4d57612c4d612bee565b6001600160801b03828116828216039080821115612c4d57612c4d612bee565b8082028115828204841417610a7957610a79612bee565b600082612d9f57612d9f612c17565b500490565b600081600f0b60016001607f1b03198103612dc157612dc1612bee565b6000039291505056fea2646970667358221220a3903db72c036ae19085e44fde9ed2a7db2cfb059bbec36432a91d3df2de89dd64736f6c63430008130033",
			"opcodes": "PUSH1 0xA0 PUSH1 0x40 MSTORE CALLVALUE DUP1 ISZERO PUSH3 0x11 JUMPI PUSH1 0x0 DUP1 REVERT JUMPDEST POP PUSH1 0x40 MLOAD PUSH3 0x2FA4 CODESIZE SUB DUP1 PUSH3 0x2FA4 DUP4 CODECOPY DUP2 ADD PUSH1 0x40 DUP2 SWAP1 MSTORE PUSH3 0x34 SWAP2 PUSH3 0x110 JUMP JUMPDEST PUSH1 0x1 PUSH1 0x1 PUSH1 0xA0 SHL SUB DUP2 AND ISZERO DUP1 ISZERO SWAP1 PUSH3 0xAD JUMPI POP DUP1 PUSH1 0x1 PUSH1 0x1 PUSH1 0xA0 SHL SUB AND PUSH4 0x7A5783E7 PUSH1 0x40 MLOAD DUP2 PUSH4 0xFFFFFFFF AND PUSH1 0xE0 SHL DUP2 MSTORE PUSH1 0x4 ADD PUSH1 0x20 PUSH1 0x40 MLOAD DUP1 DUP4 SUB DUP2 DUP7 GAS STATICCALL ISZERO DUP1 ISZERO PUSH3 0x87 JUMPI RETURNDATASIZE PUSH1 0x0 DUP1 RETURNDATACOPY RETURNDATASIZE PUSH1 0x0 REVERT JUMPDEST POP POP POP POP PUSH1 0x40 MLOAD RETURNDATASIZE PUSH1 0x1F NOT PUSH1 0x1F DUP3 ADD AND DUP3 ADD DUP1 PUSH1 0x40 MSTORE POP DUP2 ADD SWAP1 PUSH3 0xAD SWAP2 SWAP1 PUSH3 0x142 JUMP JUMPDEST PUSH3 0xFE JUMPI PUSH1 0x40 MLOAD PUSH3 0x461BCD PUSH1 0xE5 SHL DUP2 MSTORE PUSH1 0x20 PUSH1 0x4 DUP3 ADD MSTORE PUSH1 0x13 PUSH1 0x24 DUP3 ADD MSTORE PUSH32 0x496E76616C696420486171715377617044657800000000000000000000000000 PUSH1 0x44 DUP3 ADD MSTORE PUSH1 0x64 ADD PUSH1 0x40 MLOAD DUP1 SWAP2 SUB SWAP1 REVERT JUMPDEST PUSH1 0x1 PUSH1 0x1 PUSH1 0xA0 SHL SUB AND PUSH1 0x80 MSTORE PUSH3 0x166 JUMP JUMPDEST PUSH1 0x0 PUSH1 0x20 DUP3 DUP5 SUB SLT ISZERO PUSH3 0x123 JUMPI PUSH1 0x0 DUP1 REVERT JUMPDEST DUP2 MLOAD PUSH1 0x1 PUSH1 0x1 PUSH1 0xA0 SHL SUB DUP2 AND DUP2 EQ PUSH3 0x13B JUMPI PUSH1 0x0 DUP1 REVERT JUMPDEST SWAP4 SWAP3 POP POP POP JUMP JUMPDEST PUSH1 0x0 PUSH1 0x20 DUP3 DUP5 SUB SLT ISZERO PUSH3 0x155 JUMPI PUSH1 0x0 DUP1 REVERT JUMPDEST DUP2 MLOAD DUP1 ISZERO ISZERO DUP2 EQ PUSH3 0x13B JUMPI PUSH1 0x0 DUP1 REVERT JUMPDEST PUSH1 0x80 MLOAD PUSH2 0x2E00 PUSH3 0x1A4 PUSH1 0x0 CODECOPY PUSH1 0x0 DUP2 DUP2 PUSH1 0x84 ADD MSTORE DUP2 DUP2 PUSH2 0x1EE ADD MSTORE DUP2 DUP2 PUSH2 0x345 ADD MSTORE DUP2 DUP2 PUSH2 0x3C6 ADD MSTORE DUP2 DUP2 PUSH2 0xF89 ADD MSTORE PUSH2 0x13F5 ADD MSTORE PUSH2 0x2E00 PUSH1 0x0 RETURN INVALID PUSH1 0x80 PUSH1 0x40 MSTORE CALLVALUE DUP1 ISZERO PUSH2 0x10 JUMPI PUSH1 0x0 DUP1 REVERT JUMPDEST POP PUSH1 0x4 CALLDATASIZE LT PUSH2 0x36 JUMPI PUSH1 0x0 CALLDATALOAD PUSH1 0xE0 SHR DUP1 PUSH4 0x4A6C44BF EQ PUSH2 0x3B JUMPI DUP1 PUSH4 0x87834A0E EQ PUSH2 0x7F JUMPI JUMPDEST PUSH1 0x0 DUP1 REVERT JUMPDEST PUSH2 0x4E PUSH2 0x49 CALLDATASIZE PUSH1 0x4 PUSH2 0x2B3C JUMP JUMPDEST PUSH2 0xBE JUMP JUMPDEST PUSH1 0x40 DUP1 MLOAD PUSH1 0xF SWAP5 DUP6 SIGNEXTEND DUP2 MSTORE SWAP3 SWAP1 SWAP4 SIGNEXTEND PUSH1 0x20 DUP4 ADD MSTORE PUSH1 0x1 PUSH1 0x1 PUSH1 0x80 SHL SUB AND SWAP2 DUP2 ADD SWAP2 SWAP1 SWAP2 MSTORE PUSH1 0x60 ADD JUMPDEST PUSH1 0x40 MLOAD DUP1 SWAP2 SUB SWAP1 RETURN JUMPDEST PUSH2 0xA6 PUSH32 0x0 DUP2 JUMP JUMPDEST PUSH1 0x40 MLOAD PUSH1 0x1 PUSH1 0x1 PUSH1 0xA0 SHL SUB SWAP1 SWAP2 AND DUP2 MSTORE PUSH1 0x20 ADD PUSH2 0x76 JUMP JUMPDEST PUSH1 0x0 DUP1 PUSH1 0x0 DUP1 PUSH2 0xD0 DUP13 DUP13 DUP13 DUP10 PUSH2 0x13C JUMP JUMPDEST SWAP1 POP PUSH1 0x0 PUSH2 0xDF DUP14 DUP14 DUP14 PUSH2 0x2BB JUMP JUMPDEST PUSH1 0x40 DUP1 MLOAD PUSH1 0xA0 DUP2 ADD DUP3 MSTORE PUSH1 0x0 SWAP2 DUP2 ADD SWAP2 SWAP1 SWAP2 MSTORE DUP12 ISZERO ISZERO DUP2 MSTORE DUP11 ISZERO ISZERO PUSH1 0x20 DUP3 ADD MSTORE PUSH1 0x1 PUSH1 0x1 PUSH1 0x80 SHL SUB DUP11 DUP2 AND PUSH1 0x60 DUP4 ADD MSTORE DUP9 AND PUSH1 0x80 DUP3 ADD MSTORE SWAP1 SWAP2 POP PUSH2 0x124 DUP4 DUP4 DUP4 PUSH2 0x499 JUMP JUMPDEST SWAP3 MLOAD SWAP1 SWAP16 SWAP3 SWAP15 POP SWAP13 POP SWAP1 SWAP11 POP POP POP POP POP POP POP POP POP POP POP JUMP JUMPDEST PUSH1 0x40 DUP1 MLOAD PUSH2 0x140 DUP2 ADD DUP3 MSTORE PUSH1 0x0 PUSH1 0x60 DUP3 ADD DUP2 DUP2 MSTORE PUSH1 0x80 DUP4 ADD DUP3 SWAP1 MSTORE PUSH1 0xA0 DUP4 ADD DUP3 SWAP1 MSTORE PUSH1 0xC0 DUP4 ADD DUP3 SWAP1 MSTORE PUSH1 0xE0 DUP4 ADD DUP3 SWAP1 MSTORE PUSH2 0x100 DUP4 ADD DUP3 SWAP1 MSTORE PUSH2 0x120 DUP4 ADD DUP3 SWAP1 MSTORE DUP3 MSTORE PUSH1 0x20 DUP3 ADD DUP2 SWAP1 MSTORE SWAP2 DUP2 ADD SWAP2 SWAP1 SWAP2 MSTORE PUSH3 0x10009 PUSH1 0x0 PUSH2 0x19D DUP8 DUP8 DUP8 PUSH2 0x5D7 JUMP JUMPDEST SWAP1 POP PUSH1 0x0 DUP2 DUP4 PUSH1 0x40 MLOAD PUSH1 0x20 ADD PUSH2 0x1BD SWAP3 SWAP2 SWAP1 SWAP2 DUP3 MSTORE PUSH1 0x20 DUP3 ADD MSTORE PUSH1 0x40 ADD SWAP1 JUMP JUMPDEST PUSH1 0x40 DUP1 MLOAD DUP1 DUP4 SUB PUSH1 0x1F NOT ADD DUP2 MSTORE SWAP1 DUP3 SWAP1 MSTORE DUP1 MLOAD PUSH1 0x20 SWAP1 SWAP2 ADD KECCAK256 PUSH4 0x2CE8AF3 PUSH1 0xE0 SHL DUP3 MSTORE PUSH1 0x4 DUP3 ADD DUP2 SWAP1 MSTORE SWAP2 POP PUSH1 0x0 SWAP1 PUSH32 0x0 PUSH1 0x1 PUSH1 0x1 PUSH1 0xA0 SHL SUB AND SWAP1 PUSH4 0x2CE8AF3 SWAP1 PUSH1 0x24 ADD PUSH1 0x20 PUSH1 0x40 MLOAD DUP1 DUP4 SUB DUP2 DUP7 GAS STATICCALL ISZERO DUP1 ISZERO PUSH2 0x23D JUMPI RETURNDATASIZE PUSH1 0x0 DUP1 RETURNDATACOPY RETURNDATASIZE PUSH1 0x0 REVERT JUMPDEST POP POP POP POP PUSH1 0x40 MLOAD RETURNDATASIZE PUSH1 0x1F NOT PUSH1 0x1F DUP3 ADD AND DUP3 ADD DUP1 PUSH1 0x40 MSTORE POP DUP2 ADD SWAP1 PUSH2 0x261 SWAP2 SWAP1 PUSH2 0x2BD5 JUMP JUMPDEST PUSH1 0x20 DUP1 DUP8 ADD DUP6 SWAP1 MSTORE DUP7 MLOAD PUSH2 0xFFFF PUSH1 0x8 DUP5 SWAP1 SHR DUP2 AND SWAP2 DUP4 ADD SWAP2 SWAP1 SWAP2 MSTORE DUP8 MLOAD PUSH1 0xFF PUSH1 0x18 DUP6 SWAP1 SHR AND PUSH1 0x40 SWAP1 SWAP2 ADD MSTORE DUP8 MLOAD SWAP1 SWAP2 ADD MLOAD SWAP2 SWAP3 POP SWAP1 DUP2 AND SWAP1 DUP8 AND GT ISZERO PUSH2 0x2AF JUMPI DUP5 MLOAD PUSH2 0xFFFF DUP8 AND PUSH1 0x20 SWAP1 SWAP2 ADD MSTORE JUMPDEST POP POP POP POP SWAP5 SWAP4 POP POP POP POP JUMP JUMPDEST PUSH1 0x40 DUP1 MLOAD PUSH1 0xA0 DUP2 ADD DUP3 MSTORE PUSH1 0x0 DUP1 DUP3 MSTORE PUSH1 0x20 DUP3 ADD DUP2 SWAP1 MSTORE SWAP2 DUP2 ADD DUP3 SWAP1 MSTORE PUSH1 0x60 DUP2 ADD DUP3 SWAP1 MSTORE PUSH1 0x80 DUP2 ADD DUP3 SWAP1 MSTORE SWAP1 PUSH2 0x2F1 DUP6 DUP6 DUP6 PUSH2 0x5D7 JUMP JUMPDEST SWAP1 POP PUSH1 0x0 DUP2 PUSH3 0x1000F PUSH1 0x40 MLOAD PUSH1 0x20 ADD PUSH2 0x314 SWAP3 SWAP2 SWAP1 SWAP2 DUP3 MSTORE PUSH1 0x20 DUP3 ADD MSTORE PUSH1 0x40 ADD SWAP1 JUMP JUMPDEST PUSH1 0x40 DUP1 MLOAD DUP1 DUP4 SUB PUSH1 0x1F NOT ADD DUP2 MSTORE SWAP1 DUP3 SWAP1 MSTORE DUP1 MLOAD PUSH1 0x20 SWAP1 SWAP2 ADD KECCAK256 PUSH4 0x2CE8AF3 PUSH1 0xE0 SHL DUP3 MSTORE PUSH1 0x4 DUP3 ADD DUP2 SWAP1 MSTORE SWAP2 POP PUSH1 0x0 SWAP1 PUSH32 0x0 PUSH1 0x1 PUSH1 0x1 PUSH1 0xA0 SHL SUB AND SWAP1 PUSH4 0x2CE8AF3 SWAP1 PUSH1 0x24 ADD PUSH1 0x20 PUSH1 0x40 MLOAD DUP1 DUP4 SUB DUP2 DUP7 GAS STATICCALL ISZERO DUP1 ISZERO PUSH2 0x394 JUMPI RETURNDATASIZE PUSH1 0x0 DUP1 RETURNDATACOPY RETURNDATASIZE PUSH1 0x0 REVERT JUMPDEST POP POP POP POP PUSH1 0x40 MLOAD RETURNDATASIZE PUSH1 0x1F NOT PUSH1 0x1F DUP3 ADD AND DUP3 ADD DUP1 PUSH1 0x40 MSTORE POP DUP2 ADD SWAP1 PUSH2 0x3B8 SWAP2 SWAP1 PUSH2 0x2BD5 JUMP JUMPDEST SWAP1 POP PUSH1 0x0 PUSH1 0x1 PUSH1 0x1 PUSH1 0xA0 SHL SUB PUSH32 0x0 AND PUSH4 0x2CE8AF3 PUSH2 0x3F6 DUP6 PUSH1 0x1 PUSH2 0x2C04 JUMP JUMPDEST PUSH1 0x40 MLOAD DUP3 PUSH4 0xFFFFFFFF AND PUSH1 0xE0 SHL DUP2 MSTORE PUSH1 0x4 ADD PUSH2 0x414 SWAP2 DUP2 MSTORE PUSH1 0x20 ADD SWAP1 JUMP JUMPDEST PUSH1 0x20 PUSH1 0x40 MLOAD DUP1 DUP4 SUB DUP2 DUP7 GAS STATICCALL ISZERO DUP1 ISZERO PUSH2 0x431 JUMPI RETURNDATASIZE PUSH1 0x0 DUP1 RETURNDATACOPY RETURNDATASIZE PUSH1 0x0 REVERT JUMPDEST POP POP POP POP PUSH1 0x40 MLOAD RETURNDATASIZE PUSH1 0x1F NOT PUSH1 0x1F DUP3 ADD AND DUP3 ADD DUP1 PUSH1 0x40 MSTORE POP DUP2 ADD SWAP1 PUSH2 0x455 SWAP2 SWAP1 PUSH2 0x2BD5 JUMP JUMPDEST PUSH1 0x1 PUSH1 0x1 PUSH1 0x80 SHL SUB DUP1 DUP5 AND DUP8 MSTORE PUSH1 0x80 SWAP4 DUP5 SHR PUSH1 0x20 DUP9 ADD MSTORE DUP2 AND PUSH1 0x40 DUP8 ADD MSTORE PUSH1 0x1 PUSH1 0x1 PUSH1 0x40 SHL SUB DUP2 DUP5 SHR AND PUSH1 0x60 DUP8 ADD MSTORE PUSH1 0xC0 SHR SWAP2 DUP6 ADD SWAP2 SWAP1 SWAP2 MSTORE POP SWAP2 SWAP6 SWAP5 POP POP POP POP POP JUMP JUMPDEST PUSH1 0x80 DUP2 ADD MLOAD DUP3 MLOAD DUP3 MLOAD PUSH1 0x0 SWAP3 DUP4 SWAP3 PUSH1 0x1 PUSH1 0x1 PUSH1 0x80 SHL SUB SWAP2 DUP3 AND SWAP2 AND LT ISZERO SWAP1 ISZERO ISZERO SUB PUSH2 0x4C9 JUMPI POP PUSH1 0x0 SWAP1 POP DUP1 PUSH2 0x5CF JUMP JUMPDEST PUSH1 0x40 DUP1 MLOAD PUSH1 0x80 DUP2 ADD DUP3 MSTORE PUSH1 0x0 DUP1 DUP3 MSTORE PUSH1 0x20 DUP3 ADD DUP2 SWAP1 MSTORE SWAP2 DUP2 ADD DUP3 SWAP1 MSTORE PUSH1 0x60 DUP2 ADD SWAP2 SWAP1 SWAP2 MSTORE PUSH1 0x0 PUSH2 0x505 DUP7 PUSH1 0x0 ADD MLOAD PUSH1 0x1 PUSH1 0x1 PUSH1 0x80 SHL SUB AND PUSH2 0x63E JUMP JUMPDEST SWAP1 POP PUSH1 0x1 JUMPDEST DUP1 ISZERO PUSH2 0x5BF JUMPI PUSH1 0x0 DUP1 PUSH2 0x526 DUP11 PUSH1 0x20 ADD MLOAD DUP10 PUSH1 0x0 ADD MLOAD DUP7 PUSH2 0x928 JUMP JUMPDEST DUP12 MLOAD SWAP2 SWAP4 POP SWAP2 POP PUSH2 0x53D SWAP1 DUP11 SWAP1 DUP8 SWAP1 DUP12 SWAP1 DUP7 PUSH2 0x976 JUMP JUMPDEST PUSH2 0x547 DUP10 DUP10 PUSH2 0xA0D JUMP JUMPDEST SWAP3 POP DUP3 ISZERO PUSH2 0x5B8 JUMPI DUP1 ISZERO PUSH2 0x59E JUMPI PUSH1 0x0 PUSH2 0x56A DUP12 PUSH1 0x20 ADD MLOAD DUP5 DUP12 PUSH1 0x0 ADD MLOAD PUSH2 0xA7F JUMP JUMPDEST SWAP3 DUP4 SWAP2 POP PUSH1 0x2 DUP3 DUP2 SIGNEXTEND SWAP2 SWAP1 SIGNEXTEND EQ DUP1 PUSH2 0x59B JUMPI DUP12 MLOAD PUSH2 0x58E SWAP1 DUP13 SWAP1 DUP10 SWAP1 DUP14 SWAP1 DUP9 PUSH2 0x976 JUMP JUMPDEST PUSH2 0x598 DUP12 DUP12 PUSH2 0xA0D JUMP JUMPDEST SWAP5 POP JUMPDEST POP POP JUMPDEST DUP3 ISZERO PUSH2 0x5B8 JUMPI PUSH2 0x5B5 DUP6 DUP4 DUP12 DUP12 DUP15 PUSH1 0x20 ADD MLOAD PUSH2 0xAED JUMP JUMPDEST SWAP4 POP JUMPDEST POP POP PUSH2 0x50A JUMP JUMPDEST POP POP DUP1 MLOAD PUSH1 0x20 SWAP1 SWAP2 ADD MLOAD SWAP1 SWAP3 POP SWAP1 POP JUMPDEST SWAP4 POP SWAP4 SWAP2 POP POP JUMP JUMPDEST PUSH1 0x0 DUP3 PUSH1 0x1 PUSH1 0x1 PUSH1 0xA0 SHL SUB AND DUP5 PUSH1 0x1 PUSH1 0x1 PUSH1 0xA0 SHL SUB AND LT PUSH2 0x5F7 JUMPI PUSH1 0x0 DUP1 REVERT JUMPDEST PUSH1 0x40 DUP1 MLOAD PUSH1 0x1 PUSH1 0x1 PUSH1 0xA0 SHL SUB DUP1 DUP8 AND PUSH1 0x20 DUP4 ADD MSTORE DUP6 AND SWAP2 DUP2 ADD SWAP2 SWAP1 SWAP2 MSTORE PUSH1 0x60 DUP2 ADD DUP4 SWAP1 MSTORE PUSH1 0x80 ADD PUSH1 0x40 MLOAD PUSH1 0x20 DUP2 DUP4 SUB SUB DUP2 MSTORE SWAP1 PUSH1 0x40 MSTORE DUP1 MLOAD SWAP1 PUSH1 0x20 ADD KECCAK256 SWAP1 POP JUMPDEST SWAP4 SWAP3 POP POP POP JUMP JUMPDEST PUSH1 0x0 PUSH3 0x10002 PUSH1 0x1 PUSH1 0x1 PUSH1 0x80 SHL SUB DUP4 AND LT DUP1 ISZERO SWAP1 PUSH2 0x674 JUMPI POP PUSH16 0xFFFF5433E2B3D8211706E6102AA9472 PUSH1 0x1 PUSH1 0x1 PUSH1 0x80 SHL SUB DUP4 AND LT JUMPDEST PUSH2 0x67D JUMPI PUSH1 0x0 DUP1 REVERT JUMPDEST PUSH1 0x1 PUSH1 0x40 SHL PUSH1 0x1 PUSH1 0xC0 SHL SUB PUSH1 0x40 DUP4 SWAP1 SHL AND PUSH1 0x1 PUSH1 0x1 PUSH1 0x80 SHL SUB DUP2 GT PUSH1 0x7 SHL DUP2 DUP2 SHR PUSH1 0x1 PUSH1 0x1 PUSH1 0x40 SHL SUB DUP2 GT PUSH1 0x6 SHL SWAP1 DUP2 SHR PUSH4 0xFFFFFFFF DUP2 GT PUSH1 0x5 SHL SWAP1 DUP2 SHR PUSH2 0xFFFF DUP2 GT PUSH1 0x4 SHL SWAP1 DUP2 SHR PUSH1 0xFF DUP2 GT PUSH1 0x3 SWAP1 DUP2 SHL SWAP2 DUP3 SHR PUSH1 0xF DUP2 GT PUSH1 0x2 SHL SWAP1 DUP2 SHR SWAP2 DUP3 GT PUSH1 0x1 SWAP1 DUP2 SHL SWAP3 DUP4 SHR SWAP8 SWAP1 DUP9 GT SWAP7 OR SWAP1 SWAP5 OR SWAP1 SWAP3 OR OR SWAP1 SWAP2 OR OR OR PUSH1 0x80 DUP2 LT PUSH2 0x70F JUMPI PUSH1 0x7F DUP2 SUB DUP4 SWAP1 SHR SWAP2 POP PUSH2 0x719 JUMP JUMPDEST DUP1 PUSH1 0x7F SUB DUP4 SWAP1 SHL SWAP2 POP JUMPDEST SWAP1 DUP1 MUL PUSH1 0x7F DUP2 DUP2 SHR PUSH1 0xFF DUP4 DUP2 SHR SWAP2 SWAP1 SWAP2 SHR DUP1 MUL DUP1 DUP4 SHR DUP2 DUP4 SHR SHR DUP1 MUL DUP1 DUP5 SHR DUP2 DUP5 SHR SHR DUP1 MUL DUP1 DUP6 SHR DUP2 DUP6 SHR SHR DUP1 MUL DUP1 DUP7 SHR DUP2 DUP7 SHR SHR DUP1 MUL DUP1 DUP8 SHR DUP2 DUP8 SHR SHR DUP1 MUL DUP1 DUP9 SHR DUP2 DUP9 SHR SHR DUP1 MUL DUP1 DUP10 SHR DUP2 DUP10 SHR SHR DUP1 MUL DUP1 DUP11 SHR DUP2 DUP11 SHR SHR DUP1 MUL DUP1 DUP12 SHR DUP2 DUP12 SHR SHR DUP1 MUL DUP1 DUP13 SHR DUP2 DUP13 SHR SHR DUP1 MUL DUP1 DUP14 SHR DUP2 DUP14 SHR SHR DUP1 MUL DUP1 DUP15 SHR SWAP13 DUP2 SWAP1 SHR SWAP13 SWAP1 SWAP13 SHR DUP1 MUL SWAP13 DUP14 SWAP1 SHR SWAP15 SWAP14 PUSH1 0x7F NOT DUP16 ADD PUSH1 0x40 SHL PUSH1 0xC0 SWAP2 SWAP1 SWAP2 SHR PUSH8 0x8000000000000000 AND OR PUSH1 0xC1 SWAP12 SWAP1 SWAP12 SHR PUSH8 0x4000000000000000 AND SWAP11 SWAP1 SWAP11 OR PUSH1 0xC2 SWAP10 SWAP1 SWAP10 SHR PUSH8 0x2000000000000000 AND SWAP9 SWAP1 SWAP9 OR PUSH1 0xC3 SWAP8 SWAP1 SWAP8 SHR PUSH8 0x1000000000000000 AND SWAP7 SWAP1 SWAP7 OR PUSH1 0xC4 SWAP6 SWAP1 SWAP6 SHR PUSH8 0x800000000000000 AND SWAP5 SWAP1 SWAP5 OR PUSH1 0xC5 SWAP4 SWAP1 SWAP4 SHR PUSH8 0x400000000000000 AND SWAP3 SWAP1 SWAP3 OR PUSH1 0xC6 SWAP2 SWAP1 SWAP2 SHR PUSH8 0x200000000000000 AND OR PUSH1 0xC7 SWAP2 SWAP1 SWAP2 SHR PUSH8 0x100000000000000 AND OR PUSH1 0xC8 SWAP2 SWAP1 SWAP2 SHR PUSH7 0x80000000000000 AND OR PUSH1 0xC9 SWAP2 SWAP1 SWAP2 SHR PUSH7 0x40000000000000 AND OR PUSH1 0xCA SWAP2 SWAP1 SWAP2 SHR PUSH7 0x20000000000000 AND OR PUSH1 0xCB SWAP2 SWAP1 SWAP2 SHR PUSH7 0x10000000000000 AND OR PUSH1 0xCC SWAP2 SWAP1 SWAP2 SHR PUSH7 0x8000000000000 AND OR PUSH1 0xCD SWAP2 SWAP1 SWAP2 SHR PUSH7 0x4000000000000 AND OR PUSH10 0x3627A301D71055774C85 DUP2 MUL PUSH16 0x28F6481AB7F045A5AF012A19D003AA9 NOT DUP2 ADD PUSH1 0x80 SWAP1 DUP2 SAR SWAP1 PUSH16 0xDB2DF09E81959A81455E260799A0632F DUP4 ADD SWAP1 SAR PUSH1 0x2 DUP2 DUP2 SIGNEXTEND SWAP1 DUP4 SWAP1 SIGNEXTEND EQ PUSH2 0x919 JUMPI DUP9 PUSH1 0x1 PUSH1 0x1 PUSH1 0x80 SHL SUB AND PUSH2 0x8FE DUP3 PUSH2 0xBCB JUMP JUMPDEST PUSH1 0x1 PUSH1 0x1 PUSH1 0x80 SHL SUB AND GT ISZERO PUSH2 0x913 JUMPI DUP2 PUSH2 0x91B JUMP JUMPDEST DUP1 PUSH2 0x91B JUMP JUMPDEST DUP2 JUMPDEST SWAP10 SWAP9 POP POP POP POP POP POP POP POP POP JUMP JUMPDEST PUSH1 0x0 DUP1 PUSH1 0x0 PUSH2 0x93F PUSH2 0x93A DUP8 DUP7 PUSH2 0xEF1 JUMP JUMPDEST PUSH2 0xF3C JUMP JUMPDEST SWAP1 POP PUSH1 0x0 PUSH2 0x951 PUSH1 0x2 DUP7 SWAP1 SIGNEXTEND DUP8 PUSH2 0x1004 JUMP JUMPDEST SWAP1 POP PUSH1 0x2 DUP6 SWAP1 SIGNEXTEND PUSH1 0x8 SAR PUSH2 0x967 DUP8 DUP4 DUP4 DUP7 PUSH2 0x1040 JUMP JUMPDEST SWAP1 SWAP10 SWAP1 SWAP9 POP SWAP7 POP POP POP POP POP POP POP JUMP JUMPDEST PUSH1 0x0 PUSH2 0x98B DUP3 DUP6 PUSH1 0x80 ADD MLOAD DUP7 PUSH1 0x0 ADD MLOAD PUSH2 0x108F JUMP JUMPDEST SWAP1 POP PUSH1 0x0 DUP1 PUSH1 0x0 PUSH2 0x9A7 DUP10 DUP9 PUSH1 0x60 ADD MLOAD DUP9 DUP11 PUSH1 0x20 ADD MLOAD DUP9 PUSH2 0x10F8 JUMP JUMPDEST PUSH1 0x20 DUP11 ADD MLOAD SWAP3 SWAP6 POP SWAP1 SWAP4 POP SWAP2 POP PUSH2 0x9C2 SWAP1 DUP10 SWAP1 DUP6 DUP6 DUP6 PUSH2 0x1144 JUMP JUMPDEST PUSH2 0x9DB DUP10 DUP9 PUSH1 0x20 ADD MLOAD DUP10 PUSH1 0x0 ADD MLOAD DUP11 PUSH1 0x60 ADD MLOAD DUP9 PUSH2 0x119E JUMP JUMPDEST PUSH1 0x1 PUSH1 0x1 PUSH1 0x80 SHL SUB AND PUSH1 0x60 DUP11 ADD MSTORE PUSH1 0x20 DUP10 ADD MLOAD SWAP2 SWAP5 POP SWAP3 POP PUSH2 0xA02 SWAP1 DUP10 SWAP1 DUP6 DUP6 PUSH1 0x0 PUSH2 0x1144 JUMP JUMPDEST POP POP POP POP POP POP POP POP POP JUMP JUMPDEST PUSH1 0x0 DUP1 DUP3 PUSH1 0x0 ADD MLOAD PUSH2 0xA3B JUMPI DUP3 PUSH1 0x80 ADD MLOAD PUSH1 0x1 PUSH1 0x1 PUSH1 0x80 SHL SUB AND DUP5 PUSH1 0x0 ADD MLOAD PUSH1 0x1 PUSH1 0x1 PUSH1 0x80 SHL SUB AND GT PUSH2 0xA59 JUMP JUMPDEST DUP3 PUSH1 0x80 ADD MLOAD PUSH1 0x1 PUSH1 0x1 PUSH1 0x80 SHL SUB AND DUP5 PUSH1 0x0 ADD MLOAD PUSH1 0x1 PUSH1 0x1 PUSH1 0x80 SHL SUB AND LT JUMPDEST SWAP1 POP DUP1 DUP1 ISZERO PUSH2 0xA75 JUMPI POP PUSH1 0x0 DUP4 PUSH1 0x60 ADD MLOAD PUSH1 0x1 PUSH1 0x1 PUSH1 0x80 SHL SUB AND GT JUMPDEST SWAP2 POP POP JUMPDEST SWAP3 SWAP2 POP POP JUMP JUMPDEST PUSH1 0x0 DUP1 PUSH1 0x0 PUSH2 0xA8E DUP6 DUP6 PUSH2 0x1217 JUMP JUMPDEST SWAP2 POP SWAP2 POP PUSH1 0x0 DUP1 PUSH2 0xAA1 DUP9 DUP6 DUP6 DUP10 PUSH2 0x1259 JUMP JUMPDEST SWAP2 POP SWAP2 POP DUP1 PUSH2 0xAB5 JUMPI POP SWAP3 POP PUSH2 0x637 SWAP2 POP POP JUMP JUMPDEST PUSH2 0xAC1 DUP9 DUP6 DUP6 DUP10 PUSH2 0x12B4 JUMP JUMPDEST SWAP1 SWAP3 POP SWAP1 POP DUP1 PUSH2 0xAD6 JUMPI POP SWAP3 POP PUSH2 0x637 SWAP2 POP POP JUMP JUMPDEST PUSH2 0xAE1 DUP9 DUP6 DUP9 PUSH2 0x1324 JUMP JUMPDEST SWAP9 SWAP8 POP POP POP POP POP POP POP POP JUMP JUMPDEST PUSH1 0x0 PUSH2 0xAF8 DUP6 PUSH2 0x1344 JUMP JUMPDEST PUSH2 0xB03 JUMPI POP DUP4 PUSH2 0xBC2 JUMP JUMPDEST PUSH1 0x0 DUP1 PUSH2 0xB10 DUP5 DUP9 PUSH2 0x1367 JUMP JUMPDEST SWAP2 POP SWAP2 POP PUSH1 0x0 PUSH2 0xB20 DUP4 DUP4 PUSH2 0x148B JUMP JUMPDEST SWAP1 POP PUSH1 0x0 DUP7 PUSH1 0x0 ADD MLOAD PUSH2 0xB36 JUMPI DUP2 PUSH1 0x0 SUB PUSH2 0xB38 JUMP JUMPDEST DUP2 JUMPDEST PUSH1 0x40 DUP10 ADD MLOAD SWAP1 SWAP2 POP PUSH2 0xB53 SWAP1 PUSH1 0x1 PUSH1 0x1 PUSH1 0x80 SHL SUB AND DUP3 PUSH2 0x14A7 JUMP JUMPDEST PUSH1 0x1 PUSH1 0x1 PUSH1 0x80 SHL SUB AND PUSH1 0x40 DUP10 ADD MSTORE PUSH1 0x20 DUP8 ADD MLOAD DUP8 MLOAD PUSH1 0x60 DUP10 ADD MLOAD PUSH1 0x0 SWAP3 DUP4 SWAP3 DUP4 SWAP3 PUSH2 0xB81 SWAP3 DUP15 SWAP3 SWAP1 SWAP2 PUSH2 0x14F9 JUMP JUMPDEST SWAP2 SWAP5 POP SWAP3 POP SWAP1 POP PUSH2 0xB93 DUP14 DUP5 DUP5 PUSH2 0x1592 JUMP JUMPDEST PUSH1 0x60 DUP11 ADD DUP1 MLOAD DUP3 SWAP1 SUB PUSH1 0x1 PUSH1 0x1 PUSH1 0x80 SHL SUB AND SWAP1 MSTORE DUP10 MLOAD PUSH2 0xBB6 JUMPI PUSH1 0x1 DUP13 SUB PUSH2 0xBB8 JUMP JUMPDEST DUP12 JUMPDEST SWAP8 POP POP POP POP POP POP POP POP JUMPDEST SWAP6 SWAP5 POP POP POP POP POP JUMP JUMPDEST PUSH1 0x0 PUSH3 0xA276D NOT PUSH1 0x2 DUP4 SWAP1 SIGNEXTEND SLT DUP1 ISZERO SWAP1 PUSH2 0xBEC JUMPI POP PUSH3 0xCB14A PUSH1 0x2 DUP4 SWAP1 SIGNEXTEND SGT ISZERO JUMPDEST PUSH2 0xBF5 JUMPI PUSH1 0x0 DUP1 REVERT JUMPDEST PUSH1 0x0 DUP1 DUP4 PUSH1 0x2 SIGNEXTEND SLT PUSH2 0xC0A JUMPI DUP3 PUSH1 0x2 SIGNEXTEND PUSH2 0xC12 JUMP JUMPDEST DUP3 PUSH1 0x2 SIGNEXTEND PUSH1 0x0 SUB JUMPDEST SWAP1 POP PUSH1 0x0 DUP2 PUSH1 0x1 AND PUSH1 0x0 SUB PUSH2 0xC2B JUMPI PUSH1 0x1 PUSH1 0x80 SHL PUSH2 0xC3D JUMP JUMPDEST PUSH16 0xFFFCB933BD6FAD37AA2D162D1A594001 JUMPDEST PUSH17 0xFFFFFFFFFFFFFFFFFFFFFFFFFFFFFFFFFF AND SWAP1 POP PUSH1 0x2 DUP3 AND ISZERO PUSH2 0xC71 JUMPI PUSH16 0xFFF97272373D413259A46990580E213A MUL PUSH1 0x80 SHR JUMPDEST PUSH1 0x4 DUP3 AND ISZERO PUSH2 0xC90 JUMPI PUSH16 0xFFF2E50F5F656932EF12357CF3C7FDCC MUL PUSH1 0x80 SHR JUMPDEST PUSH1 0x8 DUP3 AND ISZERO PUSH2 0xCAF JUMPI PUSH16 0xFFE5CACA7E10E4E61C3624EAA0941CD0 MUL PUSH1 0x80 SHR JUMPDEST PUSH1 0x10 DUP3 AND ISZERO PUSH2 0xCCE JUMPI PUSH16 0xFFCB9843D60F6159C9DB58835C926644 MUL PUSH1 0x80 SHR JUMPDEST PUSH1 0x20 DUP3 AND ISZERO PUSH2 0xCED JUMPI PUSH16 0xFF973B41FA98C081472E6896DFB254C0 MUL PUSH1 0x80 SHR JUMPDEST PUSH1 0x40 DUP3 AND ISZERO PUSH2 0xD0C JUMPI PUSH16 0xFF2EA16466C96A3843EC78B326B52861 MUL PUSH1 0x80 SHR JUMPDEST PUSH1 0x80 DUP3 AND ISZERO PUSH2 0xD2B JUMPI PUSH16 0xFE5DEE046A99A2A811C461F1969C3053 MUL PUSH1 0x80 SHR JUMPDEST PUSH2 0x100 DUP3 AND ISZERO PUSH2 0xD4B JUMPI PUSH16 0xFCBE86C7900A88AEDCFFC83B479AA3A4 MUL PUSH1 0x80 SHR JUMPDEST PUSH2 0x200 DUP3 AND ISZERO PUSH2 0xD6B JUMPI PUSH16 0xF987A7253AC413176F2B074CF7815E54 MUL PUSH1 0x80 SHR JUMPDEST PUSH2 0x400 DUP3 AND ISZERO PUSH2 0xD8B JUMPI PUSH16 0xF3392B0822B70005940C7A398E4B70F3 MUL PUSH1 0x80 SHR JUMPDEST PUSH2 0x800 DUP3 AND ISZERO PUSH2 0xDAB JUMPI PUSH16 0xE7159475A2C29B7443B29C7FA6E889D9 MUL PUSH1 0x80 SHR JUMPDEST PUSH2 0x1000 DUP3 AND ISZERO PUSH2 0xDCB JUMPI PUSH16 0xD097F3BDFD2022B8845AD8F792AA5825 MUL PUSH1 0x80 SHR JUMPDEST PUSH2 0x2000 DUP3 AND ISZERO PUSH2 0xDEB JUMPI PUSH16 0xA9F746462D870FDF8A65DC1F90E061E5 MUL PUSH1 0x80 SHR JUMPDEST PUSH2 0x4000 DUP3 AND ISZERO PUSH2 0xE0B JUMPI PUSH16 0x70D869A156D2A1B890BB3DF62BAF32F7 MUL PUSH1 0x80 SHR JUMPDEST PUSH2 0x8000 DUP3 AND ISZERO PUSH2 0xE2B JUMPI PUSH16 0x31BE135F97D08FD981231505542FCFA6 MUL PUSH1 0x80 SHR JUMPDEST PUSH3 0x10000 DUP3 AND ISZERO PUSH2 0xE4C JUMPI PUSH16 0x9AA508B5B7A84E1C677DE54F3E99BC9 MUL PUSH1 0x80 SHR JUMPDEST PUSH3 0x20000 DUP3 AND ISZERO PUSH2 0xE6C JUMPI PUSH15 0x5D6AF8DEDB81196699C329225EE604 MUL PUSH1 0x80 SHR JUMPDEST PUSH3 0x40000 DUP3 AND ISZERO PUSH2 0xE8B JUMPI PUSH14 0x2216E584F5FA1EA926041BEDFE98 MUL PUSH1 0x80 SHR JUMPDEST PUSH3 0x80000 DUP3 AND ISZERO PUSH2 0xEA8 JUMPI PUSH12 0x48A170391F7DC42444E8FA2 MUL PUSH1 0x80 SHR JUMPDEST PUSH1 0x0 DUP5 PUSH1 0x2 SIGNEXTEND SGT ISZERO PUSH2 0xEC9 JUMPI DUP1 PUSH1 0x0 NOT DUP2 PUSH2 0xEC5 JUMPI PUSH2 0xEC5 PUSH2 0x2C17 JUMP JUMPDEST DIV SWAP1 POP JUMPDEST PUSH1 0x1 PUSH1 0x40 SHL DUP2 MOD ISZERO PUSH2 0xEDC JUMPI PUSH1 0x1 PUSH2 0xEDF JUMP JUMPDEST PUSH1 0x0 JUMPDEST PUSH1 0xFF AND PUSH1 0x40 DUP3 SWAP1 SHR ADD SWAP3 POP POP POP SWAP2 SWAP1 POP JUMP JUMPDEST PUSH1 0x0 DUP1 PUSH1 0x2 DUP4 SWAP1 SIGNEXTEND PUSH1 0x8 SAR SWAP1 POP DUP4 DUP2 PUSH1 0x40 MLOAD PUSH1 0x20 ADD PUSH2 0xF1D SWAP3 SWAP2 SWAP1 SWAP2 DUP3 MSTORE PUSH1 0xF0 SHL PUSH1 0x20 DUP3 ADD MSTORE PUSH1 0x22 ADD SWAP1 JUMP JUMPDEST PUSH1 0x40 MLOAD PUSH1 0x20 DUP2 DUP4 SUB SUB DUP2 MSTORE SWAP1 PUSH1 0x40 MSTORE DUP1 MLOAD SWAP1 PUSH1 0x20 ADD KECCAK256 SWAP2 POP POP SWAP3 SWAP2 POP POP JUMP JUMPDEST PUSH1 0x40 DUP1 MLOAD PUSH1 0x20 DUP2 ADD DUP4 SWAP1 MSTORE PUSH3 0x10007 SWAP2 DUP2 ADD DUP3 SWAP1 MSTORE PUSH1 0x0 SWAP2 SWAP1 DUP3 SWAP1 PUSH1 0x60 ADD JUMPDEST PUSH1 0x40 DUP1 MLOAD DUP1 DUP4 SUB PUSH1 0x1F NOT ADD DUP2 MSTORE SWAP1 DUP3 SWAP1 MSTORE DUP1 MLOAD PUSH1 0x20 SWAP1 SWAP2 ADD KECCAK256 PUSH4 0x2CE8AF3 PUSH1 0xE0 SHL DUP3 MSTORE PUSH1 0x4 DUP3 ADD DUP2 SWAP1 MSTORE SWAP2 POP PUSH32 0x0 PUSH1 0x1 PUSH1 0x1 PUSH1 0xA0 SHL SUB AND SWAP1 PUSH4 0x2CE8AF3 SWAP1 PUSH1 0x24 ADD PUSH1 0x20 PUSH1 0x40 MLOAD DUP1 DUP4 SUB DUP2 DUP7 GAS STATICCALL ISZERO DUP1 ISZERO PUSH2 0xFD8 JUMPI RETURNDATASIZE PUSH1 0x0 DUP1 RETURNDATACOPY RETURNDATASIZE PUSH1 0x0 REVERT JUMPDEST POP POP POP POP PUSH1 0x40 MLOAD RETURNDATASIZE PUSH1 0x1F NOT PUSH1 0x1F DUP3 ADD AND DUP3 ADD DUP1 PUSH1 0x40 MSTORE POP DUP2 ADD SWAP1 PUSH2 0xFFC SWAP2 SWAP1 PUSH2 0x2BD5 JUMP JUMPDEST SWAP5 SWAP4 POP POP POP POP JUMP JUMPDEST PUSH1 0x0 DUP1 PUSH2 0x1010 DUP5 PUSH2 0x15C9 JUMP JUMPDEST SWAP1 POP PUSH1 0x0 DUP4 PUSH2 0x1020 JUMPI PUSH1 0x0 PUSH2 0x1023 JUMP JUMPDEST PUSH1 0x1 JUMPDEST PUSH1 0xFF AND SWAP1 POP DUP1 PUSH2 0x1033 DUP4 DUP7 PUSH2 0x15D7 JUMP JUMPDEST PUSH1 0xFF AND ADD SWAP6 SWAP5 POP POP POP POP POP JUMP JUMPDEST PUSH1 0x0 DUP1 DUP1 DUP1 PUSH2 0x1050 DUP6 DUP9 DUP11 PUSH2 0x15EE JUMP JUMPDEST SWAP2 POP SWAP2 POP PUSH2 0x105F DUP9 DUP3 DUP8 PUSH2 0x162C JUMP JUMPDEST SWAP3 POP DUP3 PUSH2 0x1078 JUMPI PUSH1 0x8 DUP7 SWAP1 SHL PUSH1 0x2 SIGNEXTEND PUSH1 0xFF DUP4 AND ADD PUSH2 0x1082 JUMP JUMPDEST PUSH2 0x1082 DUP9 DUP8 PUSH2 0x165F JUMP JUMPDEST SWAP4 POP POP POP SWAP5 POP SWAP5 SWAP3 POP POP POP JUMP JUMPDEST PUSH1 0x0 DUP1 PUSH2 0x109D DUP6 DUP6 DUP6 PUSH2 0x16C6 JUMP JUMPDEST SWAP1 POP PUSH3 0x10002 PUSH1 0x1 PUSH1 0x1 PUSH1 0x80 SHL SUB DUP3 AND LT ISZERO PUSH2 0x10BF JUMPI PUSH3 0x10002 SWAP2 POP POP PUSH2 0x637 JUMP JUMPDEST PUSH16 0xFFFF5433E2B3D8211706E6102AA9472 PUSH1 0x1 PUSH1 0x1 PUSH1 0x80 SHL SUB DUP3 AND LT PUSH2 0xFFC JUMPI POP PUSH16 0xFFFF5433E2B3D8211706E6102AA9471 SWAP1 POP PUSH2 0x637 JUMP JUMPDEST PUSH1 0x0 DUP1 PUSH1 0x0 DUP1 PUSH1 0x0 PUSH2 0x1116 DUP11 DUP11 DUP11 PUSH1 0x20 ADD MLOAD DUP12 PUSH1 0x40 ADD MLOAD DUP12 DUP12 PUSH2 0x1769 JUMP JUMPDEST SWAP1 SWAP3 POP SWAP1 POP PUSH2 0x1126 DUP11 DUP4 DUP10 PUSH2 0x17B0 JUMP JUMPDEST PUSH2 0x1131 DUP3 DUP3 DUP10 PUSH2 0x1822 JUMP JUMPDEST SWAP5 POP SWAP5 POP SWAP5 POP POP POP SWAP6 POP SWAP6 POP SWAP6 SWAP3 POP POP POP JUMP JUMPDEST PUSH2 0x114F DUP6 DUP5 DUP5 PUSH2 0x1592 JUMP JUMPDEST DUP4 ISZERO PUSH2 0x1178 JUMPI DUP1 DUP6 PUSH1 0x60 ADD DUP2 DUP2 MLOAD PUSH2 0x1167 SWAP2 SWAP1 PUSH2 0x2C2D JUMP JUMPDEST PUSH1 0x1 PUSH1 0x1 PUSH1 0x80 SHL SUB AND SWAP1 MSTORE POP PUSH2 0x1197 JUMP JUMPDEST DUP1 DUP6 PUSH1 0x40 ADD DUP2 DUP2 MLOAD PUSH2 0x118A SWAP2 SWAP1 PUSH2 0x2C2D JUMP JUMPDEST PUSH1 0x1 PUSH1 0x1 PUSH1 0x80 SHL SUB AND SWAP1 MSTORE POP JUMPDEST POP POP POP POP POP JUMP JUMPDEST PUSH1 0x0 DUP1 DUP1 DUP1 PUSH2 0x11AF DUP10 DUP8 DUP11 DUP9 PUSH2 0x1868 JUMP JUMPDEST SWAP1 POP PUSH1 0x1 PUSH1 0x1 PUSH1 0x80 SHL SUB DUP1 DUP8 AND SWAP1 DUP3 AND LT DUP1 ISZERO PUSH2 0x11EA JUMPI PUSH2 0x11D3 DUP11 DUP8 DUP12 DUP12 DUP12 PUSH2 0x18A3 JUMP JUMPDEST SWAP2 SWAP7 POP SWAP5 POP SWAP3 POP PUSH2 0x11E5 DUP11 DUP5 DUP9 PUSH2 0x18F1 JUMP JUMPDEST PUSH2 0x120A JUMP JUMPDEST PUSH2 0x11F7 DUP11 DUP4 DUP12 DUP12 DUP12 PUSH2 0x1942 JUMP JUMPDEST SWAP2 SWAP7 POP SWAP5 POP SWAP3 POP PUSH2 0x120A DUP11 DUP5 DUP11 DUP10 PUSH2 0x197C JUMP JUMPDEST POP POP SWAP6 POP SWAP6 POP SWAP6 SWAP3 POP POP POP JUMP JUMPDEST PUSH1 0x0 DUP1 PUSH1 0x0 DUP4 PUSH2 0x1231 JUMPI PUSH2 0x122C PUSH1 0x1 DUP7 PUSH2 0x2C54 JUMP JUMPDEST PUSH2 0x1233 JUMP JUMPDEST DUP5 JUMPDEST SWAP1 POP PUSH2 0x1241 DUP2 PUSH1 0x2 SIGNEXTEND PUSH2 0x19F9 JUMP JUMPDEST SWAP3 POP PUSH2 0x124F DUP2 PUSH1 0x2 SIGNEXTEND PUSH2 0x1A10 JUMP JUMPDEST SWAP2 POP POP SWAP3 POP SWAP3 SWAP1 POP JUMP JUMPDEST PUSH1 0x0 DUP1 PUSH1 0x0 PUSH2 0x126C PUSH2 0x93A DUP9 DUP9 DUP9 PUSH2 0x1A2C JUMP JUMPDEST SWAP1 POP PUSH1 0x0 DUP1 PUSH2 0x127C DUP4 DUP3 DUP9 PUSH2 0x15EE JUMP JUMPDEST SWAP2 POP SWAP2 POP DUP1 ISZERO PUSH2 0x1296 JUMPI PUSH1 0x0 PUSH1 0x1 SWAP5 POP SWAP5 POP POP POP POP PUSH2 0x12AB JUMP JUMPDEST PUSH2 0x12A1 DUP9 DUP9 DUP5 PUSH2 0x1A8A JUMP JUMPDEST PUSH1 0x0 SWAP5 POP SWAP5 POP POP POP POP JUMPDEST SWAP5 POP SWAP5 SWAP3 POP POP POP JUMP JUMPDEST PUSH1 0x0 DUP1 PUSH1 0x0 PUSH2 0x12CB PUSH2 0x12C6 DUP9 DUP9 PUSH2 0x1AB3 JUMP JUMPDEST PUSH2 0x1AC7 JUMP JUMPDEST SWAP1 POP PUSH1 0x0 PUSH2 0x12D9 DUP7 DUP7 PUSH2 0x15D7 JUMP JUMPDEST SWAP1 POP PUSH1 0x0 DUP1 PUSH2 0x12EC DUP5 PUSH1 0xFF DUP6 AND DUP10 PUSH2 0x15EE JUMP JUMPDEST SWAP2 POP SWAP2 POP DUP1 ISZERO PUSH2 0x1307 JUMPI PUSH1 0x0 PUSH1 0x1 SWAP6 POP SWAP6 POP POP POP POP POP PUSH2 0x12AB JUMP JUMPDEST PUSH2 0x1313 DUP11 DUP11 DUP5 DUP11 PUSH2 0x1259 JUMP JUMPDEST SWAP6 POP SWAP6 POP POP POP POP POP SWAP5 POP SWAP5 SWAP3 POP POP POP JUMP JUMPDEST PUSH1 0x0 DUP2 PUSH2 0x133A JUMPI PUSH2 0x1335 DUP5 DUP5 PUSH2 0x1AEA JUMP JUMPDEST PUSH2 0xFFC JUMP JUMPDEST PUSH2 0xFFC DUP5 DUP5 PUSH2 0x1B3A JUMP JUMPDEST PUSH1 0x0 PUSH3 0x7FFFFF NOT PUSH1 0x2 DUP4 SWAP1 SIGNEXTEND SGT DUP1 ISZERO PUSH2 0xA79 JUMPI POP POP PUSH3 0x7FFFFF PUSH1 0x2 SWAP2 SWAP1 SWAP2 SIGNEXTEND SLT SWAP1 JUMP JUMPDEST PUSH1 0x0 DUP1 PUSH1 0x0 DUP5 DUP5 PUSH1 0x40 MLOAD PUSH1 0x20 ADD PUSH2 0x138B SWAP3 SWAP2 SWAP1 SWAP2 DUP3 MSTORE PUSH1 0xE8 SHL PUSH1 0x20 DUP3 ADD MSTORE PUSH1 0x23 ADD SWAP1 JUMP JUMPDEST PUSH1 0x40 MLOAD PUSH1 0x20 DUP2 DUP4 SUB SUB DUP2 MSTORE SWAP1 PUSH1 0x40 MSTORE DUP1 MLOAD SWAP1 PUSH1 0x20 ADD KECCAK256 SWAP1 POP PUSH1 0x0 DUP2 PUSH3 0x10002 PUSH1 0x40 MLOAD PUSH1 0x20 ADD PUSH2 0x13C4 SWAP3 SWAP2 SWAP1 SWAP2 DUP3 MSTORE PUSH1 0x20 DUP3 ADD MSTORE PUSH1 0x40 ADD SWAP1 JUMP JUMPDEST PUSH1 0x40 DUP1 MLOAD DUP1 DUP4 SUB PUSH1 0x1F NOT ADD DUP2 MSTORE SWAP1 DUP3 SWAP1 MSTORE DUP1 MLOAD PUSH1 0x20 SWAP1 SWAP2 ADD KECCAK256 PUSH4 0x2CE8AF3 PUSH1 0xE0 SHL DUP3 MSTORE PUSH1 0x4 DUP3 ADD DUP2 SWAP1 MSTORE SWAP2 POP PUSH1 0x0 SWAP1 PUSH32 0x0 PUSH1 0x1 PUSH1 0x1 PUSH1 0xA0 SHL SUB AND SWAP1 PUSH4 0x2CE8AF3 SWAP1 PUSH1 0x24 ADD PUSH1 0x20 PUSH1 0x40 MLOAD DUP1 DUP4 SUB DUP2 DUP7 GAS STATICCALL ISZERO DUP1 ISZERO PUSH2 0x1444 JUMPI RETURNDATASIZE PUSH1 0x0 DUP1 RETURNDATACOPY RETURNDATASIZE PUSH1 0x0 REVERT JUMPDEST POP POP POP POP PUSH1 0x40 MLOAD RETURNDATASIZE PUSH1 0x1F NOT PUSH1 0x1F DUP3 ADD AND DUP3 ADD DUP1 PUSH1 0x40 MSTORE POP DUP2 ADD SWAP1 PUSH2 0x1468 SWAP2 SWAP1 PUSH2 0x2BD5 JUMP JUMPDEST PUSH12 0xFFFFFFFFFFFFFFFFFFFFFFFF DUP1 DUP3 AND SWAP10 PUSH1 0x60 SWAP3 SWAP1 SWAP3 SHR AND SWAP8 POP SWAP6 POP POP POP POP POP POP JUMP JUMPDEST PUSH1 0x0 PUSH2 0x1496 DUP3 PUSH2 0x1B84 JUMP JUMPDEST PUSH2 0x149F DUP5 PUSH2 0x1B84 JUMP JUMPDEST SUB SWAP4 SWAP3 POP POP POP JUMP JUMPDEST PUSH1 0x0 DUP1 DUP3 PUSH1 0xF SIGNEXTEND SLT ISZERO PUSH2 0x14D5 JUMPI POP DUP1 DUP3 ADD PUSH1 0x1 PUSH1 0x1 PUSH1 0x80 SHL SUB DUP1 DUP5 AND SWAP1 DUP3 AND LT PUSH2 0x14D0 JUMPI PUSH1 0x0 DUP1 REVERT JUMPDEST PUSH2 0xA79 JUMP JUMPDEST DUP3 PUSH1 0x1 PUSH1 0x1 PUSH1 0x80 SHL SUB AND DUP3 DUP5 ADD SWAP2 POP DUP2 PUSH1 0x1 PUSH1 0x1 PUSH1 0x80 SHL SUB AND LT ISZERO PUSH2 0xA79 JUMPI PUSH1 0x0 DUP1 REVERT JUMPDEST PUSH1 0x0 DUP1 PUSH1 0x0 DUP1 PUSH2 0x1513 PUSH2 0x150B DUP10 PUSH2 0x1BA0 JUMP JUMPDEST DUP10 MLOAD DUP10 PUSH2 0x1BC5 JUMP JUMPDEST SWAP1 POP DUP1 PUSH1 0x1 PUSH1 0x1 PUSH1 0x80 SHL SUB AND DUP6 PUSH1 0x1 PUSH1 0x1 PUSH1 0x80 SHL SUB AND GT PUSH2 0x1560 JUMPI PUSH1 0x40 MLOAD PUSH3 0x461BCD PUSH1 0xE5 SHL DUP2 MSTORE PUSH1 0x20 PUSH1 0x4 DUP3 ADD MSTORE PUSH1 0x2 PUSH1 0x24 DUP3 ADD MSTORE PUSH2 0x1091 PUSH1 0xF2 SHL PUSH1 0x44 DUP3 ADD MSTORE PUSH1 0x64 ADD JUMPDEST PUSH1 0x40 MLOAD DUP1 SWAP2 SUB SWAP1 REVERT JUMPDEST DUP6 ISZERO PUSH2 0x157D JUMPI PUSH2 0x1571 DUP9 DUP9 DUP4 PUSH2 0x1C27 JUMP JUMPDEST SWAP4 POP SWAP4 POP SWAP4 POP POP PUSH2 0x1588 JUMP JUMPDEST PUSH2 0x1571 DUP9 DUP9 DUP4 PUSH2 0x1C9F JUMP JUMPDEST SWAP5 POP SWAP5 POP SWAP5 SWAP2 POP POP JUMP JUMPDEST DUP2 DUP4 PUSH1 0x0 ADD DUP2 DUP2 MLOAD PUSH2 0x15A4 SWAP2 SWAP1 PUSH2 0x2C79 JUMP JUMPDEST PUSH1 0xF SIGNEXTEND SWAP1 MSTORE POP PUSH1 0x20 DUP4 ADD DUP1 MLOAD DUP3 SWAP2 SWAP1 PUSH2 0x15BE SWAP1 DUP4 SWAP1 PUSH2 0x2C79 JUMP JUMPDEST PUSH1 0xF SIGNEXTEND SWAP1 MSTORE POP POP POP POP JUMP JUMPDEST PUSH1 0x0 PUSH2 0xA79 PUSH2 0x100 DUP4 PUSH2 0x2CAF JUMP JUMPDEST PUSH1 0x0 DUP2 PUSH2 0x15E7 JUMPI DUP3 PUSH1 0xFF SUB PUSH2 0x637 JUMP JUMPDEST POP SWAP1 SWAP2 SWAP1 POP JUMP JUMPDEST PUSH1 0x0 DUP1 PUSH2 0x15FC DUP6 DUP6 DUP6 PUSH2 0x1D07 JUMP JUMPDEST SWAP5 POP POP DUP4 ISZERO DUP1 PUSH2 0x5CF JUMPI DUP3 PUSH2 0x1619 JUMPI PUSH2 0x1614 DUP6 PUSH2 0x1D2B JUMP JUMPDEST PUSH2 0x1622 JUMP JUMPDEST PUSH2 0x1622 DUP6 PUSH2 0x1DC7 JUMP JUMPDEST SWAP2 POP SWAP4 POP SWAP4 SWAP2 POP POP JUMP JUMPDEST PUSH1 0x0 DUP4 ISZERO PUSH2 0x163B JUMPI POP DUP2 PUSH2 0x637 JUMP JUMPDEST PUSH1 0x0 PUSH2 0x1647 DUP4 DUP3 PUSH2 0x1EB0 JUMP JUMPDEST SWAP1 POP DUP1 PUSH2 0x1654 JUMPI DUP4 PUSH2 0xBC2 JUMP JUMPDEST PUSH1 0x0 SWAP6 SWAP5 POP POP POP POP POP JUMP JUMPDEST PUSH1 0x0 DUP3 ISZERO PUSH2 0x16B9 JUMPI PUSH2 0x1670 DUP4 PUSH2 0x1EE3 JUMP JUMPDEST PUSH1 0x1 SIGNEXTEND DUP3 PUSH1 0x1 SIGNEXTEND EQ PUSH2 0x16A9 JUMPI PUSH2 0x16A4 PUSH2 0x168A DUP4 PUSH1 0x1 PUSH2 0x2CD1 JUMP JUMPDEST PUSH2 0x1694 DUP6 ISZERO PUSH2 0x1EFC JUMP JUMPDEST PUSH1 0xFF AND PUSH1 0x8 SWAP2 SWAP1 SWAP2 SHL PUSH1 0x2 SIGNEXTEND ADD SWAP1 JUMP JUMPDEST PUSH2 0x16B2 JUMP JUMPDEST PUSH2 0x16B2 DUP4 PUSH2 0x1F12 JUMP JUMPDEST SWAP1 POP PUSH2 0xA79 JUMP JUMPDEST PUSH1 0x8 DUP3 SWAP1 SHL PUSH1 0x2 SIGNEXTEND PUSH2 0x16B2 JUMP JUMPDEST PUSH1 0x0 PUSH3 0xA276D NOT PUSH1 0x2 DUP6 SWAP1 SIGNEXTEND SGT ISZERO DUP1 PUSH2 0x16E6 JUMPI POP PUSH3 0xCB14A PUSH1 0x2 DUP6 SWAP1 SIGNEXTEND SLT ISZERO JUMPDEST ISZERO PUSH2 0x16F2 JUMPI POP DUP2 PUSH2 0x637 JUMP JUMPDEST DUP2 ISZERO PUSH2 0x1733 JUMPI PUSH1 0x1 PUSH1 0x0 DUP2 PUSH2 0x1706 DUP8 PUSH2 0xBCB JUMP JUMPDEST SUB SWAP1 POP DUP5 PUSH1 0x1 PUSH1 0x1 PUSH1 0x80 SHL SUB AND DUP2 PUSH1 0x1 PUSH1 0x1 PUSH1 0x80 SHL SUB AND LT PUSH2 0x1728 JUMPI DUP5 PUSH2 0x172A JUMP JUMPDEST DUP1 JUMPDEST SWAP3 POP POP POP PUSH2 0x637 JUMP JUMPDEST PUSH1 0x0 PUSH2 0x173E DUP6 PUSH2 0xBCB JUMP JUMPDEST SWAP1 POP DUP4 PUSH1 0x1 PUSH1 0x1 PUSH1 0x80 SHL SUB AND DUP2 PUSH1 0x1 PUSH1 0x1 PUSH1 0x80 SHL SUB AND GT PUSH2 0x175F JUMPI DUP4 PUSH2 0x1761 JUMP JUMPDEST DUP1 JUMPDEST SWAP2 POP POP PUSH2 0x637 JUMP JUMPDEST PUSH1 0x0 DUP1 DUP1 PUSH2 0x1779 DUP10 DUP10 DUP8 DUP8 PUSH2 0x1F2D JUMP JUMPDEST SWAP1 POP PUSH2 0x100 PUSH3 0xF4240 PUSH1 0x1 PUSH1 0x1 PUSH1 0x80 SHL SUB DUP4 AND PUSH2 0xFFFF DUP11 AND MUL DIV PUSH1 0xFF DUP9 AND DUP2 MUL SWAP2 SWAP1 SWAP2 DIV SWAP1 DUP2 SWAP1 SUB SWAP11 SWAP1 SWAP10 POP SWAP8 POP POP POP POP POP POP POP POP JUMP JUMPDEST PUSH1 0x0 PUSH2 0x17BB DUP5 PUSH2 0x1BA0 JUMP JUMPDEST SWAP1 POP DUP1 PUSH1 0x1 PUSH1 0x1 PUSH1 0x80 SHL SUB AND PUSH1 0x0 SUB PUSH2 0x17D4 JUMPI POP POP POP POP JUMP JUMPDEST DUP4 MLOAD DUP3 ISZERO SWAP1 PUSH1 0x0 SWAP1 PUSH2 0x17E9 SWAP1 DUP5 SWAP1 DUP8 DUP6 PUSH2 0x1F71 JUMP JUMPDEST SWAP1 POP PUSH1 0x0 PUSH2 0x17FD DUP5 DUP9 PUSH1 0x0 ADD MLOAD DUP5 DUP7 PUSH2 0x1FBC JUMP JUMPDEST SWAP1 POP PUSH1 0x1 PUSH1 0x1 PUSH1 0x40 SHL SUB DUP2 AND ISZERO PUSH2 0x1819 JUMPI PUSH2 0x1819 DUP8 DUP3 DUP6 PUSH2 0x1FD6 JUMP JUMPDEST POP POP POP POP POP POP POP JUMP JUMPDEST PUSH1 0x0 DUP1 DUP1 DUP6 DUP6 ADD DUP5 ISZERO PUSH2 0x1848 JUMPI PUSH2 0x1841 DUP2 PUSH1 0x1 PUSH1 0x1 PUSH1 0x80 SHL SUB AND PUSH2 0x20A5 JUMP JUMPDEST SWAP3 POP PUSH2 0x185D JUMP JUMPDEST PUSH2 0x185A DUP2 PUSH1 0x1 PUSH1 0x1 PUSH1 0x80 SHL SUB AND PUSH2 0x20A5 JUMP JUMPDEST SWAP4 POP JUMPDEST POP SWAP2 SWAP6 SWAP1 SWAP5 POP SWAP2 POP POP JUMP JUMPDEST PUSH1 0x0 DUP1 PUSH2 0x1876 DUP7 DUP6 DUP6 PUSH2 0x20C4 JUMP JUMPDEST SWAP1 POP DUP5 PUSH1 0x1 PUSH1 0x1 PUSH1 0x80 SHL SUB AND DUP2 PUSH1 0x1 PUSH1 0x1 PUSH1 0x80 SHL SUB AND GT PUSH2 0x1897 JUMPI DUP1 PUSH2 0x1899 JUMP JUMPDEST DUP5 JUMPDEST SWAP7 SWAP6 POP POP POP POP POP POP JUMP JUMPDEST PUSH1 0x0 DUP1 PUSH1 0x0 DUP1 PUSH1 0x0 PUSH2 0x18B6 DUP11 DUP11 DUP11 PUSH2 0x20FA JUMP JUMPDEST SWAP2 POP SWAP2 POP PUSH1 0x0 DUP1 PUSH2 0x18C9 DUP5 DUP5 DUP13 DUP13 PUSH2 0x2168 JUMP JUMPDEST SWAP2 POP SWAP2 POP PUSH2 0x18DC DUP13 DUP12 DUP12 DUP12 DUP16 DUP8 DUP8 PUSH2 0x219F JUMP JUMPDEST SWAP7 POP SWAP7 POP SWAP7 POP POP POP POP POP SWAP6 POP SWAP6 POP SWAP6 SWAP3 POP POP POP JUMP JUMPDEST DUP3 MLOAD PUSH1 0x1 PUSH1 0x1 PUSH1 0x80 SHL SUB SWAP1 DUP2 AND DUP2 DUP4 AND EQ SWAP1 DUP4 AND ISZERO ISZERO DUP2 DUP1 ISZERO PUSH2 0x1911 JUMPI POP DUP1 JUMPDEST PUSH2 0x1197 JUMPI PUSH1 0x40 MLOAD PUSH3 0x461BCD PUSH1 0xE5 SHL DUP2 MSTORE PUSH1 0x20 PUSH1 0x4 DUP3 ADD MSTORE PUSH1 0x2 PUSH1 0x24 DUP3 ADD MSTORE PUSH2 0x525 PUSH1 0xF4 SHL PUSH1 0x44 DUP3 ADD MSTORE PUSH1 0x64 ADD PUSH2 0x1557 JUMP JUMPDEST PUSH1 0x0 DUP1 PUSH1 0x0 DUP1 PUSH1 0x0 PUSH2 0x1956 DUP11 DUP11 DUP11 DUP11 PUSH2 0x221C JUMP JUMPDEST SWAP2 POP SWAP2 POP PUSH1 0x0 DUP1 PUSH2 0x1969 DUP12 DUP6 DUP13 DUP13 PUSH2 0x2284 JUMP JUMPDEST SWAP2 POP SWAP2 POP PUSH2 0x18DC DUP13 DUP12 DUP12 DUP12 DUP8 DUP8 DUP8 PUSH2 0x219F JUMP JUMPDEST PUSH1 0x0 DUP3 PUSH2 0x1998 JUMPI DUP5 MLOAD PUSH1 0x1 PUSH1 0x1 PUSH1 0x80 SHL SUB DUP1 DUP5 AND SWAP2 AND GT PUSH2 0x19A9 JUMP JUMPDEST DUP5 MLOAD PUSH1 0x1 PUSH1 0x1 PUSH1 0x80 SHL SUB DUP1 DUP5 AND SWAP2 AND LT JUMPDEST SWAP1 POP PUSH1 0x1 PUSH1 0x1 PUSH1 0x80 SHL SUB DUP5 AND ISZERO DUP2 DUP1 ISZERO PUSH2 0x19C0 JUMPI POP DUP1 JUMPDEST PUSH2 0x19F1 JUMPI PUSH1 0x40 MLOAD PUSH3 0x461BCD PUSH1 0xE5 SHL DUP2 MSTORE PUSH1 0x20 PUSH1 0x4 DUP3 ADD MSTORE PUSH1 0x2 PUSH1 0x24 DUP3 ADD MSTORE PUSH2 0x2923 PUSH1 0xF1 SHL PUSH1 0x44 DUP3 ADD MSTORE PUSH1 0x64 ADD PUSH2 0x1557 JUMP JUMPDEST POP POP POP POP POP POP JUMP JUMPDEST PUSH1 0x0 PUSH2 0xA79 PUSH2 0x1A0B DUP4 PUSH1 0x2 SIGNEXTEND PUSH1 0x10 SAR SWAP1 JUMP JUMPDEST PUSH2 0x22A3 JUMP JUMPDEST PUSH1 0x0 PUSH2 0x100 PUSH2 0x1A22 DUP4 PUSH1 0x2 SIGNEXTEND PUSH1 0x8 SAR SWAP1 JUMP JUMPDEST PUSH2 0xA79 SWAP2 SWAP1 PUSH2 0x2CF4 JUMP JUMPDEST PUSH1 0x0 DUP1 PUSH2 0x1A49 PUSH2 0x1A3B DUP6 PUSH2 0x22C3 JUMP JUMPDEST PUSH1 0x8 SHL PUSH1 0x1 SIGNEXTEND PUSH1 0xFF DUP6 AND ADD SWAP1 JUMP JUMPDEST SWAP1 POP DUP5 DUP2 PUSH1 0x40 MLOAD PUSH1 0x20 ADD PUSH2 0x1A6A SWAP3 SWAP2 SWAP1 SWAP2 DUP3 MSTORE PUSH1 0xF0 SHL PUSH1 0x20 DUP3 ADD MSTORE PUSH1 0x22 ADD SWAP1 JUMP JUMPDEST PUSH1 0x40 MLOAD PUSH1 0x20 DUP2 DUP4 SUB SUB DUP2 MSTORE SWAP1 PUSH1 0x40 MSTORE DUP1 MLOAD SWAP1 PUSH1 0x20 ADD KECCAK256 SWAP2 POP POP SWAP4 SWAP3 POP POP POP JUMP JUMPDEST PUSH1 0x0 PUSH2 0xFFC PUSH2 0x1A98 DUP6 PUSH2 0x22C3 JUMP JUMPDEST PUSH1 0x10 SHL PUSH1 0x2 SIGNEXTEND PUSH2 0xFF00 PUSH1 0x8 DUP7 SWAP1 SHL AND PUSH1 0x3 SIGNEXTEND ADD PUSH1 0xFF DUP5 AND ADD SWAP1 JUMP JUMPDEST PUSH1 0x0 PUSH2 0x637 DUP4 PUSH2 0x1AC2 DUP5 PUSH2 0x22C3 JUMP JUMPDEST PUSH2 0x22E4 JUMP JUMPDEST PUSH1 0x40 DUP1 MLOAD PUSH1 0x20 DUP2 ADD DUP4 SWAP1 MSTORE PUSH3 0x10006 SWAP2 DUP2 ADD DUP3 SWAP1 MSTORE PUSH1 0x0 SWAP2 SWAP1 DUP3 SWAP1 PUSH1 0x60 ADD PUSH2 0xF5B JUMP JUMPDEST PUSH1 0x0 PUSH1 0xFF PUSH1 0x0 NOT DUP4 ADD JUMPDEST PUSH1 0xFF DUP2 PUSH1 0xFF AND LT ISZERO PUSH2 0x1B2F JUMPI PUSH1 0x0 DUP1 PUSH2 0x1B10 DUP8 DUP5 DUP7 PUSH1 0x0 PUSH2 0x12B4 JUMP JUMPDEST SWAP2 POP SWAP2 POP DUP1 PUSH2 0x1B24 JUMPI POP SWAP3 POP PUSH2 0xA79 SWAP2 POP POP JUMP JUMPDEST POP POP PUSH1 0x0 NOT ADD PUSH2 0x1AF4 JUMP JUMPDEST POP PUSH2 0xA75 PUSH1 0x0 PUSH2 0x1F12 JUMP JUMPDEST PUSH1 0x0 DUP1 PUSH1 0x1 DUP4 ADD JUMPDEST PUSH1 0xFF DUP2 AND ISZERO PUSH2 0x1B79 JUMPI PUSH1 0x0 DUP1 PUSH2 0x1B5B DUP8 DUP5 DUP7 PUSH1 0x1 PUSH2 0x12B4 JUMP JUMPDEST SWAP2 POP SWAP2 POP DUP1 PUSH2 0x1B6F JUMPI POP SWAP3 POP PUSH2 0xA79 SWAP2 POP POP JUMP JUMPDEST POP POP PUSH1 0x1 ADD PUSH2 0x1B42 JUMP JUMPDEST POP PUSH2 0xA75 PUSH1 0x1 PUSH2 0x1F12 JUMP JUMPDEST PUSH1 0x0 PUSH1 0xA DUP3 SWAP1 SHL PUSH14 0x3FFFFFFFFFFFFFFFFFFFFFFF800 AND PUSH2 0xA79 JUMP JUMPDEST PUSH1 0x0 DUP1 PUSH2 0x1BB5 DUP4 PUSH1 0x20 ADD MLOAD DUP5 PUSH1 0x60 ADD MLOAD PUSH2 0x2323 JUMP JUMPDEST SWAP1 POP PUSH2 0x637 DUP2 DUP5 PUSH1 0x40 ADD MLOAD PUSH2 0x2362 JUMP JUMPDEST PUSH1 0x0 DUP2 ISZERO PUSH2 0x1BE4 JUMPI POP PUSH1 0x1 PUSH1 0x1 PUSH1 0x1 PUSH1 0x40 SHL SUB PUSH1 0x40 DUP6 SWAP1 SHR AND ADD PUSH2 0x637 JUMP JUMPDEST PUSH1 0x0 PUSH2 0x1BF3 DUP6 PUSH1 0x1 DUP7 SUB PUSH2 0x237E JUMP JUMPDEST SWAP1 POP PUSH1 0x0 PUSH2 0x1C01 DUP7 DUP7 PUSH2 0x237E JUMP JUMPDEST SWAP1 POP DUP1 DUP3 SUB PUSH1 0x1 PUSH1 0x1 PUSH1 0x1 PUSH1 0xC0 SHL SUB DUP3 AND ADD PUSH2 0x1C1C DUP2 PUSH2 0x23B0 JUMP JUMPDEST SWAP5 POP POP POP POP POP PUSH2 0x637 JUMP JUMPDEST PUSH1 0x0 DUP1 PUSH1 0x0 PUSH1 0x1 PUSH16 0xFFFF5433E2B3D8211706E6102AA9472 SUB PUSH1 0x1 PUSH1 0x1 PUSH1 0x80 SHL SUB AND DUP7 PUSH1 0x0 ADD MLOAD PUSH1 0x1 PUSH1 0x1 PUSH1 0x80 SHL SUB AND LT ISZERO PUSH2 0x1C6E JUMPI DUP6 MLOAD PUSH1 0x1 ADD PUSH1 0x1 PUSH1 0x1 PUSH1 0x80 SHL SUB AND DUP7 MSTORE JUMPDEST PUSH1 0x0 SWAP2 POP PUSH2 0x1C84 DUP5 PUSH1 0x1 PUSH1 0x1 PUSH1 0x80 SHL SUB AND PUSH2 0x20A5 JUMP JUMPDEST SWAP3 POP DUP5 PUSH2 0x1C92 JUMPI PUSH1 0x0 PUSH2 0x1C94 JUMP JUMPDEST DUP4 JUMPDEST SWAP1 POP SWAP4 POP SWAP4 POP SWAP4 SWAP1 POP JUMP JUMPDEST PUSH1 0x0 DUP1 PUSH1 0x0 PUSH3 0x10002 PUSH1 0x1 PUSH1 0x1 PUSH1 0x80 SHL SUB AND DUP7 PUSH1 0x0 ADD MLOAD PUSH1 0x1 PUSH1 0x1 PUSH1 0x80 SHL SUB AND GT ISZERO PUSH2 0x1CD7 JUMPI DUP6 MLOAD PUSH1 0x0 NOT ADD PUSH1 0x1 PUSH1 0x1 PUSH1 0x80 SHL SUB AND DUP7 MSTORE JUMPDEST PUSH1 0x0 SWAP3 POP PUSH2 0x1CED DUP5 PUSH1 0x1 PUSH1 0x1 PUSH1 0x80 SHL SUB AND PUSH2 0x20A5 JUMP JUMPDEST SWAP2 POP DUP5 PUSH2 0x1CFA JUMPI DUP4 PUSH2 0x1C94 JUMP JUMPDEST PUSH1 0x0 SWAP1 POP SWAP4 POP SWAP4 POP SWAP4 SWAP1 POP JUMP JUMPDEST PUSH1 0x0 DUP2 PUSH2 0x1D1D JUMPI PUSH2 0xFFFF DUP4 AND DUP5 DUP2 SHL SWAP1 SHR PUSH2 0xFFC JUMP JUMPDEST POP POP PUSH2 0xFFFF AND SWAP1 DUP2 SHR SWAP1 SHL SWAP1 JUMP JUMPDEST PUSH1 0x0 DUP1 DUP3 GT PUSH2 0x1D39 JUMPI PUSH1 0x0 DUP1 REVERT JUMPDEST PUSH1 0x1 PUSH1 0x80 SHL DUP3 LT PUSH2 0x1D4C JUMPI PUSH1 0x80 SWAP2 DUP3 SHR SWAP2 ADD JUMPDEST PUSH1 0x1 PUSH1 0x40 SHL DUP3 LT PUSH2 0x1D5F JUMPI PUSH1 0x40 SWAP2 DUP3 SHR SWAP2 ADD JUMPDEST PUSH5 0x100000000 DUP3 LT PUSH2 0x1D73 JUMPI PUSH1 0x20 SWAP2 DUP3 SHR SWAP2 ADD JUMPDEST PUSH3 0x10000 DUP3 LT PUSH2 0x1D85 JUMPI PUSH1 0x10 SWAP2 DUP3 SHR SWAP2 ADD JUMPDEST PUSH2 0x100 DUP3 LT PUSH2 0x1D96 JUMPI PUSH1 0x8 SWAP2 DUP3 SHR SWAP2 ADD JUMPDEST PUSH1 0x10 DUP3 LT PUSH2 0x1DA6 JUMPI PUSH1 0x4 SWAP2 DUP3 SHR SWAP2 ADD JUMPDEST PUSH1 0x4 DUP3 LT PUSH2 0x1DB6 JUMPI PUSH1 0x2 SWAP2 DUP3 SHR SWAP2 ADD JUMPDEST PUSH1 0x2 DUP3 LT PUSH2 0x1DC2 JUMPI PUSH1 0x1 ADD JUMPDEST SWAP2 SWAP1 POP JUMP JUMPDEST PUSH1 0x0 DUP1 DUP3 GT PUSH2 0x1DD5 JUMPI PUSH1 0x0 DUP1 REVERT JUMPDEST POP PUSH1 0xFF PUSH1 0x1 PUSH1 0x1 PUSH1 0x80 SHL SUB DUP3 AND ISZERO PUSH2 0x1DF0 JUMPI PUSH1 0x7F NOT ADD PUSH2 0x1DF8 JUMP JUMPDEST PUSH1 0x80 DUP3 SWAP1 SHR SWAP2 POP JUMPDEST PUSH1 0x1 PUSH1 0x1 PUSH1 0x40 SHL SUB DUP3 AND ISZERO PUSH2 0x1E10 JUMPI PUSH1 0x3F NOT ADD PUSH2 0x1E18 JUMP JUMPDEST PUSH1 0x40 DUP3 SWAP1 SHR SWAP2 POP JUMPDEST PUSH4 0xFFFFFFFF DUP3 AND ISZERO PUSH2 0x1E2D JUMPI PUSH1 0x1F NOT ADD PUSH2 0x1E35 JUMP JUMPDEST PUSH1 0x20 DUP3 SWAP1 SHR SWAP2 POP JUMPDEST PUSH2 0xFFFF DUP3 AND ISZERO PUSH2 0x1E48 JUMPI PUSH1 0xF NOT ADD PUSH2 0x1E50 JUMP JUMPDEST PUSH1 0x10 DUP3 SWAP1 SHR SWAP2 POP JUMPDEST PUSH1 0xFF DUP3 AND ISZERO PUSH2 0x1E62 JUMPI PUSH1 0x7 NOT ADD PUSH2 0x1E6A JUMP JUMPDEST PUSH1 0x8 DUP3 SWAP1 SHR SWAP2 POP JUMPDEST PUSH1 0xF DUP3 AND ISZERO PUSH2 0x1E7C JUMPI PUSH1 0x3 NOT ADD PUSH2 0x1E84 JUMP JUMPDEST PUSH1 0x4 DUP3 SWAP1 SHR SWAP2 POP JUMPDEST PUSH1 0x3 DUP3 AND ISZERO PUSH2 0x1E96 JUMPI PUSH1 0x1 NOT ADD PUSH2 0x1E9E JUMP JUMPDEST PUSH1 0x2 DUP3 SWAP1 SHR SWAP2 POP JUMPDEST PUSH1 0x1 DUP3 AND ISZERO PUSH2 0x1DC2 JUMPI PUSH1 0x0 NOT ADD SWAP2 SWAP1 POP JUMP JUMPDEST PUSH1 0x0 DUP1 PUSH1 0x0 PUSH2 0x1EC4 DUP6 DUP6 PUSH1 0xFF AND PUSH1 0x1 PUSH2 0x15EE JUMP JUMPDEST SWAP2 POP PUSH1 0xFF AND SWAP2 POP DUP1 ISZERO DUP1 ISZERO PUSH2 0xBC2 JUMPI POP DUP4 PUSH1 0xFF AND DUP3 EQ SWAP6 SWAP5 POP POP POP POP POP JUMP JUMPDEST PUSH1 0x0 DUP2 PUSH2 0x1EF3 JUMPI PUSH2 0x7FFF NOT PUSH2 0xA79 JUMP JUMPDEST PUSH2 0x7FFF SWAP3 SWAP2 POP POP JUMP JUMPDEST PUSH1 0x0 DUP2 PUSH2 0x1F0A JUMPI PUSH1 0x0 PUSH2 0xA79 JUMP JUMPDEST PUSH1 0xFF SWAP3 SWAP2 POP POP JUMP JUMPDEST PUSH1 0x0 DUP2 PUSH2 0x1F23 JUMPI PUSH3 0x7FFFFF NOT PUSH2 0xA79 JUMP JUMPDEST PUSH3 0x7FFFFF SWAP3 SWAP2 POP POP JUMP JUMPDEST DUP4 MLOAD PUSH1 0x0 SWAP1 PUSH1 0x1 PUSH1 0x1 PUSH1 0x80 SHL SUB SWAP1 DUP2 AND SWAP1 DUP4 AND GT DUP2 PUSH2 0x1F4E DUP8 DUP8 DUP8 DUP8 PUSH2 0x1868 JUMP JUMPDEST SWAP1 POP PUSH2 0x1F66 PUSH2 0x1F5C DUP9 PUSH2 0x1BA0 JUMP JUMPDEST DUP9 MLOAD DUP4 DUP6 DUP10 PUSH2 0x23C6 JUMP JUMPDEST SWAP8 SWAP7 POP POP POP POP POP POP POP JUMP JUMPDEST PUSH1 0x0 PUSH1 0x2 DUP2 PUSH2 0x1F81 DUP8 DUP8 DUP7 PUSH2 0x1BC5 JUMP JUMPDEST PUSH2 0x1F8B SWAP1 DUP4 PUSH2 0x2D16 JUMP JUMPDEST SWAP1 POP DUP1 PUSH1 0x1 PUSH1 0x1 PUSH1 0x80 SHL SUB AND DUP6 PUSH1 0x1 PUSH1 0x1 PUSH1 0x80 SHL SUB AND GT ISZERO PUSH2 0x1FAF JUMPI DUP1 DUP6 SUB PUSH2 0x1F66 JUMP JUMPDEST POP PUSH1 0x0 SWAP7 SWAP6 POP POP POP POP POP POP JUMP JUMPDEST PUSH1 0x0 DUP1 PUSH2 0x1FCA DUP7 DUP7 DUP6 PUSH2 0x24A0 JUMP JUMPDEST SWAP1 POP PUSH2 0x1899 DUP2 DUP6 PUSH2 0x24D9 JUMP JUMPDEST DUP3 MLOAD PUSH2 0x1FE3 SWAP1 DUP4 DUP4 PUSH2 0x2591 JUMP JUMPDEST PUSH1 0x1 PUSH1 0x1 PUSH1 0x80 SHL SUB AND DUP4 MSTORE PUSH1 0x60 DUP4 ADD MLOAD PUSH2 0x2006 SWAP1 PUSH1 0x1 PUSH1 0x1 PUSH1 0x40 SHL SUB AND DUP4 PUSH2 0x25F5 JUMP JUMPDEST PUSH1 0x1 PUSH1 0x1 PUSH1 0x40 SHL SUB SWAP1 DUP2 AND PUSH1 0x60 DUP6 ADD DUP2 SWAP1 MSTORE PUSH1 0x0 SWAP2 PUSH2 0x2028 SWAP2 SWAP1 DUP6 AND SWAP1 PUSH2 0x263A JUMP JUMPDEST SWAP1 POP PUSH1 0x0 PUSH2 0x2068 PUSH2 0x204F DUP4 DUP8 PUSH1 0x40 ADD MLOAD PUSH1 0x1 PUSH1 0x1 PUSH1 0x80 SHL SUB AND PUSH2 0x267E SWAP1 SWAP2 SWAP1 PUSH4 0xFFFFFFFF AND JUMP JUMPDEST PUSH18 0xFFFFFFFFFFFFFFFFFFFFFFFFFFFFFFFFFFFF AND PUSH2 0x23B0 JUMP JUMPDEST SWAP1 POP PUSH2 0x2074 DUP3 DUP3 PUSH2 0x269A JUMP JUMPDEST DUP6 PUSH1 0x80 ADD DUP2 DUP2 MLOAD PUSH2 0x2085 SWAP2 SWAP1 PUSH2 0x2D39 JUMP JUMPDEST PUSH1 0x1 PUSH1 0x1 PUSH1 0x40 SHL SUB AND SWAP1 MSTORE POP PUSH1 0x20 DUP6 ADD DUP1 MLOAD DUP3 SWAP2 SWAP1 PUSH2 0x118A SWAP1 DUP4 SWAP1 PUSH2 0x2C2D JUMP JUMPDEST PUSH1 0x0 PUSH1 0x1 PUSH1 0x7F SHL DUP3 PUSH1 0x1 PUSH1 0x1 PUSH1 0x80 SHL SUB AND LT PUSH2 0x20C0 JUMPI PUSH1 0x0 DUP1 REVERT JUMPDEST POP SWAP1 JUMP JUMPDEST PUSH1 0x0 DUP1 PUSH2 0x20D0 DUP6 PUSH2 0x1BA0 JUMP JUMPDEST SWAP1 POP DUP4 PUSH2 0x20EB JUMPI PUSH2 0x20E6 DUP2 DUP7 PUSH1 0x0 ADD MLOAD DUP6 PUSH2 0x26F1 JUMP JUMPDEST PUSH2 0xBC2 JUMP JUMPDEST PUSH2 0xBC2 DUP2 DUP7 PUSH1 0x0 ADD MLOAD DUP6 PUSH2 0x272A JUMP JUMPDEST PUSH1 0x0 DUP1 PUSH1 0x0 PUSH2 0x2108 DUP7 PUSH2 0x1BA0 JUMP JUMPDEST DUP7 MLOAD SWAP1 SWAP2 POP PUSH1 0x0 SWAP1 PUSH2 0x2125 SWAP1 PUSH1 0x1 PUSH1 0x1 PUSH1 0x80 SHL SUB DUP5 AND SWAP1 DUP9 PUSH2 0x272A JUMP JUMPDEST DUP8 MLOAD SWAP1 SWAP2 POP PUSH1 0x0 SWAP1 PUSH2 0x2142 SWAP1 PUSH1 0x1 PUSH1 0x1 PUSH1 0x80 SHL SUB DUP6 AND SWAP1 DUP10 PUSH2 0x26F1 JUMP JUMPDEST SWAP1 POP DUP6 ISZERO PUSH2 0x2156 JUMPI SWAP1 SWAP4 POP SWAP2 POP DUP3 DUP3 PUSH2 0x215D JUMP JUMPDEST SWAP4 POP SWAP2 POP DUP2 DUP4 JUMPDEST POP POP POP SWAP4 POP SWAP4 SWAP2 POP POP JUMP JUMPDEST PUSH1 0x0 DUP1 PUSH2 0x2177 DUP7 DUP7 DUP7 DUP7 PUSH2 0x2760 JUMP JUMPDEST SWAP1 SWAP3 POP SWAP1 POP PUSH2 0x2187 PUSH1 0x4 DUP4 PUSH2 0x2C79 JUMP JUMPDEST SWAP2 POP PUSH2 0x2194 PUSH1 0x4 DUP3 PUSH2 0x2C79 JUMP JUMPDEST SWAP1 POP SWAP5 POP SWAP5 SWAP3 POP POP POP JUMP JUMPDEST PUSH1 0x0 DUP1 PUSH1 0x0 DUP1 PUSH2 0x21B0 DUP7 DUP12 DUP12 PUSH2 0x27DF JUMP JUMPDEST SWAP1 POP DUP8 PUSH1 0x1 PUSH1 0x1 PUSH1 0x80 SHL SUB AND DUP2 PUSH1 0x1 PUSH1 0x1 PUSH1 0x80 SHL SUB AND LT PUSH2 0x21D4 JUMPI PUSH1 0x0 SWAP2 POP PUSH2 0x21E1 JUMP JUMPDEST PUSH2 0x21DE DUP2 DUP10 PUSH2 0x2D59 JUMP JUMPDEST SWAP2 POP JUMPDEST DUP10 PUSH2 0x21EC JUMPI DUP5 PUSH2 0x21EE JUMP JUMPDEST DUP6 JUMPDEST SWAP4 POP DUP10 PUSH2 0x21FB JUMPI DUP6 PUSH2 0x21FD JUMP JUMPDEST DUP5 JUMPDEST PUSH1 0x1 PUSH1 0x1 PUSH1 0x80 SHL SUB SWAP1 SWAP8 AND SWAP1 SWAP11 MSTORE SWAP2 SWAP10 SWAP5 SWAP9 POP SWAP1 SWAP7 POP SWAP3 SWAP5 POP POP POP POP POP JUMP JUMPDEST PUSH1 0x0 DUP1 PUSH1 0x0 PUSH2 0x222A DUP8 PUSH2 0x1BA0 JUMP JUMPDEST SWAP1 POP PUSH2 0x223D DUP8 PUSH1 0x0 ADD MLOAD DUP3 DUP9 DUP9 DUP9 PUSH2 0x2815 JUMP JUMPDEST SWAP2 POP DUP5 ISZERO PUSH2 0x2261 JUMPI DUP7 MLOAD PUSH2 0x225C SWAP1 PUSH1 0x1 PUSH1 0x1 PUSH1 0x80 SHL SUB DUP4 AND SWAP1 DUP5 PUSH2 0x26F1 JUMP JUMPDEST PUSH2 0x2278 JUMP JUMPDEST DUP7 MLOAD PUSH2 0x2278 SWAP1 PUSH1 0x1 PUSH1 0x1 PUSH1 0x80 SHL SUB DUP4 AND SWAP1 DUP5 PUSH2 0x272A JUMP JUMPDEST SWAP3 POP POP SWAP5 POP SWAP5 SWAP3 POP POP POP JUMP JUMPDEST PUSH1 0x0 DUP1 PUSH2 0x2293 DUP7 DUP7 DUP7 DUP7 PUSH2 0x2760 JUMP JUMPDEST SWAP1 SWAP3 POP SWAP1 POP PUSH2 0x2194 PUSH1 0x4 DUP3 PUSH2 0x2C79 JUMP JUMPDEST PUSH1 0x0 DUP1 DUP3 PUSH1 0x0 SIGNEXTEND SLT ISZERO PUSH2 0x22BC JUMPI DUP2 PUSH1 0x0 SIGNEXTEND PUSH1 0x80 ADD PUSH2 0xA79 JUMP JUMPDEST POP PUSH1 0x80 ADD SWAP1 JUMP JUMPDEST PUSH1 0x0 PUSH1 0x80 DUP3 PUSH1 0xFF AND LT PUSH2 0x22D9 JUMPI PUSH1 0x80 DUP3 SUB PUSH2 0xA79 JUMP JUMPDEST POP PUSH1 0xFF AND PUSH1 0x7F NOT ADD SWAP1 JUMP JUMPDEST PUSH1 0x0 DUP3 DUP3 PUSH1 0x40 MLOAD PUSH1 0x20 ADD PUSH2 0x2305 SWAP3 SWAP2 SWAP1 SWAP2 DUP3 MSTORE PUSH1 0xF8 SHL PUSH1 0x20 DUP3 ADD MSTORE PUSH1 0x21 ADD SWAP1 JUMP JUMPDEST PUSH1 0x40 MLOAD PUSH1 0x20 DUP2 DUP4 SUB SUB DUP2 MSTORE SWAP1 PUSH1 0x40 MSTORE DUP1 MLOAD SWAP1 PUSH1 0x20 ADD KECCAK256 SWAP1 POP SWAP3 SWAP2 POP POP JUMP JUMPDEST PUSH1 0x0 PUSH1 0x1 PUSH1 0x30 SHL PUSH1 0x1 PUSH1 0x1 PUSH1 0x80 SHL SUB DUP1 DUP6 AND PUSH1 0x1 PUSH1 0x1 PUSH1 0x40 SHL SUB DUP6 AND DUP4 ADD MUL SWAP1 PUSH1 0x30 DUP3 SWAP1 SHR SWAP1 DUP2 GT ISZERO PUSH2 0xBC2 JUMPI PUSH1 0x1 PUSH1 0x1 PUSH1 0x80 SHL SUB SWAP4 POP POP POP POP PUSH2 0xA79 JUMP JUMPDEST DUP1 DUP3 ADD PUSH1 0x1 PUSH1 0x1 PUSH1 0x80 SHL SUB DUP1 DUP5 AND SWAP1 DUP3 AND LT ISZERO PUSH2 0xA79 JUMPI PUSH1 0x0 DUP1 REVERT JUMPDEST PUSH1 0x0 PUSH1 0x1 PUSH1 0x1 PUSH1 0x80 SHL SUB DUP3 AND PUSH1 0x1 PUSH1 0x40 SHL PUSH1 0x1 PUSH1 0xC0 SHL SUB PUSH1 0x40 DUP6 SWAP1 SHL AND DUP2 PUSH2 0x23A8 JUMPI PUSH2 0x23A8 PUSH2 0x2C17 JUMP JUMPDEST DIV SWAP4 SWAP3 POP POP POP JUMP JUMPDEST DUP1 PUSH1 0x1 PUSH1 0x1 PUSH1 0x80 SHL SUB DUP2 AND DUP2 EQ PUSH2 0x1DC2 JUMPI PUSH1 0x0 DUP1 REVERT JUMPDEST PUSH1 0x0 DUP6 PUSH1 0x1 PUSH1 0x1 PUSH1 0x80 SHL SUB AND PUSH1 0x0 SUB PUSH2 0x23E1 JUMPI POP PUSH1 0x0 PUSH2 0xBC2 JUMP JUMPDEST PUSH1 0x0 PUSH2 0x23EF DUP8 DUP8 DUP6 ISZERO PUSH2 0x24A0 JUMP JUMPDEST PUSH1 0x1 PUSH1 0x1 PUSH1 0x80 SHL SUB AND SWAP1 POP PUSH1 0x0 PUSH2 0x2407 DUP9 DUP9 DUP7 PUSH2 0x24A0 JUMP JUMPDEST PUSH1 0x1 PUSH1 0x1 PUSH1 0x80 SHL SUB AND SWAP1 POP PUSH1 0x0 DUP5 ISZERO ISZERO DUP7 ISZERO ISZERO EQ PUSH2 0x2430 JUMPI DUP7 PUSH1 0x1 PUSH1 0x1 PUSH1 0x80 SHL SUB AND DUP3 SUB PUSH2 0x243D JUMP JUMPDEST DUP7 PUSH1 0x1 PUSH1 0x1 PUSH1 0x80 SHL SUB AND DUP3 ADD JUMPDEST SWAP1 POP DUP1 PUSH1 0x0 SUB PUSH2 0x2459 JUMPI PUSH1 0x1 PUSH1 0x1 PUSH1 0x80 SHL SUB SWAP4 POP POP POP POP PUSH2 0xBC2 JUMP JUMPDEST PUSH1 0x0 DUP2 PUSH1 0x1 PUSH1 0x1 PUSH1 0x80 SHL SUB DUP12 AND DUP1 MUL DUP2 PUSH2 0x2475 JUMPI PUSH2 0x2475 PUSH2 0x2C17 JUMP JUMPDEST DIV SWAP1 POP PUSH2 0x2492 DUP5 DUP3 GT PUSH2 0x248A JUMPI DUP2 DUP6 SUB PUSH2 0x23B0 JUMP JUMPDEST DUP5 DUP3 SUB PUSH2 0x23B0 JUMP JUMPDEST SWAP11 SWAP10 POP POP POP POP POP POP POP POP POP POP JUMP JUMPDEST PUSH1 0x0 PUSH2 0xFFC DUP3 PUSH2 0x24C2 JUMPI PUSH2 0x24B4 DUP6 DUP6 PUSH2 0x237E JUMP JUMPDEST PUSH1 0x1 PUSH1 0x1 PUSH1 0xC0 SHL SUB AND PUSH2 0x23B0 JUMP JUMPDEST PUSH1 0x1 PUSH1 0x1 PUSH1 0x80 SHL SUB DUP1 DUP7 AND SWAP1 DUP6 AND MUL PUSH1 0x40 SHR PUSH2 0x24B4 JUMP JUMPDEST PUSH1 0x0 PUSH1 0x1 PUSH1 0x1 PUSH1 0x80 SHL SUB DUP4 AND ISZERO DUP1 PUSH2 0x2502 JUMPI POP DUP3 PUSH1 0x1 PUSH1 0x1 PUSH1 0x80 SHL SUB AND DUP3 PUSH1 0x1 PUSH1 0x1 PUSH1 0x80 SHL SUB AND GT JUMPDEST ISZERO PUSH2 0x250F JUMPI POP PUSH1 0x0 PUSH2 0xA79 JUMP JUMPDEST PUSH1 0x0 PUSH2 0x251B DUP4 DUP6 PUSH2 0x2C2D JUMP JUMPDEST SWAP1 POP PUSH1 0x0 PUSH2 0x2532 PUSH1 0x1 PUSH1 0x1 PUSH1 0x80 SHL SUB DUP4 AND DUP7 PUSH2 0x289F JUMP JUMPDEST SWAP1 POP PUSH2 0x2546 DUP2 PUSH1 0x1 PUSH1 0x1 PUSH1 0x40 SHL SUB AND PUSH2 0x2925 JUMP JUMPDEST SWAP3 POP PUSH1 0x1 PUSH1 0x30 SHL DUP4 PUSH1 0x1 PUSH1 0x1 PUSH1 0x40 SHL SUB AND LT PUSH2 0x2589 JUMPI PUSH1 0x40 MLOAD PUSH3 0x461BCD PUSH1 0xE5 SHL DUP2 MSTORE PUSH1 0x20 PUSH1 0x4 DUP3 ADD MSTORE PUSH1 0x2 PUSH1 0x24 DUP3 ADD MSTORE PUSH2 0x24A3 PUSH1 0xF1 SHL PUSH1 0x44 DUP3 ADD MSTORE PUSH1 0x64 ADD PUSH2 0x1557 JUMP JUMPDEST POP POP SWAP3 SWAP2 POP POP JUMP JUMPDEST PUSH1 0x0 PUSH1 0x1 PUSH1 0x30 SHL PUSH1 0x1 PUSH1 0x1 PUSH1 0x40 SHL SUB DUP5 AND DUP2 ADD DUP4 ISZERO PUSH2 0x25C7 JUMPI PUSH1 0x1 PUSH1 0x1 PUSH1 0x80 SHL SUB DUP7 AND DUP2 MUL PUSH1 0x30 DUP2 SWAP1 SHR PUSH2 0x1C1C PUSH1 0x1 DUP3 ADD PUSH2 0x23B0 JUMP JUMPDEST PUSH7 0x1000000000000 PUSH1 0x1 PUSH1 0xB0 SHL SUB PUSH1 0x30 DUP8 SWAP1 SHL AND DUP2 DUP2 DUP2 PUSH2 0x25EA JUMPI PUSH2 0x25EA PUSH2 0x2C17 JUMP JUMPDEST DIV SWAP4 POP POP POP POP PUSH2 0x637 JUMP JUMPDEST PUSH1 0x0 PUSH1 0x1 PUSH1 0x30 SHL PUSH1 0x1 PUSH1 0x1 PUSH1 0x40 SHL SUB DUP5 DUP2 AND DUP3 ADD DUP2 DUP6 AND DUP4 ADD MUL SWAP1 PUSH1 0x30 DUP3 SWAP1 SHR SWAP1 PUSH6 0xFFFFFFFFFFFF NOT DUP3 ADD SWAP1 DUP2 LT PUSH2 0x1899 JUMPI PUSH1 0x1 PUSH1 0x1 PUSH1 0x40 SHL SUB SWAP5 POP POP POP POP POP PUSH2 0xA79 JUMP JUMPDEST PUSH1 0x0 PUSH1 0x1 PUSH1 0x30 SHL PUSH1 0x1 PUSH1 0x1 PUSH1 0x40 SHL SUB DUP4 AND DUP2 ADD PUSH14 0xFFFFFFFFFFFFFFFF000000000000 PUSH1 0x30 DUP7 SWAP1 SHL AND DUP4 DUP3 DUP3 DUP2 PUSH2 0x2672 JUMPI PUSH2 0x2672 PUSH2 0x2C17 JUMP JUMPDEST DIV SWAP8 SWAP7 POP POP POP POP POP POP POP JUMP JUMPDEST PUSH1 0x1 PUSH1 0x1 PUSH1 0x40 SHL SUB AND PUSH1 0x1 PUSH1 0x1 PUSH1 0x80 SHL SUB SWAP2 SWAP1 SWAP2 AND MUL PUSH1 0x30 SHR SWAP1 JUMP JUMPDEST PUSH1 0x0 DUP2 PUSH1 0x1 PUSH1 0x1 PUSH1 0x80 SHL SUB AND PUSH1 0x0 SUB PUSH2 0x26B5 JUMPI POP PUSH1 0x0 PUSH2 0xA79 JUMP JUMPDEST PUSH2 0x26C0 DUP3 PUSH1 0x1 PUSH2 0x2C2D JUMP JUMPDEST PUSH1 0x1 PUSH1 0x1 PUSH1 0x80 SHL SUB AND DUP3 PUSH1 0x1 PUSH1 0x1 PUSH1 0x80 SHL SUB AND DUP5 PUSH1 0x1 PUSH1 0x1 PUSH1 0x40 SHL SUB AND PUSH2 0x26E7 SWAP2 SWAP1 PUSH2 0x2D79 JUMP JUMPDEST PUSH2 0x637 SWAP2 SWAP1 PUSH2 0x2D90 JUMP JUMPDEST PUSH1 0x0 DUP3 PUSH1 0x1 PUSH1 0x1 PUSH1 0x80 SHL SUB AND DUP3 PUSH1 0x1 PUSH1 0x1 PUSH1 0x80 SHL SUB AND GT ISZERO PUSH2 0x271F JUMPI PUSH2 0x2718 DUP5 DUP4 DUP6 PUSH2 0x2964 JUMP JUMPDEST SWAP1 POP PUSH2 0x637 JUMP JUMPDEST PUSH2 0x2718 DUP5 DUP5 DUP5 PUSH2 0x2964 JUMP JUMPDEST PUSH1 0x0 DUP1 DUP3 PUSH1 0x1 PUSH1 0x1 PUSH1 0x80 SHL SUB AND DUP5 PUSH1 0x1 PUSH1 0x1 PUSH1 0x80 SHL SUB AND GT PUSH2 0x274E JUMPI DUP4 DUP4 SUB PUSH2 0x2752 JUMP JUMPDEST DUP3 DUP5 SUB JUMPDEST SWAP1 POP PUSH2 0xBC2 DUP6 DUP3 PUSH1 0x1 PUSH2 0x24A0 JUMP JUMPDEST PUSH1 0x0 DUP1 DUP3 ISZERO ISZERO DUP5 ISZERO ISZERO SUB PUSH2 0x27A5 JUMPI PUSH2 0x2780 DUP7 PUSH1 0x1 PUSH1 0x1 PUSH1 0x80 SHL SUB AND PUSH2 0x20A5 JUMP JUMPDEST PUSH2 0x2792 DUP7 PUSH1 0x1 PUSH1 0x1 PUSH1 0x80 SHL SUB AND PUSH2 0x20A5 JUMP JUMPDEST PUSH2 0x279B SWAP1 PUSH2 0x2DA4 JUMP JUMPDEST SWAP1 SWAP3 POP SWAP1 POP PUSH2 0x12AB JUMP JUMPDEST PUSH2 0x27B7 DUP7 PUSH1 0x1 PUSH1 0x1 PUSH1 0x80 SHL SUB AND PUSH2 0x20A5 JUMP JUMPDEST PUSH2 0x27C0 SWAP1 PUSH2 0x2DA4 JUMP JUMPDEST PUSH2 0x27D2 DUP7 PUSH1 0x1 PUSH1 0x1 PUSH1 0x80 SHL SUB AND PUSH2 0x20A5 JUMP JUMPDEST SWAP1 SWAP8 SWAP1 SWAP7 POP SWAP5 POP POP POP POP POP JUMP JUMPDEST PUSH1 0x0 DUP1 DUP3 ISZERO ISZERO DUP5 ISZERO ISZERO EQ PUSH2 0x27FB JUMPI PUSH2 0x27F6 DUP6 PUSH2 0x2DA4 JUMP JUMPDEST PUSH2 0x27FD JUMP JUMPDEST DUP5 JUMPDEST SWAP1 POP PUSH1 0x0 DUP2 PUSH1 0xF SIGNEXTEND SLT ISZERO PUSH2 0xFFC JUMPI PUSH1 0x0 SWAP2 POP POP PUSH2 0x637 JUMP JUMPDEST PUSH1 0x0 DUP1 DUP4 PUSH2 0x282E JUMPI PUSH2 0x2829 DUP8 DUP8 DUP8 DUP7 PUSH2 0x29C0 JUMP JUMPDEST PUSH2 0x283A JUMP JUMPDEST PUSH2 0x283A DUP8 DUP8 DUP8 DUP7 PUSH2 0x2A1E JUMP JUMPDEST SWAP1 POP PUSH16 0xFFFF5433E2B3D8211706E6102AA9472 PUSH1 0x1 PUSH1 0x1 PUSH1 0x80 SHL SUB DUP3 AND LT PUSH2 0x287F JUMPI PUSH2 0x2877 PUSH1 0x1 PUSH16 0xFFFF5433E2B3D8211706E6102AA9472 PUSH2 0x2D59 JUMP JUMPDEST SWAP2 POP POP PUSH2 0xBC2 JUMP JUMPDEST PUSH3 0x10002 PUSH1 0x1 PUSH1 0x1 PUSH1 0x80 SHL SUB DUP3 AND LT ISZERO PUSH2 0x1899 JUMPI PUSH3 0x10002 SWAP2 POP POP PUSH2 0xBC2 JUMP JUMPDEST PUSH1 0x0 PUSH1 0x1 PUSH1 0x1 PUSH1 0xD0 SHL SUB PUSH1 0x1 PUSH1 0x1 PUSH1 0x80 SHL SUB DUP5 AND LT DUP1 ISZERO PUSH2 0x28D2 JUMPI POP DUP2 PUSH1 0x1 PUSH1 0x1 PUSH1 0x80 SHL SUB AND DUP4 PUSH1 0x1 PUSH1 0x1 PUSH1 0x80 SHL SUB AND LT ISZERO JUMPDEST PUSH2 0x28DB JUMPI PUSH1 0x0 DUP1 REVERT JUMPDEST PUSH1 0x1 PUSH1 0x30 SHL PUSH7 0x1000000000000 PUSH1 0x1 PUSH1 0xB0 SHL SUB PUSH1 0x30 DUP6 SWAP1 SHL AND PUSH1 0x0 DUP3 PUSH1 0x1 PUSH1 0x1 PUSH1 0x80 SHL SUB DUP7 AND DUP4 DUP2 PUSH2 0x290F JUMPI PUSH2 0x290F PUSH2 0x2C17 JUMP JUMPDEST DIV SUB SWAP1 POP DUP3 DUP2 LT PUSH2 0xBC2 JUMPI DUP3 SWAP4 POP POP POP POP PUSH2 0xA79 JUMP JUMPDEST PUSH1 0x0 PUSH1 0x1 PUSH1 0x30 SHL DUP3 PUSH1 0x1 PUSH1 0x1 PUSH1 0x40 SHL SUB AND LT PUSH2 0x2940 JUMPI PUSH1 0x0 DUP1 REVERT JUMPDEST POP PUSH1 0x1 PUSH1 0x1 PUSH1 0x40 SHL SUB DUP2 AND DUP1 MUL PUSH1 0x33 SHR PUSH1 0x1 SWAP2 SWAP1 SWAP2 SHR PUSH8 0x7FFFFFFFFFFFFFFF AND SUB SWAP1 JUMP JUMPDEST PUSH1 0x0 DUP1 PUSH2 0x2971 DUP4 DUP6 PUSH2 0x2D59 JUMP JUMPDEST SWAP1 POP PUSH1 0x0 PUSH2 0x297F DUP7 DUP6 PUSH2 0x237E JUMP JUMPDEST PUSH1 0x1 PUSH1 0x1 PUSH1 0xC0 SHL SUB AND SWAP1 POP PUSH1 0x0 DUP6 PUSH1 0x1 PUSH1 0x1 PUSH1 0x80 SHL SUB AND DUP4 PUSH1 0x1 PUSH1 0x1 PUSH1 0x80 SHL SUB AND DUP4 PUSH2 0x29AB SWAP2 SWAP1 PUSH2 0x2D79 JUMP JUMPDEST PUSH2 0x29B5 SWAP2 SWAP1 PUSH2 0x2D90 JUMP JUMPDEST SWAP1 POP PUSH2 0x1F66 DUP2 PUSH2 0x23B0 JUMP JUMPDEST PUSH1 0x0 DUP1 PUSH2 0x29CC DUP7 PUSH2 0x2AC8 JUMP JUMPDEST SWAP1 POP PUSH1 0x0 PUSH2 0x29DD DUP3 DUP8 DUP8 DUP8 ISZERO PUSH2 0x2A1E JUMP JUMPDEST SWAP1 POP DUP1 PUSH1 0x1 PUSH1 0x1 PUSH1 0x80 SHL SUB AND PUSH1 0x0 SUB PUSH2 0x2A0A JUMPI PUSH16 0xFFFF5433E2B3D8211706E6102AA9472 SWAP3 POP POP POP PUSH2 0xFFC JUMP JUMPDEST PUSH2 0x2A13 DUP2 PUSH2 0x2AC8 JUMP JUMPDEST PUSH2 0x1F66 SWAP1 PUSH1 0x1 PUSH2 0x2C2D JUMP JUMPDEST PUSH1 0x0 DUP4 PUSH1 0x1 PUSH1 0x1 PUSH1 0x80 SHL SUB AND PUSH1 0x0 SUB PUSH2 0x2A3F JUMPI POP PUSH1 0x1 PUSH1 0x1 PUSH1 0x80 SHL SUB PUSH2 0xFFC JUMP JUMPDEST PUSH1 0x0 PUSH2 0x2A4B DUP5 DUP7 PUSH2 0x237E JUMP JUMPDEST SWAP1 POP PUSH1 0x1 PUSH1 0x1 PUSH1 0x80 SHL SUB PUSH1 0x1 PUSH1 0x1 PUSH1 0xC0 SHL SUB DUP3 AND GT ISZERO PUSH2 0x2A75 JUMPI PUSH1 0x1 PUSH1 0x1 PUSH1 0x80 SHL SUB SWAP2 POP POP PUSH2 0xFFC JUMP JUMPDEST DUP1 DUP4 ISZERO PUSH2 0x2A8F JUMPI PUSH2 0x2A86 DUP2 DUP9 PUSH2 0x2C2D JUMP JUMPDEST SWAP3 POP POP POP PUSH2 0xFFC JUMP JUMPDEST DUP7 PUSH1 0x1 PUSH1 0x1 PUSH1 0x80 SHL SUB AND DUP2 PUSH1 0x1 PUSH1 0x1 PUSH1 0x80 SHL SUB AND LT PUSH2 0x2AB3 JUMPI PUSH1 0x0 SWAP3 POP POP POP PUSH2 0xFFC JUMP JUMPDEST PUSH2 0x2ABE DUP2 PUSH1 0x1 PUSH2 0x2C2D JUMP JUMPDEST PUSH2 0x2A86 SWAP1 DUP9 PUSH2 0x2D59 JUMP JUMPDEST PUSH1 0x0 DUP1 DUP3 PUSH1 0x1 PUSH1 0x1 PUSH1 0x80 SHL SUB AND PUSH1 0x1 PUSH1 0x80 SHL DUP2 PUSH2 0x2AE7 JUMPI PUSH2 0x2AE7 PUSH2 0x2C17 JUMP JUMPDEST DIV SWAP1 POP PUSH1 0x1 PUSH1 0x1 PUSH1 0x80 SHL SUB DUP2 GT ISZERO PUSH2 0xA79 JUMPI PUSH1 0x0 DUP1 REVERT JUMPDEST DUP1 CALLDATALOAD PUSH1 0x1 PUSH1 0x1 PUSH1 0xA0 SHL SUB DUP2 AND DUP2 EQ PUSH2 0x1DC2 JUMPI PUSH1 0x0 DUP1 REVERT JUMPDEST DUP1 CALLDATALOAD DUP1 ISZERO ISZERO DUP2 EQ PUSH2 0x1DC2 JUMPI PUSH1 0x0 DUP1 REVERT JUMPDEST DUP1 CALLDATALOAD PUSH1 0x1 PUSH1 0x1 PUSH1 0x80 SHL SUB DUP2 AND DUP2 EQ PUSH2 0x1DC2 JUMPI PUSH1 0x0 DUP1 REVERT JUMPDEST PUSH1 0x0 DUP1 PUSH1 0x0 DUP1 PUSH1 0x0 DUP1 PUSH1 0x0 DUP1 PUSH2 0x100 DUP10 DUP12 SUB SLT ISZERO PUSH2 0x2B59 JUMPI PUSH1 0x0 DUP1 REVERT JUMPDEST PUSH2 0x2B62 DUP10 PUSH2 0x2AFE JUMP JUMPDEST SWAP8 POP PUSH2 0x2B70 PUSH1 0x20 DUP11 ADD PUSH2 0x2AFE JUMP JUMPDEST SWAP7 POP PUSH1 0x40 DUP10 ADD CALLDATALOAD SWAP6 POP PUSH2 0x2B85 PUSH1 0x60 DUP11 ADD PUSH2 0x2B15 JUMP JUMPDEST SWAP5 POP PUSH2 0x2B93 PUSH1 0x80 DUP11 ADD PUSH2 0x2B15 JUMP JUMPDEST SWAP4 POP PUSH2 0x2BA1 PUSH1 0xA0 DUP11 ADD PUSH2 0x2B25 JUMP JUMPDEST SWAP3 POP PUSH1 0xC0 DUP10 ADD CALLDATALOAD PUSH2 0xFFFF DUP2 AND DUP2 EQ PUSH2 0x2BB8 JUMPI PUSH1 0x0 DUP1 REVERT JUMPDEST SWAP2 POP PUSH2 0x2BC6 PUSH1 0xE0 DUP11 ADD PUSH2 0x2B25 JUMP JUMPDEST SWAP1 POP SWAP3 SWAP6 SWAP9 POP SWAP3 SWAP6 SWAP9 SWAP1 SWAP4 SWAP7 POP JUMP JUMPDEST PUSH1 0x0 PUSH1 0x20 DUP3 DUP5 SUB SLT ISZERO PUSH2 0x2BE7 JUMPI PUSH1 0x0 DUP1 REVERT JUMPDEST POP MLOAD SWAP2 SWAP1 POP JUMP JUMPDEST PUSH4 0x4E487B71 PUSH1 0xE0 SHL PUSH1 0x0 MSTORE PUSH1 0x11 PUSH1 0x4 MSTORE PUSH1 0x24 PUSH1 0x0 REVERT JUMPDEST DUP1 DUP3 ADD DUP1 DUP3 GT ISZERO PUSH2 0xA79 JUMPI PUSH2 0xA79 PUSH2 0x2BEE JUMP JUMPDEST PUSH4 0x4E487B71 PUSH1 0xE0 SHL PUSH1 0x0 MSTORE PUSH1 0x12 PUSH1 0x4 MSTORE PUSH1 0x24 PUSH1 0x0 REVERT JUMPDEST PUSH1 0x1 PUSH1 0x1 PUSH1 0x80 SHL SUB DUP2 DUP2 AND DUP4 DUP3 AND ADD SWAP1 DUP1 DUP3 GT ISZERO PUSH2 0x2C4D JUMPI PUSH2 0x2C4D PUSH2 0x2BEE JUMP JUMPDEST POP SWAP3 SWAP2 POP POP JUMP JUMPDEST PUSH1 0x2 DUP3 DUP2 SIGNEXTEND SWAP1 DUP3 SWAP1 SIGNEXTEND SUB PUSH3 0x7FFFFF NOT DUP2 SLT PUSH3 0x7FFFFF DUP3 SGT OR ISZERO PUSH2 0xA79 JUMPI PUSH2 0xA79 PUSH2 0x2BEE JUMP JUMPDEST PUSH1 0xF DUP2 DUP2 SIGNEXTEND SWAP1 DUP4 SWAP1 SIGNEXTEND ADD PUSH1 0x1 PUSH1 0x1 PUSH1 0x7F SHL SUB DUP2 SGT PUSH16 0x7FFFFFFFFFFFFFFFFFFFFFFFFFFFFFFF NOT DUP3 SLT OR ISZERO PUSH2 0xA79 JUMPI PUSH2 0xA79 PUSH2 0x2BEE JUMP JUMPDEST PUSH1 0x0 DUP3 PUSH1 0x2 SIGNEXTEND DUP1 PUSH2 0x2CC2 JUMPI PUSH2 0x2CC2 PUSH2 0x2C17 JUMP JUMPDEST DUP1 DUP4 PUSH1 0x2 SIGNEXTEND SMOD SWAP2 POP POP SWAP3 SWAP2 POP POP JUMP JUMPDEST PUSH1 0x1 DUP2 DUP2 SIGNEXTEND SWAP1 DUP4 SWAP1 SIGNEXTEND ADD PUSH2 0x7FFF DUP2 SGT PUSH2 0x7FFF NOT DUP3 SLT OR ISZERO PUSH2 0xA79 JUMPI PUSH2 0xA79 PUSH2 0x2BEE JUMP JUMPDEST PUSH1 0x0 DUP3 PUSH1 0x1 SIGNEXTEND DUP1 PUSH2 0x2D07 JUMPI PUSH2 0x2D07 PUSH2 0x2C17 JUMP JUMPDEST DUP1 DUP4 PUSH1 0x1 SIGNEXTEND SMOD SWAP2 POP POP SWAP3 SWAP2 POP POP JUMP JUMPDEST PUSH1 0x1 PUSH1 0x1 PUSH1 0x80 SHL SUB DUP2 DUP2 AND DUP4 DUP3 AND MUL DUP1 DUP3 AND SWAP2 SWAP1 DUP3 DUP2 EQ PUSH2 0x2589 JUMPI PUSH2 0x2589 PUSH2 0x2BEE JUMP JUMPDEST PUSH1 0x1 PUSH1 0x1 PUSH1 0x40 SHL SUB DUP2 DUP2 AND DUP4 DUP3 AND ADD SWAP1 DUP1 DUP3 GT ISZERO PUSH2 0x2C4D JUMPI PUSH2 0x2C4D PUSH2 0x2BEE JUMP JUMPDEST PUSH1 0x1 PUSH1 0x1 PUSH1 0x80 SHL SUB DUP3 DUP2 AND DUP3 DUP3 AND SUB SWAP1 DUP1 DUP3 GT ISZERO PUSH2 0x2C4D JUMPI PUSH2 0x2C4D PUSH2 0x2BEE JUMP JUMPDEST DUP1 DUP3 MUL DUP2 ISZERO DUP3 DUP3 DIV DUP5 EQ OR PUSH2 0xA79 JUMPI PUSH2 0xA79 PUSH2 0x2BEE JUMP JUMPDEST PUSH1 0x0 DUP3 PUSH2 0x2D9F JUMPI PUSH2 0x2D9F PUSH2 0x2C17 JUMP JUMPDEST POP DIV SWAP1 JUMP JUMPDEST PUSH1 0x0 DUP2 PUSH1 0xF SIGNEXTEND PUSH1 0x1 PUSH1 0x1 PUSH1 0x7F SHL SUB NOT DUP2 SUB PUSH2 0x2DC1 JUMPI PUSH2 0x2DC1 PUSH2 0x2BEE JUMP JUMPDEST PUSH1 0x0 SUB SWAP3 SWAP2 POP POP JUMP INVALID LOG2 PUSH5 0x6970667358 0x22 SLT KECCAK256 LOG3 SWAP1 RETURNDATASIZE 0xB7 0x2C SUB PUSH11 0xE19085E44FDE9ED2A7DB2C 0xFB SDIV SWAP12 0xBE 0xC3 PUSH5 0x32A91D3DF2 0xDE DUP10 0xDD PUSH5 0x736F6C6343 STOP ADDMOD SGT STOP CALLER "
		},
		"gasEstimates": {
			"creation": {
				"codeDepositCost": "2355200",
				"executionCost": "infinite",
				"totalCost": "infinite"
			},
			"external": {
				"calcImpact(address,address,uint256,bool,bool,uint128,uint16,uint128)": "infinite",
				"dex_()": "infinite"
			},
			"internal": {
				"adjTickLiq(struct Chaining.PairFlow memory,int24,struct CurveMath.CurveState memory,struct Directives.SwapDirective memory,bytes32)": "infinite",
				"doesSpillBit(bool,bool,uint256)": "827",
				"encodeMezz(bytes32,int24)": "infinite",
				"encodeMezzWord(bytes32,int8)": "infinite",
				"encodeMezzWord(bytes32,uint8)": "infinite",
				"encodeTerm(bytes32,int24)": "infinite",
				"encodeTermWord(bytes32,uint8,uint8)": "infinite",
				"hasSwapLeft(struct CurveMath.CurveState memory,struct Directives.SwapDirective memory)": "infinite",
				"pinBitmap(bytes32,bool,int24)": "infinite",
				"pinTermMezz(bool,uint16,int16,uint256)": "infinite",
				"queryCurve(address,address,uint256)": "infinite",
				"queryLevel(bytes32,int24)": "infinite",
				"queryMezz(bytes32)": "infinite",
				"queryPoolCntx(address,address,uint256,uint16)": "infinite",
				"queryTerminus(bytes32)": "infinite",
				"rootsForBorder(int24,bool)": "infinite",
				"seekAtMezz(bytes32,uint8,uint8,bool)": "infinite",
				"seekAtTerm(bytes32,uint8,uint8,bool)": "infinite",
				"seekLobbyDown(bytes32,uint8)": "infinite",
				"seekLobbyUp(bytes32,uint8)": "infinite",
				"seekMezzSpill(bytes32,int24,bool)": "infinite",
				"seekOverLobby(bytes32,uint8,bool)": "infinite",
				"spillOverPin(bool,int16)": "infinite",
				"sweepSwap(struct PoolSpecs.PoolCursor memory,struct CurveMath.CurveState memory,struct Directives.SwapDirective memory)": "infinite"
			}
		},
		"methodIdentifiers": {
			"calcImpact(address,address,uint256,bool,bool,uint128,uint16,uint128)": "4a6c44bf",
			"dex_()": "87834a0e"
		}
	},
	"abi": [
		{
			"inputs": [
				{
					"internalType": "address",
					"name": "dex",
					"type": "address"
				}
			],
			"stateMutability": "nonpayable",
			"type": "constructor"
		},
		{
			"inputs": [
				{
					"internalType": "address",
					"name": "base",
					"type": "address"
				},
				{
					"internalType": "address",
					"name": "quote",
					"type": "address"
				},
				{
					"internalType": "uint256",
					"name": "poolIdx",
					"type": "uint256"
				},
				{
					"internalType": "bool",
					"name": "isBuy",
					"type": "bool"
				},
				{
					"internalType": "bool",
					"name": "inBaseQty",
					"type": "bool"
				},
				{
					"internalType": "uint128",
					"name": "qty",
					"type": "uint128"
				},
				{
					"internalType": "uint16",
					"name": "poolTip",
					"type": "uint16"
				},
				{
					"internalType": "uint128",
					"name": "limitPrice",
					"type": "uint128"
				}
			],
			"name": "calcImpact",
			"outputs": [
				{
					"internalType": "int128",
					"name": "baseFlow",
					"type": "int128"
				},
				{
					"internalType": "int128",
					"name": "quoteFlow",
					"type": "int128"
				},
				{
					"internalType": "uint128",
					"name": "finalPrice",
					"type": "uint128"
				}
			],
			"stateMutability": "view",
			"type": "function"
		},
		{
			"inputs": [],
			"name": "dex_",
			"outputs": [
				{
					"internalType": "address",
					"name": "",
					"type": "address"
				}
			],
			"stateMutability": "view",
			"type": "function"
		}
	]
}